:020000042000DA
:1000040040BA704740BA704740BA704740BA704728
:1000140040BA704740BA704740BA704740BA704718
:1000240040BA704740BA704740BA704740BA704708
:10003400C0BA7047C0BA7047C0BA7047C0BA7047F8
:10004400C0BA7047C0BA7047C0BA7047C0BA7047E8
:10005400C0BA7047C0BA7047C0BA7047C0BA7047D8
:100064004FEA3000704700004FEA3000704700004C
:100074004FEA3000704700004FEA3000704700003C
:100084004FEA3000704700004FEA3000704700002C
:100094004FEA3000704700004FEA3000704700001C
:1000A4004FEA3000704700004FEA3000704700000C
:1000B4004FEA3000704700004FEA300070470000FC
:1000C40010B504464FF48070FE4949448861062007
:1000D40008600020C861086248624861C862086319
:1000E400486341F28832F848484401F060FE08B1A0
:1000F400002010BD0220F5494944086048600020F2
:1001040008610120C86010208860800448610520CF
:10011400EC49494408604FF08070486201208862CD
:1001240041F28833E94A4A44E748484402F0B1F8C6
:1001340008B10020DDE70120DBE738B504464FF4C1
:100144008070E04949448861852008600020C861C6
:1001540008624FF08070486200204861C8620863FA
:1001640048630120886241F28832D748484401F04C
:100174001EFE08B1002038BD41F288326946D248DB
:10018400484401F07BFF08B10020F4E7CE4848441E
:10019400FFF796FF08B90020EDE78120C9494944DB
:1001A40008609DF8000020F0F0000A21F02292FA85
:1001B400A2F2B2FA82F291400843C0B2009041F236
:1001C4008832C0494944C048484401F0F0FD08B1B0
:1001D4000020D0E741F288326946BB48484401F028
:1001E400E0FE08B10020C6E70120C4E71CB50024E6
:1001F400002C2ED1B4484844FFF79FFF012801D0BA
:1002040000201CBD4FF48070AE4949448861400110
:10021400C860002008620861C862086348634FF43C
:100224004060C861002048604FF040704862002080
:100234008862EB2008600A204861002001906A4629
:10024400A148484402F0F7F808B10020D9E7012496
:1002540000BF0120D5E710B504464FF480709949DA
:1002640049448861052008600020C86108624FF095
:100274008070486200204861C862086348639349FB
:100284004944086001204860002008610120C860DA
:10029400102088608004486141F288330A46894905
:1002A40049448948484401F0F4FF08B1002010BDD6
:1002B4000120FCE700BF844949440968896801F0CA
:1002C40020010029F7D142F266117F4A4A4412689C
:1002D400516100217C4A4A44126891617A4A4A4435
:1002E4001268D161784A4A441268116100BF00BFA4
:1002F40000BFBFF34F8F00BF00BF00BF00BF7249F4
:1003040049440968896801F020010029F7D142F2C3
:1003140099116D4A4A441268516100216A4A4A445B
:1003240012689161684A4A441268D161664A4A4433
:100334001268116100BF00BF00BFBFF34F8F00BF41
:1003440000BF00BF00BF604949440968896801F0E3
:1003540020010029F7D142F266215B4A4A4412681F
:1003640051610021584A4A4412689161564A4A44EC
:100374001268D161544A4A441268116100BF00BF37
:1003840000BFBFF34F8F00BF00BF00BF00BF4E4987
:1003940049440968896801F020010029F7D142F233
:1003A4009921494A4A44126851610021464A4A4403
:1003B40012689161444A4A441268D161424A4A44EB
:1003C4001268116100BF00BF00BFBFF34F8F00BFB1
:1003D40000BF00BF00BF3C4949440968896801F077
:1003E40020010029F7D142F26631374A4A441268A3
:1003F40051610021344A4A4412689161324A4A44A4
:100404001268D161304A4A441268116100BF00BFCA
:1004140000BFBFF34F8F00BF00BF00BF00BF2A491A
:1004240049440968896801F020010029F7D142F2A2
:100434009931254A4A44126851610021224A4A44AA
:1004440012689161204A4A441268D1611E4A4A44A2
:100454001268116100BF00BF00BFBFF34F8F00BF20
:1004640000BF00BF704710B592B000240120019076
:10047400000402900220079041050891042109918B
:10048400C8210A9102210B910C9101A802F02BF9C9
:1004940004460CB100BFFEE701F08EF904460CB12E
:1004A40000BFFEE70F200D9002200E9000200F9059
:1004B4004FF4A05010904FF48050119006210DA8D5
:1004C40006E0000060000000140000009800000036
:1004D40002F0A3FB04460CB100BFFEE712B010BD4E
:1004E40010B5044603F0FEFFFFF7BDFF4C21FB48A7
:1004F400484404F0C7F83821F948484404F0C2F8E5
:100504001821F848484404F0BDF8F748F349494431
:100514000860084601F034FB0220F0494944486071
:100524000421EE48484481601021C1601721016113
:100534004FF480714161002181610162C16101F068
:10054400B6FA08B1002010BDE4484844FFF7B2FEF3
:10055400E2484844FFF77FFE012801D00020F2E77B
:100564002CB9FFF743FE012801D00020EBE701205E
:10057400E9E710B58EB004464FF480700690D82099
:1005840000904FF480600790C000039024F0704006
:10059400019000200890099005900B900C900D900C
:1005A400CE484844FFF78CFD012802D000200EB04D
:1005B40010BD41F288326946C848484401F0F7FB4F
:1005C40008B10020F3E7C5484844FFF744FE01287A
:1005D40001D00020EBE70120E9E770B504460D46A1
:1005E400A0B2241A0AE024F070463046FFF7C1FF97
:1005F400012801D0002070BD04F58034A542F2D258
:100604000120F8E770B58EB004460D4616464FF447
:1006140080700690122000904FF4406007904FF4D1
:1006240000500390002008904FF040700990002083
:1006340005900B900C900D9024F0704001900A9559
:10064400A6484844FFF73CFD012802D000200EB024
:1006540070BD41F288326946A048484401F0A7FBC6
:1006640008B10020F3E741F2883231469B48484400
:1006740001F097FC08B10020E9E798484844FFF7E7
:10068400EAFD012801D00020E1E70120DFE72DE9A0
:10069400FC4D06460D4692464FF0000B0027002005
:1006A4000190002400908046F0B201900198C0F5BA
:1006B40080744FEA152BEFB2019820BBBBF1000FF9
:1006C40006D1A846524641463046FFF79BFF5CE000
:1006D4000AE04FF48078524641463046FFF792FFD5
:1006E40006F580760AF5807ABBF10000ABF1010BC8
:1006F400EFD1B846B8F1000F47D0524641463046D4
:10070400FFF780FF41E0BBF1000F1AD1A74211D9D6
:10071400381B0090A046524641463046FFF772FF10
:100724002644A244DDF80080524641463046FFF795
:1007340069FF2AE0A846524641463046FFF762FF69
:1007440023E02D1B4FEA152BEFB2A046524641463B
:100754003046FFF757FF2644A2440AE04FF480785E
:10076400524641463046FFF74DFF06F580760AF5BE
:10077400807ABBF10000ABF1010BEFD12FB1B84689
:10078400524641463046FFF73DFF0120BDE8FC8D4F
:100794002DE9F04104460E4615460027FFF726FDD5
:1007A40000BF04E0207805F8010B641C7F1CB742ED
:1007B400F8D30120BDE8F08101460020704701B55F
:1007C400002000E0401C40F62F5200995143B0EB4A
:1007D400811FF7D308BDF0B504460B4604F00305AA
:1007E400DEB204F00300241A03F0030008B9002069
:1007F40003E003F00300C0F104000344002755E0C4
:100804002168FDB1012D04D0022D0DD0032D18D186
:1008140012E0C1F307200244C1F30740024402EB93
:100824001162681EC5B20CE0C1F30740024402EB3A
:100834001162A81EC5B204E002EB1162E81EC5B243
:1008440000BF31E0981B00F0030018B3D81B042844
:1008540020D8981B012804D002280DD0032818D1D1
:1008640012E0C8B20244C1F307200244C1F30740B6
:100874000244701EC6B20CE0C8B20244C1F30720A1
:100884000244B01EC6B204E0C8B20244F01EC6B2AE
:1008940000BF09E0C8B20244C1F307200244C1F317
:1008A4000740024402EB1162241D3F1D9F42A7D35F
:1008B4001046F0BD2DE9D84D06468B4617469A469C
:1008C4004FF0000800200090BF00FFF78FFC0128C4
:1008D4000CD000200146BDE8D88D000014000000B3
:1008E4006000000098000000001000A0CAF303425A
:1008F400B91A0AF00F029019009AFFF76CFF044628
:100904000EE016F8011B1BF80800814206D00022F5
:1009140006EB0800101844EB0201DCE708F10108BB
:100924004745EED821460020D5E7000010B586B033
:10093400044600BF6F48006840F002006D4908603B
:100944000846006800F00200009000BF00BF69483C
:100954002038006840F002006649203908600846E3
:10096400006820F00200086000BF62480838006890
:1009740040F002005F49083908600846006800F04A
:100984000200009000BF00BF00BF0846006840F0AE
:10099400020008600846006800F00200009000BFF2
:1009A40000BF00BF0846006840F020000860084609
:1009B400006800F02000009000BF00BF00BF0846A0
:1009C400006840F0200008600846006800F020003D
:1009D400009000BF00BF00BF0846006840F0200040
:1009E40008600846006800F02000009000BF00BFC7
:1009F40000BF0846006840F0200008600846006810
:100A040000F02000009000BF00BF402001900220B1
:100A1400029001200390032004900A20059001A96C
:100A2400354800F04DFB042001900020039009207C
:100A3400059001A9304800F043FB4FF48070019009
:100A44000A20059001A92D4800F03AFB4FF40070EC
:100A540001900A20059001A9284800F031FB80206C
:100A640001900920059001A9244800F029FB4020A9
:100A740001900920059001A9204800F021FB0022E3
:100A84000F215C2000F07CF95C2000F0B7F906B07F
:100A940010BD10B504464021174800F003FC0421A2
:100AA400154800F0FFFB4FF48071144800F0FAFB86
:100AB4004FF40071114800F0F5FB80210F4800F05D
:100AC400F1FB40210D4800F0EDFB0A482038006896
:100AD40040F002000749203908600846006820F009
:100AE400020008600348006820F002000149086021
:100AF40010BD0000383802400004024000140240D7
:100B0400704770B504468348484400784FF47A71BE
:100B1400B1FBF0F0804949440968B1FBF0F528467F
:100B240000F0A4F908B1012070BD102C08D20022F5
:100B34002146501E00F024F978484844046001E03E
:100B44000120F1E70020EFE710B57548006840F494
:100B54000070734908600846006840F480700860BB
:100B6400032000F0FBF80F20FFF726FEFFF7C8FF75
:100B7400002010BD704710B54FF0FF306949086080
:100B840000200860401E091D086000200860401E07
:100B940064491039086000200860401E091D08607F
:100BA40000200860401E091D086000200860FFF74F
:100BB400E1FF002010BD5C484844006855494944A1
:100BC40009780844584949440860704756484844DD
:100BD40000687047514848440068704770B504463F
:100BE40000254C4848440078A04208D0494848446D
:100BF40004704A4848440068FFF7DEFD054628466D
:100C040070BD444848440078704770B50446FFF707
:100C1400DDFF06462546681C18B13E484844007866
:100C2400054400BFFFF7D2FF801BA842FAD370BD72
:100C34004FF0E020006920F002004FF0E02108614D
:100C440070474FF0E020006940F002004FF0E021CF
:100C5400086170473548704735480068000C704794
:100C640033480068C0F30B0070473248006870478F
:100C74003048001D006870472E48083000687047EF
:100C84002B48406840F001002949486070472848D3
:100C9400406820F0010026494860704724484068B5
:100CA40040F002002249486070472148406820F023
:100CB40002001F49486070471D48406840F0040026
:100CC4001B49486070471A48406820F004001849DE
:100CD400486070471848006840F0010016490860F1
:100CE40070471548006820F00100134908607047F8
:100CF40011482038006840F480600F4920390860AA
:100D040070470D482038006820F440600A492039B3
:100D1400086070470C00000010000000080000008C
:100D2400003C02402038024004000000000502019B
:100D3400002004E020F4F01F2038014010B5002802
:100D440007DA0A07140ED94A00F00F031B1FD45404
:100D540003E00A07130ED64A135410BD00BF00F077
:100D64000702D24B0C3B19684FF6FF031940D14BD5
:100D74000B4343EA0221CD4B0C3B196000BF704783
:100D84002DE9F04D80460D461646002700F087F900
:100D9400074639462A46334601F00700C0F1070BDF
:100DA400BBF1040F02D94FF0040B01E0C0F1070BB3
:100DB400DA4600F1040BBBF1070F02D24FF0000B2F
:100DC40001E0A0F1030BDC464FF0010B0BFA0AFB28
:100DD400ABF1010B0BEA020B0BFA0CFB4FF0010E0B
:100DE4000EFA0CFEAEF1010E0EEA030E4BEA0E04EF
:100DF40021464046FFF7A2FFBDE8F08D00BF00F09A
:100E04001F02012191404209920002F1E022C2F83E
:100E1400001100BF704700BF00F01F020121914084
:100E2400A54A430942F8231000BF704700BF00BF22
:100E340000BF00BF00BFBFF34F8F00BF00BF00BFA4
:100E44009A480C38006800F4E0609A490843001D91
:100E540096490C39086000BF00BF00BFBFF34F8F35
:100E640000BF00BF00BF00BF00BFFDE770B5044670
:100E74002546681EB0F1807F01D301200FE0681E73
:100E84004FF0E02148610F214FF0FF30FFF756FF8C
:100E940000204FF0E021886107200861002070BD28
:100EA40000BF00BF00BFBFF35F8F00BF00BF00BF24
:100EB4007E480C30006820F480307C490C31086096
:100EC40000207A497C310860704740F00101774A7C
:100ED4007C32116075490C31096841F48031734AE0
:100EE4000C32116000BF00BF00BFBFF34F8F00BFC3
:100EF40000BF00BF00BF00BF00BFBFF36F8F00BFC4
:100F040000BF00BF70474178684A803211600178A1
:100F1400F9B1121D41681160017B0907C27A41EAE7
:100F24000261827A41EAC241427B41EA8241827B88
:100F340041EA4241C27B41EA0241427A41EA02214A
:100F4400027A41EA420102781143584A8832116018
:100F540005E00021554A84321160121D116070476A
:100F640010B500F09CF810BD2DE9F045044620466C
:100F7400002808DA4D4F00F00F0CACF1040C17F800
:100F84000C703F0902E04A4F3F5C3F093D460E4664
:100F940006F00700C0F10708B8F1040F02D94FF0BA
:100FA400040801E0C0F10708C44600F10408B8F1E0
:100FB400070F02D24FF0000801E0A0F103084746F2
:100FC40025FA07F84FF0010A0AFA0CFAAAF1010A05
:100FD40008EA0A08C2F800804FF0010808FA07F886
:100FE400A8F1010808EA0508C3F8008000BFBDE8BD
:100FF400F08500BF00F01F02012191402E4A80328B
:10100400430942F8231000BF704710B50146084653
:10101400294A8032430952F8232000F01F04012397
:10102400A3401A400AB1012200E00022104610BD7C
:1010340000BF00F01F0201219140204A430942F8F9
:10104400231000BF704710B5014608461B4A803282
:10105400430952F8232000F01F040123A3401A403F
:101064000AB1012200E00022104610BD042808D174
:101074004FF0E021096941F004014FF0E0221161D1
:1010840007E04FF0E021096921F004014FF0E0226C
:1010940011617047704710B5FFF7FCFF10BD03489E
:1010A4000C380068C0F302207047000018ED00E01F
:1010B40000E400E00000FA0580E100E080E200E0E6
:1010C400F8B502460B46002100250024002000BF8D
:1010D400E4E0012606FA01F51E6806EA0504AC42BE
:1010E40071D15E68022E02D05E68122E13D1CF0831
:1010F40002F1200656F827004E07F70E0F26BE40D1
:10110400B0434F07FF0E1E69BE403043CF0802F1C3
:10111400200646F8270010684F000326BE40B0435F
:101124001E7906F003064F00BE40304310605E682F
:10113400012E08D05E68022E05D05E68112E02D002
:101144005E68122E13D190684F000326BE40B04350
:101154004F00DE68BE4030439060506801268E40E8
:10116400B0431E79C6F300168E4030435060D068F9
:101174004F000326BE40B0434F009E68BE4030433C
:10118400D0605E6806F08056B6F1805FA8D100BFDB
:10119400B44E366846F48046B24F3E603E463668EA
:1011A40006F48046009600BF00BFAF4E8F0856F885
:1011B40027008E07370F0F26BE40B043AB4EB24216
:1011C40002D100262EE068E0A94EB24201D10126E8
:1011D40028E0A84EB24201D1022623E0A64EB24234
:1011E40001D103261EE0A54EB24201D1042619E026
:1011F400A34EB24201D1052614E0A24EB24201D15F
:1012040006260FE0A04EB24201D107260AE09F4E07
:10121400B24201D1082605E09D4EB24201D1092611
:1012240000E00A268F073F0FBE4030438E4E8F08E2
:1012340046F82700974E3068A0435E6806F480366F
:10124400B6F5803F00D12043924E3060361D3068A1
:10125400A0435E6806F40036B6F5003F00D1204393
:101264008C4E361D3060361D3068A0435E6806F42F
:101274008016B6F5801F00D12043864E08363060B4
:10128400361D3068A0435E6806F40016B6F5001FEC
:1012940000D120437F4E0C363060491C1029FFF4E6
:1012A40018AFF8BDF0B50C4600250022002300213C
:1012B4009CE0012606FA01F504EA0502AA427DD162
:1012C40006684FEA410C032707FA0CF7BE43066091
:1012D400CF0800F1200656F827604F074FEAD76C75
:1012E4000F2707FA0CF7BE434FEAD10C00F1200791
:1012F40047F82C6086684FEA410C032707FA0CF77D
:10130400BE438660476801268E40B7434760C6687F
:101314004FEA410C032707FA0CF7BE43C660524E4E
:101324008F0856F827308E07370F0F26BE403340FC
:101334004E4EB04201D100262DE04D4EB04201D1B7
:10134400012628E04B4EB04201D1022623E04A4E4A
:10135400B04201D103261EE0484EB04201D104261A
:1013640019E0474EB04201D1052614E0454EB04283
:1013740001D106260FE0444EB04201D107260AE00F
:10138400424EB04201D1082605E0414EB04201D19F
:10139400092600E00A268F073F0FBE409E4224D153
:1013A4008E07370F0F2606FA07F32F4E8F0856F8CD
:1013B40027609E432C4F4FEA910C00E015E047F85C
:1013C4002C60344E36689643324F3E603E1D36687C
:1013D40096433F1D3E603E1D366896433F1D3E606A
:1013E4003E1D366896433F1D3E60491C1029FFF49C
:1013F40060AFF0BD024613690B400BB1012000E061
:10140400002070470AB1816101E00B0483617047D9
:1014140042694A404261704708B502464FF4803041
:1014240000900098084300900098D061D161009822
:10143400D061D0690090D06900F4803008B10020F8
:1014440008BD0120FCE7704710B50446114814306C
:101454000068204028B10F48143004602046FFF78C
:10146400F2FF10BD44380240083801400000024039
:101474000004024000080240000C02400010024038
:101484000014024000180240001C024000200240E8
:1014940000240240003C01408D48006840F0805028
:1014A4008B4908600846006820F080500860704747
:1014B4008848006840F48070864908607047854811
:1014C400006820F480708349086070478149096886
:1014D40021F0E001026811437E4A11607E490968E7
:1014E40021F480317C4A1160111F096821F4803194
:1014F400121F11607849091D096821F48031764A68
:10150400121D1160111D096821F48031121D116032
:10151400416801F48031B1F5803F07D16E49091F5C
:10152400096841F480316C4A121F1160416801F46A
:101534000031B1F5003F05D16749096841F48031B4
:10154400654A1160017901F0010139B16249091D4F
:10155400096841F48031604A121D1160017901F07B
:101564000201022907D15C490831096841F480313C
:10157400594A0832116070475648006840F010001C
:101584005449086070475348006820F010005149DE
:10159400086070474F49C96800F47C5211434D4AB2
:1015A400D1601146896800F47C52914341EA90115C
:1015B400484A916070474749C9688143454AD160A8
:1015C4007047464A126822F00402444B1A6000BF76
:1015D40000BF00BFBFF34F8F00BF00BF00BF00BFFD
:1015E40000BF00BFBFF36F8F00BF00BF00BF012962
:1015F40001D130BF02E040BF20BF20BF704710B50B
:1016040002460020334B186820F003001043186092
:10161400324B1B6843F00403304C236000BF00BF0F
:1016240000BFBFF34F8F00BF00BF00BF00BF00BFAC
:1016340000BFBFF36F8F00BF00BF00BF012901D1FE
:1016440030BF02E040BF20BF20BF244B1B6823F003
:101654000403224C236010BD1E48006840F00200C1
:101664001C4908601D48006840F004001B490860DC
:1016740000BF00BF30BF7047704710B51648103028
:10168400006800F4803030B1FFF7F6FF4FF480308B
:1016940011491031086010BD1048006840F0020084
:1016A4000E49086070470D48006820F002000B499D
:1016B400086070470948006840F010000749086056
:1016C40070470648006820F010000449086070471D
:1016D4002038024000700040043C014010ED00E05E
:1016E40010B50024DA48406840F40070D8494860D6
:1016F4000846406840F480704860FFF767FA044683
:1017040007E0FFF763FA001BB0F57A7F01D90320E5
:1017140010BDCF484068C0F3C0000028F1D00020BD
:10172400F6E710B50024CA48406820F40070C849A0
:1017340048600846406840F480704860FFF746FA05
:10174400044607E0FFF742FA001BB0F57A7F01D99F
:10175400032010BDBE484068C0F3C0000028F1D18A
:1017640000BFF6E7BA48006840F40070B849086062
:101774007047B748006820F40070B54908607047A6
:10178400B348006840F40060B14908607047B0484D
:10179400006820F40060AE4908607047AC480068F7
:1017A40040F48060AA4908607047A948006820F4A2
:1017B4008060A7490860704738B5002400BFA54879
:1017C400006840F08050A34908600846006800F0B3
:1017D4008050009000BF00BF9D48006840F48030F6
:1017E4009B490860FFF7F2F9044607E0FFF7EEF9BA
:1017F400001BB0F57A7F01D9032038BD94484068B6
:1018040000F48030B0F5803FF0D19148006840F496
:1018140000308F490860FFF7D9F9044607E0FFF765
:10182400D5F9001BB0F57A7F01D90320E5E7884894
:10183400406800F40030B0F5003FF0D10020DCE750
:1018440038B5002400BF8348006840F080508149C7
:1018540008600846006800F08050009000BF00BF98
:101864007B48006820F4003079490860FFF7AEF93E
:10187400044607E0FFF7AAF9001BB0F57A7F01D907
:10188400032038BD7248406800F40030B0F5003FD2
:10189400F0D06F48006820F480306D490860FFF78D
:1018A40095F9044607E0FFF791F9001BB0F57A7F3C
:1018B40001D90320E5E76648406800F48030B0F5BC
:1018C400803FF0D00020DCE7F8B505460E46002442
:1018D400002700BF5F48006840F080505D49086001
:1018E4000846006800F08050009000BF00BF5848D0
:1018F400406840F44020564948600846006840F477
:1019040040200860FFF762F9074607E0FFF75EF939
:10191400C01BB0F57A7F01D90320F8BD4C4840685C
:1019240000F44020B0F5402FF0D04948046840F658
:10193400034084432C43464804604748006840F011
:10194400040045490860012E01D130BF00E020BFEA
:101954004148006820F004003F4908600020DCE7AB
:101964003B48006800F44040704738B50546002401
:1019740000BF3848006840F0805036490860084687
:10198400006800F08050009000BF00BF3148383834
:10199400006800F00C00082855D02E484038006834
:1019A40020F080702B4940390860FFF70FF9044696
:1019B40006E0FFF70BF9001B022801D9032038BD0C
:1019C400244840380068C0F340600028F1D100BFCB
:1019D4001F48006820F4404028431D490860084619
:1019E400006800F44040009000BF00BF1948403830
:1019F400006840F08070174940390860FFF7E6F846
:101A0400044606E0FFF7E2F8001B022801D9032090
:101A1400D5E7104840380068C0F340600028F1D092
:101A2400FFF7D4F8044607E0FFF7D0F8001BB0F541
:101A34007A7F01D90320C2E705484068C0F38030AB
:101A44000028F1D001E00120B9E70020B7E7000049
:101A5400007000404038024010ED00E02DE9F041F4
:101A640004460E4617469846069D12E0681C80B14F
:101A74002DB1FFF7ABF8A0EB0800A84209D9042068
:101A840084F84100606C40F0010060640120BDE80E
:101A9400F08120688068304008B1012000E0002017
:101AA400B842E3D10020F2E7816470477047F8B58B
:101AB40004460125FFF78AF806460CB90120F8BD53
:101AC400206A402800D000BF00BF94F840000128DD
:101AD40001D10220F3E7012084F8400000BF94F80C
:101AE400410050B9002084F840002046FEF71EFF54
:101AF40041F288312046FFF7D7FF2068006820F4C0
:101B0400F851A068401E41EA002021680860A06CDA
:101B140033460022202100902046FFF79FFF054610
:101B240035BB2179E06840EA0160E1690843216A34
:101B3400084321680968FE4A114008432168086087
:101B4400208A616941EA0040A16908432168496823
:101B5400F84A11400843216848602068006840F052
:101B640001002168086000206064012084F84100BD
:101B740000BF002084F8400000BF28469FE770475C
:101B840010B504460CB9012010BD00BF94F8400004
:101B9400012801D10220F7E7012084F8400000BFAA
:101BA4002068006820F00100216808602046FEF7E4
:101BB40070FF0020606484F8410000BF84F8400096
:101BC40000BF00BFE0E710B54B6A33B1B2F1406F1C
:101BD40003D08B6A5B1E046823618B69002B76D06B
:101BE4000B6AE3B38B680468E361CB69FBB1D1E9A9
:101BF4000B3423434C6B23434C6A23438C8A43EAC0
:101C040084430C6923430C6A2343CC682343CC6983
:101C140023438C6923430C6823431343046863619F
:101C2400B2F1406F02D04B680468A361BEE0D1E911
:101C34000B3423434C6B23434C6A23438C8A43EA7F
:101C440084430C6923430C6A2343CC6923438C6982
:101C540023430C682343134304686361A6E0FFE74E
:101C6400CB69EBB1D1E90B3423434C6B23434C6A6E
:101C740023438C8A43EA84430C6A2343CC6823437A
:101C8400CC6923438C6923430C68234313430468BE
:101C94006361B2F1406FC9D04B680468A36185E009
:101CA400D1E90B3423434C6B23434C6A23438C8A82
:101CB40043EA84430C6A2343CC6923438C6923435A
:101CC4000C6823431343046863616FE0FFE70B6A06
:101CD400C3B38B680468E361CB69EBB1D1E90B341E
:101CE40023434C6B23434C6A23438C8A43EA844347
:101CF4000C6923430C6A2343CC682343CC692343F4
:101D04008C692343134304686361B2F1406F4DD07F
:101D14004B680468A36149E0D1E90B3423434C6B5D
:101D240023434C6A23438C8A43EA84430C69234348
:101D34000C6A2343CC6923438C692343134304680B
:101D4400636133E0FFE7CB69DBB1D1E90B342343B3
:101D54004C6B23434C6A23438C8A43EA84430C6AC6
:101D64002343CC682343CC6923438C692343134323
:101D740004686361B2F1406F18D04B680468A361D2
:101D840014E04B6A93B1D1E90B3423434C6B2343E6
:101D94004C6A23438C8A43EA84430C6A2343CC6908
:101DA40023438C69234313430468636110BD2DE905
:101DB400F84304460D4616460127FEF707FF804602
:101DC400A86900B100BFE86900B100BF286A00B18A
:101DD40000BF00BF94F84000012802D10220BDE8F2
:101DE400F883012084F8400000BF94F841000128E2
:101DF40028D100206064022084F841004346002278
:101E0400202120460096FFF729FE0746DFB900226D
:101E140029462046FFF7D7FE686A78B9434601226F
:101E2400022120460096FFF719FE07465FB90220FB
:101E34002168C860012084F8410004E0012084F88E
:101E4400410000E0022700BF002084F8400000BFEA
:101E54003846C4E7F8B504460D460126FEF7B6FE3B
:101E64000746A86900B100BFE86900B100BF286A4D
:101E740000B100BF00BF94F84000012801D1022046
:101E8400F8BD012084F8400000BF94F84100012807
:101E940033D100206064022084F84100A06C3B46EA
:101EA4000022202100902046FFF7D8FD0646FEB907
:101EB400686A10B903202168C860002229462046B8
:101EC400FFF781FE686A58B900BF002084F840001B
:101ED40000BF2068006840F440302168086012E0C8
:101EE400012084F8410000BF002084F840000AE08B
:101EF40000BF002084F8400005E0022600BF002057
:101F040084F8400000BF3046BAE7F8B5044600251F
:101F1400FEF75CFE064694F8410000F0020000283B
:101F24003DD000BF002084F8400000BF206803E0DB
:101F34002FFFFF00FEF8E0FF006800F0040070B11E
:101F44002068006820F0040021680860E06B02F05B
:101F540019F805461DB1606C40F004006064206807
:101F6400006840F0020021680860A06C334601223A
:101F7400022100902046FFF771FD05465DB902205D
:101F84002168C860A06C33460022202100902046BE
:101F9400FFF764FD054615B9012084F84100284681
:101FA400F8BD2DE9F84504460E4617460025FEF710
:101FB4000DFE8046206800F1200A00BF94F840001E
:101FC400012802D10220BDE8F885012084F84000F0
:101FD40000BF94F84100012848D100206064002E1D
:101FE4003ED0122084F8410020680069401CE06261
:101FF40020680069401CA06266622068406920F085
:1020040040602168486112E04346012204212046D1
:102014000097FFF723FD054605B10BE0616A481CF4
:10202400606208788AF80000E06A401EE062E06AB4
:102034000028E9D100BF7DB9434601220221204690
:102044000097FFF70BFD054635B902202168C860EB
:102054002046FFF75AFF0546012084F8410006E0B8
:10206400606C40F008006064012500E0022500BFB8
:10207400002084F8400000BF2846A4E72DE9F84F6B
:1020840004460E4617460025FEF7A0FD804620684C
:10209400D0F818A0206800F1200B00BF94F840008D
:1020A400012802D10220BDE8F88F012084F8400005
:1020B40000BF94F8410001284DD100206064002E37
:1020C40043D0222084F8410020680069401CA063AA
:1020D40020680069401C606326632068406920F022
:1020E400406040F08060216848612068C0F818A012
:1020F40012E043460122062120460097FFF7AEFC7A
:10210400054605B10BE09BF80010226B501C2063C0
:102114001170A06B401EA063A06B0028E9D100BF22
:102124007DB943460122022120460097FFF796FC21
:10213400054635B902202168C8602046FFF7E5FE50
:102144000546012084F8410006E0606C40F0080078
:102154006064012500E0022500BF002084F84000EF
:1021640000BF28469FE710B50246002300BF92F83F
:102174004000012801D1022010BD012082F8400056
:1021840000BF92F8410001282DD10020506401B312
:10219400122082F8410010680069401CD062106867
:1021A4000069401C906251621068406920F04060F0
:1021B4001468606103201468E06000BF002082F8A6
:1021C400400000BF1068006840F4E02014682060FC
:1021D4000FE0506C40F008005064012300BF002061
:1021E40082F8400005E0022300BF002082F840008E
:1021F40000BF1846C0E730B5024600231068846962
:1022040000BF92F84000012801D1022030BD012016
:1022140082F8400000BF92F84100012831D100202B
:10222400506421B3222082F8410010680069401CE8
:10223400906310680069401C506311631068406922
:1022440020F0406040F08060156868611068846127
:1022540003201568E86000BF002082F8400000BF3A
:102264001068006840F4E020156828600FE0506CA6
:1022740040F008005064012300BF002082F84000B1
:1022840005E0022300BF002082F8400000BF18468A
:10229400BCE72DE9F84504460E4615461F464FF0A7
:1022A4000108FEF793FC8246B06900B100BFF069F3
:1022B40000B100BF306A00B100BF00BF94F8400015
:1022C400012802D10220BDE8F885012084F84000ED
:1022D40000BF94F8410001283CD1002060644220F2
:1022E40084F8410053460022202120460097FFF73E
:1022F400B5FB8046B8F1000F2ED1286821688862AA
:10230400686821684862A8682168C8622068006813
:1023140020F44000296941F48001084321680860E1
:10232400E868B0624FF0006231462046FFF74BFC8C
:1023340053460122082120460097FFF78FFB804671
:10234400B8F1000F08D108202168C860012084F882
:10235400410001E04FF0020800BF002084F8400073
:1023640000BF4046AFE72DE9F84304460E46154644
:102374000127FEF72BFC8046B06900B100BFF0696D
:1023840000B100BF306A00B100BF00BF94F8400044
:10239400012802D10220BDE8F883012084F840001E
:1023A40000BF94F8410001283DD100206064422020
:1023B40084F84100A06C434600222021009020466E
:1023C400FFF74CFB07464FBB2868216888626868A2
:1023D40021684862A8682168C862D5E904010843F5
:1023E4002168096821F44001084321680860092034
:1023F4002168C860E868B0624FF000623146204648
:10240400FFF7E1FB00BF002084F8400000BF206814
:10241400006840F41020216808600AE000BF002032
:1024240084F8400005E0022700BF002084F8400043
:1024340000BF3846AFE72DE9F84304460D4616467B
:102444000127FEF7C3FB8046A86900B100BFE86915
:1024540000B100BF286A00B100BF00BF94F840007B
:10246400012802D10220BDE8F883012084F840004D
:1024740000BF94F8410001282CD100206064822020
:1024840084F84100A06C434600222021009020469D
:10249400FFF7E4FA0746F7B92068006820F008005F
:1024A4007168084321680860706808280BD1306897
:1024B4002168086310202168C8602068006840F41F
:1024C4008010216808604FF0406229462046FFF7DB
:1024D4007AFB00E0022700BF002084F8400000BF20
:1024E4003846C0E770477047704770477047704779
:1024F4007047704770477047014691F84100704734
:102504000146486C704710B50246002300BF92F89C
:102514004000012801D1022010BD012082F84000B2
:1025240000BF92F8410001280BD191601068006847
:1025340020F4F8549068401E44EA00201468206097
:1025440000E0022300BF002082F8400000BF1846CC
:10255400E2E7014608680068C0F30420401C7047A5
:1025640010B5FEF733FB0446FE48006840F0010056
:10257400FC49086006E0FEF729FB001B022801D98C
:10258400032010BDF748006800F002000028F2D0D4
:10259400F448006840F08000F2490860FEF716FB3A
:1025A40004460020EF490831086008E0FEF70EFBFE
:1025B400001B41F28831884201D90320E1E7E94850
:1025C4000830006800F00C000028EFD1FEF7FEFA96
:1025D4000446E448006820F45020E249086006E01C
:1025E400FEF7F4FA001B642801D90320C9E7DD488B
:1025F400006800F400300028F2D1FEF7E7FA044640
:10260400D848006820F08070D649086006E0FEF7DC
:10261400DDFA001B022801D90320B2E7D148006883
:1026240000F000700028F2D1FEF7D0FA0446CD483D
:10263400006820F08060CB49086006E0FEF7C6FA27
:10264400001B642801D903209BE7C648006800F0FA
:1026540000600028F2D1FEF7B9FA0446C1480068C8
:1026640020F08050BF49086006E0FEF7AFFA001B77
:10267400642801D9032084E7BA48006800F00050B8
:102684000028F2D1B848B749091D0860B648103887
:10269400B44984310860091D0860B2480C300068F0
:1026A40020F4FE40AF490C3108600846006840F44D
:1026B4007F000860AB487430006820F00100A9492D
:1026C400743108600846006840F080700860A748CC
:1026D400A749494408600F20FEF76EF808B10120AD
:1026E4004FE700204DE7F8B5044600260CB9012059
:1026F400F8BD207800F0010000287BD0994808300C
:10270400006800F00C0004280ED0964808300068D9
:1027140000F00C00082812D19248001D006800F453
:102724008000B0F5800F0AD18E480068C0F34040A5
:1027340000285FD0606800285CD10120D8E700BF82
:102744006068B0F5803F06D18648006840F4803068
:102754008449086028E0606858B98248006820F419
:102764008030804908600846006820F480200860B2
:102774001AE06068B0F5A02F0BD17A48006840F4E5
:102784008020784908600846006840F4803008607A
:102794000AE07448006820F48030724908600846F2
:1027A400006820F48020086000BF606888B1FEF7EC
:1027B4000DFA054606E0FEF709FA401B642801D924
:1027C400032095E767480068C0F340400028F2D032
:1027D40010E0FEF7FBF9054606E0FEF7F7F9401BAB
:1027E400642801D9032083E75E480068C0F34040B1
:1027F4000028F2D1207800F00200022860D1594864
:102804000830006800F00C0060B1564808300068D9
:1028140000F00C00082819D15248001D006800F48B
:10282400800098B94F480068C0F3400020B1E068C8
:10283400012801D001205BE74A48006820F0F80035
:10284400216940EAC1004749086039E0E06800B303
:102854004448006840F0010042490860FEF7B6F9B8
:10286400054606E0FEF7B2F9401B022801D9032011
:102874003EE73C480068C0F340000028F2D03948E5
:10288400006820F0F800216940EAC1003549086079
:1028940016E03448006820F0010032490860FEF771
:1028A40095F9054606E0FEF791F9401B022801D987
:1028B40003201DE72B480068C0F340000028F2D134
:1028C400207800F00800082836D16069D0B1254886
:1028D4007430006840F00100224974310860FEF74A
:1028E40075F9054606E0FEF771F9401B022801D987
:1028F4000320FDE61B4874300068C0F34000002844
:10290400F1D019E017487430006820F0010015492F
:1029140074310860FEF75AF9054606E0FEF756F9E9
:10292400401B022801D90320E2E60E4874300068F7
:10293400C0F340000028F1D1207800F004000428FE
:1029440075D108484030006800F08050C8B900BF15
:1029540004484030006840F080500249403108602B
:10296400084607E000380240103000240024F40038
:1029740010000000006800F08050009000BF00BF0D
:102984000126FE48006800F48070B0B9FB48006876
:1029940040F48070F9490860FEF718F9054606E02E
:1029A400FEF714F9401B642801D90320A0E6F3487C
:1029B400006800F480700028F2D000BFA0680128ED
:1029C40006D1EF48006840F00100ED49086027E0B7
:1029D400A06858B9EA48006820F00100E849086096
:1029E4000846006820F00400086019E0A068052883
:1029F4000BD1E348006840F00400E1490860084650
:102A0400006840F0010008600AE0DD48006820F03A
:102A14000100DB4908600846006820F004000860F3
:102A240000BFA068A0B1FEF7D1F8054609E02CE08C
:102A3400FEF7CCF8401B41F28831884201D90320CB
:102A440056E6CF480068C0F340000028F0D012E0FA
:102A5400FEF7BCF8054608E0FEF7B8F8401B41F263
:102A64008831884201D9032042E6C5480068C0F392
:102A740040000028F0D1012E07D1C1483038006849
:102A840020F08050BE4930390860A069F0B3BC48DA
:102A94006838006800F00C00082867D0A069022894
:102AA40049D1B7487038006820F08070B449703953
:102AB4000860FEF78BF8054606E0FEF787F8401B32
:102AC400022801D9032013E6AD4870380068C0F32A
:102AD40040600028F1D1E06940F00050216A0843C9
:102AE400616A40EA81110122A06AC2EB500041EA06
:102AF40000412C20005D41EA0060A1496C39086066
:102B0400081F006840F08070091F00E030E0086092
:102B1400FEF75CF8054606E0FEF758F8401B02286D
:102B240001D90320E4E5964870380068C0F340609A
:102B34000028F1D01CE092487038006820F08070C2
:102B44008F4970390860FEF741F8054606E0FEF744
:102B54003DF8401B022801D90320C9E58848703894
:102B64000068C0F340600028F1D101E00120BFE516
:102B74000020BDE52DE9F04700240025A046A2462B
:102B84007F486838006800F00C0020B1042805D0A4
:102B940008283BD105E0DFF8ECA13AE0DFF8E8A132
:102BA40037E077486C38006800F03F0474486C38AC
:102BB400006800F4800078B1734871496C39096881
:102BC400C1F38811A0FB0160014622460023304670
:102BD40001F020FD05460EE06A4869496C39096830
:102BE400C1F38811A0FB0160014622460023304650
:102BF40001F010FD054662486C380068C0F30140DE
:102C0400401C4FEA4008B5FBF8FA02E0DFF874A173
:102C140000BF00BF5046BDE8F08770B504460D46BE
:102C240000260CB9012070BD5848006800F00F0060
:102C3400A8420ED25548006820F00F00284353499B
:102C440008600846006800F00F00A84201D0012087
:102C5400E9E7207800F00200022823D1207800F070
:102C64000400042807D146486838006840F4E0505E
:102C7400434968390860207800F00800082807D123
:102C84003F486838006840F460403D49683908604E
:102C94003B486838006820F0F000A16808433849D0
:102CA40068390860207800F00100A0B3606801284A
:102CB40007D1334870380068C0F34040A0B9012000
:102CC400B1E76068022807D12D4870380068C0F366
:102CD400406048B90120A6E7294870380068C0F36D
:102CE400400008B901209EE725486838006820F0B4
:102CF400030061680843224968390860FDF766FFEC
:102D0400064609E0FDF762FF801B41F288318842E4
:102D140002D9032087E708E019486838006800F002
:102D24000C006168B0EB810FECD11848006800F02A
:102D34000F00A8420ED91548006820F00F00284360
:102D4400124908600846006800F00F00A84201D04C
:102D5400012068E7207800F00400042809D108481D
:102D64006838006820F4E050E16808430449683991
:102D74000860207800F00800082809E0007000408E
:102D8400703802400024F40000127A00003C024033
:102D940008D1A448006820F46040216940EAC100D9
:102DA400A0490860FFF7E6FE9E490968C1F30311D4
:102DB4009D4A7A44515CC8409C49494408600F20AC
:102DC400FDF7FAFC00202EE770B586B006460C46E7
:102DD400154636BB00BF93482830006840F0010018
:102DE4009049283108600846006800F0010000900E
:102DF40000BF00BF881501900220029003200490B8
:102E040000200390059001A98948FEF759F98548E7
:102E1400006820F0EC6044EA050108438149086039
:102E240025E000BF7F482830006840F004007D4959
:102E3400283108600846006800F00400009000BFD4
:102E440000BF481501900220029003200490002046
:102E54000390059001A97748FEF732F9714800689C
:102E640020F0784044EAC50108436E49086006B082
:102E740070BD6C480838006840F40020694908397E
:102E84000860704767480838006820F400206549E6
:102E9400083908607047654848440068704700B5C1
:102EA400FFF7F9FF5F490968C1F38221624A7A4456
:102EB400515CC84000BD00B5FFF7EDFF59490968F2
:102EC400C1F342315C4A7A44183A515CC84000BDAF
:102ED4000F21016053490839096801F48021B1F5D3
:102EE400802F03D14FF4A02141600DE04D490839F2
:102EF400096801F48031B1F5803F03D14FF480318A
:102F0400416001E00021416046490839096801F047
:102F1400010111B10121C16001E00021C1604149F9
:102F240008390968C1F3C40101613E49683109687F
:102F340001F00401042902D1052181600AE0394924
:102F44006831096801F0010111B10121816001E0DA
:102F54000021816033496C31096801F0010111B12C
:102F64000121416101E0002141612E4908390968CC
:102F740001F08071B1F1807F02D10221816101E011
:102F8400012181612749091F096801F48002C26196
:102F94002449091F096801F03F0202622149091FFF
:102FA4000968C1F3881242621E49091F096801F4C5
:102FB400403101F58031CA0B82621A49091F096840
:102FC400C1F30362C26270470F220260154A12689D
:102FD40002F003024260134A126802F0F0028260B7
:102FE400104A126802F4E052C2600E4A126802F4F7
:102FF4006042D2080261114A126802F00F020A60AC
:103004007047704710B50748001D006800F0800045
:10301400802805D1FFF7F5FF80200249891D08703B
:1030240010BD0000083802402A19000010000000FA
:1030340000000240000802403E180000003C02402C
:103044002DE9F8450446002600250027A846AA468F
:10305400207800F0010088B100BFFE48006820F429
:103064000000FC49086008460068616B0843F949A0
:10307400086000BF606B08B94FF00108206800F4D5
:103084000020B0F5002F13D1F2488430006820F4FA
:103094004010E16B0843EF4984310860E06BB0F500
:1030A400801F01D14FF00108E06B08B94FF0010A0D
:1030B400206800F48010B0F5801F13D1E5488430F7
:1030C400006820F44000216C0843E2498431086020
:1030D400206CB0F5800F01D14FF00108206C08B9C5
:1030E4004FF0010A206800F08070B0F1807F01D1B8
:1030F4004FF00108207800F02000202870D100BF94
:10310400D4483830006840F08050D24938310860E3
:103114000846006800F08050009000BF00BFCE4811
:10312400006840F48070CC490860FDF74FFD064606
:1031340007E0FDF74BFD801B642802D90320BDE89E
:10314400F885C548006800F480700028F1D0C148B3
:103154006830006800F4407585B3208E00F4407038
:10316400A8422BD0BB486830006820F44075B948A9
:103174006830006840F48030B64968310860084619
:10318400006820F48030086008460560006800F09C
:10319400010098B1FDF71AFD064608E0FDF716FD9B
:1031A400801B41F28831884201D90320C7E7A9482E
:1031B40068300068C0F340000028EFD000BF208EC4
:1031C40000F44070B0F5407F0BD1A248006820F4B1
:1031D400F810A24A216B114008439E49086006E09A
:1031E40010E09C48006820F4F8109A490860994857
:1031F40068300068218EC1F30B010843954968319A
:10320400086000BF207800F01000102810D100BF23
:1032140090488430006820F080708E4984310860C2
:1032240008460068A16B08438A498431086000BFDE
:10323400208800F48040B0F5804F09D1854888305B
:10324400006820F44030616E084382498831086088
:10325400208800F40040B0F5004F09D17D48883043
:10326400006820F44020A16E08437A498831086040
:10327400206800F48030B0F5803F09D1754888306B
:10328400006820F44010E16E0843724988310860F8
:10329400206800F40030B0F5003F09D16D48883053
:1032A400006820F44000216F08436A4988310860AF
:1032B400207800F04000402809D166488830006832
:1032C40020F00300616C084362498831086020786B
:1032D40000F08000802809D15E488830006820F022
:1032E4000C00A16C08435B4988310860208800F415
:1032F4008070B0F5807F09D156488830006820F08E
:103304003000E16C0843534988310860208800F498
:103314000070B0F5007F09D14E488830006820F075
:10332400C000216D08434B4988310860208800F4AF
:103334008060B0F5806F09D146488830006820F479
:103344004070616D0843434988310860208800F467
:103354000060B0F5006F09D13E488830006820F461
:103364004060A16D08433B4988310860208800F41F
:103374008050B0F5805F09D136488830006820F469
:103384004050E16D0843334988310860208800F4D7
:103394000050B0F5005F09D12E488830006820F451
:1033A4004040216E08432B4988310860206800F4AE
:1033B4008000B0F5800F09D126488830006820F0DD
:1033C4008060A16F0843234988310860206800F4B5
:1033D4000010B0F5001F0FD11E488830006820F09F
:1033E4000060E16F08431B4988310860E06FB0F169
:1033F400006F01D14FF0010A207800F0080008287E
:1034040001D14FF0010A206800F48020B0F5802F2C
:1034140009D110488830006820F04070616F08437B
:103424000C4988310860206800F40000B0F5000FF2
:103434000AD108488830006820F08050D4F8801001
:103444000843044988310860B8F1010F0BD02068A3
:1034540006E000000838024000700040FFFCFF0F47
:10346400B0F1007F7DD1FE48006820F08060FC4907
:103474000860FDF7ABFB064606E0FDF7A7FB801BE3
:10348400642801D903205AE6F5480068C0F3C060F7
:103494000028F2D1207800F00100B8B1606BA8B91F
:1034A400EF4884300068C0F30145ED48843000687B
:1034B400C0F303676068800140EA054040EA0761A1
:1034C400207A41EA0070E64984310860206800F4FB
:1034D4000020B0F5002F03D1E06BB0F5801F09D0B8
:1034E400206800F48010B0F5801F24D1206CB0F562
:1034F400800F20D1DA4884300068C0F30145D848F1
:1035040084300068C0F302776068800140EA0541B6
:10351400207B41EA006040EA0770D14984310860A9
:10352400CF488C30006820F01F00616A491E0843B0
:10353400CB498C310860206800F08070B0F1807F46
:1035440017D1C74884300068C0F30365C448843089
:103554000068C0F3027760688101208A41EA004074
:1035640000E031E040EA056040EA0770BC4984317C
:103574000860206800F00070B0F1007F0DD1606831
:103584008101208A41EA0041207B41EA0061207ADE
:1035940041EA0070B24984310860B148006840F0E3
:1035A4008060AF490860FDF711FB064606E0FDF7B1
:1035B4000DFB801B642801D90320C0E5A8480068DE
:1035C400C0F3C0600028F2D0BAF1010F7ED1A44844
:1035D400006820F08050A2490860FDF7F7FA06461B
:1035E40006E0FDF7F3FA801B642801D90320A6E561
:1035F4009B480068C0F340700028F2D1206800F4B2
:103604000020B0F5002F01D1E06B38B1206800F440
:103614008010B0F5801F22D1206C00BB9048883008
:103624000068C0F301458E4888300068C0F3027713
:103634006069800140EA0541207E41EA006040EA79
:103644000770874988310860081D006820F4F85124
:10365400A06A401E41EA002081498C31086020683C
:1036640000F40010B0F5001F19D1E06FB0F1006F45
:1036740015D17B4888300068C0F3036578488830EA
:103684000068C0F3027760698101208C41EA004040
:1036940040EA056040EA0770714988310860207883
:1036A40000F00800082820D16D4888300068C0F375
:1036B40003656B4888300068C0F301476069800186
:1036C40040EA074040EA0561207F00E024E041EA47
:1036D4000070634988310860081D006820F4403098
:1036E400E16A08435E498C3108605D48006840F037
:1036F40080505B490860FDF769FA064606E0FDF76D
:1037040065FA801B642801D9032018E55448006831
:10371400C0F340700028F2D0002010E50021514A87
:1037240002604F4A84321268C2F3881242604C4AE3
:1037340084321268C2F301430361494A8432126835
:10374400C2F30363C360464A84321268C2F302734D
:103754008360434A88321268C2F388124261404A45
:1037640088321268C2F3014303623D4A8832126808
:10377400C2F3036383613A4A88321268C2F3027364
:10378400C361374A8C32126802F01F024262344A23
:103794008C321268C2F304228262314A8C3212687B
:1037A400C2F30142C2622E4A8C32126802F4401201
:1037B400C2632B4A8C32126802F440020264284A23
:1037C4000832126802F400024263254A90321268F9
:1037D40002F440324266224A9032126802F44022D5
:1037E40082661F4A9032126802F44012C2661C4A72
:1037F4009032126802F440020267194A9032126849
:1038040002F003024264164A9032126802F00C027B
:103814008264134A9032126802F03002C264104A81
:103824009032126802F0C00202650D4A90321268AA
:1038340002F4407242650A4A9032126802F440620D
:103844008265074A9032126802F44052C265044A03
:103854009032126802F440420266014A903203E058
:1038640000380240F1FFFF00126802F04072426724
:10387400E84A126802F080628267E64A126802F03F
:103884000062C267E34A126802F08052C0F88020E6
:10389400E04A883A126802F4F811DE4A203A1268C3
:1038A40002F440720A430263DA4A121F126802F0F9
:1038B400807212B90022826302E04FF08072826348
:1038C400704770B504460021002000220023B4F59F
:1038D400002F6AD1CF4D2D1F2B6803F4401333B151
:1038E400B3F5801F30D0B3F5001F5CD159E0C94D4A
:1038F4008C3D2D6805F4800545B9C64D8C3D2D6879
:1039040005F03F05C44EB6FBF5F207E0C14D8C3D12
:103914002D6805F03F05C14EB6FBF5F2BD4D083DDF
:103924002D68C5F30361BB4D083D2D68C5F38815AB
:103934005543B5FBF1F0B74D2D1F2D68C5F3042594
:10394400691CB0FBF1F02FE0B24D8C3D2D6805F4FD
:10395400800545B9AF4D8C3D2D6805F03F05AE4E51
:10396400B6FBF5F207E0AB4D8C3D2D6805F03F0545
:10397400AA4EB6FBF5F2A74D0C3D2D68C5F30361C5
:10398400A44D0C3D2D68C5F388155543B5FBF1F0E6
:10399400A04D2D1F2D6805F01F05691CB0FBF1F02B
:1039A40002E09F4800E000BF00BFB4F5801F6AD169
:1039B400984D2D1F2B6803F4400333B1B3F5800FEA
:1039C40030D0B3F5000F5CD159E0924D8C3D2D6899
:1039D40005F4800545B98F4D8C3D2D6805F03F05F4
:1039E4008D4EB6FBF5F207E08A4D8C3D2D6805F04F
:1039F4003F058A4EB6FBF5F2864D083D2D68C5F3AA
:103A04000361844D083D2D68C5F388155543B5FB06
:103A1400F1F0804D2D1F2D68C5F30425691CB0FB02
:103A2400F1F02FE07B4D8C3D2D6805F4800545B900
:103A3400784D8C3D2D6805F03F05774EB6FBF5F2C9
:103A440007E0744D8C3D2D6805F03F05734EB6FBC1
:103A5400F5F2704D0C3D2D68C5F303616D4D0C3DC1
:103A64002D68C5F388155543B5FBF1F0694D2D1F3D
:103A74002D6805F01F05691CB0FBF1F002E06848F1
:103A840000E000BF00BF70BD70B5044661489038C7
:103A9400006820F080605F4990390860FDF796F86F
:103AA400054606E0FDF792F8401B642801D903207F
:103AB40070BD584890380068C0F3C0600028F1D148
:103AC40020688001A18940EA0140217A40EA01602E
:103AD400217940EA01704F490C3908604D4890380B
:103AE400006840F080604B4990390860FDF76EF83B
:103AF400054606E0FDF76AF8401B642801D9032057
:103B0400D6E7444890380068C0F3C0600028F1D07C
:103B14000020CDE710B53F489038006820F0806061
:103B24003C4990390860FDF751F8044606E0FDF77A
:103B34004DF8001B642801D9032010BD3548903886
:103B4400006800F000600028F1D100BFF5E770B50F
:103B5400044630489038006820F080502D49903950
:103B64000860FDF733F8054606E0FDF72FF8401B23
:103B7400642801D9032070BD264890380068C0F33A
:103B840040700028F1D120688001A18940EA0140F9
:103B9400217940EA0160217A40EA01701D4908391F
:103BA40008601C489038006840F0805019499039EA
:103BB4000860FDF70BF8054606E0FDF707F8401B23
:103BC400642801D90320D6E7124890380068C0F36E
:103BD40040700028F1D00020CDE710B50D48903892
:103BE400006820F080500B4990390860FCF7EEFF24
:103BF400044606E0FCF7EAFF001B642801D9032011
:103C040010BD044890380068C0F340700028F1D11A
:103C140000BFF5E7903802400024F40000127A0057
:103C24000080BB000146087810381823B0FBF3F27B
:103C3400FE487844805CC865032A05D908686FF398
:103C44000900001D886503E008686FF309008865B2
:103C5400886D7047014600208A6A8B69CBB932B1FE
:103C6400012A0DD0022A03D0032A10D10EE000BF8E
:103C7400CB6A03F08073B3F1807F00D1012007E0A9
:103C8400CB6AB3F1C07F00D1012001E000E000BFA6
:103C940034E08B69B3F5005F1AD132B1012A07D041
:103CA400022A03D0032A11D10AE000BF01200EE04A
:103CB400CB6A03F08073B3F1807F00D1012006E06A
:103CC400CB6AB3F1C07F00D1012000E000BF15E052
:103CD40032B1012A05D0022A04D0032A0CD103E010
:103CE40000BF00BF012008E0CB6A03F08073B3F18A
:103CF400807F00D1012000E000BF00BF70472DE9A4
:103D0400F04104460025FCF761FF074614B9012081
:103D1400BDE8F081606A00B100BF00BF002084F8F4
:103D2400340000BF022084F835002068006820F0C9
:103D34000100216808600AE0FCF748FFC01B052861
:103D440005D920206065032084F83500E0E7206869
:103D5400006800F001000028EED120680568B4482E
:103D64000540D4E901010843E16808432169084397
:103D740061690843A1690843E1690843216A08436A
:103D84000543606A042803D1D4E90B0108430543C1
:103D9400206805602068456925F00705606A0543C9
:103DA400606A04280DD1A06A0543E06A48B1204640
:103DB400FFF750FF28B140206065012084F83500EA
:103DC400A6E7206845612046FFF72CFF064694F8D5
:103DD4005C103F208840B06000206065012084F8BA
:103DE4003500002094E770B504460CB9012070BD7D
:103DF40094F83500022800D1F9E72068006820F023
:103E0400010021680860002021680860216848607A
:103E1400216888602168C8602168086121202168C0
:103E240048612046FFF7FEFE054694F85C103F20EB
:103E34008840A8600020E06320646064A064E064BB
:103E44002065606584F8350000BF84F8340000BF45
:103E540000BFCCE730B50468246824F480240568E6
:103E64002C60046863608468402C04D10468A260F8
:103E74000468E16003E00468A1600468E26030BDA6
:103E84002DE9F04104460D4616461F464FF0000842
:103E940000BF94F83400012802D10220BDE8F0816B
:103EA400012084F8340000BF94F83500012811D1B2
:103EB400022084F83500002060653B4632462946DE
:103EC4002046FFF7C7FF2068006840F00100216822
:103ED400086006E000BF002084F8340000BF4FF003
:103EE40002084046DAE72DE9F04704460D46164637
:103EF4001F464FF00008D4F858A000BF94F83400CF
:103F0400012802D10220BDE8F087012084F83400A2
:103F140000BF94F8350001282BD1022084F8350025
:103F2400002060653B46324629462046FFF792FF53
:103F340094F85C103F208840CAF8080020680068A4
:103F440040F01600216808602068406940F0800055
:103F540021684861206C28B12068006840F008009E
:103F6400216808602068006840F00100216808604A
:103F740006E000BF002084F8340000BF4FF00208C0
:103F84004046C0E770B50446A56DFCF71FFE064623
:103F940094F83500022808D08020606500BF002016
:103FA40084F8340000BF012070BD2068006820F050
:103FB4001600216808602068406920F080002168AC
:103FC4004861206C08B9A06C28B12068006820F012
:103FD4000800216808602068006820F0010021685A
:103FE40008600FE0FCF7F2FD801B05280AD92020A9
:103FF400606500BF002084F8340000BF032084F80B
:104004003500D1E72068006800F001000028E9D1FC
:1040140094F85C103F208840A86000BF002084F81A
:10402400340000BF012084F8350003E0A20A000038
:104034003F8010F00020B7E7014691F835000228D0
:1040440003D08020486501207047052081F83500A1
:104054000868006820F001000A6810600020F3E797
:104064002DE9F84F04468846174600200090FCF7D7
:10407400ADFD834694F83500022809D080206065A0
:1040840000BF002084F8340000BF0120BDE8F88F91
:104094002068006800F4807020B14FF4807060657F
:1040A4000120F3E7B8F1000F05D194F85C1020204B
:1040B40000FA01FA04E094F85C10102000FA01FA06
:1040C400A56D2E6842E0781C90B12FB1FCF77EFDFF
:1040D400A0EB0B00B8420BD92020606500BF002084
:1040E40084F8340000BF012084F835000320CDE7B4
:1040F4002E6894F85C1008208840304040B1606D10
:1041040040F00100606594F85C1008208840A860C5
:1041140094F85C1001208840304040B1606D40F05C
:104124000200606594F85C1001208840A86094F84F
:104134005C1004208840304040B1606D40F00400C1
:10414400606594F85C1004208840A86006EA0A00C0
:1041540020B9606D00F001000028B4D0606DA0B1FA
:10416400606D00F0010080B12046FFF70BFF94F86A
:104174005C1030208840A86000BF002084F8340020
:1041840000BF012084F8350080E7B8F1000F0DD19D
:1041940094F85C1030208840A86000BF002084F8A8
:1041A400340000BF012084F8350004E094F85C106A
:1041B40010208840A860009868E7F8B504460020FD
:1041C4000090C748484400684FF41651B0FBF1F71B
:1041D400A56D2E6894F85C1008208840304098B192
:1041E4002068006800F0040070B12068006820F0C6
:1041F40004002168086094F85C1008208840A860D6
:10420400606D40F00100606594F85C100120884006
:10421400304068B12068406900F0800040B194F8F3
:104224005C1001208840A860606D40F00200606569
:1042340094F85C1004208840304068B1206800681D
:1042440000F0020040B194F85C1004208840A8609B
:10425400606D40F00400606594F85C1010208840A4
:10426400304078B32068006800F0080050B394F838
:104274005C1010208840A8602068006800F480204A
:1042840080B12068006800F4002028B9206CC8B10F
:104294002046216C884715E0A06C98B12046A16C9B
:1042A40088470FE02068006800F4807028B920680F
:1042B400006820F0080021680860206C10B12046D6
:1042C400216C884794F85C102020884030400028F6
:1042D40065D02068006800F0100000285FD094F8D2
:1042E4005C1020208840A86094F83500052828D167
:1042F4002068006820F01600216808602068406982
:1043040020F0800021684861206C08B9A06C28B1B5
:104314002068006820F008002168086094F85C10A8
:104324003F208840A86000BF002084F8340000BF0C
:10433400012084F83500206D10B12046216D884796
:10434400F8BD2068006800F4802080B1206800680F
:1043540000F4002028B9606C10B12046616C8847D5
:104364001DE0E06BD8B12046E16B884717E0206878
:10437400006800F4807068B92068006820F01000BC
:104384002168086000BF002084F8340000BF0120C9
:1043940084F83500E06B10B12046E16B8847606D0E
:1043A40038B3606D00F00100F0B1052084F83500E9
:1043B4002068006820F001002168086000BF0098B0
:1043C400401C0090B84200D905E02068006800F065
:1043D40001000028F3D100BF00BF002084F834009E
:1043E40000BF012084F83500E06C10B12046E16C78
:1043F400884700BFA4E710B50346002400BF93F824
:104404003400012801D1022010BD012083F83400BA
:1044140000BF93F83500012814D1062910D2DFE833
:1044240001F0030507090B0DDA630AE01A6408E0DA
:104434005A6406E09A6404E0DA6402E01A6500E073
:1044440000BF00E0012400BF002083F8340000BF57
:104454002046D9E70246002300BF92F83400012821
:1044640001D102207047012082F8340000BF92F885
:104474003500012824D107291FD2DFE801F0040701
:104484000A0D101316000020D06318E000201064F9
:1044940015E00020506412E0002090640FE000203A
:1044A400D0640CE00020106509E00020D0631064A3
:1044B40050649064D064106501E0012300BF00E003
:1044C400012300BF002082F8340000BF1846C9E76A
:1044D400014691F8350070470146486D7047000069
:1044E400100000004348006840F47000414908602F
:1044F4004148006840F001003F49086000203E49FF
:10450400083108603C4800683C4908403A49086062
:104514003B48091D0860081F006820F48020091F1B
:104524000860002034490C3108604FF000603149C4
:1045340080390860704770B50020002202230024EF
:1045440002212D4D08352D6805F00C0020B10428FA
:1045540007D0082837D109E02A4D2B4E4E44356048
:1045640036E02A4D284E4E44356031E0224D2D1D53
:104574002D68C5F38054204D2D1D2D6805F03F0195
:1045840054B1224DB5FBF1F51B4E361D3668C6F30A
:10459400881605FB06F209E01A4DB5FBF1F5164E37
:1045A400361D3668C6F3881605FB06F2124D2D1D1E
:1045B4002D68C5F301456D1C6B00B2FBF3F5124E7B
:1045C4004E44356004E00F4D0F4E4E44356000BF3D
:1045D40000BF094D08352D68C5F303150C4E7E4404
:1045E400705D094D4D442D68C540074E4E443560FD
:1045F40070BD000088ED00E000380240FFFFF6FEC9
:10460400103000240024F4001000000000127A008E
:10461400FE0000002DE9F05F0546002092469B460F
:1046240088460646814640241BE0284641464746C4
:10463400224600F041F853465A46C01A914110D31D
:1046440011461846224600F028F82D1A67EB010897
:104654004F4622460120002100F01FF817EB000905
:104664004E41201EA4F10104DFDC484631462A46AF
:104674004346BDE8F09FD2B201E000F8012B491E89
:10468400FBD270470022F6E710B513460A460446EB
:104694001946FFF7F0FF204610BD202A04DB203A1C
:1046A40000FA02F1002070479140C2F1200320FA81
:1046B40003F3194390407047202A04DB203A21FA7F
:1046C40002F00021704721FA02F3D040C2F1200227
:1046D400914008431946704700061016000610164C
:1046E400000000000000000001020304060708099E
:1046F40000000000010203040000000000000000AC
:0C47040010000000010000000024F40080
:020000042000DA
:104710004E323551313238415F4C44520000000076
:104720000000000000000000000000000000000089
:104730000000000000000000000000000000000079
:104740000000000000000000000000000000000069
:104750000000000000000000000000000000000059
:104760000000000000000000000000000000000049
:1047700000000000030000000000009000000001A5
:1047800000010000FF000000000100000000010027
:104790000000000000000000000000000000000019
:1047A0000000000000000000000000000000000009
:1047B00000000000000000000000000000000000F9
:1047C00000000000000000000000000000000000E9
:0847D0000000000000000000E1
:0400000500000000F7
:00000001FF
