:020000040800F2
:10000000206C0220DD0100086970000849620008C8
:100010006170000809130008299200080000000020
:10002000000000000000000000000000EF010008D8
:10003000811F000800000000F3010008B9820008D9
:10004000F7010008F7010008F7010008F7010008B0
:10005000F7010008F7010008F7010008F7010008A0
:10006000F7010008911F0008F7010008F7010008D8
:10007000F7010008F7010008F7010008F701000880
:10008000F7010008F7010008F7010008F701000870
:10009000F7010008F7010008F7010008F701000860
:1000A000F7010008F7010008F7010008F701000850
:1000B000F7010008A9870008F7010008F701000808
:1000C000F7010008F7010008F7010008F701000830
:1000D000F7010008F701000819920008F70100086D
:1000E000891F0008F7010008F7010008F701000860
:1000F000F7010008F7010008F7010008F701000800
:10010000F7010008F7010008F7010008F7010008EF
:10011000F7010008F7010008F7010008F7010008DF
:10012000F7010008F7010008F7010008F7010008CF
:10013000F7010008F7010008F7010008F7010008BF
:10014000F7010008F7010008F7010008F7010008AF
:10015000F7010008F7010008F7010008F70100089F
:10016000F7010008F7010008F7010008F70100088F
:10017000F7010008F7010008F7010008000000007F
:10018000F7010008F7010008F7010008F70100086F
:10019000F7010008F7010008F7010008F70100085F
:1001A000116A0008F7010008C91E0008F7010008DD
:1001B000C9800008F7010008F7010008F7010008EE
:1001C000F7010008F7010008DFF80CD000F038FB59
:1001D00000480047E19F0008206C02200648804745
:1001E00006480047FEE7FEE7FEE7FEE7FEE7FEE71C
:1001F000FEE7FEE7FEE7FEE7C9830008C901000845
:1002000010B5441A0346944209D28318114403E0FE
:1002100011F8014D03F8014D521EF9D210BD40EA0C
:100220000104A40703D009E010C9121F10C3042A57
:10023000FAD203E011F8014B03F8014B521EF9D238
:1002400010BDD2B201E000F8012B491EFBD270476D
:100250000022F6E710B513460A4604461946FFF792
:10026000F0FF204610BD30B504460020034600E0F4
:100270005B1C934203D2E05CCD5C401BF8D030BDE8
:100280002DE9FE4F804681EA0300C00F0C46009026
:1002900021F0004123F00045B8EB0200A94105D24E
:1002A0004046214690461C460B46024623F000403D
:1002B000104347D0270DC7F30A00C3F30A51029039
:1002C000401A019040286BDAC3F3130040F4801BFE
:1002D0000098924620B10023D2EB030A63EB0B0B8C
:1002E00001985946C0F14002504600F0CBF906464D
:1002F0000D4650465946019A00F0E3F910EB08000C
:100300006141002487EA115284EAE7731A4340D01E
:10031000009A62B3019A012A4FEA075215DC001BCA
:1003200061EB02014FF0004202EA0752CDE90042C0
:10033000001C41F5801132462B4600F01AFA03B03A
:10034000BDE8F08F40462146F9E7001B61EB020152
:10035000001C41F5801300185B412018A2F500171E
:1003600047EB030140EAD570B6196D4111E06D0805
:100370004FEA360645EAC0754FEA0752001B61EBAB
:100380000201001C41F5801149084FEA30000019B4
:10039000514132462B4603B0BDE8F04F00F0DAB9C8
:1003A0000098012240000023D0EB020263EBE073CF
:1003B000009821464FEAE074B8EB000061EB0401BD
:1003C000E9E783F000435BE781F0004158E72DE95E
:1003D000FE4F81EA030404F0004421F00041009440
:1003E0004FF0000B23F0004350EA01045ED052EAC4
:1003F00003045BD0C3F30A54C1F30A552C44A4F29E
:10040000F3340194A0FB0254C1F3130141F48011B1
:10041000C3F3130343F4801301FB024400FB034EB8
:10042000840A970A44EA815447EA8357A4FB076881
:1004300002958D0A05FB07854FEA932C04FB0C54AB
:100440002705029D4FEA065847EA1637B5EB08051F
:100450006EEB070C870E920E47EA811742EA831271
:10046000A7FB0201B6EB0B0164EB00042B0D43EA82
:100470000C335E1844EB1C50DA465146E7FB020190
:10048000C5F313044FEA0B3343EA14534FEA043223
:10049000019C43EA0603A4F10C040294009CCDE9FC
:1004A00000B400F066F903B0BDE8F08F002001460B
:1004B000F9E72DE9F04D81EA030404F0004B21F047
:1004C000004514464FF0000A23F0004150EA0502AF
:1004D00020D054EA01021DD0C5F30A570246C5F3E5
:1004E0001303C1F31300C1F30A5640F4801543F41B
:1004F0008013A7EB0608101BD64608F2FD3873EBF5
:10050000050002D308F1010801E092185B41B8F13F
:10051000000F03DA00200146BDE8F08D00204FF403
:100520008011064684460EE0171B73EB050705D3C2
:10053000121B63EB050306434CEA010C49084FEA22
:10054000300092185B4150EA0107EDD152EA0300F6
:1005500012D082EA040083EA0501084305D0101B8B
:10056000AB4106D20122002306E000224FF00043F7
:1005700002E06FF0010253101AEB06004CEB085139
:1005800010EB0A0041EB0B01BDE8F04D00F0E2B8C2
:1005900030B5041E71F1000404DB4FF0004440420A
:1005A00064EB0101141E73F1000405DB1C464FF0DF
:1005B0000043524263EB0403101A8B4101D2012025
:1005C00030BD002030BD0EB5C10F80EAE070084498
:1005D000CA07002140F233438DE80E000A460B465D
:1005E00000F0C7F803B000BD70B5C1F30A5201F0C6
:1005F00000450024C1F3130140F2FF3341F48011A0
:100600009A4201DA002070BD40F233439A42A2F2CE
:10061000334203DC524200F044F800E090402C43A7
:10062000F1D0404270BD00F0004230F000400AD0EE
:10063000C10D01F56071C0F3160042EA0151C20814
:1006400040071143704700200146704701F0004306
:1006500030B421F0004150EA010206D00A0DA2F5A3
:100660006072C1F31301002A02DC30BC0020704725
:10067000440F44EAC104C100E01830BC00EBC25092
:1006800000F031B8202A04DB203A00FA02F1002001
:1006900070479140C2F1200320FA03F319439040C0
:1006A0007047202A04DB203A21FA02F0002170472B
:1006B00021FA02F3D040C2F12002914008431946CA
:1006C0007047202A06DBCB17203A41FA02F043EAB2
:1006D000E07306E041FA02F3D040C2F120029140FB
:1006E0000843194670470029A8BF7047401C4900BD
:1006F00008BF20F00100704710B4B0FA80FC00FA87
:100700000CF050EA010404BF10BC704749B1CCF1B1
:10071000200421FA04F411FA0CF118BF012121433D
:100720000843A3EB0C01CB1D4FEA00614FEA1020F8
:1007300042BF002010BC704700EBC350104400299A
:10074000A4BF10BC7047401C490008BF20F0010046
:1007500010BC704710B5141E73F1000408DA401C79
:1007600041F1000192185B411A4301D120F00100D0
:1007700010BD2DE9F04D92469B4611B1B1FA81F2C0
:1007800002E0B0FA80F220329046FFF77BFF044689
:100790000F4640EA0A0041EA0B0153465A46084315
:1007A00013D0114653EA010019D0C8F14002504657
:1007B000FFF777FF05460E46504659464246FFF77B
:1007C00061FF084305D0012004E020463946BDE81A
:1007D000F08D0020054346EAE0762C4337430A9823
:1007E0006305E40AA0EB08000022FD0A44EA47542E
:1007F0000A3002D500200146E9E7010510196941D8
:10080000DDE9084500196941BDE8F04DA2E70000A7
:1008100030B5041E71F1000404DB4FF00044404287
:1008200064EB0101141E73F1000405DB1C464FF05C
:100830000043524263EB04038B4208BF824230BD47
:10084000064C074D06E0E06840F0010394E807001D
:1008500098471034AC42F6D3FFF7BAFCE4C602085E
:1008600014C7020870B58C1810F8015B15F0070367
:1008700001D110F8013B2A1106D110F8012B03E039
:1008800010F8016B01F8016B5B1EF9D12B0705D441
:100890000023521E0DD401F8013BFAE710F8013B8A
:1008A000CB1A921C03E013F8015B01F8015B521EA6
:1008B000F9D5A142D8D3002070BD0000000000008F
:1008C00042F20431C4F201010A6822F440320A60A3
:1008D00042680B681A430A6001684A6822F4807211
:1008E0004A6002694B6843EA02224A604A6822F081
:1008F00040724A6082684B681A434A608A6822F4F0
:1009000000628A60C2688B681A438A60826A8B6858
:1009100023F070638B60D1F808C00123C0F6007328
:100920009A4202D12CF0405209E042EA0C028A605D
:100930008A6822F040528A60C26A8B681A438A60D1
:100940008A6822F002028A6082698B6843EA420266
:100950008A60036A4A6883B142F400624A604A6866
:1009600022F460424A60426A4EF20003CFF6FF73FF
:1009700003EB42324B681A4301E022F400624A6002
:10098000CA6A22F47002CA62C2690023CFF6F07309
:1009900003EB0252CB6A1A43CA628A6822F40072DD
:1009A0008A60026B8B6843EA42228A608A6822F47A
:1009B00080628A6040698A6842EA80208860704765
:1009C00010B582B007F080FA012828D146F65C31D4
:1009D000C2F200014FF4005E4FF4807C0023C1E9B5
:1009E0000B334B634FF440624FF04070EB24C1E98E
:1009F00000430A24C1E903E3C1E9054CC1E9072327
:100A0000C1E90903019340F6A800C2F200006A465A
:100A100003F00EFC002802BF012002B010BD002030
:100A200002B010BD000000002DE9F04381B0804607
:100A300040F2C475C2F200054FF0010910240027EE
:100A4000C5E90094C5E90297009746F6AC36C2F2B4
:100A50000006304629464FF6FF7204F0D9FD01200A
:100A600001F0F6FF022085E81102EF6030462946CA
:100A70004FF6FF7204F0CCFD03200821C5E9000405
:100A8000C5E90217304629464FF6FF7204F0C0FD53
:100A900004204FF408710091009985E81102E96083
:100AA000304629464FF6FF7204F0B2FD304641460B
:100AB00004F09AFD01B0BDE8F083000000000000E2
:100AC0002DE9F04F85B0804643F63000C4F20200B5
:100AD000816841F001018160816801F001010091AC
:100AE0000099016841F480010160016801F480010E
:100AF00000910099016841F001010160016801F075
:100B0000010100910099016841F004010160016850
:100B100001F0040100910099016841F008010160B1
:100B2000016801F0080100910099016841F010018D
:100B30000160016801F0100100910099016841F025
:100B400020010160016801F0200100910099016815
:100B500041F040010160006800F040000090009802
:100B60004FF0020BCDF804B04FF63F000090002785
:100B700002974FF0030ACDF80CA00C240494002532
:100B8000C4F2020505F5A0506E46314602F054F855
:100B9000CDF804B04FF08009CDF80090CDE9027A8D
:100BA00004942846314602F047F8CDF804B03020CE
:100BB0000090CDE9027A049405F50060314602F018
:100BC0003BF8CDF804B048F233100090CDE9027A3A
:100BD000049405F5C050314602F02EF8CDF804B06B
:100BE0004FF683700090CDE9027A049405F58050A9
:100BF000314602F021F8CDF804B04CF203700090B9
:100C0000CDE9027A049405F54060314602F014F80B
:100C100040F23C75C2F200054FF400704FF4806161
:100C20004FF480524FF480434FF4003605F1200C0E
:100C30008CE8C004C5E90B7746F21046C4F2020600
:100C400085E8C00205F10C0C8CE88F00C8F8305024
:100C5000C5F83880284601F05BFE284601F084FE86
:100C600038200F21002202F0CBFF382002F0C4FF11
:100C700005B0BDE8F08F00002DE9F04F8FB00446BD
:100C800000250495CDE9025540F2EC30C2F2000097
:100C9000016940F69C09C2F2000999F80000002899
:100CA00018BF702088472070002800F094802078BA
:100CB000002800F08C8000250DF1280A40F29C7B72
:100CC000C2F2000B40F2B078C2F20008002700BF69
:100CD0000DF11E00411905A8421940F2EC30C2F294
:100CE0000000436999F80000002818BF7020984759
:100CF00046F61440C2F20000007801280CD10DF134
:100D00001E0030F817000DF1320121F8170005A878
:100D100030F817002AF817005BF827000DF13201B0
:100D200031F81720831A38BF131A58F827003AF8F9
:100D30001710461A38BF0E1AB0B210FA83F0062800
:100D400024BF4BF8272048F8271099F80000012805
:100D500004D104EB47035A8015E000BF04EB4701C0
:100D60005BF8272046F61643C2F200031B885A435D
:100D7000120B4A8058F8271046F61842C2F20002B9
:100D800012885143090B04EB4702918102A900919B
:100D9000002818BF7020394604AA03AB08F0F4FFFE
:100DA000E01904998175039980F8201002990329AC
:100DB00007D8C90040F20122C0F2030222FA01F171
:100DC000C1760235013720788742FFF481AF204693
:100DD00000F006F8054628460FB0BDE8F08F000089
:100DE000B0B582B0044600258DF8075040F69C004F
:100DF000C2F200000078002818BF70200DF1070132
:100E000008F0AEFF9DF80720A2F11001012039295A
:100E100020D8DFE801F01D202020222020202420DF
:100E200020202620202020202020202020202020BC
:100E300020202020202020202020202020202020B2
:100E40002020202020202820202020202020202A90
:100E500001250BE052B102B0B0BD022506E003252A
:100E600004E0042502E0052500E00625A562002037
:100E700002B0B0BD0000000040F6050188420ED06F
:100E800040F60401884210D040F60301884211BFA9
:100E9000022046F25F70C2F200000078704746F20E
:100EA0006170C2F200000078704746F26370C2F2CF
:100EB000000000787047000010B582B040F60502CF
:100EC000904200F0C38040F60402904261D040F6A8
:100ED0000302904240F01682012900F0148100299B
:100EE00040F0108246F25F70C2F2000000210170F3
:100EF00001200BF0B9FB01200BF0F4F86FF07F40FC
:100F00000BF0CCFB40F2A034C2F2000420460AF001
:100F100055FC47F66750C0F2AA000BF0BFFBB4F9CE
:100F200000C0B4F90210B4F90420B4F90630082066
:100F300000900CF101000131013A013B09F050FE33
:100F40002088053020804FF6F070C0F601000BF0CD
:100F5000B3FB02200BF010FC4DF2D3600BF09EFBB4
:100F60004CF2C060C0F6020021460E220AF0BEFA22
:100F700020880538208001200BF00AF900200BF0B2
:100F800073FB46F29470C2F20000016821F0100178
:100F900060E1012900F00B81002940F0B38146F2A5
:100FA0006370C2F200000021017001200BF05CFBB5
:100FB00001200BF097F86FF07F400BF06FFB40F2D1
:100FC000A834C2F2000420460AF0F8FB47F6675046
:100FD000C0F2AA000BF062FBB4F900C0B4F9021031
:100FE000B4F90420B4F90630082000900CF1010097
:100FF0000131013A013B09F0F3FD208805302080E2
:101000004FF6F070C0F601000BF056FB02200BF01B
:10101000B3FB4DF2D3600BF041FB4CF2D960C0F64C
:10102000020021460E220AF061FA2088053820804D
:1010300001200BF0ADF800200BF016FB46F2947087
:10104000C2F20000016821F0200103E1012900F053
:101050000481002940F0568146F26170C2F200001E
:101060000021017001200BF0FFFA01200BF03AF88B
:101070006FF07F400BF012FB40F2B034C2F200047C
:1010800020460AF09BFB47F66750C0F2AA000BF01F
:1010900005FBB4F900C0B4F90210B4F90420B4F9A6
:1010A0000630082000900CF101000131013A013BAB
:1010B00009F096FD2088053020804FF6F070C0F6CC
:1010C00001000BF0F9FA02200BF056FB4DF2D36051
:1010D0000BF0E4FA4CF2CF60C0F6020021460E227B
:1010E0000AF004FA20880538208001200BF050F81F
:1010F00000200BF0B9FA46F29470C2F200000168C9
:1011000021F04001A6E046F25F70C2F2000001212A
:10111000017001200BF0A8FA01200AF0E3FF6FF044
:101120007F400BF0BBFA40F2A034C2F2000420462C
:101130000AF044FBFF200BF0B1FAB4F900C0B4F997
:101140000210B4F90420B4F90630082000900CF124
:1011500001000131013A013B09F042FD20880530D0
:10116000208040F2E870C0F602000BF0A5FA0220E1
:101170000BF002FB6FF07F400BF090FA4CF2C06076
:10118000C0F6020021460E220AF0B0F92088053888
:10119000208001200AF0FCFF00200BF065FA46F2E7
:1011A0009470C2F20000016841F0100152E046F272
:1011B0006370C2F200000121017001200BF054FAAB
:1011C00001200AF08FFF6FF07F400BF067FA40F2CA
:1011D000A834C2F2000420460AF0F0FAFF200BF017
:1011E0005DFAB4F900C0B4F90210B4F90420B4F9FE
:1011F0000630082000900CF101000131013A013B5A
:1012000009F0EEFC20880530208040F2E870C0F63E
:1012100002000BF051FA02200BF0AEFA6FF07F40A3
:101220000BF03CFA4CF2D960C0F6020021460E22C7
:101230000AF05CF920880538208001200AF0A8FF18
:1012400000200BF011FA46F29470C2F2000001681F
:1012500041F02001016002B010BD46F26170C2F29F
:1012600000000121017001200BF0FEF901200AF0BD
:1012700039FF6FF07F400BF011FA40F2B034C2F248
:10128000000420460AF09AFA4FF47F400BF006FA69
:10129000B4F900C0B4F90210B4F90420B4F906306E
:1012A000082000900CF101000131013A013B09F0E6
:1012B00097FC20880530208040F2E870C0F60200DC
:1012C0000BF0FAF902200BF057FA6FF07F400BF0A9
:1012D000E5F94CF2CF60C0F6020021460E220AF07A
:1012E00005F920880538208001200AF051FF0020F0
:1012F0000BF0BAF946F29470C2F20000016841F0B6
:101300004001016002B010BD00F046BE00000000C8
:1013100080B506F059FFBDE8804006F021BF00000F
:1013200046F2647CC2F2000C0023ACF8003051B1EC
:1013300010F8013BBCF800201A44ACF80020013939
:1013400011F0FF0FF4D19CF80000404246F65831EE
:10135000C2F200010870C0B2704700000000000037
:1013600080B546F2647EC2F2000E4FF0000CAEF87B
:1013700000C0002908BF80BD002300BF5A1CAEF882
:10138000002000F803C0BEF800308B42F6D380BDC9
:101390002DE9F04146F6D014C2F2000446F6F038CA
:1013A000C2F2000820464146012203F085FF46F2C2
:1013B0006876C2F2000620463146012203F05CFF47
:1013C00046F26C74C2F2000420462021FFF7C8FFE9
:1013D00001200BF049F940F23870C2F200000078A9
:1013E000012840F09D8041200521F5223C2309F091
:1013F000D1FE0520E621F5224FF4877309F0CAFEDD
:101400004BF29060C0F601000BF056F94FF6FF70FA
:101410000BF044F902200BF0AFF90C200BF0A2F90D
:1014200030780138062807D8DFE800F0040D0F11E6
:101430001315080042A00FE0072030704CF2BC608A
:10144000C0F6020008E03DA006E03BA004E039A0A1
:1014500002E037A000E035A00521F0220AF03EF8B6
:101460002E20A07043F22E20A4F805003027E7714B
:101470007078B178F27847EA11132370032565F389
:101480001F11617047EA1011E17065F31F102071A0
:1014900047EA1210207265F31F1262724BF29066D7
:1014A000C0F6010630460BF007F94FF6FF700BF05F
:1014B000F5F802200BF060F90D200BF053F9DC2059
:1014C000F0210AF055FA204609F084FF2046202139
:1014D000FFF746FF3A20A07098F8000098F8011036
:1014E00047EA1012227065F31F10607047EA11106E
:1014F000E07065F31F11217130460BF0DDF84FF6F7
:10150000FF700BF0CBF802200BF036F901200BF046
:1015100029F9DC2014210AF02BFA204609F05AFFA1
:101520000020BDE8F0410BF09FB800BF53415400CC
:10153000465249005448550057454400545545000B
:101540004D4F4E00000000002DE9F04383B040F203
:10155000D478C2F20008002088F800000AF010FADF
:1015600047F66930C0F600000AF0B0FE4FF00109FE
:1015700001200DF0EBFF002001210DF0D1F801203A
:1015800001210DF0CDF800200BF06EF809F0F3FD0D
:101590004CF28860C0F602000021002209F0CCFF66
:1015A000022440F60300CDE9000405204121D222A7
:1015B0002D2308F0B3FD46F62401C2F200010860B5
:1015C00040F60400CDE9000405206E21D2222D232F
:1015D00008F0A4FD46F62C01C2F20001086040F6B6
:1015E0000500CDE9000405209B21D2222D2308F01F
:1015F00095FD46F62801C2F2000108600AF07AF86B
:1016000001200BF031F84FF07F400BF045F809F066
:10161000B2FD4CF29C60C0F60200F921342209F0C0
:101620008BFF6FF07F400BF039F840F2A036C2F22A
:10163000000630460AF0C2F847F66754C0F2AA0422
:1016400020460BF02BF8B6F90000B6F90210B6F9F7
:101650000420B6F906300827009701300131013A1D
:10166000013B09F0BDFA3088053030804FF6F07547
:10167000C0F6010528460BF01FF802200BF07CF89D
:101680004DF2D3600BF00AF84CF2C060C0F60200D5
:1016900031460E2209F02AFF3088053830806FF07D
:1016A0007F400AF0FBFF40F2A836C2F20006304647
:1016B0000AF084F820460AF0F1FFB6F90000B6F906
:1016C0000210B6F90420B6F9063000970130013156
:1016D000013A013B09F084FA308805303080284611
:1016E0000AF0EAFF02200BF047F84DF2D3600AF04F
:1016F000D5FF4CF2D960C0F6020031460E2209F047
:10170000F5FE3088053830806FF07F400AF0C6FF64
:1017100040F2B036C2F2000630460AF04FF82046DA
:101720000AF0BCFFB6F90000B6F90210B6F90420C1
:10173000B6F90630009701300131013A013B09F05A
:101740004FFA30880530308028460AF0B5FF022075
:101750000BF012F84DF2D3600AF0A0FF4CF2CF600C
:10176000C0F6020031460E2209F0C0FE40F2387089
:10177000C2F2000080F80090308805383080FFF712
:1017800007FE00F009F888F80090002003B0BDE8DB
:10179000F0430AF069BF000040F23870C2F2000066
:1017A0000078012818BF7047B0B501200AF05CFF2F
:1017B00040F60814C2F20004E0884CF6CD45CCF6A1
:1017C000CC45A0FB0501C8080002A0EBD100A0F6A3
:1017D000F25048F63961C3F6E301A0FB010121F0A4
:1017E000030040F63031C0F6020108580AF056FFF7
:1017F0004FF4A8708B21382209F0A4FF6FF07F40CE
:101800000AF04CFF0D200AF0ADFF02200AF0B4FFF1
:1018100040F24F1096210AF0ABF840F2E870C0F6A3
:1018200002000AF049FFE088A0FB0501C808022178
:1018300009F0B6FD4CF2B860C0F6020009F0CAFD2E
:101840004FF4967073210AF093F840F22C30C0F6F2
:1018500002000AF031FF06A009F0BCFD4FF4B97098
:1018600014210AF085F80020BDE8B0400AF0FCBE63
:10187000536574757000000040F23870C2F20000C9
:101880000078012818BF704710B501200AF0ECFE5F
:101890004FF07F400AF000FF4FF4A07005214FF495
:1018A000F072282309F076FC4FF4B97014210AF085
:1018B0005FF849F66000C0F601000AF0FDFE4FF641
:1018C000FF700AF0EBFE02200AF056FF0D200AF02E
:1018D00049FF1EA009F07EFD4FF4C87014210AF0E4
:1018E00047F84BF29060C0F601000AF0E5FE4FF6B3
:1018F000FF700AF0D3FE02200AF03EFF0C200AF02F
:1019000031FF40F60814C2F20004B4F90400B0F14B
:10191000FF3F02DC0FA009F05DFDA0886FF31F30D0
:101920004CF6CD41CCF6CC41A0FB0101C808022108
:1019300009F036FD4CF2B860C0F6020009F04AFD2D
:101940000020BDE810400AF08FBE00BF494E444F52
:101950004F523A002D0000002DE9F04182B046F2CE
:101960009870C2F200000168002940F056822121DF
:10197000016009F0BFFE46F28C70C2F200000168FF
:1019800051B94EF66021016001200AF0ABFBFFF770
:10199000FFFC01200AF0FCFB46F29475C2F2000540
:1019A000286810F0040F0AD020F0040028600120FD
:1019B0000AF098FBFFF760FF01200AF0E9FB2868B6
:1019C00010F4007F0AD020F40070286001200AF093
:1019D00089FBFFF7E1FE01200AF0DAFB286800F03E
:1019E0001901012934D140F00800286001200AF0D3
:1019F0003BFE01200AF076FB4FF47F000AF04EFE1A
:101A00004FF4A8708B21382209F09CFE0920002198
:101A1000CDE9001040F2C430C2F20000043040F2C0
:101A20001311552264230AF0DDFC40F6F801C2F2DE
:101A30000001086046F29070C2F2000041F2E1013C
:101A4000016001200AF0A4FB00200AF00DFE1FE057
:101A500000F0090008281BD146F29070C2F2000085
:101A60000068A8B901200AF03DFB286820F00800B2
:101A7000286040F6F804C2F2000420680AF05EFD17
:101A800020680AF001FDFFF787FE01200AF080FBC5
:101A900040F23870C2F200000078012840F0BD81A9
:101AA00046F62408C2F20008D8F8000008F094FCBA
:101AB00046F25E74C2F20004002865D02078002847
:101AC00062D10120207046F25F70C2F200000178FE
:101AD000012965D0002940F0B18001210170012069
:101AE0000AF0C2FD01200AF0FDFA6FF07F400AF013
:101AF000D5FD40F2A034C2F20004204609F05EFE9B
:101B0000FF200AF0CBFDB4F90000B4F90210B4F9DB
:101B10000420B4F906300827009701300131013A5A
:101B2000013B09F05DF820880530208040F2E87024
:101B3000C0F602000AF0C0FD02200AF01DFE6FF0A0
:101B40007F400AF0ABFD4CF2C060C0F602002146B7
:101B50000E2209F0CBFC20880538208001200AF0F5
:101B600017FB00200AF080FD286840F01001296072
:101B700010F0400F62D046F62800C2F20000006864
:101B8000012108F038FC59E0D8F8000008F024FCE6
:101B9000002853D1207800281CBF002020704DE081
:101BA0000021017001200AF05FFD01200AF09AFA7D
:101BB0006FF07F400AF072FD40F2A034C2F20004E0
:101BC000204609F0FBFD47F66750C0F2AA000AF074
:101BD00065FDB4F90000B4F90210B4F90420B4F9B9
:101BE00006300827009701300131013A013B08F027
:101BF000F7FF2088053020804FF6F070C0F6010016
:101C00000AF05AFD02200AF0B7FD4DF2D3600AF047
:101C100045FD4CF2C060C0F6020021460E2209F0DC
:101C200065FC20880538208001200AF0B1FA0020E8
:101C30000AF01AFD286820F01000286046F62C06ED
:101C4000C2F20006306808F0C7FB46F26277C2F2C3
:101C5000000700285DD0387800285AD128788006FF
:101C600057D50120387046F26370C2F20000017847
:101C700001294ED10021017001200AF0F5FC01205C
:101C80000AF030FA6FF07F400AF008FD40F2A83405
:101C9000C2F20004204609F091FD47F66750C0F2F9
:101CA000AA000AF0FBFCB4F900C0B4F90210B4F9C0
:101CB0000420B4F90630082000900CF10100013135
:101CC000013A013B08F08CFF2088053020804FF658
:101CD000F070C0F601000AF0EFFC02200AF04CFDA3
:101CE0004DF2D3600AF0DAFC4CF2D960C0F6020083
:101CF00021460E2209F0FAFB2088053820800120B9
:101D00000AF046FA00200AF0AFFC286820F0200014
:101D10002860306808F060FB20B9387800281CBFC4
:101D20000020387046F62806C2F20006306808F037
:101D300053FB46F26074C2F20004002864D020789D
:101D4000002861D10120207046F26170C2F20000CB
:101D50000178012964D000295FD10121017001209F
:101D60000AF082FC01200AF0BDF96FF07F400AF012
:101D700095FC40F2B034C2F20004204609F01EFD8A
:101D80004FF47F400AF08AFCB4F90000B4F9021065
:101D9000B4F90420B4F90630082700970130013166
:101DA000013A013B08F01CFF20880530208040F2FA
:101DB000E870C0F602000AF07FFC02200AF0DCFCAA
:101DC0006FF07F400AF06AFC4CF2CF60C0F6020070
:101DD00021460E2209F08AFB208805382080012048
:101DE0000AF0D6F900200AF03FFC286840F04001D4
:101DF000296010F0100F10D0D8F80000012102B0B7
:101E0000BDE8F04108F0F7BA306808F0E5FA20B90B
:101E1000207800281CBF0020207002B0BDE8F081AF
:101E20000021017001200AF01FFC01200AF05AF97C
:101E30006FF07F400AF032FC40F2B034C2F200048E
:101E4000204609F0BBFC47F66750C0F2AA000AF032
:101E500025FCB4F90000B4F90210B4F90420B4F977
:101E600006300827009701300131013A013B08F0A4
:101E7000B7FE2088053020804FF6F070C0F60100D4
:101E80000AF01AFC02200AF077FC4DF2D3600AF047
:101E900005FC4CF2CF60C0F6020021460E2209F08C
:101EA00025FB20880538208001200AF071F90020E8
:101EB0000AF0DAFB286820F04000286002B0BDE894
:101EC000F08100000000000080B546F6E800C2F294
:101ED000000000F019FC4BF20800C4F202000221DD
:101EE000016080BD0000000001686FF00F0252FA2F
:101EF00081F240F2FF3399435F2A88BF41F0040129
:101F000081654AF6AB23CAF6AA23A2FB03231A096A
:101F100002A39A5CC2650846704700BF000610160F
:101F200000061016000000008269816AB2F5005FA9
:101F300006D06AB9022912D0012915D0D9B90EE00C
:101F4000032918D8DFE801F0020B021001207047C6
:101F500003293CBF012070471CBF0020704790F848
:101F60002F0000F001007047C06AA0F1C070B0FA05
:101F700080F040097047002070470000000000001A
:101F800070470000000000004FF4005000F048BE11
:101F9000082000F045BE000070470000000000006F
:101FA0002DE9F041054643F61447C4F2010740F617
:101FB0000008C4F20208A0B346F6F016C2F200060A
:101FC000304603F0B1FC1D2001F012FE282001F084
:101FD0000FFE4FF400543C6030686FF00101016166
:101FE000002640464FF48071002200F0F5FE46F6D0
:101FF0000840C2F20000056040F60710C2F200007F
:10200000067046F60C40C2F20000066046F610402C
:10201000C2F2000006603C602820BDE8F04101F0FB
:10202000EBBD282001F0E4FD1D2001F0E1FD46F6A6
:10203000F010C2F2000001686FF001020A614FF473
:102040000051396003F070FC002440464FF4807169
:10205000002200F0C1FE46F60C40C2F2000004600F
:1020600040F60710C2F20000047046F60840C2F2C3
:102070000000046046F61040C2F200000460BDE8B3
:10208000F0810000000000002DE9F0410B680268BB
:10209000012B20D1D1E901E7D1E90365D1E9058C14
:1020A000D1E90734496A22F4F8421A432243114322
:1020B0004268016047F6FF7122EA010141EA0E0120
:1020C00039433143294341EA080141EA0C014160A7
:1020D0000020BDE8F08147F6FF7322EA030CD1E946
:1020E0000132D1E903E401F1140898E8E00143EA80
:1020F0000C031A4342EA0E0222432A4332433A4374
:1021000042EA0802496A114301600020BDE8F081FB
:10211000426942EA4101416100207047000000002D
:10212000F0B581B0144605460027009791E80D00F0
:10213000C9686FF01F0606EB43131043184340EACB
:10214000412000900098286100F04EFE0646A869E4
:1021500010F0200F10D0671C2FB154B100F044FED6
:10216000801BA04207D8A86910F0200FF4D10027E7
:1021700002E0032700E00327F8B201B0F0BD000041
:10218000F0B58368012A33D140F6FF72CFF60F72A3
:102190001A4091E82810D1E9034ED1E905614FF2C8
:1021A0000007CFF6FF7707EB043422430024CFF675
:1021B000F07404EB06542243C46882606FF00F028F
:1021C00002EB051204F07044013B23431A436FF005
:1021D000FF0303EB0C231A430023CFF6FF7303EB3B
:1021E0000E431A43FF3142EA0161C1600020F0BD95
:1021F000D1E900C2D1E902E46FF00F0505EB02124C
:1022000003F07043ACF101052B431A436FF0FF0359
:1022100003EB0E231A434FF20003CFF6FF7303EBD9
:1022200004331A430B690025CFF6FF7505EB034312
:102230001A434B690025CFF6F07505EB03531A439B
:102240008969FF3142EA016181600020F0BD000030
:1022500040F20000CCF240004FF4001108F0DABD6B
:10226000704700000000000040F6A000C2F200002D
:102270000068704700000000704700000000000088
:10228000B0B581B00022009290F83C20012A01D123
:1022900002215EE0012280F83C20D1F800E01FFA24
:1022A0008EFC4FEA4C0212FA8EF2BEF10A0F11D3E5
:1022B0001E3A072303FA02F4036853F80C5F25EA79
:1022C00004041C608C681225C1F20005AE450BD1D8
:1022D00022060BE0072303FA02F4036853F8105FA9
:1022E00025EA04041C608C6804FA02F21C6822438C
:1022F0001A604968062906D801EB81010539026890
:1023000002F134030EE001EB81020C2905D8A2F1A1
:102310002301026802F1300304E0A2F141010268E6
:1023200002F12C031F228A401C6824EA02021A6070
:102330000CFA01F11A6811431960026842F2043183
:10234000C4F20101A1F541739A4205D0002180F841
:102350003C10C8B201B0B0BDBEF1110F1EBF1222B9
:10236000C1F20002964520D10A6842F400020A60D8
:102370001221C1F200018E45E8D140F2B831C2F21B
:10238000000109684DF68362C4F21B32A1FB021200
:10239000910C01EB8101490002E000BF0099013975
:1023A000009100990029F9D1D0E7BEF1120F02BFC8
:1023B0000A6842F480020A60C8E7000000000000DA
:1023C0000068C06C70470000B0B50446002802BF2A
:1023D00001252846B0BD206C30B9002084F83C00AF
:1023E0006064204600F01CF8206C012510F0100FEE
:1023F00010D1206C41F20211884340F002002064A9
:102400002046FEF75DFA00206064206C65F3010051
:1024100020640025002084F83C002846B0BD000060
:102420007047000000000000F0B581B00D46044682
:102430000068816811F4806F1CBF806810F4807F91
:102440002FD100F0D1FC06462068016811F0020F80
:102450000DD1CDB16F1C00BF27B100F0C5FC801BB2
:10246000A84211D82068016811F0020FF4D06FF073
:1024700012010160216C41F400712164816811F046
:10248000405F0AD000202CE0002084F83C00206C43
:1024900040F004002064032023E0A16951B1002032
:1024A0001FE0002084F83C00206C40F020002064F5
:1024B000012016E0C16A11F4700F1CBF806810F48F
:1024C000806F0DD1206C20F480702064206C10F49B
:1024D000805F02BF206C40F001002064002000E01B
:1024E0000020C0B201B0F0BD81B00021009190F891
:1024F0003C10012901D102206AE0012180F83C1042
:1025000001688A6812F0010F18D18A6842F001024E
:102510008A6040F2B832C2F2000212684DF683635C
:10252000C4F21B33A2FB03239A0C02EB420201E02C
:10253000009A013A0092009A002AF9D18A6812F0B2
:10254000010F01D1002043E0026C40F201739A4375
:1025500042F4807202644A6812F4806F1FBF026CFA
:10256000012363F30D320264036C002213F4805FD5
:102570004FF000031CBF436C23F0060380F83C209F
:1025800043646FF02200086042F20000C4F20100D0
:10259000D0F8042312F01F0F03D0814207D000208F
:1025A00016E0886810F0405F07D0002010E08868CF
:1025B00010F0405F07D000200AE0886840F08040BB
:1025C0008860002004E0886840F080408860002037
:1025D000C0B201B07047000080B54FF01F0E002957
:1025E0000EDB4FF0010C00BFBEF1000F06D0AEF1C4
:1025F000010E0CFA0EF30B42F6D001E04FF0FF3E55
:102600000123B3EBF20F0DD04FEAF20CBCF1020F35
:102610000ED0BCF1030F10D1BEF1060F84BF012014
:1026200080BD0AE0BEF10F0F84BF012080BD04E031
:10263000BEF1070F84BF012080BD00684161816841
:1026400021F0180111438160002080BD00000000CE
:1026500010B50446002804BF012010BD607F20B9DA
:1026600000202077204600F033F8022060772079A0
:1026700048B1D4E902122046FFF7AEFF00281CBF84
:10268000012010BD09E0206841F6B751C0F2C141F8
:102690004161816821F0180181606079002814BFD0
:1026A00020694FF0FF302168086120688168626905
:1026B00021F06001114381608168A26921F08001ED
:1026C0001143816001206077002010BD00000000F0
:1026D000016843F63000C4F20200A0F503629142A3
:1026E00018BF704781B0016841F4805101600068F3
:1026F00000F480500090009801B070470000000086
:10270000704700000000000070B50446006846688D
:10271000056816F0010F18BF15F4807177D1B00667
:1027200018D515F4005015D02068016821F4005127
:102730000160202181606169E06B40F00200E0638C
:10274000002084F83800042084F8390000291CBFD8
:1027500020468847300718D515F4006015D020684A
:10276000016821F400610160082181606169E06B0A
:1027700040F00400E063002084F83800042084F86E
:10278000390000291CBF2046884770070CD515F476
:10279000806009D02068016821F480610160042113
:1027A0008160204600F050F8B00716D515F400708F
:1027B00013D02068016821F400710160022181605A
:1027C0002169E06BE063002084F83800012084F880
:1027D000390000291CBF20468847F00658BF70BD4D
:1027E00015F480502CD02068016821F480510160DC
:1027F00010218160E06BE063002084F83800012044
:1028000084F839002046BDE87040FFF779BF0168C1
:1028100021F480710160E16B41F00101E16301216C
:102820008160002084F83800042084F83900616950
:1028300000291CBF20468847B0063FF572AF89E7E4
:1028400070BD0000000000007047000000000000A4
:1028500070B50446866D00F0C7FA054694F8350059
:10286000022829D12068016821F016010160416920
:1028700021F080014161216C09B9A16C19B1016895
:1028800021F008010160016821F00101016000BF31
:102890002068006810F0010F16D000F0A5FA401B68
:1028A0000628F5D320206065002084F8340003203A
:1028B00084F83500C0B270BD002084F83400802058
:1028C00060650120C0B270BDE06D3F2101FA00F0EB
:1028D000B060012084F83500002084F83400C0B2D4
:1028E00070BD00000000000090F8351002291FBFE5
:1028F0008021416501207047052180F8351000686E
:10290000016821F001010160002070470000000013
:10291000B0B50446002802BF0125E8B2B0BD94F866
:102920003500022802BF0225E8B2B0BD2068016868
:1029300021F0010101600025056045608560C560EA
:102940000561212141612046FFF7CEFAE16D3F226A
:1029500002FA01F18160656584F8345084F83550DD
:10296000E8B2B0BD000000002DE9F041044600F0DF
:102970003BFA0546002C02BF0122D0B2BDE8F0812F
:10298000022084F83500002084F8340020680168B3
:1029900021F00101016000BF2668306810F0010FCE
:1029A00008D000F021FA401B0528F5D9032020218A
:1029B000032244E0306848F23F01CFF2100100EA00
:1029C000010C251D2ECDD4E9050ED4E9077841EA86
:1029D0000C01114319432943084340EA0E003843D0
:1029E00040EA0801606A042816D1D4E90B23114398
:1029F0001943316056F8141F21F007010843D4E948
:102A00000A1240EA010572B12046FFF78DFA50B173
:102A100001204021012212E0316056F8141F21F0FC
:102A2000070141EA000535602046FFF75DFAE16DD8
:102A30003F2202FA01F1816000210120002261653C
:102A400084F83500D0B2BDE8F0810000000000003D
:102A500010B582B0019000F0C7F9044600F0C4F947
:102A6000001B01998842F9D302B010BD000000009C
:102A70002DE9F04F81B042F20042C4F202020A2373
:102A8000904208BF0923009300F13E4202F1FF7219
:102A90004FEAB22E002243F6004AC4F2010A4FF078
:102AA000010C0026002407E0043202360134102C09
:102AB00004BF01B0BDE8F08F0CFA04F818EA010B6E
:102AC000F2D00323B34005689D43056002F01C0566
:102AD0004FF00F0C0CFA05F54FF6FC77C7F6FF77B1
:102AE00007EA54070744D7F8209029EA05053D6214
:102AF00085689D438560456825EA08054560C56889
:102B000025EA0303C3604FEA9409AAF57E7353F8DC
:102B1000295002F00C070CFA07F805EA0805BEF187
:102B2000090FDDF800C038BFF4460CFA07F74FF084
:102B3000010CBD42B8D153F8297027EA080743F8C1
:102B40002970DAF8003023EA0B03CAF80030DAF80B
:102B5000043023EA0B03CAF80430DAF8083023EA19
:102B60000B03CAF8083043F60C43C4F201031F46B6
:102B70001B6823EA0B033B6096E70000000000009F
:102B800010B5B0F5804F0ED0B0F5005F16D0082814
:102B900013D1092001F02CF843F61440C4F20100CF
:102BA0000821016010BD282001F022F843F61440EE
:102BB000C4F201004FF48041016010BD282001F0F3
:102BC00017F843F61440C4F201004FF400510160BD
:102BD00040F60710C2F200000178002918BF10BDAE
:102BE00046F61041C2F2000100220A600121017084
:102BF00046F60840C2F20000006846F60C41C2F2F8
:102C00000001086046F6F014C2F200042068426237
:102C10001D2000F0F1FF204602F07AFE10BD0000FA
:102C200043F61441C4F201010A6802421CBF086065
:102C3000FFF7A6BF704700002DE9F04F83B042F2C6
:102C40000042C4F202020A23904208BF0923019302
:102C500000F13E4202F1FF724FEAB22200920022DE
:102C600043F6004EC4F2010E4FF0010C00244FF069
:102C7000000809E00232043408F10108B8F1100F2D
:102C800004BF03B0BDE8F08F0CFA08FA0F6817EA2A
:102C90000A09EFD04F6847F01007122F11D104F046
:102CA0001C070F2303FA07F54FF6FC73C7F6FF73F3
:102CB00003EA58060644336AAB430D69BD402B4313
:102CC00033620323934005689D43D1F804B00BF0B1
:102CD0000306964035430560DF43BBF1120F15D85C
:102CE0000CFA0BF313F0061F1FBF83683B40CD683F
:102CF00095401FBF2B438360CBF3001303FA08F307
:102D00001FBF456825EA0A052B434360C3683B4063
:102D10008D6895402B43C3605FEACB03AAD543F689
:102D20004403C4F202031D461B6843F480432B6036
:102D30002B6803F48043029328F003037344029D3D
:102D40004FF60845CFF6FF75AB465D5904F00C060B
:102D50000F27B74025EA070A009D092D019F38BFBC
:102D60002F4607FA06F646EA0A0543F80B50DEF846
:102D7000003043EA09054E6816F4803F08BF23EA95
:102D80000905CEF80050DEF8043043EA090516F4D0
:102D9000003F08BF23EA0905CEF80450DEF80830EA
:102DA00043EA090516F4801F08BF23EA0905CEF897
:102DB000085043F60C43C4F201031F461B6843EA64
:102DC000090516F4001F08BF23EA09053D6051E715
:102DD0004269514041617047002A08BF090481617E
:102DE000704700000000000046F61C40C2F20000E0
:102DF000006870470000000090F86810012902BFC9
:102E00000221C8B27047242180F8691001680A685D
:102E100022F00C020A600A6842F004020A600021F3
:102E200080F86810202280F86920C8B2704700003E
:102E300090F86810012902BF0221C8B2704724210E
:102E400080F8691001680A6822F00C020A600A68BA
:102E500042F008020A60002180F86810202280F801
:102E60006920C8B27047000010B50446A8B194F8B4
:102E7000690028B9002084F86800204603F07CF837
:102E8000242084F869002068016821F001010160B4
:102E9000204606F01DF8012801D1012010BD606A0E
:102EA00000281CBF204605F017FF2068416821F468
:102EB00090414160816821F022018160816841F088
:102EC00008018160016841F0010101602046BDE810
:102ED000104005F075BF000010B50446002804BF7F
:102EE000012010BD242084F841002068016821F0F1
:102EF00001010160204600F00BFA0020606484F8B4
:102F00004100206384F8400084F8420010BD0000B6
:102F100090F841007047000010B50446002804BF37
:102F2000012010BD94F8410028B9002084F8400029
:102F3000204600F0F1F9242084F84100206801685F
:102F400021F001010160616821F070610161816817
:102F500021F400418160D4E90212012A03D141F435
:102F60000041816007E041F404418160022A04BF0E
:102F70004FF400614160416841F0007141F400414B
:102F80004160C16821F40041C16004F110030ECB1F
:102F9000114341EA0321C160D4E9071211430160E2
:102FA000016841F00101016000206064202184F883
:102FB0004110206384F8420010BD000000000000B2
:102FC0002DE9F04F83B01F4616468B46044690F815
:102FD000410020280ED10C9D0120002D1CBFDDF8E2
:102FE00034A0BAF1000F06D094F84000012806D1B1
:102FF000022000E00220C0B203B0BDE8F08F012043
:1030000084F84000FFF7F0FE8146009020464FF420
:1030100000410122192303F0F7F908B10320EAE780
:103020000E99222084F84100402084F842004FF09D
:103030000008C4F8448065620D46C4F83480A4F8E2
:103040002AA0CDE900192046594632463B4603F0F6
:103050004FF948B184F84080616C0320042908BF0F
:10306000012003B0BDE8F08F608DB0F5807F0AD3FA
:10307000FF2020854FF41050009020465946FF2233
:103080004FF0807309E0608D20854FF4105100915E
:10309000C2B2204659464FF0007303F0A1F9002652
:1030A0004FF6FF774FF0FF0ACDF80090204604213D
:1030B00000222B4603F0A8F9F0BB2068406A616A41
:1030C0004A1C62620870208D01382085618D0139AB
:1030D0006185384221D1608DF8B1CDF8009020464D
:1030E000802100222B4603F08FF9C8BB608DB0F51C
:1030F000807F08D3A4F828A0009620465946FF22D6
:103100004FF0807307E0608D20850096C2B22046A4
:1031100059464FF0007303F063F9608D0028C3D166
:10312000204629464A4603F0ABF938B1616C0320CA
:10313000042908BF01205EE703205CE72068202106
:10314000C16142684EF60003CFF600631A40426048
:1031500084F84110002084F8400084F842004AE7D7
:10316000032048E7000000002DE9F04F83B01F4620
:1031700016468B46044690F8410020280ED10C9D3F
:103180000120002D1CBFDDF834A0BAF1000F06D0DD
:1031900094F84000012806D1022000E00220C0B2CD
:1031A00003B0BDE8F08F012084F84000FFF71CFE5B
:1031B0008146009020464FF400410122192303F07C
:1031C00023F908B10320EAE70E99212084F8410091
:1031D000402084F842004FF00008C4F84480656243
:1031E0000D46C4F83480A4F82AA0CDE90019204681
:1031F000594632463B4603F0B7F848B184F8408060
:10320000616C0320042908BF012003B0BDE8F08FE2
:10321000608DB0F5807F09D3FF20208500200090CD
:1032200020465946FF224FF0807308E0608D2085CC
:1032300000210091C2B2204659464FF0007303F0BE
:10324000CFF84FF6FF7600274FF0FF0A20462946B9
:103250004A4603F041F9F0BB2068616A4A1C626289
:1032600009788162608D01386085208D0138208564
:10327000304221D1608DF8B1CDF8009020468021F8
:1032800000222B4603F0C0F8E8BB608DB0F5807FCC
:1032900008D3A4F828A0009720465946FF224FF0F3
:1032A000807307E0608D20850097C2B220465946A2
:1032B0004FF0007303F094F8608D0028C6D12046CB
:1032C00029464A4603F0DCF858B1616C0320042912
:1032D00008BF012063E7616C0320042908BF0120B7
:1032E0005DE720682021C16142684EF60003CFF6F9
:1032F00000631A40426084F84110002084F84000C6
:1033000084F842004BE7032049E70000000000007A
:10331000704700000000000070470000000000003F
:1033200046F61C40C2F2000001680131016070479E
:1033300080B543F60040C4F20200016841F4007118
:103340000160032000F06CFC0F2000F005F800F095
:103350004BFC002080BD000010B5044640F2B830A0
:10336000C2F20000006844F6D351C1F26201A0FB32
:103370000101880902F084FA4FF0FF302146002253
:1033800000F03EFC002010BD2DE9F04190F8A04077
:103390000225012C2ED080F8A1504FF0010C80F8AE
:1033A000A0C012B3342503FB050505F1480E8424A3
:1033B00004EBC31800240025DEF80060062E2E461C
:1033C00008BF264651F8047BFBB2334307F47F461F
:1033D000334307F47F06334306684644336404F1FD
:1033E0008854013A05F18075E6D1002580F8A05097
:1033F00080F8A1C0E8B2BDE8F08100000000000044
:1034000090F8A0C00223BCF1010F14D080F8A130C5
:10341000036803EBC212D2F8903003F07F43C2F886
:103420009030C2F89010016801224A62002380F8AF
:10343000A03080F8A120D8B2704700000000000042
:103440002DE9F041044690F8A0300220012B2DD048
:1034500084F8A1004FF0010884F8A080342002FB1A
:103460000040D1E900CED1E90267D1E90435C0E9D5
:103470001235C0E91067C0E90ECED1E906CED1E918
:103480000865D1E90A37C0E91837C0E91665C0E90F
:1034900014CE0B6B8366204603F0C2FA2068C0F896
:1034A0002480002084F8A00084F8A180C0B2BDE888
:1034B000F08100000000000010B5044600F0B0F9F3
:1034C0000020C4F8A40084F8A00084F8A100002023
:1034D00010BD00000000000090F8A0300222012B77
:1034E00012D080F8A120026802EBC111D1F884202B
:1034F00022F00202C1F88420016801234B620022FD
:1035000080F8A02080F8A130D0B270470000000001
:1035100090F8A0300222012B12D080F8A12002687E
:1035200002EBC111D1F8842042F01002C1F88420CE
:10353000016801234B62002280F8A02080F8A130AE
:10354000D0B270470000000090F8A0300222012B9A
:1035500012D080F8A120026802EBC111D1F88420BA
:1035600042F00202C1F88420016801234B6200226C
:1035700080F8A02080F8A130D0B270470000000091
:1035800090F8A0200221012A0FD080F8A11046F661
:103590001801C4F201010A6842F480320A60002175
:1035A00080F8A010012280F8A120C8B27047000066
:1035B000704700000000000010B504460068816BF1
:1035C00011F0040F1CBF816B11F0040F2BD1206888
:1035D000816B11F0020F1CBF816B11F0020F37D10C
:1035E0002068816B11F0010F1CBF816B11F0010F7E
:1035F00044D12068816B11F0080F1ABF816B11F064
:10360000080F10BD416B21F0080141630821C1631F
:10361000002084F8A000012084F8A1002046BDE825
:10362000104000F0FDB9416B21F004014163042119
:10363000C163D4F8A40040F00100C4F8A400002045
:1036400084F8A00084F8A1102046FFF7B1FFBEE780
:10365000416B21F0020141630221C163D4F8A4004F
:1036600040F00200C4F8A400002084F8A000042068
:1036700084F8A1002046FFF79BFFB1E7416B21F0E2
:10368000010141630121C163002084F8A00084F896
:10369000A110204600F07CF8ABE70000000000001D
:1036A00010B50446002804BF012010BD94F8A10005
:1036B00028B9002084F8A000204600F0B5F80220C8
:1036C00084F8A1002068816921F070418161D4E90A
:1036D00001C2D4E9033142EA0C021A431143826960
:1036E0001143816181684FF6000CCFF2000C01EAB2
:1036F0000C018160D4E90513826843EA014111435A
:103700008160C16801EA0C01C160D4E90712C36895
:1037100042EA01411943C160016901EA0C010161FA
:10372000D4E90912036942EA01411943016141697F
:1037300001EA0C014161D4E90B12436942EA0141FB
:103740001943416194F8351094F83620C36A03F0A8
:103750007F43C362120442EA012194F834201143EA
:10376000C26A1143C162416B41F004014163416B84
:1037700041F002014163816941F001018161002052
:10378000C4F8A400012184F8A11010BD00000000BD
:103790002DE9F04F81B00446002540F2BC36C2F25C
:1037A000000646F25478C2F2000846F24C79C2F2A2
:1037B00000094CF2B06AC0F6020A46F2447BC2F23B
:1037C000000B4FF0FF3700BF56F8250000281BDB29
:1037D00058F8251059F82520504348435AF8251029
:1037E0005BF8252000FB021120462A4600F01CF958
:1037F0002068416A41F00101416256F825102846CF
:1038000008F0B0FC46F825700135022DDCD12046C9
:10381000002101B0BDE8F04F00F0E6B80000000064
:1038200070470000000000002DE9F04F85B043F61E
:103830003000C4F20200416941F080614161416998
:1038400001F0806100910099016841F4000101607C
:10385000016801F4000100910099016841F0010143
:103860000160016801F0010100910099016841F0D7
:1038700002010160016801F00201009100990168F4
:1038800041F004010160016801F004010091009918
:10389000016841F008010160016801F00801009130
:1038A0000099016841F010010160016801F0100108
:1038B00000910099016841F020010160016801F068
:1038C000200100910099016841F040010160006809
:1038D00000F04000009000984FF00208CDF80480FE
:1038E0004FF48060009000270297032503954FF066
:1038F0000E0ACDF810A040F20049C4F2020909F501
:1039000080506C462146FFF797F9CDF80480C1201E
:103910000090CDE90275CDF810A009F58060214630
:10392000FFF78AF9CDF8048078200090CDE9027580
:10393000CDF810A0A9F580602146FFF77DF9CDE90B
:103940000058CDE902754FF0090BCDF810B048468C
:103950002146FFF771F9CDF804804FF470600090B4
:10396000CDE90275CDF810A048462146FFF764F96D
:10397000CDF804804FF40C600090CDE90275CDF8CD
:1039800010A009F5A05630462146FFF755F908204A
:10399000CDE90008CDE90275CDF810A009F5006069
:1039A0002146FFF749F9CDF804804FF4A05000906C
:1039B000CDE90275CDF810B030462146FFF73CF94D
:1039C00009F540650426284604210022FFF704FA81
:1039D0000120CDE90060CDE9027728462146FFF7B6
:1039E0002BF905B0BDE8F08F90F8A0300222012B32
:1039F00011D080F8A1200268536B43F00103536398
:103A000046F64002C4F201021160002280F8A020B4
:103A1000012180F8A110D0B2704700000000000022
:103A20007047000000000000B0B5044690F8A030D8
:103A30000220012B14D084F8A100012584F8A050A5
:103A4000342002FB0040C16500F13801204602F03D
:103A5000E7FF20684562002084F8A00084F8A150A8
:103A6000C0B2B0BD00000000B0B5044690F8A03070
:103A70000220012B14D084F8A100012584F8A05065
:103A8000342002FB0040C16400F13801204602F0FE
:103A9000C7FF20684562002084F8A00084F8A15088
:103AA000C0B2B0BD00000000F0B581B0054690F88E
:103AB000A0400220012C1CD085F8A100012785F828
:103AC000A070342003FB005444F8381FD4E90A06E0
:103AD0000844B118C4E90102E160284621461A46AB
:103AE00002F09EFF28684762002085F8A00085F854
:103AF000A170C0B201B0F0BDF0B581B0054690F83C
:103B0000A000022601281AD085F8A160012785F8B7
:103B1000A070342003FB0054002644F8386FC4E939
:103B20000116E260C4E90A12284621461A4602F04C
:103B300077FF2868476285F8A06085F8A170F0B229
:103B400001B0F0BD0000000010B542784EF69C5E5A
:103B5000CEF2000E4EF8042C0278F2B14368CEF893
:103B60000030037B42EA037290F808C0437A817AFE
:103B7000C47A42EA046242EAC141427B41EA82419C
:103B8000827B41EA4241C07B41EA004040EA032097
:103B900040EA4C00CEF8040010BD0020CEF8000032
:103BA000CEF8040010BD0000BFF35F8F4EF6245026
:103BB000CEF20000016821F480310160002101672C
:103BC000704700000000000040F001004EF6245154
:103BD000CEF200010867086840F480300860BFF347
:103BE0004F8FBFF36F8F70477047000000000000D9
:103BF00005F0EABF0000000005F0FABF0000000079
:103C000070B514460D46064606F002F829462246CF
:103C100003F0A6FA01463046BDE8704006F000B851
:103C200006F012B800000000B0B582B043F64000C4
:103C3000C4F20200016841F080510160006800F0A8
:103C400080500190019847F20005C4F200052868F1
:103C500040F480302860FFF7C7F80446686810F425
:103C6000803F07D1FFF7C0F8001BB0F57A7FF5D988
:103C700003201AE0286840F400302860FFF7B4F809
:103C80000446686810F4003F0CD100BFFFF7ACF8A1
:103C9000001BB0F57A7F07D8686810F4003FF5D0B4
:103CA000002002E0002000E00320C0B202B0B0BD5E
:103CB00070B582B00446FFF797F8054694F84110B6
:103CC000002011F0020F22D084F840002068016823
:103CD00011F0040F0CD0016821F004010160E06BC9
:103CE000FEF7B6FD00281EBF606C40F00400606463
:103CF0002068016841F002010160A06C009002267A
:103D00002046022101222B4604F066F908B102B0D8
:103D100070BD2068C660A06C009020462021002263
:103D20002B4604F059F9002802BF012084F8410015
:103D3000002002B070BD00007047000000000000CD
:103D400090F8411011F0020F18D0002180F84010B7
:103D5000082180F8411001680A6822F4F8120A600C
:103D60000A6812F0040F0BD10220C860086840F402
:103D700000300860086840F00200086000207047CA
:103D800080B50A6822F004020A60C06B47F69161B0
:103D9000C0F600010165FEF7A7FDBDE880400020E8
:103DA00070470000000000002DE9F04182B01D4680
:103DB000174688460446FFF717F8064694F8400071
:103DC000012802BF022002B0BDE8F081012084F882
:103DD000400094F84100012834D100206064422062
:103DE00084F841000095204620210022334604F04B
:103DF000F3F840BB20683968816279684162B9682C
:103E0000C16201683A6921F44001114341F4800123
:103E10000160F868C8F82800204641464FF000626B
:103E200003F062FF009508250127204608210122A2
:103E3000334604F0D1F830B92068C56084F8417089
:103E4000002000E00220002184F8401002B0BDE80C
:103E5000F08100000000000070470000000000003A
:103E6000F0B581B015460F460446FEF7BDFF064685
:103E700094F84000012802BF022001B0F0BD0120EB
:103E800084F8400094F841100220012921D100213A
:103E9000616484F8410000952046202100223346C9
:103EA00004F09AF8A8B920463946002203F01CFF16
:103EB000786A20B1012084F84100002009E00095D3
:103EC00002250127204602210122334604F084F80E
:103ED00020B1002184F8401001B0F0BD2068C56019
:103EE00084F84170E9E7000010B540F6A804C2F27A
:103EF00000042068002802BF0120C0B210BD94F861
:103F00004010012902BF0220C0B210BD012184F877
:103F10004010016821F00101016000F0CDF900209E
:103F2000606484F8410084F84000C0B210BD000015
:103F30007047000000000000704700000000000013
:103F400010B5044600688268016812F0040F18BFBB
:103F500011F4802327D1930742D511F400333FD0C9
:103F60000221C160016821F4E021016094F8411050
:103F700012294CD1016811F0040F09D0016821F019
:103F800004010160E06B0068016821F0010101603B
:103F90002046FFF7D5FE012084F841002046BDE809
:103FA000104000F081BB94F84110122939D12168EA
:103FB0000AE000BF616A4A1C6262097880F820103A
:103FC0002168E26A013AE2628A6812F0040F44D082
:103FD000E26A002AEED1086820F4802008603CE004
:103FE00013073FD511F400233CD00821C1600168BC
:103FF00011F4800F06D0016821F410210160012026
:1040000084F841002046BDE8104000F0E1BA94F881
:104010004110222938D1016811F0040F51D12168D3
:1040200073E094F84110222917D121680AE000BFFB
:1040300090F82010226B531C236311702168A26B2F
:10404000013AA2638A6812F0040F06D0A26B002A1C
:10405000EED1086820F4802008602046BDE81040BA
:10406000FFF76ABFD30718BF11F4803318D1D20607
:1040700058BF10BD11F480113CD01021C160204602
:10408000BDE8104000F0A8BA94F84100022823D1FE
:10409000012084F841002046BDE81040FFF7DCBE57
:1040A0000121C160026822F470220260626C42F059
:1040B00002026264026812F0040F38D184F84110E1
:1040C00013E0016821F004010160E06B0068016801
:1040D00021F0010101601FE094F84100082809D196
:1040E000012084F84100606C70B32046BDE81040A8
:1040F000FFF71EBF10BD90F82010226B531C2363E6
:1041000011702168A26B013AA263896811F4F85F0B
:104110001CBFA16B0029EED12046FFF711FE012044
:1041200084F841002046BDE8104000F049BA01681B
:1041300021F004010160E06B47F69161C0F60001D7
:104140000165FEF7D1FB10BD2046BDE81040FFF72A
:10415000F3BD0000000000002DE9F04182B00446EC
:10416000FEF742FE0546002C02BF012002B0BDE86A
:10417000F08194F84000012802BF022002B0BDE89F
:10418000F081012084F8400094F8410050B90020EB
:1041900084F84000204600F0D3F8204641F28831F0
:1041A00000F012FA20680168A2686FF0FF0303EBC9
:1041B000022221F4F85111430160A06C00904FF0ED
:1041C00000082046202100222B4603F005FF38BBC3
:1041D000D4E900120B684FF62F75C0F2FF052B4093
:1041E000E568D4E907672B4343EA026232433A4366
:1041F0000A604A684FF6FE03CFF6E0731A40D4E92E
:104200000437A6693A4342EA034232434A600A68E5
:1042100042F001020A60C4F84480012184F8411090
:1042200084F8408002B0BDE8F0810000000000008A
:1042300070B582B016460D460446FEF7D5FD03461E
:1042400094F84000012802BF022002B070BD012096
:1042500084F8400094F84100012825D100206064D2
:10426000822084F84100A06C00902046202100228A
:1042700003F0B2FEC8B920680168726821F0080135
:1042800011430160082A07D1316801631021C16020
:10429000016841F480110160204629464FF04062D8
:1042A00003F022FD002000E00220002184F84010ED
:1042B00002B070BD00000000B0B54620FFF798FCCA
:1042C0005C20FFF795FC40F2D870C2F2000046F285
:1042D000B841C4F202010160FEF71AFB41F200444A
:1042E000C4F20204A4F5805528464021FEF7C0FB25
:1042F00028460421FEF7BCFB20464FF48071FEF7F0
:10430000B7FB20464FF40071FEF7B2FB2046802138
:10431000FEF7AEFB20464021FEF7AAFB43F618004D
:10432000C4F20200016841F002010160016821F05D
:1043300002010160016A21F002010162B0BD0000CA
:104340002DE9F04F85B043F63000C4F202008168D9
:1043500041F002018160816801F002010091009941
:1043600050F8181C41F0020140F8181C50F8181CB5
:1043700021F0020140F8181C016841F002010160BF
:10438000016801F0020100910099016841F0020109
:104390000160016801F0020100910099016841F09B
:1043A00020010160016801F020010091009901687D
:1043B00041F020010160016801F0200100910099A5
:1043C000016841F020010160016801F020010091C5
:1043D0000099016841F020010160016801F02001AD
:1043E00000910099016841F480010160006800F4C7
:1043F000800000900098022001904FF04009CDF815
:104400000090012002904FF00308CDF80C804FF08F
:104410000A0BCDF810B041F20044C4F20204A4F536
:1044200080566D4630462946FEF706FC0027029767
:10443000042000904FF0090ACDF810A0304629461C
:10444000FEF7FAFBCDF810B04FF4807000902046D4
:104450002946FEF7F1FBCDF810B04FF40070009044
:1044600020462946FEF7E8FBCDF810A080200090FA
:1044700020462946FEF7E0FBCDF810A0CDF80090CD
:1044800020462946FEF7D8FB5C200F210022FFF7CB
:10449000B7FB5C20FFF7B0FB40F63800C2F200002B
:1044A0004FF0C06141604FF48061C0E90371C0E921
:1044B0000577C0E90777C0E90978C0E90B7746F2CC
:1044C000B841C4F20201016040F6A801C2F2000145
:1044D000C8638163FEF748FA462000210022FFF7F7
:1044E0008FFB4620FFF788FB05B0BDE8F08F00008A
:1044F0002DE9F04182B0154688460446FEF774FC6B
:1045000006462768B86994F84010012902BF0220C6
:1045100002B0BDE8F081012184F8401094F8411008
:1045200001292CD100216164B8F1000F3BD0222178
:1045300084F8411039690131A1633969C4F83080C8
:10454000013161637969012262F39B617961B8612C
:1045500009E000BF97F82000216B4A1C2263087015
:10456000A06B0138A063A06B58B1009520460621CE
:104570000122334603F030FD0028EBD00FE002208B
:1045800016E000950225204602210122334603F061
:1045900023FD20B92068C5602046FFF789FB012173
:1045A00084F8411004E0606C40F008006064012071
:1045B000002184F8401002B0BDE8F0810000000046
:1045C0007047000000000000816470470000000098
:1045D000704700000000000070470000000000006D
:1045E0002DE9F04182B0154688460446FEF7FCFBF3
:1045F0000646276894F84000012802BF022002B056
:10460000BDE8F081012084F8400094F841000128C1
:1046100029D100206064B8F1000F38D0122084F84E
:10462000410038690130E0623869C4F82480013003
:10463000A062786920F04060786108E0606A411CFF
:104640006162007887F82000E06A0138E062E06A81
:1046500058B10095204604210122334603F0BCFCEA
:104660000028EBD00FE0022016E00095022520463E
:1046700002210122334603F0AFFC20B92068C56057
:104680002046FFF715FB012184F8411004E0606C1F
:1046900040F0080060640120002184F8401002B05E
:1046A000BDE8F0810000000070470000000000003D
:1046B0002DE9F04F81B00446D0F8009043F6900603
:1046C000C4F2020619F0010F17D14FF0000A5FEA99
:1046D000093025D556F8041CE06B21F44011014344
:1046E00046F8041CB0F5801F20D14FF000084FF0B1
:1046F000010A5FEAC92020D431E056F8880C20F482
:10470000000046F8880C606B56F8881C014346F898
:10471000881CB0FA80F04FEA501A5FEA0930D9D409
:104720004FF000085FEAC92007D418E0B0FA80F023
:104730004FEA50185FEAC92011D556F8041C206CC6
:1047400021F44001014346F8041CB0F5800F02D16A
:104750004FF0010A03E0002808BF4FF0010843F6BC
:10476000000BC4F2020B19F0200F75D056F8500C54
:1047700040F0805046F8500C56F8500C00F0805035
:104780000090009843F60007CFF6FE775BF807002D
:1047900040F480704BF80700FEF726FB054600BF8B
:1047A0005BF8070010F4807F06D1FEF71DFB401B6D
:1047B0006428F5D9032052E256F8200C10F440701A
:1047C00031D0216B01F4407188422CD056F8200C76
:1047D00056F8201C41F4803146F8201C56F8201C65
:1047E00021F4803146F8201C20F4407046F8200C5B
:1047F00056F8200C10F0010F15D0FEF7F5FA05461B
:1048000056F8200C10F0020F0DD141F2883700BF8E
:10481000FEF7EAFA401BB84200F2258256F8200C57
:1048200010F0020FF4D0206B4FF6FF41C0F6FF717D
:10483000014056F8882C22F4F81200F44073B3F5C6
:10484000407F08BF0A4346F8882C56F8201C6FF3B7
:104850001F30084346F8200C276817F0100F68D166
:10486000780474D438047BD4F80300F18280B80350
:1048700000F18880780600F18E80380600F194807F
:10488000F80500F19A80B80500F1A080780500F1E4
:10489000A680380500F1AC80F80400F1B280B804BD
:1048A00000F1B880780200F1BE80B80200F1C48047
:1048B00017F4802F05D03068616F20F040700843F6
:1048C000306009F08070390206D53168D4F8802054
:1048D00021F0805111433160002808BFBAF1000F68
:1048E00000F0BA80DBF8000020F08060CBF8000018
:1048F000FEF77AFA054600BFDBF8000010F0006F03
:1049000006D0FEF771FA401B6428F5D90320A6E112
:10491000206810F0010F03D0616B002900F0A08027
:10492000010340F1B180E16BB1F5801F40F0AC8034
:10493000B0E056F8040C20F0807046F8040CA06B30
:1049400056F8041C084346F8040C78048AD53068ED
:10495000616E20F440300843306038047FF584AF46
:104960003068A16E20F4402008433060F8037FF5E2
:104970007EAF3068E16E20F4401008433060B80329
:104980007FF578AF3068216F20F440000843306035
:1049900078067FF572AF3068616C20F00300084341
:1049A000306038067FF56CAF3068A16C20F00C00E9
:1049B00008433060F8057FF566AF3068E16C20F0A1
:1049C000300008433060B8057FF560AF3068216D76
:1049D00020F0C0000843306078057FF55AAF30689A
:1049E000616D20F440700843306038057FF554AFA6
:1049F0003068A16D20F4406008433060F8047FF512
:104A00004EAF3068E16D20F4405008433060B80488
:104A10007FF548AF3068216E20F440400843306095
:104A200078027FF542AF3068A16F20F080600843C4
:104A30003060B8027FF53CAF3068E16F20F0006075
:104A400008433060B1F1006F08BF4FF0010817F460
:104A5000802F7FF430AF34E7B7F1007F6AD141E7B0
:104A600056F80C1C01F4403156F80C2C02F0706220
:104A70001143D4E9012341EA821141EA037146F866
:104A80000C1C01033FF54FAFC1021DD5216CB1F5E0
:104A9000800F19D156F80C1C01F4403156F80C2C3B
:104AA00002F0E04211436268E36841EA821141EAA0
:104AB000036146F80C1C56F8041C21F01F01626AC1
:104AC000013A114346F8041CC10110D556F80C1CDC
:104AD00001F0706156F80C2C02F0E042114362685C
:104AE000236941EA821141EA034146F80C1C800126
:104AF0000AD5231D0FCB1B0443EA801040EA026055
:104B000040EA017046F80C0CDBF8000040F08060D1
:104B1000CBF80000FEF768F9054600BFDBF800009F
:104B200010F0006F06D1FEF75FF9401B6428F5D93D
:104B3000032094E017F0080008BFB8F1000F00F060
:104B40008980DBF8000020F08050CBF80000FEF7F1
:104B50004BF90546DBF8000010F0005F06D0FEF7C9
:104B600043F9401B6428F5D9032078E0206810F44D
:104B7000002F01D0E16B19B1C1021ED5216CE1B942
:104B800056F8081C01F4403156F8082C02F0E042B7
:104B90001143D4E9052341EA821141EA036146F851
:104BA000081C56F8041CA26A6FF0FF0303EB0222F4
:104BB00021F4F851114346F8041C810214D5E16F29
:104BC000B1F1006F10D156F8081C01F0706156F871
:104BD000082C02F0E04211436269236A41EA821123
:104BE00041EA034146F8081C000718D556F8080C9E
:104BF00000F0706056F8081C01F440310843616908
:104C0000E26940EA811040EA027046F8080C56F862
:104C1000040CE16A20F44030084346F8040CDBF849
:104C2000000040F08050CBF80000FEF7DDF80446AD
:104C3000DBF8000010F0005F0ED100BFFEF7D4F8E3
:104C4000001B65280AD2DBF8000010F0005FF5D0E9
:104C5000002004E0002002E0002000E00320C0B2B9
:104C600001B0BDE8F08F0320F9E70000000000006C
:104C70002DE9F0410D460446002867D043F60807A9
:104C8000C4F20207D7F8F80300F00F00A8420CD2D4
:104C9000D7F8F80320F00F002843C7F8F803D7F837
:104CA000F80300F00F00A84250D1206810F0020F66
:104CB00005D03968A26821F0F00111433960C007BE
:104CC0003CD1D7F8F80300F00F00A8420CD9D7F870
:104CD000F80320F00F002843C7F8F803D7F8F803CB
:104CE00000F00F00A84231D1206810F0040F05D069
:104CF0003968E26821F4E05111433960000706D5B4
:104D00003868216920F4604040EAC100386000F052
:104D10007FF83968C1F303114FF6D872C0F601026B
:104D2000515CC84040F2B831C2F2000108600F2067
:104D3000FEF712FB0020C0B2BDE8F08160680128D8
:104D400008D157F8081C11F4003F0CD10120C0B263
:104D5000BDE8F08157F8081C022802D18901F5D579
:104D600001E08907F2D5396821F003010843386072
:104D7000FEF73AF806463868616800F00C00B0EBC0
:104D8000810F9ED041F28838FEF72EF8801B4045F7
:104D900007D83868616800F00C00B0EB810FF3D1E0
:104DA0008FE70320C0B2BDE8F081000000000000E2
:104DB00040F2B830C2F20000006870470000000006
:104DC00080B5FFF7F5FF43F60801C4F20201096858
:104DD000C1F382214FF6E872C0F60102515CC8406F
:104DE00080BD00000000000080B5FFF7E1FF43F642
:104DF0000801C4F202010968C1F342314FF6E872BA
:104E0000C0F60102515CC84080BD000000000000F7
:104E100043F60401C4F20201486800F00C0242F2B9
:104E20000040C0F2F400082A07D0042A02BF41F271
:104E30000020C0F27A0070477047D1F800C00B68BC
:104E400041F20022C0F27A0213F4800F08BF02463A
:104E50000CF03F00B2FBF0F00A68C2F38812504336
:104E60000968C1F30141022202EB4101B0FBF1F0FC
:104E700070470000000000002DE9F04381B00446B7
:104E8000D0B12078C00743F60009C4F2020943F606
:104E90007007C4F2020765D057F8680C00F00C00E8
:104EA00004280BD1D9F8000010F4003F5AD06068F4
:104EB000002857D1012062E1012060E157F8680C19
:104EC00000F00C00082804D157F86C0C10F4800F87
:104ED000E8D1606880B1B0F5803F08D0D9F8001003
:104EE000B0F5A02F24D141F48020C9F80000D9F8F2
:104EF000000040F4803023E0D9F8000020F4803036
:104F0000C9F80000D9F8000020F48020C9F800009A
:104F1000FDF76AFF054600BFD9F8000010F4003F16
:104F200020D0FDF761FF401B6428F5D9032026E15E
:104F300021F48030C9F80000D9F8000020F4802066
:104F4000C9F80000FDF750FF054600BFD9F8000082
:104F500010F4003F06D1FDF747FF401B6428F5D948
:104F600003200CE1207880073AD557F8680C10F040
:104F70000C0F23D057F8680C00F00C00082804BF71
:104F800057F86C0C10F4800F18D0E168D9F80000C5
:104F9000002900F0B28040F00100C9F80000FDF7E0
:104FA00023FF0546D9F8000010F0020F0FD1FDF7DE
:104FB0001BFF401B0228F5D90320E0E0D9F80000D0
:104FC00010F0020F1CBFE068012840F03781D9F8CB
:104FD0000000216920F0F80040EAC100C9F8000093
:104FE0002078000725D56169786881B140F001001B
:104FF0007860FDF7F9FE0546786810F0020F18D1C9
:10500000FDF7F2FE401B0228F6D90320B7E020F09E
:1050100001007860FDF7E8FE054600BF786810F0F3
:10502000020F06D0FDF7E0FE401B0228F6D9032050
:10503000A5E02078400740F1978057F8300C10F039
:10504000805F0ED157F8300C40F0805047F8300C9C
:1050500057F8300C00F08050009000984FF0010895
:1050600001E04FF0000843F60006CFF6FE7659F84F
:10507000060010F4807F15D159F8060040F48070C6
:1050800049F80600FDF7B0FE054600BF59F80600D6
:1050900010F4807F06D1FDF7A7FE401B6428F5D9E8
:1050A00003206CE0A06858B1012805D039680528B4
:1050B00037D141F004003860386840F0010036E034
:1050C000386820F001003860386820F0040038604B
:1050D000FDF78AFE0546386810F0020F3BD041F21A
:1050E000883600BFFDF780FE401BB04200F2AA8068
:1050F000386810F0020FF5D12DE020F00100C9F85A
:105100000000FDF771FE0546D9F8000010F0020F0F
:105110003FF466AFFDF768FE401B0228F4D9032078
:105120002DE021F001003860386820F0040038607C
:10513000FDF75AFE0546386810F0020F0BD141F218
:10514000883600BFFDF750FE401BB04274D8386867
:1051500010F0020FF6D0B8F1000F1EBF57F8300C58
:1051600020F0805047F8300CA6693EB157F8680C23
:1051700000F00C00082806D1012000E00020C0B299
:1051800001B0BDE8F083D9F8000020F08070C9F8C4
:105190000000FDF729FE0546D9F8000000F0007078
:1051A000022E39D150B100BFFDF71EFE401B022870
:1051B0004AD8D9F8000010F0007FF5D104F11C06A0
:1051C0004FCE084340EA821040EA0660D9034FF60A
:1051D000FF729143A1F58031084340F0005047F839
:1051E0006C0CD9F8000040F08070C9F80000FDF7A1
:1051F000FBFD0446D9F8000010F0007F20D100BF6D
:10520000FDF7F2FD001B022822D8D9F8001000207B
:1052100011F0007FF4D0B2E710B90020AFE700BF73
:10522000FDF7E2FD401B032810D2D9F80010002042
:1052300011F0007FF4D1A2E70320A0E701209EE750
:1052400000209CE703209AE7032098E7032096E7D5
:10525000032094E700000000006800EB8100006D6F
:105260007047000000000000006800EB810002654C
:10527000704700000000000070B50C4600684168EF
:10528000C1F304266670080CE07001F03F05A570BC
:10529000C1F3423121700AB1002070BDC0B202F0EA
:1052A0001BFFE070F0B202F017FF6070E8B202F08E
:1052B00013FFA070002070BD70B50C460068816AB5
:1052C000616001696FF3DF31A1600168C1F30626F7
:1052D0006670C1F30540207001F07F05A570402382
:1052E00003EA114121730AB1002070BDC0B202F07F
:1052F000F3FE2070F0B202F0EFFE6070E8B202F050
:10530000EBFEA070002070BD10B50446002804BF5D
:10531000012010BD607F20B900202077204600F0DA
:1053200037F8022060772068CA2141625321416228
:10533000204602F0F5FE216810B10120042223E08E
:1053400088684FF6BF72CFF68F7210408860606831
:10535000D4E90423104318438A6810438860E06846
:105360000861A0680A6942EA00400861C86820F044
:105370008000C860C86C20F00800C864A069CA6CCE
:105380001043C86400200122FF234B62627710BDE6
:1053900080B5AEB0002028900C21229101212491EB
:1053A000279022A8FFF768FD40B94FF480700D9058
:1053B0002020019001A8FFF77BF908B12EB080BD35
:1053C00043F67000C4F20200016841F4004101603C
:1053D0002EB080BD0000000070B50D460446017F70
:1053E000022001294BD060770120207768783AB1FC
:1053F0002978AA78EB7842EA002040EA034014E0DA
:10540000C10642BF00F0EF000A306870E87802F091
:105410006FFE0646687802F06BFE000240EA064620
:10542000A87802F065FE3043297840EA41352068CB
:10543000CA21416253214162204602F071FE10B13F
:105440000120042115E04FF63F70C0F2FF00284014
:1054500021684860C86820F08000C860886810F043
:10546000200F04D1204600F07BF80028E8D100206E
:1054700001212268FF235362002222776177C0B2A4
:1054800070BD0000000000002DE9F04381B00D4622
:105490000446017F022001295BD06077012020773C
:1054A0002768B86800F040005AB1002804BF002007
:1054B00028732878697895F80290090241EA004833
:1054C00011E0002804BF00202873287802F010FEA5
:1054D0000646687802F00CFE000240EA0648A8780A
:1054E00002F006FE81462E7BCA2078625320786245
:1054F000204602F015FE10B10120042123E048EA05
:10550000090040EA064047F67F71C0F27F0108407B
:1055100021680860886820F480208860D5E904024A
:105520008B68104318438860C86820F08000C8600A
:10553000886810F0200F04D1204600F011F80028F0
:10554000DAD1002001212268FF2353620022227752
:105550006177C0B201B0BDE8F08300000000000038
:10556000B0B504460068C16821F0A001C160FDF734
:105570003BFC05462068C06810F0200F08D1FDF7FD
:1055800033FC401BB0F57A7FF4D90320C0B2B0BD24
:105590000020C0B2B0BD0000B0B50D4604460028E2
:1055A00004BF0120B0BD94F82C0028B9002084F875
:1055B0002D00204600F014F8022084F82C0020680A
:1055C000211DFCF761FDD4E900022946FCF7D8FD56
:1055D000012084F82C000020B0BD00000000000075
:1055E000704700000000000010B5044690F82C2021
:1055F0000220022A08D084F82C002068FCF788FDDD
:10560000012084F82C000020C0B210BD0000000072
:10561000B0B50D46044690F82C10022002290DD09A
:1056200084F82C0020682946FCF77AFD28680121BF
:10563000022808BF052184F82C100020C0B2B0BD9C
:105640004EF21001CEF200010A6822F00403042891
:1056500008BF42F004030B60704700000000000028
:1056600070B546F65A30C2F200000188013101805F
:1056700089B2B1F57A7F22D30021018046F6D01499
:10568000C2F2000446F26875C2F2000520462946BF
:105690000122FFF7F1FDAA7820460221FFF7E4FD81
:1056A0006A7820460321FFF7DFFD2A78204604218F
:1056B000FFF7DAFDEA7820460521FFF7D5FD46F62B
:1056C0007C00C2F20000006842F20025C4F201052D
:1056D000A84268D146F25C70C2F200000188013134
:1056E000018089B27B295ED30026068046F67C04C1
:1056F000C2F200042046FCF7F7FE20460A21FCF720
:1057000093FE2046FCF75CFE46F6E422C2F200025D
:10571000137840F21441C2F2000121F8130046F65A
:10572000E624C2F200042680581CC3B2092B88BFAD
:1057300000201070002000BF31F816201044013600
:105740000A2EF9D180B24CF6CD41CCF6CC41A0FB6B
:105750000101C808208001F08BFC46F6E026C2F269
:10576000000686ED000A01F0B7FC86ED000AB5EEF2
:10577000C00AF1EE10FA0EDAB1EE400ABDEEC01A20
:1057800086ED000A11EE100A00EB80004FF4004194
:1057900041EA400006E0BDEEC00A10EE100A00EB40
:1057A00080004000208040F2D470C2F200000078F7
:1057B00001280BD146F61A44C2F20004208808B131
:1057C000013802E003F02CFA0520208046F6543020
:1057D000C2F20000016800291EBF016801390160A2
:1057E00046F6E830C2F20000016800291EBF0168D9
:1057F0000139016046F6E030C2F20000016800297C
:105800001EBF01680139016046F6EC30C2F20000AB
:10581000016800291EBF01680139016046F29870D5
:10582000C2F20000016800291EBF01680139016051
:1058300046F28C70C2F20000016800291EBF0168A8
:105840000139016046F29070C2F20000016800293F
:105850001EBF01680139016040F69800C2F20000E5
:1058600001684A1C0260B1F57A7FB8BF70BD0021A3
:10587000016005F56A408021BDE87040FDF7A8BAD7
:1058800002F002BD00000000FFF7EABE00000000C9
:10589000704700000000000070470000000000009A
:1058A00010B50446002804BF012010BD94F83D0047
:1058B00028B9002084F83C00204600F00DF80220B2
:1058C00084F83D002068211D02F076FF012084F855
:1058D0003D00002010BD000080B582B043F64000BE
:1058E000C4F20200016841F002010160006800F0AA
:1058F0000200019001981D2000210022FEF780F98E
:105900001D2002B0BDE88040FEF776B9000000001F
:105910000068C16841F00101C160016841F0010106
:1059200001600020704700000068C16821F001019B
:10593000C160016A41F21112114201D0002070478A
:10594000016A40F24442114202BF016821F00101A4
:105950000160002070470000704700000000000058
:1059600010B504460068016911F0020F1CBFC16840
:1059700011F0020F4FD12068016911F0040F1CBF14
:10598000C16811F0040F53D12068016911F0080FAC
:105990001CBFC16811F0080F57D12068016911F0D0
:1059A000100F1CBFC16811F0100F5BD12068016996
:1059B00011F0010F1CBFC16811F0010F5FD1206809
:1059C000016911F0800F1CBFC16811F0800F5DD11B
:1059D0002068016911F4807F1CBFC16811F0800F3D
:1059E0005BD12068016911F0400F1CBFC16811F044
:1059F000400F59D12068016911F0200F1ABFC1680A
:105A000011F0200F10BD6FF0200101612046BDE8AC
:105A10001040FFF741BF6FF00201016101212177C2
:105A2000806910F0030F46D02046FFF795FF48E04D
:105A30006FF00401016102212177806910F4407F39
:105A400042D02046FFF788FF44E06FF00801016173
:105A500004212177C06910F0030F3ED02046FFF7E4
:105A60007BFF40E06FF01001016108212177C069E0
:105A700010F4407F3AD02046FFF76EFF3CE06FF015
:105A800001010161204600F0DFF898E76FF0800126
:105A900001612046FFF7FCFE9AE76FF0800101618B
:105AA0002046FFF7F5FE9CE76FF0400101612046BC
:105AB00000F03EF99EE7204600F022F8204600F074
:105AC000A3F80020207756E7204600F019F820467A
:105AD00000F09AF80020207756E7204600F010F8F2
