:020000040800F2
:10000000D86B0220DD01000831B70008B198000864
:1000100029B70008DD1500085DE2000800000000B7
:10002000000000000000000000000000EF010008D8
:100030004F20000800000000F301000891CE0008E6
:10004000F7010008F7010008F7010008F7010008B0
:10005000F7010008F7010008F7010008F7010008A0
:10006000F7010008CD200008F7010008F70100089B
:10007000F7010008F7010008F7010008F701000880
:10008000F7010008F7010008F7010008F701000870
:10009000F7010008F7010008F7010008F701000860
:1000A000F7010008F7010008F7010008F701000850
:1000B000F701000899D50008F7010008F7010008CA
:1000C000F7010008F7010008F7010008F701000830
:1000D000F7010008F70100084DE20008F7010008E9
:1000E00079200008F7010008F7010008F70100086F
:1000F000F7010008F7010008F7010008F701000800
:10010000F7010008F7010008F7010008F7010008EF
:10011000F7010008F7010008F7010008F7010008DF
:10012000F7010008F7010008F7010008F7010008CF
:10013000F7010008F7010008F7010008F7010008BF
:10014000F7010008F7010008F7010008F7010008AF
:10015000F7010008F7010008F7010008F70100089F
:10016000F7010008F7010008F7010008F70100088F
:10017000F7010008F7010008F7010008000000007F
:10018000F7010008F7010008F7010008F70100086F
:10019000F7010008F7010008F7010008F70100085F
:1001A000E9AE0008F7010008591F0008F701000830
:1001B00059CB0008F7010008F7010008F701000813
:1001C000F7010008F7010008DFF80CD000F00AFB87
:1001D000004800477D6A0108D86B02200648804726
:1001E00006480047FEE7FEE7FEE7FEE7FEE7FEE71C
:1001F000FEE7FEE7FEE7FEE7C1CF0008C901000801
:1002000010B5441A0346944209D28418114403E0FD
:1002100011F8013D04F8013D521EF9D210BD40EA2B
:100220000104A40703D009E010C9121F10C3042A57
:10023000FAD203E011F8014B03F8014B521EF9D238
:1002400010BDD2B201E000F8012B491EFBD270476D
:100250000022F6E710B513460A4604461946FFF792
:10026000F0FF204610BD30B504460020034600E0F4
:100270005B1C934203D2E05CCD5C401BF8D030BDE8
:100280002DE9FE4F804681EA0300C00F0C46009026
:1002900021F0004123F00045B8EB0200A94105D24E
:1002A0004046214690461C460B46024623F000403D
:1002B000104347D0270DC7F30A00C3F30A51029039
:1002C000401A019040286BDAC3F3130040F4801BFE
:1002D0000098924620B10023D2EB030A63EB0B0B8C
:1002E00001985946C0F14002504600F02CF90646EC
:1002F0000D4650465946019A00F044F910EB0800AB
:100300006141002487EA115284EAE7731A4340D01E
:10031000009A62B3019A012A4FEA075215DC001BCA
:1003200061EB02014FF0004202EA0752CDE90042C0
:10033000001C41F5801132462B4600F07BF903B0DA
:10034000BDE8F08F40462146F9E7001B61EB020152
:10035000001C41F5801300185B412018A2F500171E
:1003600047EB030140EAD570B6196D4111E06D0805
:100370004FEA360645EAC0754FEA0752001B61EBAB
:100380000201001C41F5801149084FEA30000019B4
:10039000514132462B4603B0BDE8F04F00F03BB967
:1003A0000098012240000023D0EB020263EBE073CF
:1003B000009821464FEAE074B8EB000061EB0401BD
:1003C000E9E783F000435BE781F0004158E72DE95E
:1003D000F04D81EA030404F0004B21F0004514467F
:1003E0004FF0000A23F0004150EA050220D054EA01
:1003F00001021DD0C5F30A570246C5F31303C1F32A
:100400001300C1F30A5640F4801543F48013A7EBA0
:100410000608101BD64608F2FD3873EB050002D320
:1004200008F1010801E092185B41B8F1000F03DA0E
:1004300000200146BDE8F08D00204FF480110646F3
:1004400084460EE0171B73EB050705D3121B63EB05
:10045000050306434CEA010C49084FEA30009218A4
:100460005B4150EA0107EDD152EA030012D082EA63
:10047000040083EA0501084305D0101BAB4106D2F6
:100480000122002306E000224FF0004302E06FF05B
:10049000010253101AEB06004CEB085110EB0A0056
:1004A00041EB0B01BDE8F04D00F0B5B80EB5C10F42
:1004B00080EAE0700844CA07002140F233438DE827
:1004C0000E000A460B4600F0B5F803B000BD0EB5AD
:1004D00040F2334102910021CDE900110A460B465A
:1004E00000F0A8F803B000BD00F0004230F000407A
:1004F0000AD0C10D01F56071C0F3160042EA015146
:10050000C20840071143704700200146704701F0C0
:10051000004330B421F0004150EA010206D00A0D38
:10052000A2F56072C1F31301002A02DC30BC002086
:100530007047440F44EAC104C100E01830BC00EB2E
:10054000C25000F031B8202A04DB203A00FA02F150
:10055000002070479140C2F1200320FA03F31943B1
:1005600090407047202A04DB203A21FA02F0002153
:10057000704721FA02F3D040C2F1200291400843B3
:1005800019467047202A06DBCB17203A41FA02F0C1
:1005900043EAE07306E041FA02F3D040C2F12002E0
:1005A00091400843194670470029A8BF7047401C76
:1005B000490008BF20F00100704710B4B0FA80FC79
:1005C00000FA0CF050EA010404BF10BC704749B1B6
:1005D000CCF1200421FA04F411FA0CF118BF012126
:1005E00021430843A3EB0C01CB1D4FEA00614FEA06
:1005F000102042BF002010BC704700EBC3501044D5
:100600000029A4BF10BC7047401C490008BF20F05F
:10061000010010BC704710B5141E73F1000408DA15
:10062000401C41F1000192185B411A4301D120F0B6
:10063000010010BD2DE9F04D92469B4611B1B1FA73
:1006400081F202E0B0FA80F220329046FFF77BFFA1
:1006500004460F4640EA0A0041EA0B0153465A4657
:10066000084313D0114653EA010019D0C8F14002E3
:100670005046FFF777FF05460E465046594642461C
:10068000FFF761FF084305D0012004E0204639460A
:10069000BDE8F08D0020054346EAE0762C43374361
:1006A0000A986305E40AA0EB08000022FD0A44EA68
:1006B00047540A3002D500200146E9E70105101928
:1006C0006941DDE9084500196941BDE8F04DA2E73F
:1006D0002DE9FE4F81EA030404F0004421F00041BB
:1006E00000944FF0000B23F0004350EA01045ED069
:1006F00052EA03045BD0C3F30A54C1F30A552C44F5
:10070000A4F2F3340194A0FB0254C1F3130141F4A9
:100710008011C3F3130343F4801301FB024400FB75
:10072000034E840A970A44EA815447EA8357A4FB9C
:10073000076802958D0A05FB07854FEA932C04FB99
:100740000C542705029D4FEA065847EA1637B5EBC9
:1007500008056EEB070C870E920E47EA811742EAF6
:100760008312A7FB0201B6EB0B0164EB00042B0D17
:1007700043EA0C335E1844EB1C50DA465146E7FB63
:100780000201C5F313044FEA0B3343EA14534FEA53
:100790000432019C43EA0603A4F10C040294009C79
:1007A000CDE900B4FFF746FF03B0BDE8F08F0020AD
:1007B0000146F9E730B5041E71F1000404DB4FF087
:1007C0000044404264EB0101141E73F1000405DB98
:1007D0001C464FF00043524263EB04038B4208BFB8
:1007E000824230BD064C074D06E0E06840F0010350
:1007F00094E8070098471034AC42F6D3FFF7E8FCC2
:10080000E0DF040810E0040870B58C1810F8015BF4
:1008100015F0070301D110F8013B2A1106D110F899
:10082000012B03E010F8016B01F8016B5B1EF9D19D
:100830002B0705D40023521E0DD401F8013BFAE723
:1008400010F8013BCB1A921C03E013F8015B01F88E
:10085000015B521EF9D5A142D8D3002070BD000023
:1008600000B52DED028B85B0B9480078002876D10F
:100870000B20019001200290039001A9B54804F0DB
:100880003FFAB44804F0ACFB0A21B24804F04BFB39
:10089000B04804F00FFBB049B04A127821F81200BA
:1008A000AE480078401CC0B2AC490870092801DD90
:1008B000002008700020AA49088000BF09E0A6496E
:1008C00031F81010A64A12881144A54A1180411C23
:1008D000C8B20A28F3DBA24800880A2190FBF1F095
:1008E0009F49088008460088B0F57A6F03DC084607
:1008F0000088642806DA9B48006820F002009949C5
:10090000086037E09748006840F0020095490860A9
:100910009348008800F0ECF9B0EE408AB0EE480A47
:1009200000F00CFAB0EE408AB5EEC08AF1EE10FA93
:1009300016D2BFEE000A28EE000AB0EE408AB2EEF0
:10094000040A28EE000ABCEEC00A10EE100A844920
:1009500008800846008840F4004008800AE00FE064
:10096000B2EE040A28EE000ABCEEC00A10EE100A2D
:100970007B49088076480078401C75490870E2E0A1
:1009800073480078012876D10C2001900120029054
:10099000039001A96F4804F0B3F96E4804F020FBFE
:1009A0000A216C4804F0BFFA6A4804F083FA6E49E1
:1009B0006E4A127821F812006C480078401CC0B2D0
:1009C0006A490870092801DD002008700020684984
:1009D000088000BF09E0644931F81010644A1288A9
:1009E0001144634A1180411CC8B20A28F3DB6048F5
:1009F00000880A2190FBF1F05D49088008460088D4
:100A0000B0F57A6F03DC08460088642806DA55489A
:100A1000006820F004005349086037E0514800683E
:100A200040F004004F4908605148008801F054FB31
:100A3000B0EE408AB0EE480A01F074FBB0EE408A96
:100A4000B5EEC08AF1EE10FA16D2BFEE000A28EE1B
:100A5000000AB0EE408AB2EE040A28EE000ABCEEAC
:100A6000C00A10EE100A424908800846008840F487
:100A7000004008800AE00FE0B2EE040A28EE000A07
:100A8000BCEEC00A10EE100A3949088030480078E0
:100A9000401C2F49087056E02D480078022852D19A
:100AA0000D20019001200290039001A9294804F033
:100AB00027F9284804F094FA0A21264804F033FA6A
:100AC000244804F0F7F92B492B4A127821F8120038
:100AD00029480078401CC0B227490870092801DD68
:100AE0000020087000202549088000BF09E0214946
:100AF00031F81010214A12881144204A1180411CFB
:100B0000C8B20A28F3DB1D4800880A2190FBF1F0E7
:100B10001A49088008460088B0F57A6F03DC084659
:100B20000088642806DA1648006820F00800144996
:100B3000086005E01248006840F0080010490860AD
:100B400000200349087005B0BDEC028B00BD000019
:100B5000A0010020E46500204C0100204701002096
:100B60003201002098000020600100204801002090
:100B700030010020740100204901002034010020D0
:100B8000100100205749096821F44031564AC2F843
:100B900004131146D1F8041342681143514A1160FD
:100BA0000168496821F480710268516001684A68EF
:100BB000016942EA0121026851600168496821F037
:100BC0004071026851600168496882681143026897
:100BD00051600168896821F40061026891600168D0
:100BE0008968C268114302689160404A816A9142F3
:100BF00018D00168896821F070610268916001680D
:100C00008968826A1143026891600168896821F0ED
:100C100040510268916001688968C26A11430268A4
:100C200091600BE00168896821F070610268916051
:100C30000168896821F04051026891600168896803
:100C400021F002010268916001688A68816942EAC4
:100C5000410102689160016AA1B10168496841F4EB
:100C60000061026851600168496821F460410268CE
:100C7000516001684A68416A491E42EA413102688E
:100C8000516005E00168496821F400610268516023
:100C90000168C96A21F470010268D1620168CA6AF8
:100CA000818B491E42EA01510268D162016889685C
:100CB00021F400710268916001688A68016B42EA60
:100CC0004121026891600168896821F480610268AD
:100CD000916001688A68416942EA812102689160F5
:100CE0007047000004230140002001400100000F74
:100CF00010B52DED0A8B04462046FFF7E8FB9FED6B
:100D00000D0B53EC102BFFF75FFB41EC1A0B42F27B
:100D1000107104FB01F0FFF7C9FB53EC1A2BFFF72E
:100D200056FBFFF7F4FB08EE100AB0EE480ABDECE4
:100D30000A8B10BD0000000000FEAF4010B52DED85
:100D4000108BB0EE408A23480088FFF7C0FB41ECCF
:100D50001D0B9FED210AC8EE000A10EE904A2046B6
:100D6000FFF7C2FB41EC1F0BB0EE4F0AF0EE6F0A2B
:100D700015F082F9B0EE40EAF0EE60EA53EC1D2B7C
:100D800051EC1E0BFFF723FB41EC1C0B9FED130BEB
:100D900053EC102BFFF774FA41EC1B0B53EC1B2B9D
:100DA0009FED100B51EC100BFFF711FB41EC1A0BF0
:100DB0009FED0E0B53EC102BFFF703FB41EC190BCF
:100DC000FFF7A5FB08EE900AB0EE680ABDEC108BA9
:100DD00010BD00002C01002000401C468B33DA3D82
:100DE0006C7D6B3F000000000000F03F0000000041
:100DF0000010714010B501F02BF9A0200B490880BC
:100E000040F6B8310948008801F02AF958B1A62007
:100E10000649088040F6B8310448008801F020F9FE
:100E200008B1012010BD0020FCE7000042000020B6
:100E30001CB50024002C2BD116480BF0A1FD012875
:100E400001D000201CBD4FF480701349886140011F
:100E5000C860002008620861C862086348634FF4F4
:100E60004060C861002048604FF040704862002038
:100E70008862EB2008600A204861002001906A46E1
:100E8000044806F0DBF908B10020DBE7012400BFCD
:100E90000120D7E7BC0400200805002038B504462F
:100EA00000200090012021490860102048600120A6
:100EB00088600020C8604FF6FF721D4807F044FDAF
:100EC000012004F05FFB02201849086010204860F0
:100ED000012088600020C8604FF6FF72144807F0B8
:100EE00033FD032011490860102048600820886005
:100EF0000020C8604FF6FF720D4807F025FD4FF443
:100F00000870009004200949086010204860012002
:100F100088600098C8604FF6FF72054807F014FD1E
:100F20002146034807F0FCFC38BD000008060020FD
:100F3000B805002030B587B004460D4600BF7A489A
:100F4000006840F00100784908600846006800F039
:100F50000100019000BF00BF00BF7348083800685F
:100F600040F480007049083908600846006800F4C1
:100F70008000019000BF00BF00BF0846006840F03D
:100F8000010008600846006800F00100019000BF01
:100F900000BF00BF0846006840F004000860084633
:100FA000006800F00400019000BF00BF00BF0846C9
:100FB000006840F0080008600846006800F008007B
:100FC000019000BF00BF00BF0846006840F010005D
:100FD00008600846006800F01000019000BF00BFE4
:100FE00000BF0846006840F020000860084600681E
:100FF00000F02000019000BF00BF00BF084600685D
:1010000040F0400008600846006800F04000019091
:1010100000BF00BF4FF63F00029002200390002067
:101020000490032005900C20069002A93F4804F08C
:10103000C7FB802002900220039000200490032030
:1010400005900C20069002A9394804F0B9FB302025
:1010500002900220039000200490032005900C20B1
:10106000069002A9334804F0ABFB48F2331002901B
:101070000220039000200490032005900C2006908D
:1010800002A92D4804F09CFB4FF6837002900220C9
:10109000039000200490032005900C20069002A9E4
:1010A000264804F08DFB4CF203700290022003905E
:1010B00000200490032005900C20069002A92048EF
:1010C00004F07EFB00201F49486080211D4881609C
:1010D0008900C16049000161890041618900816125
:1010E0000021C1614FF400310162002141620321FE
:1010F00081620021C162016313481249086000BF88
:1011000008462063846300BF04F094F90D4804F09E
:10111000C3F900220F21382005F0E8FC382005F043
:10112000D5FC07B030BD0000383802400014024042
:101130000000024000080240001802400010024077
:10114000000C024018060020106402402DE9F04116
:1011500090B005464FF000080020039002900190E7
:101160007E48006801697E480078884728702878A2
:10117000002870D00024E4E004A800EB440207A893
:1011800000EB44017548006843697548007898474A
:101190007448007801280BD107A830F814000DA975
:1011A00021F8140004A830F814000AA921F814004A
:1011B0006C48007800F0020038B107A830F814003D
:1011C000C0F580500DA921F814006648007800F0A1
:1011D000040038B104A830F81400C0F580500AA902
:1011E00021F814005F48007800F0080058B107A803
:1011F00030F814000AA921F8140004A830F81400EB
:101200000DA921F814000DA830F81400564951F822
:101210002410884207D90DA830F81400524951F81B
:101220002410401A06E0504850F824000DA931F867
:101230001410401A86B20AA830F814004B4951F82D
:101240002410884208D90AA830F81400474951F8F8
:101250002410401A07E07CE0444850F824000AA912
:1012600031F81410401A87B2F01905280BDD0DA8CB
:1012700030F814003C4941F824000AA830F8140062
:101280003A4941F824003648007870280DD10DA85D
:1012900030F81410A81C20F814100AA830F8141004
:1012A00005F10C0020F8141016E02F4850F8240027
:1012B0002F4909884843C0F30F31A81C20F81410A7
:1012C0002A4850F824002B4909884843C0F30F31BD
:1012D00005F10C0020F8141001A802AB03AA214666
:1012E00000901F48007815F085FA0398C1B205F107
:1012F000160001550298C1B205F120000155019870
:1013000030B1012809D002280CD0032814D10EE0F6
:10131000012105F11B00015511E0022105F11B001F
:1013200001550CE0032105F11B00015507E00021E8
:1013300005F11B00015502E04FF0010800BF00BF9E
:10134000641C2878A0423FF617AF284600F014F836
:101350008046404610B0BDE8F08100003400002017
:101360003D0000203C00002094040020A804002040
:10137000380000203A00002038B5044600200090D4
:10138000002569461748007815F026FA9DF80000F8
:10139000182816D005DC58B110280CD014281CD100
:1013A0000CE01C2810D0402811D0492815D111E09C
:1013B0000020A06213E00120A06210E00220A062E1
:1013C0000DE00320A0620AE00420A06207E00520EF
:1013D000A06204E00620A06201E0012500BF00BF7A
:1013E000284638BD3D0000200146A1F6010020B18D
:1013F00001280BD002281BD111E00E48007800F024
:10140000040008B1012070470020FCE7094800787B
:1014100000F0080008B10120F5E70020F3E70548D7
:10142000007800F0100008B10120ECE70020EAE7A6
:101430000220E8E7F000002013B584B004465F48BE
:10144000006840F480605D490860A4F6010020B1A6
:1014500001283CD0022839D173E0012002F0CCF9F8
:101460009DF8140060B95548006820F00400534905
:101470000860052240F26311514801F0EBFC0FE0D7
:101480009DF8140001280BD14C48006840F004007E
:101490004A490860052240F263114A4801F0DAFC2B
:1014A000012002F0FFF96420012105AA0223CDE901
:1014B000002102902422A021434804F0AFFC012324
:1014C0004FF47A72A021404804F01EFB73E0012023
:1014D00002F092F99DF8140060B93848006820F0D5
:1014E000080036490860912240F26311374801F044
:1014F000B1FC0FE09DF8140001280BD12F480068C3
:1015000040F008002D490860912240F263113048F4
:1015100001F0A0FC012002F0C5F96420012105AA18
:101520000223CDE9002102902622A021264804F0C2
:1015300075FC01234FF47A72A021234804F0E4FAE9
:1015400039E0012002F058F99DF8140060B91B48F9
:10155000006820F01000194908604B2240F2631126
:101560001C4801F077FC0FE09DF8140001280BD116
:101570001248006840F01000104908604B2240F209
:101580006311154801F066FC012002F08BF964201C
:10159000012105AA0223CDE9002102902522A021E4
:1015A000094804F03BFC01234FF47A72A02106485D
:1015B00004F0AAFA00BF00BF06B010BDF000002082
:1015C0009CC90108702702081C670020782C0408B9
:1015D0004C8A04084485020818E3020810B500F09C
:1015E0007AFD10BD10B50BF0CFFB0BF07FFB10BDEB
:1015F000024600200B4B188008E012F8013B094816
:1016000000881844074B1880481EC1B20029F4D145
:1016100004480078C043401C034B187018460078FB
:10162000704700009E000020A000002030B500227E
:10163000074B1A8007E00023054A14881288521CC1
:10164000034D2A800355024A12888A42F3D330BDE3
:101650009E00002010B55E48007801287ED101224E
:101660005C495D4806F04CFF01225C495A4806F08F
:1016700021FF20215A48FFF7D9FF4FF487734FF419
:10168000F072FA21F02001F057FA002453488078D4
:10169000302101EB20122146641C514842544F482E
:1016A000807800F00F0130312246641C4C48815490
:1016B0002E222146641C425448484078302101EBD8
:1016C00020122146641C464842544448407800F0A9
:1016D0000F0130312246641C414881542E2221469C
:1016E000641C425432222146641C4254302220465B
:1016F000611CCCB23A490A543848C078302101EB19
:1017000020122046611CCCB235490A543348C078B7
:1017100000F00F0030302146621CD4B2304A5054E1
:101720002E222046611CCCB22D490A54202220468C
:10173000611CCCB22A490A542046611CCCB228490B
:101740000A5424480078302101EB20122046611C05
:10175000CCB223490A541F48007800E036E000F07C
:101760000F0030302146621CD4B21D4A50543A2238
:101770002046611CCCB21A490A54164840783021E0
:1017800001EB20122046611CCCB215490A541148C5
:10179000407800F00F0030302146621CD4B2104A6D
:1017A0005054104802F0E8F96FF07F4002F0D6F98B
:1017B000022002F041FA0D2002F034FAFF214FF42A
:1017C000EB7001F05FFC064801F0C0FA10BD0000AC
:1017D000DC000020E0680020C06800200801002034
:1017E000C465002030B004080EB501F053FC374842
:1017F00002F0F6F801200DF0DBF90121002009F0DC
:1018000085F80121084609F081F8002002F08CF9E2
:1018100001F083F9002211462D4801F01BFB012045
:1018200002F082F94FF07F4002F096F901F075F96D
:1018300064200121274A0223CDE9002102902422BD
:10184000A021254804F00CFA2248017840F6010056
:10185000FFF7F2FD642001211E4A0223CDE9002199
:1018600002902522A0211C4804F0FAF919480178B9
:1018700040F60300FFF7E0FD64200121154A022332
:10188000CDE9002102902622A021134804F0E8F9B6
:101890001048017840F60200FFF7CEFD01F000FB92
:1018A00001200E4908700E48006840F020000C49E5
:1018B0000860FFF7CFFE0A48006840F08000084942
:1018C000086047F23050074908600EBD69C500083E
:1018D000608A0408040100201C670020DC0000204E
:1018E000F0000020EC00002010B5FA48006828B98C
:1018F0003220F849086001F0D3FA00E010BDF64844
:10190000006870B9F548008800F4007048B9F348E1
:10191000006840F40070F14908603220F04909681D
:101920004863EE48007800F00100002867D0EB48DB
:10193000006820F00100E94908604FF4FA70E849B6
:101940000968486347F23050E3490860E34800689B
:1019500020F40070E1490860E248007800280DDDBD
:10196000E04800784EF660214843DF490860DB48D4
:10197000006840F48070D949086005E0D7480068E5
:1019800020F48070D5490860D8480078B0BB0020AA
:1019900002F0CAF801F0C1F800221146D44801F063
:1019A00059FA012002F0C0F84FF07F4002F0D4F85D
:1019B00001F0B3F8052240F26311CE4801F04AFA73
:1019C0004B2240F26311CC4801F044FA912240F2DC
:1019D0006311CA4801F03EFA0120C9490870BF48A6
:1019E000006840F02000BD490860FFF733FEC5489D
:1019F000006820F00100C3490860FBE100E052E00C
:101A0000BA480078012827D1002002F08DF801F0B3
:101A100084F800221146BC4801F01CFA012002F0B3
:101A200083F84FF07F4002F097F801F076F8D72264
:101A30001921B64801F00EFAD7224FF4AA71B44822
:101A400001F008FA0220AE490870AE48006840F084
:101A50000100AC490860CDE1A44800780228CCD14F
:101A6000002002F061F801F058F800221146A94860
:101A700001F0F0F9012002F057F84FF07F4002F03A
:101A80006BF801F04AF8D7224FF4AA71A04801F090
:101A9000E1F902209A4908709A48006840F0010074
:101AA00098490860A6E19C48006860B94EF660203D
:101AB00099490860012001F09FFEFFF7CBFD01204E
:101AC00001F0F0FE96E18548007800F0200070B14A
:101AD0008248006820F0200080490860012001F061
:101AE0008BFE00F09DF9012001F0DCFE82E18448CC
:101AF000007801287ED189488088894909888842F0
:101B000039D0012001F078FE84488088844908801B
:101B1000E6234FF4F072C8214FF4AF7001F00CF8D7
:101B2000804802F029F86FF07F4002F017F8022099
:101B300002F082F80D2002F075F8DC214FF4D77026
:101B400001F0A0FA7548808800F4004010B176A03A
:101B500001F0FCF871488088C0F30B000A2190FB6B
:101B6000F1F40221204601F0D7F870A001F0EEF860
:101B7000012001F097FE6E480078D8B16D480078DA
:101B8000C0B901206B4908705448007800F0040087
:101B900050B9012140F60100FFF74EFC002140F64C
:101BA0000300FFF749FC0EE0002140F60100FFF7BB
:101BB00043FC08E05E48007828B95E48007810B120
:101BC00000205C4908705C480078E8B15B48007808
:101BD000D0B90120594908704048007800F0100041
:101BE00060B9012140F60300FFF726FC002140F612
:101BF000010000E0BAE0FFF71FFC0EE0002140F614
:101C00000300FFF719FC08E04B48007828B94B485F
:101C1000007810B10020494908703048007800F081
:101C2000080070B14648007858B14648007840B97D
:101C3000012044490870002140F60200FFF7FCFB38
:101C400008E03F48007828B93E48007810B10020ED
:101C50003C4908703C480078B8B13C480078A0B9CD
:101C600001203A49087001F0C7FD2C48C088B0F542
:101C70009B7F06DC2948C0880A302849C88000F0CC
:101C8000CFF8012001F00EFE08E02F48007828B9B7
:101C90002E48007810B100202C4908702C4800789C
:101CA000B0B12C48007898B901202A49087001F099
:101CB000A3FD1A48C088962806DB1848C0880A3851
:101CC0001649C88000F0ACF8012001F0EBFD91E06E
:101CD00042E00000E0000020EC000020F0000020C6
:101CE000DC660020F5000020E8000020F400002061
:101CF000608A04089CC9010844850208782C0408FD
:101D0000DC00002010010020748A0408A4CE03081F
:101D100078550308888A0408E4000020D86400206D
:101D200006010020989C04082D0000002A430000B2
:101D3000F6000020F7000020FA000020FB00002041
:101D4000F8000020F900002000010020010100201F
:101D500002010020030100202748007860BB2748CB
:101D6000007848B300202549087043E024480078F3
:101D700002283FD12348008800F4807070B12248C7
:101D8000006858B9002021490870214908701D4891
:101D9000006840F001001B4908602BE01D480078F6
:101DA00058B100201B49087019490870154800688F
:101DB00040F00100134908601CE01748007880B12A
:101DC0001648007868B90120144908701048007856
:101DD00001280FD10B48006840F040000949086015
:101DE00008E00D48007828B90C48007810B10020B0
:101DF0000A49087000BF81E50201002003010020AC
:101E0000DC000020F0000020E8000020F5000020A9
:101E1000F4000020FC000020FE000020FF00002055
:101E200070B54148007801287CD14048C0886421C1
:101E300090FBF1F0C5B23D48C08805EBC50101EB50
:101E40000511A0EB81000A2190FBF1F0C4B2DC2364
:101E5000FA228C21782000F06FFE012D05D191220D
:101E60007D21334800F0F6FF0EE0022D05D19122CE
:101E70007D21304800F0EEFF06E0032D04D19122D1
:101E80007D212D4800F0E6FF2CB99122A5212B4899
:101E900000F0E0FF46E0012C05D19122A521244865
:101EA00000F0D8FF3EE0022C05D19122A521214867
:101EB00000F0D0FF36E0032C05D19122A5211E4869
:101EC00000F0C8FF2EE0042C05D19122A5211C486A
:101ED00000F0C0FF26E0052C05D19122A52119486C
:101EE00000F0B8FF1EE0062C05D19122A52116486E
:101EF00000F0B0FF16E0072C05D19122A521134870
:101F000000F0A8FF0EE0082C05D19122A521104871
:101F100000F0A0FF06E0092C04D19122A5210D4874
:101F200000F098FF70BD0000DC000020D8640020A5
:101F3000286B01083C6B0108506B0108146B010809
:101F4000646B0108786B01088C6B0108A06B0108B9
:101F5000B46B0108C86B010810B5034803F04DF9D4
:101F600002200249886010BD5C68002000B0024079
:101F70000146087810381823B0FBF3F20848805C5B
:101F8000C865032A05D908686FF30900001D886534
:101F900003E008686FF309008865886D70470000EA
:101FA000046B0108014600208A6A8B69CBB932B103
:101FB000012A0DD0022A03D0032A10D10EE000BF5F
:101FC000CB6A03F08073B3F1807F00D1012007E07A
:101FD000CB6AB3F1C07F00D1012001E000E000BF77
:101FE00034E08B69B3F5005F1AD132B1012A07D012
:101FF000022A03D0032A11D10AE000BF01200EE01B
:10200000CB6A03F08073B3F1807F00D1012006E03A
:10201000CB6AB3F1C07F00D1012000E000BF15E022
:1020200032B1012A05D0022A04D0032A0CD103E0E0
:1020300000BF00BF012008E0CB6A03F08073B3F15A
:10204000807F00D1012000E000BF00BF70477047D3
:1020500010B5024807F0BCFD10BD00001C67002051
:1020600070B504460D462A462146024807F0CEFDCB
:1020700070BD00004804002010B54FF40051114815
:1020800003F0AAFC20B94FF4005003F08BFB18E0DA
:102090004FF480410B4803F09FFC20B94FF480407F
:1020A00003F080FB0DE04FF48060074908604000BA
:1020B0000860400008604000086040000860400080
:1020C000086010BD00180240143C014010B5082003
:1020D00003F068FB10BD704710B52DED0A8B044668
:1020E0002046FEF7F4F99FED0D0B53EC102BFEF795
:1020F0006BF941EC1A0B40F6980104FB01F0FEF776
:10210000D5F953EC1A2BFEF762F9FEF700FA08EE48
:10211000100AB0EE480ABDEC0A8B10BD00000000AA
:1021200000FEAF4010B52DED108BB0EE408A234875
:102130000088FEF7CCF941EC1D0B9FED210AC8EE9B
:10214000000A10EE904A2046FEF7CEF941EC1F0B34
:10215000B0EE4F0AF0EE6F0A13F08EFFB0EE40EAD9
:10216000F0EE60EA53EC1D2B51EC1E0BFEF72FF93D
:1021700041EC1C0B9FED130B53EC102BFEF780F87A
:1021800041EC1B0B53EC1B2B9FED100B51EC100B78
:10219000FEF71DF941EC1A0B9FED0E0B53EC102BC3
:1021A000FEF70FF941EC190BFEF7B1F908EE900AB2
:1021B000B0EE680ABDEC108B10BD00002E010020AF
:1021C0000000FA448B33DA3D6C7D6B3F0000000069
:1021D0000000F03F000000000010714010B5044600
:1021E000144806F046FE1D2004F04EFC282004F0A2
:1021F0004BFC4FF40050104908606FF001000D498E
:102200000968086100224FF480710C4803F0ECFB70
:102210004FF4FA600A49086000200A4908600A4938
:1022200008600A49086024B107480460282004F0C7
:102230004DFC10BD9C660020143C0140000802408B
:1022400020010020240100201C0100201801002092
:1022500030B50246002300240868012816D0136810
:102260006FF30E03D1E901052843CD6828430D69BA
:1022700028434D6928438D692843CD6928430D6A59
:1022800028434D6A28430343136019E0136823F47D
:10229000F843D1E9070528434D6A284303435468AE
:1022A0006FF30E04D1E901052843CD6828430D6979
:1022B00028434D6928438D692843044313605460C3
:1022C000002030BD0246506940EA410050610020C4
:1022D0007047F8B506460C461546002000900027CA
:1022E000D4E900010843A168491E40EA4110E168B1
:1022F00040EA412000900098306103F07BFB0746E4
:1023000009E0681C38B125B103F074FBC01BA8427A
:1023100001D90320F8BDB06900F020000028F0D1F9
:1023200000BFF7E770B50346154600220024012DD3
:102330001FD09A6802F070420868401E4E68761EF0
:1023400040EA06168868401E46EA0026C868401E15
:1023500046EA0036088A401E46EA0046888A401E41
:1023600046EA0056087E401E46EA006002439A6034
:1023700022E09A6811480240C868401E0603888A15
:10238000401E46EA00500243DC6804F070440868CE
:10239000401E4E68761E40EA06168868401E46EAD1
:1023A0000026088A401E46EA0046087E401E46EA8D
:1023B000006004439A60DC60002070BDFF0F0FFFD7
:1023C0002DE9F043C56887B0904689460446002051
:1023D00001F0D0FB064625B1287910B146F0020085
:1023E00001E026F0020001F0C5FB2069012558B18B
:1023F000D4E902128DE82600039541460568484657
:1024000063882288A8471EE0124F2146124B386885
:102410001B68427CE068984730B9E088012801D009
:10242000002001E03868806BA288E388A1680095ED
:10243000CDE90232CDE90410019541466388484652
:10244000228807F005FD07B03046BDE8F04301F0F3
:1024500091BB000000020020F00100200E4810B5E2
:10246000006808F07BF90D48006808F0AFF901201A
:1024700001F0D0FB002001F0D5FB002001F0DCFBD7
:10248000002008F0D1F90648006801F075FBBDE8AE
:102490001040002001F09ABBFC010020F801002050
:1024A000F4010020014AC2E900017047A4010020A4
:1024B000014AC2E900017047AC010020014AC2E9AB
:1024C00000017047BC020020014AC2E900017047C8
:1024D000B4010020014AC2E900017047C402002093
:1024E0002DE9F04FDFF830B191B04FF0FF35DBF858
:1024F0000030D3F81CC0B3F922100691B3F9249030
:10250000DCF81C40A189814206D8E289824203D3CB
:10251000D4F80080471A12E0D4E90181002971D073
:102520000A8882426ED84D8885426BD3801A4968EA
:1025300080B201EB8000B0F90070B0F90250781C55
:1025400060D0A17C9CF81800B3F92A60079010FBBA
:1025500001FA207C0890304608F066F90246DBF864
:102560000000A17CD2B207FB0A830F920127826B85
:1025700002970592CDE90313C069089AC17E807E57
:10258000CDE90001DDE90603494607F061FC681C5E
:1025900018D046F0020008F047F9DBF8000003AA63
:1025A00005FB0A83A17C856B029782E82A00C0693B
:1025B000089AC17E807ECDE90001DDE90603494627
:1025C00007F046FCDBF800005D46C069417E007EF6
:1025D000814214D9022E12D086F0040008F024F9AA
:1025E0002868C069017EC27E857E437E11FB029110
:1025F000089A4B44069812FB050207F08FFD0F98CE
:1026000008F012F9DBF80000617C428C114441842F
:1026100011B0BDE8F08F00000002002004480068FF
:10262000C069C06909B1027C0A60407C7047000043
:1026300000020020022008807047C06982898A4217
:1026400002D8C2898A4210D2806880B102888A4248
:102650000DD843888B420AD3406800EB8100A0EB81
:102660008200B0F90000002801DB01207047002043
:10267000704700002DE9F0432F4C034687B0194600
:102680002068B0F92A60C069C06900F084F80028A9
:102690004FD001884068591A00EBC1053046AF7829
:1026A00008F0C2F88146206869680123826BCDE991
:1026B0000237CDE90412C169CB7E8A7ECDE90023C1
:1026C0000B7EB0F924102A78B0F9220007F0C0FB85
:1026D0002068C069417E027E91421ED9C07E022ED2
:1026E00011FB00F712FB00F617D000F073FC8046D8
:1026F00000F058FC01F032FA21682A78CB69B1F970
:102700002200B1F92410DB7E12FB0302CB19314405
:1027100007F004FD404601F021FA484608F084F82D
:1027200020686978C369B0F922209B7E11FB0321E0
:10273000418407B0BDE8F0830002002030B50F4CA3
:1027400005460B4629462068C069C06900F023F899
:10275000002812D02468028841680120AA1AE4697E
:10276000002B00EBC200085CA47E10FB04F004D038
:1027700011F8321011FB04F1196030BD0002002085
:1027800001200880704700B5C06900F004F80028F7
:1027900000D0012000BD06E002888A4202D84288AB
:1027A0008A4202D280680028F6D17047002801D002
:1027B0000DF090B87047000038B50546FFF7F6FFFA
:1027C00004000AD000F0B0F8054B002100902A4622
:1027D0001B689847684600F0C9F8204638BD0000DD
:1027E000EC02002021F003020149C1E90002704718
:1027F000C4690020002810B50ED008490446042002
:1028000000EBC400496B095848680DF01BF82046DE
:10281000BDE8104011F054BF10BD00000469002055
:10282000002805D0034AD16B016001B14860D06334
:1028300070470000046900202DE9F041044611F0C2
:1028400047F82849E41C24F003052D1D086CA84214
:1028500000D90546CC6B13E054F8042CAA420ED1E3
:1028600084B1206808B162684260606808B122687B
:102870000260CA6BA24232D12068C8632FE024688C
:10288000002CE9D18846896BD8F80C000F1857F84E
:10289000040C3E1A306838B1002011F0AFFF57F831
:1028A000040C3E1A3068D0B97068A84217DB304477
:1028B000441B3046241D11F059FFD8F80C10491B59
:1028C000C8F80C10D8F814102944C8F8141070680F
:1028D000401B02D031460CF0B5FF44F8045C2046A2
:1028E000BDE8F0810469002010B5002410F0F0FF6D
:1028F0000C490F2001EBC002526C1AB101EBC00071
:10290000406C08E0401EF5D508E04168A14200D9BE
:102910000C46806810B180680028F6D1A4F10C0044
:1029200010BD0000046900200549CA69521CCA6133
:10293000496B01EBC0010A78521C0A7000F02EB8F6
:102940000469002010B5FFF7CFFF074AB0F5800FEC
:102950004FF06401126A03D990FBF1F0504310BDAF
:102960004243B2FBF1F010BD0469002002680A493D
:1029700052F8082C4B6B03EBC2021378022B03D3E3
:10298000CB690BB15B1ECB6111780023491E11701E
:1029900003601846704700000469002003490422C0
:1029A00002EBC000496B08580830704704690020EA
:1029B00070B50C46054600F0F1FBC1B2234628462F
:1029C000BDE87040002200F001B80000F0B51C68BE
:1029D000B0F1004F4FF02D0609D0002500280FDA86
:1029E000671C1F6040424FF0010C26700AE0651C16
:1029F0001D60491E267001256FF00040C9B204E039
:102A00004FF0000CA1EB0C01C9B222B3491EC9B2B0
:102A100021E04C1E9142E1B205D1124E1C6837787C
:102A2000661C1E602770104C54F8216090FBF6F471
:102A3000E4B20A2C11D804FB160011B90DB1641CC4
:102A4000E4B20A2C02D10124491CC9B21E68771CC9
:102A50001F60303434700029DBD119680020087001
:102A6000F0BD0000EC0100203C8B040870B50D4661
:102A700006461446104600F0B5FA0300164804EB6B
:102A800084010AD050F82100D0E90110711A2A1AE5
:102A90001846BDE8704001F097B800EB8104A268C9
:102AA000B24201D0012200E00022E368AB4201D033
:102AB000012300E000231A430CD0236943B150F8EE
:102AC0002100D0E901016A1A311A184601F014F800
:102AD000C4E9026570BD00007C6B002030B5C2B255
:102AE000CBB2D21A00D5524293B2C0F3072403FBF3
:102AF00003F3C1F30725621B00D55242000C92B2CA
:102B0000A0EB114002FB023100B2002801DA404282
:102B100000B280B200FB001030BD0021084610B5A5
:102B200000F0B0FA43F6FF7250421346BDE8104081
:102B3000014600F001B800002DE9FC411C46154695
:102B40000E460746042007F06FFE80461148406994
:102B5000D0E913100F44ADF800700D44ADF80450E7
:102B60000644ADF8026004446846ADF806400CF037
:102B70002FFA07E023462A463146384607F0CEFAB8
:102B80000CF0E8F90028F5D1404607F04DFEBDE80D
:102B9000FC810000EC0100200249496A002900D0B4
:102BA00008477047EC0100202DE9F041022B1C463C
:102BB00016460D46074602DB0020BDE8F0811C20CA
:102BC000FFF73AFE0028F8D00DB105610AE0094A86
:102BD00052F8241009B905E011460A68002AFBD111
:102BE0000969016100218461868201604160C0E958
:102BF0000217E2E72C02002070B51D46FFF7D4FF54
:102C0000040009D000F00EF8E068006820B903481D
:102C1000006800EB85008465204670BD000200203E
:102C2000FFF7FEBD70B5C0B38269022A36DA214BC8
:102C3000511C1C788C4200DA19701F4C54F8221079
:102C400019B944F8220032E019464B68002BFBD139
:102C500006E0CB68C5681B682D68AB4203DD0968D8
:102C60000029F6D11AE0C1B1CB68C6681B68366886
:102C7000B3420CD1838A012B05D008E01946DB68EA
:102C80001B68AB4203DB0B68002BF7D129B14B6803
:102C900033B118604A68426004E0FFE7012070BD6C
:102CA00044F822008842486000D1002101600020E1
:102CB00070BD0000520200202C02002010B50C4B09
:102CC0000022816953F82140844205D1046843F809
:102CD0002140016801B14A60416809B103680B6095
:102CE000016809B143684B600260426010BD00009A
:102CF0002C020020022801DB00207047054951F812
:102D0000200004E0C16809680029F6D000680028A6
:102D1000F8D170472C0200207FB50C460546CDF84F
:102D20000CD000F03BFAC2B2202003E0039B03F872
:102D3000010B0393511CA242CAB2F7D303A9284640
:102D4000FFF736FE684600F001F87FBD2DE9FC472D
:102D500006005ED000F058F93D4C81462068B0F97D
:102D6000228000F067F9216807468A8CD01B88848E
:102D700044E000BF47F6FF71304601F025FE824671
:102D80000146304601F0F6FD2168054691F82C0019
:102D900000F00300012842D002283CD05FF0000080
:102DA000B1F822C06A1EACEB000048840244ADF8C2
:102DB0000000ADF80420A9F10103888C6A46ADF843
:102DC0000200C1183046ADF80610514601F07EFAF7
:102DD0002168BDF8020088845146304600F0D8FFD3
:102DE000064430780A281CD00D281AD02168BDF876
:102DF000000028444884307818B1761C30780028C8
:102E0000B8D12068818C39448184818D21F00301FF
:102E10008185BDE8FC8705EBD5704010C0E72846EA
:102E2000BEE7206890F82C1001F0030101290BD0B7
:102E3000022909D0018C418431780A29DBD1828CA6
:102E400002EB09018184D6E7A0F82280F4E70000B4
:102E5000000200207CB5114B064600881B68D3E9B0
:102E600013436518ADF80050691E0844ADF804001E
:102E700070889C18611EADF802400844ADF8060049
:102E800068460CF0A5F806E0224629463046FFF7D2
:102E900097FA0CF05FF80028F6D17CBD0002002004
:102EA00010B5002400E0012400F004F80028FAD155
:102EB000204610BD0B4810B50024006810B18047B3
:102EC00000B101240BF06EFB00B10124064800683C
:102ED00010B1804700B101240448006800B1804768
:102EE000204610BD0C0200203802002034020020D1
:102EF00008B500280B4605D0009281888268C088FA
:102F000000F001F808BD10B50828029C30D008DC9C
:102F100004FB01F401280AD0022813D0042804D1AC
:102F20001CE0102828D020282CD0002010BD04EB55
:102F3000D30003F00701C1F10701105CC84000F0A5
:102F4000010010BD04EB9300062101EA4301105C6F
:102F5000C1F10601C84000F0030010BD04EB5300AE
:102F6000D907105C02D000F00F0010BD000910BDA1
:102F700004FB0130105C10BD481004FB003032F837
:102F8000100010BD881004FB003052F8200010BD66
:102F9000034951F82000C1688A6A082110470000DF
:102FA0002C02002010B507F0E9F8BDE8104007F04A
:102FB000FDB9000002490968C9694A680021104743
:102FC00000020020024A1268D269526810470000CD
:102FD0000002002010B507F0D9F8BDE8104007F056
:102FE000E5B9000002284FF0000102D2024951F871
:102FF0002010084670470000B00200200148006819
:10300000007C70470002002002480068C069407ED2
:10301000704700000002002070B514460D4607F00E
:1030200049F9002802D000212960216070BD01F01B
:10303000E7BC00000A480168002091F82C2002F04B
:103040000C02042A07D0082A01D00C2A02D1C86930
:10305000007E40087047C869007E401E704700002F
:1030600000020020024951F8200000690068704702
:103070002C020020024951F8200000694068704786
:103080002C020020024A126850840020918470476C
:103090000002002038492DE9F04138480B6823F040
:1030A00001030B600168C1F30A01A1F58062493A8E
:1030B00021D000220368C3F30A03A3F580615139CC
:1030C0001BD0002100680A43C0F30A00A0F580630A
:1030D000523B14D000202A4902432A4A4FF00105EE
:1030E0000FD0294885608368002BFCD101600068FF
:1030F000904219D0FEE70122DCE70121E2E701203E
:10310000E9E7224B4FF00A401B68B0EB435F0BD15D
:103110001F4805600368002BFCD11D48083801607A
:103120000068904200D0FEE701F002F8194C2E2012
:10313000207000F040FF184810F092FB13F090FA56
:10314000074607F0E1F810B107F0F2F838B907F0D8
:10315000F8F8064607F0E1F8314607F05FFB00217A
:10316000084600F03BFD0BF049FCA06900B1804728
:103170003846A570BDE8F081002000E0002004E0A2
:10318000C2A507F4CDB5E8B5003002400010005CE0
:10319000084C0258EC010020D0690020011E10B537
:1031A00001DD024600E04A42064B012053F8204070
:1031B000944202D8401C0A28F8DB002900DA401C9F
:1031C00010BD00003C8B04081CB520B90C480068F9
:1031D000006E002812D0FFF7A7FB009044696846F4
:1031E000FFF7C4FB002C09D02046FFF79DFB0190A0
:1031F00081688968884701A8FFF7B8FB1CBD0000FB
:103200000002002001490A4600F002B801F0FFFF69
:103210002DE9FE435FEA000815460C4642D0002027
:1032200000F0A8FC814620480068066E4046FFF783
:103230007BFB02900068806900F076FC074640F650
:10324000FF70C44204D10298B0F90440B0F90650AE
:103250000298621E6B1E0189ADF800401144ADF862
:1032600004104089ADF802501844ADF806000AF089
:10327000F9FF02A8FFF77AFB68460BF0A9FE06E00B
:103280002A462146404600F097FA0BF063FE0028DC
:10329000F6D1384600F048FC304600F065F9484663
:1032A00000F068FCBDE8FE83000200202DE9FE4F1F
:1032B00083461A488A461A490C9E0027984691462A
:1032C0000068407C51F82040E1680968042903D077
:1032D0002468002CF8D100E01CB9FFF70BFD041E98
:1032E00019D0E0680121C26A20469047050011D03C
:1032F0002469A0688047401C02D10A4C46F00106B0
:10330000009643464A4651465846CDE9015400F0DE
:10331000B1F907463846BDE8FE8F000000020020E4
:103320002C0200206CDF040838B5040018D00D48CA
:103330000068006EA04201D100F0ECFB2046FFF7D0
:10334000F3FA0090406908B100F017FE0098006899
:10335000FFF766FC6846FFF709FB2046FFF74AFACD
:1033600038BD0000000200202DE9FF4FDFF8389142
:10337000074683B09A468B46D9F80000447C4B48F8
:1033800000570128204606DD06F0C4FF054620460A
:1033900006F0D4FF05E006F0A6FF0546204606F03D
:1033A000A8FF04461FB302A901A8FFF740FEB7F922
:1033B0000000002800DA0020B7F902608046002EE5
:1033C00000DA002601984119B7F90400491E10F0EF
:1033D000C1FE054602980119B7F90600491E10F012
:1033E000B9FEA5EB0802841B521C641C03E04FF0DD
:1033F00000082A464646BAF1000F01D1C4F1000A7E
:10340000002A4FDD002C4DDD1098534631460090C8
:103410004046FFF74BFF5FEA000A10D000F06AF861
:10342000A042074606D0D9F80000806C10B13221C6
:103430000CF048F9504600F097F8002521E0594675
:1034400005988847012007B0BDE8F08F611BB9429D
:1034500002DA504600F072F83DB17219414650460A
:1034600000F0A4F85046FFF7AFFE5946059888478C
:103470000F48016809B1002088475046FFF7C2FE97
:103480003D44A542E2DB5046FFF74EFF002000F02E
:103490006BF8A74206D0D9F80000806C10B1332138
:1034A0000CF010F90020CEE70002002050020020AE
:1034B000EC03002038B54FF0000460B1FFF734FA98
:1034C0000090006800698068804707F0F3FC0446BC
:1034D0006846FFF74BFA204638BD38B5002808D0BB
:1034E000FFF722FA00F1180400906846FFF73EFA51
:1034F000204638BD38B54FF0000418B906480068BA
:10350000006E38B1FFF710FA0090B0F90A40684633
:10351000FFF72CFA204638BD0002002070B50024C9
:10352000054628460CF086FD641C18B1BDE87040C5
:1035300000F06AB8052CF4DB70BD000038B50C460D
:1035400020B908480068006E00280AD0FFF7ECF99F
:103550000090B0F90A10A14200DD44816846FFF7EF
:1035600005FA38BD00020020F8B50F4E050030689E
:10357000046E16D00CB100F0CDFA0AF061FF2846B7
:10358000FFF7D2F9009031680D660068FFF74AFB3B
:103590006846FFF7EBF907F0CDF907F009F9204687
:1035A000F8BD00F0B7FAFAE7000200207CB5154636
:1035B0000C4620B913480068006E002820D0FFF7A1
:1035C000B3F900902DB2C58024B2848007F0F0F8E2
:1035D0000098406988B1FFF7A7F9009A0190B2F905
:1035E000081081800029B2F90A10C18002D009B107
:1035F0000480458001A8FFF7B9F96846FFF7B6F9DE
:103600007CBD00000002002001490A4600F002B81B
:1036100001F0FFFFFEB5060015460C4628D0FFF767
:1036200083F940F6FF710290CC4203D1B0F9044017
:10363000B0F906500189621EADF800401144ADF8A2
:10364000041040896A1EADF802501044ADF806001F
:1036500002A8FFF78BF968460BF0BAFC06E02A4691
:103660002146304600F090F80BF074FC0028F6D1AB
:10367000FEBD00002DE9FF4FDFF8E8B083B01C4627
:103680004FF0000892464246DDE91060DBF800107A
:103690004B7C1299FFF788FA050061D02869806891
:1036A000804707F007FC81460AFB09F1C91DCF08D6
:1036B000FFF748F9F10705D1C11700EB91708010B1
:1036C00000EB4000002C09DC1FB11838B0FBF7F00C
:1036D00000E000206442A04200DC0446F00707D16D
:1036E00000902346DDE90301524600F0CFFB8046FF
:1036F000002C03DC2846FFF793FA31E004FB07F0C7
:10370000F10700F1180002D0FFF750F801E0FFF7D1
:1037100053F806001CD0FFF707F901900560DDE9BA
:1037200003138180C380A0F808A04481C0F81480EE
:10373000C0E9037901A8FFF719F91298AE60286172
:10374000DBF80000407CA861304607B0BDE8F08F90
:103750002846FFF765FAB8F1000001D0FFF74AF8F4
:103760000020F2E700020020054B30B4054C1B6836
:103770005B7C54F823301B6930BC11F09FBF000004
:10378000000200202C020020F8B515460E46074620
:10379000FFF7CAF8009016210068C068426A00204E
:1037A000904704466846FFF7E1F8002C03D02A460C
:1037B00031463846A047F8BDF8B5050016460F4615
:1037C00012D0FFF7B1F8009044696846FFF7CEF8D1
:1037D0002846FFF76FFE0828034600DD2CB132466D
:1037E0003946284612F02CF8F8BD324639462846AC
:1037F00012F0CAF9F8BD00001D49F8B5096809B111
:10380000002200E002461B49895601292EDD184B93
:103810001C3353F82240641C012C43F8224025D16C
:10382000083BA3F10804002654F8225053F8224024
:1038300053F822707F1C8F4243F8227001D143F865
:10384000226053F82270AF42F2D03D46FFF752FAA1
:10385000002800900AD0C0682121426A684690473B
:10386000030003D000982A4621469847F8BD00007F
:103870006C02002050020020094A10B5126802B103
:103880000020074A243252F82030002B07DBA2F137
:1038900018044FF0FF3344F8201042F8203010BDD8
:1038A0006C020020F8B506461648006808B10024EE
:1038B00000E0344614480057012822DD11481C302E
:1038C00050F82410491E40F824101AD10120B040AD
:1038D000FFF762F90B48143050F82450103040F8CC
:1038E00024503046FFF706FA0028009009D0C0683F
:1038F0002221426A68469047020002D00098294679
:103900009047F8BD6C02002050020020002810B53E
:1039100021D009B30AB3B1F90040B2F900309C429A
:1039200000DA23460380B1F90240B2F902309C422A
:1039300000DA23464380B1F90440B2F904309C42D6
:1039400000DD23468380B1F90610B2F906209142CA
:1039500000DC1146C18010BD11460A68026049684A
:10396000416010BD70B500280BD00388848846885C
:103970000B44C5880C440380B11884802A444180DC
:10398000C28070BD70B50E4D0446D5E90001884275
:1039900009D10C49884201D13C3000E00C3807C8FD
:1039A00084E8070006E090E80E0084E80E000FF0BF
:1039B00021FD2860207A002800D0012070BD000081
:1039C00098020020406A00200448D0E9001081429B
:1039D00001D10120704700207047000098020020AC
:1039E000014988607047000098020020094910B51D
:1039F0000446086820B908480860084601F032F912
:103A0000074906480860204611F0EEFDBDE8104069
:103A100000F01CB9A80200207944010875E60008EE
:103A20003C02002070B5094C0020D4E900218A42F4
:103A30000AD0D2E9005610460FF0F4FC314620605F
:103A400028460BF0CDF8012070BD0000F8020020E0
:103A50002DE9FC41154DDDE908742D68B5F90860C4
:103A6000864200DD3046B5F90C60964200DA3246F7
:103A7000824219DBB5F90A608E4200DD3146B5F9A4
:103A80000E509D4200DA2B468B420DDB00E02C46A7
:103A9000E5682D6825B1042D02D02568002DF6D1EA
:103AA000CDE9007406F062FDBDE8FC810002002053
:103AB000B0F90220B1F906309A4213DCB1F90220C4
:103AC000B0F906309A420DDCB0F90020B1F90430AB
:103AD0009A4207DCB1F90010B0F90400814201DC20
:103AE000012070470020704701460248702200689C
:103AF000FCF786BB00020020002801D011F060BA5C
:103B000070470000024970220968FCF779BB000089
:103B10000002002010B506F001FE06F00BFFBDE824
:103B200010400AF09FBB000070B5094D0228044602
:103B30002868467C09D22046FFF7DCF828B12868BF
:103B40004474FFF7E7FF03480460304670BD00008F
:103B5000000200205003002006F000BE06F036BE32
:103B600003490A686FF07041116306F035BE00002A
:103B70000002002006F058BE03490A68D16900B16E
:103B8000D061084670470000000200200249CA695F
:103B9000C861104670470000BC0100200149486020
:103BA00070470000EC01002002490A6808601046D6
:103BB00070470000BC01002002494A684860104676
:103BC00070470000BC01002006F04ABE02490968A7
:103BD0008A7E88761046704700020020094A30B479
:103BE0000A4B1080084A11801B68094A5B7C52F816
:103BF0002330DA68146A0A4601461846A44630BCE7
:103C0000604700005C0200205E02002000020020ED
:103C10002C020020024909680A7E08761046704787
:103C200000020020034902460968B1F92C008A8588
:103C30007047000000020020034902460968B1F9FC
:103C40002A004A85704700000002002002480068F0
:103C5000002800D0004770470803002002498A6806
:103C600002B98860FFF7F2BFF802002010B5040027
:103C700009D010F095FD204611F0F0FC2046BDE87B
:103C80001040FEF7B7BD10BD38B50C4660B1FEF769
:103C90004BFE00908089204201D0012400E00024E6
:103CA0006846FEF763FE00E00124204638BD0000B0
:103CB00038B50546002028600648046844B120460F
:103CC000FEF732FE0090006928606846FEF74EFE5F
:103CD000204638BDD803002038B504000D464FF00B
:103CE0000000086011D02046FEF71EFE0090846898
:103CF00044B16846FEF73AFE2046FEF715FE0090F6
:103D0000006928606846FEF731FE204638BD000095
:103D10003EB512490C220446FCF7A5FA002813D040
:103D20000F480E4D026882B194E80B008DE80B003D
:103D300001A9684690479DE80E00002885E80E001E
:103D400002D16846FFF752FE3EBD2046FFF74EFE09
:103D500094E8070085E807003EBD0000886A00205F
:103D6000B80200202DE9F041084E0446056830688D
:103D700001682846884707463068416828468847D2
:103D8000284420603846BDE8F08100000802002089
:103D90002DE9F041074F00250C46064605E038683E
:103DA00041683046884706440544641EF7D22846D9
:103DB000BDE8F081080200202DE9F0411F461446BD
:103DC00088460646069D2246641C3B46B06841462E
:103DD000D0F804C03046E0476D1EF4D1BDE8F08154
:103DE0002DE9F041B0F90050B0F90440491B8C4274
:103DF0002ADDB0F902500B4404691430551B5B1ED8
:103E000005FB0400DC1003F00705FF22C5F10703E2
:103E1000B4EBE10500EBE10402FA03F301F007075C
:103E20002078DEB222FA07F210D010436D1E002D6A
:103E300004F8010B05DDFF2229462046FCF701FAB4
:103E40002C44207830432070BDE8F081324010438C
:103E5000F9E770B5B0F9025000F114030669802447
:103E6000521BB0F9000002FB0632081A02EBE00117
:103E700000F007020878D4402043087070BDB0F904
:103E80000610026951431430FCF7E2B92DE9F843FA
:103E900080461C4602F10F00154689460011470076
:103EA00003FB07F01430FEF787FC060013D0FEF783
:103EB0003BFD00900123A0F80080A0F802908580CF
:103EC000C48083810549076181606846FEF74EFD25
:103ED0003046BDE8F8830020FBE7000084DF0408DB
:103EE00070B5B0F9063000F11405B0F90440934202
:103EF0000B681BDD0069A34202FB005000EBE302EC
:103F000014DA12F8010B641E03F00705E410A84050
:103F1000A4EBE305C4B206E045B1083312F8014B47
:103F20006D1E23F00703002CF6D004E0002070BDC6
:103F30006006040E5B1C2006FAD5FF2C07D018463D
:103F400002E06406240E401C6606FAD400E0D81D88
:103F5000C443640705D006E012F8014BFF2C09D1D9
:103F600008306D1EF8D5C01A0B60401C70BD62068B
:103F7000140E401C2206FAD4F5E738B50546FEF7C4
:103F8000D3FC00908189491E0CB284816846FEF7FB
:103F9000EDFC002C02D12846FEF72CFC38BD0000B9
:103FA00010B54FF400110248FEF71CFC10BD0000D4
:103FB000000040C0704770470EB508B102AA00E08B
:103FC00000226846002301A900F086FC0EBD000017
:103FD000074910B50C7818B101200870801E03E065
:103FE000002008706FF07F4005F0F0FE204610BD05
:103FF000ED010020082A10B50EDC012A034618D076
:10400000022A58D0042A7AD010F8042B491E03F84B
:10401000012BF9D1012010BD102A08DC4FEA000263
:1040200030F8043B491E22F8023BF9D1F2E70020A8
:1040300010BD10F8042B491E4FEAC2724FEA1262FB
:1040400034D010F8044B491E04F0010442EA8412F3
:104050002CD010F8044B491E04F0010442EA44122B
:1040600024D010F8044B491E04F0010442EA041263
:104070001CD010F8044B491E04F0010442EAC402AB
:1040800014D010F8044B491E04F0010442EA8402E3
:104090000CD010F8044B491E04F0010442EA44021B
:1040A00004D010F8044B04F001042243002903F863
:1040B000012BBED1AEE710F8042B491E4FEA8272E5
:1040C0004FEA126215D010F8044B491E04F00304A5
:1040D00042EA04120DD010F8044B491E04F0030408
:1040E00042EA840205D010F8044B04F00304224392
:1040F000491E002903F8012BDDD18BE7FFE710F8FB
:10410000042B491E4FEA02724FEA126205D010F8E2
:10411000044B04F00F042243491E002903F8012B2D
:10412000EDD177E738B50024009400F01BF838BDD6
:104130000A4810B5416B00290ED101214163FFF7F8
:104140002FFF06F009FC054905483831086008468C
:10415000BDE8104000F086BD10BD0000EC0100205D
:10416000414401082DE9F0410D460446069901B984
:1041700001461F68082A09DC012A0E461AD0022AC5
:104180005BD0042A7DD0082A13D18DE0102A07DCE9
:10419000D3F810C00E46BCF1000F04D0022389E012
:1041A0000020BDE8F08101CCB8476D1E26F8020B57
:1041B000F9D189E001CCB847C0076D1E4FEA1068FD
:1041C00036D001CCB84748EA80106D1E00F0FF08D9
:1041D0002ED001CCB84748EA40106D1E00F0FF0811
:1041E00026D001CCB84748EA00106D1E00F0FF0849
:1041F0001ED001CCB84748EAC0006D1E00F0FF0891
:1042000016D001CCB84748EA80006D1E00F0FF08C8
:104210000ED001CCB84748EA40006D1E00F0FF0800
:1042200006D001CCB84740EA08006D1E00F0FF0838
:10423000002D06F8018BBDD146E001CCB8478007C0
:104240006D1E4FEA106816D001CCB84748EA00103E
:104250006D1E00F0FF080ED001CCB84748EA800080
:104260006D1E00F0FF0806D001CCB84740EA0800F8
:104270006D1E00F0FF08002D06F8018BDDD123E054
:10428000FFE701CCB84700076D1E4FEA106806D063
:1042900001CCB84740EA08006D1E00F0FF08002D71
:1042A00006F8018BEDD10FE0D3F810C0BCF1000F80
:1042B00004D001232A462046E04705E001CCB84758
:1042C0006D1E06F8010BF9D101206AE77CB50646A0
:1042D00028480D46006868B100200AF079FE06E023
:1042E0006A46294630460CF017F90AF033FE0028DA
:1042F000F6D17CBD1068204C009050680190226877
:10430000BDF8000032F84C1F0844ADF80000BDF8BD
:10431000020091880844ADF80200BDF8040011883D
:104320000844ADF804009188BDF806000844ADF8D3
:10433000060068460AF04CFE0EE000BF20686A46A0
:10434000BDF800104184BDF8021081842946304632
:104350000CF0E2F80AF0FEFD0028EFD12068418C55
:10436000B0F84C20891A4184818CB0F85020891A09
:1043700081847CBD58020020000200202DE9FF4FFF
:1043800093B0164600211D460DAB0C46DDF884A007
:1043900004A80A46CAF80010119102A900F09CFA7C
:1043A00018B1002017B0BDE8F08F0D98854200DDF0
:1043B0000546654F0E9563493868407C51F82010DA
:1043C0000A9109690591FEF7E3FD06903868407C83
:1043D000FEF750FE5D498146884204D05C4989451C
:1043E00001D0012000E000200F90209901CE8847E5
:1043F0008346000E10907CD0119890BB52481399C0
:1044000001EB04080068B0F90800404504DDA0EBAA
:1044100008018046089101E000200890049808995E
:1044200000EB84020A9802EB8101CDE900100E999D
:104430001398149B471840467A1E1946FFF708FB4D
:10444000069818284FF0010011900BDA049800EB41
:1044500084020898291A02EB8000DDE9053200F099
:1044600097F912E00F9880B10498A7EB080800EBC9
:104470008401089801EB800749463868884701C7DE
:10448000A8F101005FEA0008F6D1324BD86988B381
:104490000498361F029F2B4600EB8400049007EB24
:1044A00084022C4C029201463046E469A047FF206A
:1044B0003168B0EB116F02D10499096804E0049AE5
:1044C0001268B0EB126F01D1029A116006F1040676
:1044D0000499091D049102996D1E01F104010291D4
:1044E000E6D10297DAF8000040F00101CAF80010A6
:1044F00022E023E0FFE71098FF28049813D01B6800
:1045000050F824101098C0F1FF022BF07F4098471C
:10451000029941F8240000BFDAF8000040F00101E0
:10452000CAF8001004E0029950F8240041F8240071
:10453000641C6D1E7FF459AF029833E7029941F86D
:1045400024B0E9E72C020020000200205BA4000850
:1045500059A40008BC0100202DE9F04F8FB01D4682
:1045600016460F468146DDF87480189CFEF732FD32
:104570000A9005F00BFE02904FEA460BDDE91A01A6
:10458000084301281AD000200697A84282467CDA08
:104590007E49069A1B9810440D900968401E0490AD
:1045A000B1F90A20824271DCB1F90E1006988142FD
:1045B0006CDB0027A046CDF80090DAE0DFF8CCA154
:1045C000DAF80000407CFEF755FD1C994FF0000C16
:1045D000884210D101A9324610230120009081E8C1
:1045E0000908CDE9044C2B463946484605F030FC15
:1045F0000FB0BDE8F08FDAF8001009EB0602521E8A
:1046000001927B19A3F1010AB1F90A20BA4207DD30
:10461000D31B1746ED1A03FB0BF222F001021444E0
:10462000B1F90E30AAEB0302002A00DDAD1A002D0D
:10463000DEDDB1F90C30019AD21A002A00DDB61A7B
:10464000B1F90810494505DDA1EB0900361A04EB64
:1046500040048144002ECBDDB8F1000F4FF0000084
:10466000CDF81CC0099009D0D8F81400099028B1E1
:10467000002307A81A46194600F02EF905F09EFD02
:10468000804642480068407C01E03BE073E0FEF772
:10469000E9FC05905346D8F800C03946019A4846CF
:1046A000E04778BB079838BB41E0099F0223079990
:1046B00032462046B847079800278246814606E0E2
:1046C000059959F8040B88477F1C4AF8040BB74238
:1046D000F6DBDDF81C90002706E000BFD8F80410D8
:1046E00059F8040B88477F1CB742F7DBD8F808005D
:1046F00080472BF0010004446D1ED6D219E000273C
:10470000A1460BE018E000BF1C9939F8020B88475E
:1047100005998847D8F8041088477F1CB742F3DB17
:104720003DB1D8F8080080472BF0010004446D1E0D
:10473000E5D2D8F80C0080470A98FFF70FFA57E740
:1047400038F8020B0190DDE90101884205D01C997F
:10475000884706F03BF8019802901A990098049B4C
:10476000421801920699521E05F0D8FC019A7F1C4E
:104770000092B742E4DB0BEBDB7020F00100044455
:104780000D9806900AF10100FFE6000000020020EB
:104790002DE9F05F0C1E18DD5F68082A00EB840528
:1047A000014614DC012AA4F1010127D0022A48D0D5
:1047B000042A6BD0082A08D110EB040616F8010D64
:1047C000B847641E45F8040DF8D1BDE8F09F102AE3
:1047D000FBDC5E693EB12246B446BDE8F04F0223E1
:1047E0005DF804EB604701EB440600BF36F8020DAC
:1047F000B847641E45F8040DF8D1E6E700EBE10088
:1048000001F00706802110F801A921FA06F8B5F198
:10481000040581460AEA0800C6F10701C840B84706
:1048200045F804093EB14FEA4860761E4FEA106829
:10483000641EEFD1C9E719F801A907264FF0010856
:10484000F6E700EBA1004FF0060B01F00306C021D4
:10485000720010F801A921FA02F8B5F104058146A9
:104860000AEA0800ABEB4601C840B84745F804091E
:104870003EB14FEA8860761E4FEA1068641EEFD1A1
:10488000A3E7032619F801A9B046F7E701264FF080
:10489000040B00EB6100A643F021B20010F801A95F
:1048A00021FA02F82D1F81460AEA0800ABEB8601C7
:1048B000C840B84745F804093EB14FEA0870761E73
:1048C0004FEA1068641EEFD17FE719F801A90126AD
:1048D0004FF00F08F6E700002DE9F047224C06469E
:1048E00000251F4690468946A06940B904F1280179
:1048F0000120A0611D480860084600F0B3F9606916
:1049000030B91B480068606110B905F0EFFC6061C8
:1049100007B138604EB1A06830B960698000FDF71A
:104920008BFFA06000B901253060B9F1000F0AD0FB
:10493000E06830B960698000FDF77EFFE06000B993
:104940000125C9F80000B8F1000F0AD0206930B97C
:1049500060698000FDF770FF206100B90125C8F88B
:1049600000002846BDE8F087BC010020194401087A
:1049700048020020124A73B5126801A900989047B6
:104980004FF000040090C8B10E4900250968C969BC
:10499000496959B10A684AB1019990477CBD684696
:1049A000FFF7E0F90546FEF705FB04440198401EB9
:1049B0000190F4D5284600F031F8044420467CBD2F
:1049C000F40200200002002073B500240D46009878
:1049D00090B10A490968C969496959B14A684AB137
:1049E000294690477CBD6846FFF7BCF920B10A28EC
:1049F00002D0641CAC42F6DB20467CBD00020020E5
:104A0000044AB2F9002002600348B0F900000860CF
:104A1000704700005C0200205E02002038B50024D0
:104A200069460094FEF7CEFA0099814200DD0C1A27
:104A3000204638BDB0F90030B1F90020934200DAC9
:104A40000280B0F90230B1F90220934200DA4280CC
:104A5000B0F90430B1F90420934200DD8280B0F94E
:104A60000620B1F906108A4200DDC180704770B59A
:104A7000B1F90040B2F900309C4200DD23460380CA
:104A8000B1F90250B2F90240A54200DD2C46448043
:104A9000B1F90460B2F90450AE4200DA35468580BF
:104AA000B1F90610B2F90620914200DB1146C1802F
:104AB0009D4201DBA14201DA002070BD012070BDE2
:104AC000014602480068407C00F002B80002002065
:104AD0002DE9F8430228894604464FF001065DDAC5
:104AE000304F7A6802B190472E4D5FEA090005F118
:104AF000100532D0012803D0B9F1020F4ED118E0D1
:104B000055F8240088B92046FEF7F4F8009018B351
:104B1000C0680D21426A6846904702003ED0009866
:104B20004946904755F824000026401C45F82400CB
:104B300034E02046FEF7DEF8009068B1C0680D2131
:104B4000426A68469047040028D0386800B1804720
:104B500000984946A047002620E055F82400A846C2
:104B6000012812D12046FEF7C5F8009068B1C06850
:104B70000D21426A68469047050006D0386800B1AA
:104B8000804700984946A847002658F8241009B1E4
:104B9000012200E00022891A48F824103046BDE8BE
:104BA000F8830000C0030020F0B5FF2481F07F43AC
:104BB00094EA116180F07F4001D120F07F43010E23
:104BC00000F0FF1511FB02F7C0F307264FF0FF11AD
:104BD000B7FBF4F003F0FF1201EA132346F08074F0
:104BE000C0F1FF014A434B4300FB052100FB0430A9
:104BF000090A00F0FF2201F0FF10104380F07F400F
:104C0000F0BD00002DE9F05F15460C460646DDF8C4
:104C1000389000200D99804688421ED2DFF840B0BF
:104C20004FF0FF0A0C9F02CE08CCAAEB116202FBE8
:104C300009F2B2FBFAF0C2B221F07F401946DBF86C
:104C40000030984720F07F407F1E01C5EBD10A98C5
:104C500004EB800408F10100DCE7BDE8F09F0000F0
:104C6000BC01002002490A6B4260086370470000E3
:104C7000EC01002030B50346CDB202E0521E03F82D
:104C8000015B0AB19907F9D1910818D005EB0544E9
:104C900002F0030204EB042405E01C60091F5C60C1
:104CA0009C60DC6010330429F7DA01E0491E10C370
:104CB0000029FBD103E000BF521E03F8015B002A6C
:104CC000FAD130BD830710B502D5521E20F8021B61
:104CD000530811D0042B01EB014409DB04601B1FB6
:104CE0004460042B8460C46000F11000F6DA01E037
:104CF0005B1E10C0002BFBD1D20700D0018010BD7D
:104D000018B502460020009000BF92F83C00012830
:104D100001D1022018BD012082F83C0000BF0868C4
:104D2000092822D91068C0680B780A3B03EB4304BA
:104D30000723A34098431368D860594B08689842EA
:104D400007D11068C0680B7A40EA03601368D86026
:104D50001FE00B780A3B03EB430388689840136815
:104D6000DB6818431368D86013E0106800690B789B
:104D700003EB43040723A3409843136818610B789F
:104D800003EB43038868984013681B691843136852
:104D900018614868072817D21068406B0B795B1EB2
:104DA00003EB83041F23A3409843136858630888C8
:104DB00080B20B795B1E03EB8303984013685B6B37
:104DC00018431368586331E048680D2817D21068FB
:104DD000006B0B79DB1F03EB83041F23A340984375
:104DE00013681863088880B20B79DB1F03EB830319
:104DF000984013681B6B18431368186316E010681B
:104E0000C06A0B790D3B03EB83041F23A340984337
:104E10001368D862088880B20B790D3B03EB8303DB
:104E200098401368DB6A18431368D8621D4B1068FA
:104E3000984208D10868122805D11B48006840F440
:104E40008000C3F80403174B1068984220D1144B1C
:104E50000868984202D00868112819D112480068E1
:104E600040F40000104B18600D4B086898420FD1B9
:104E70000E4800680E4BB0FBF3F000EB80004000E2
:104E8000009002E00098401E009000980028F9D1A0
:104E900000BF002082F83C0000BF00BF3AE70000DE
:104EA00012000010002001400423014000000020F7
:104EB00040420F0001460868C06C704770B5044658
:104EC00000250CB9012070BD1549A06A884200D0A8
:104ED00000BF206C30B90020606484F83C0020469C
:104EE00000F020F8206C00F0100088B9206C20F44D
:104EF000885040F0020020642046FBF743FE00206B
:104F00006064206C20F0020040F00100206400E0AA
:104F1000012500BF002084F83C0000BF2846D2E7EE
:104F20000100000F704770B504460D46002620684A
:104F3000806800F4806078B12068806800F4807038
:104F400050B1206C40F02000206400BF002084F8A5
:104F50003C0000BF012070BD00F04CFD064612E091
:104F6000681C80B125B100F045FD801BA8420AD91C
:104F7000206C40F00400206400BF002084F83C0056
:104F800000BF0320E7E72068006800F00200022865
:104F9000E6D16FF0120021680860206C40F40070C8
:104FA00020642068806800F04050B8B9A069A8B9B2
:104FB0002068C06A00F4700020B12068806800F4A6
:104FC000806058B9206C20F480702064206C00F45C
:104FD000805018B9206C40F0010020640020BAE72E
:104FE00008B501460020009000BF91F83C00012860
:104FF00001D1022008BD012081F83C0000BF0868F3
:10500000806800F00100A0B90868806840F00100E5
:105010000A6890602E4800682E4AB0FBF2F000EB60
:105020004000009002E00098401E00900098002888
:10503000F9D10868806800F00100002845D0086CAC
:1050400040F20162904340F4807008640868406850
:1050500000F4806028B1086C20F4005040F48050C7
:105060000864086C00F4805020B1486C20F0060001
:10507000486401E00020486400BF002081F83C0043
:1050800000BF6FF022000A6810601348006800F04B
:105090001F0058B90868806800F04050A8B9086837
:1050A000806840F080400A6890600EE00B4A086813
:1050B00090420AD10868806800F0405028B908681A
:1050C000806840F080400A689060002092E700000D
:1050D0000000002040420F00042301400020014056
:1050E00030B503460C461F2100BF012088402040F8
:1050F00018B9081EA1F10101F7D1A2B1082A0DD0FB
:10510000102A06D0182A0FD1072901D3012030BD5B
:105110000BE0082901D30120F9E706E0102901D3AB
:105120000120F4E701E000E000BF00BF186844611F
:105130001868806820F0180010431D68A8600020DF
:10514000E5E7000010B504460CB9012010BD607FF2
:1051500020B900202077204600F036F80220607742
:10516000207948B91748216848612068806820F094
:1051700018002168886007E02046D4E90212FFF792
:10518000AFFF08B10120E1E7607920B94FF0FF30AF
:105190002168086102E02168206908612068806850
:1051A00020F0600061690843216888602068806899
:1051B00020F08000A16908432168886001206077A1
:1051C0000020C3E7B71DC10408B5094A0168914230
:1051D0000DD100BF0749096841F48051054A1160AB
:1051E0001146096801F48051009100BF00BF08BD5D
:1051F0000030024030380240704770B504462068E5
:1052000045682068066805F00100E0B106F480708A
:10521000C8B12068006820F4807021680860E06BE5
:1052200040F00100E063012021688860042084F8D8
:10523000390000BF002084F8380000BF606910B159
:1052400020466169884705F02000E0B106F400506F
:10525000C8B12068006820F4005021680860202050
:1052600021688860E06B40F00200E063042084F86D
:10527000390000BF002084F8380000BF606910B119
:1052800020466169884705F00800E0B106F4006037
:10529000C8B12068006820F4006021680860082018
:1052A00021688860E06B40F00400E063042084F82B
:1052B000390000BF002084F8380000BF606910B1D9
:1052C00020466169884705F0040070B106F48060EB
:1052D00058B12068006820F48060216808600420CC
:1052E00021688860204600F03BF805F00200D0B14C
:1052F00006F40070B8B12068006820F400702168DE
:105300000860022021688860E06BE063012084F877
:10531000390000BF002084F8380000BF206910B1B8
:1053200020462169884705F01000C0B106F480507E
:10533000A8B12068006820F480502168086010201F
:1053400021688860E06BE063012084F8390000BFC9
:10535000002084F8380000BF2046FFF74DFF70BDE5
:10536000704770B50446A56D00F044FB064694F8FE
:105370003500022808D08020606500BF002084F836
:10538000340000BF012070BD2068006820F01600C6
:10539000216808602068406920F080002168486129
:1053A000206C08B9A06C28B12068006820F00800C3
:1053B000216808602068006820F00100216808600A
:1053C0000FE000F017FB801B05280AD9202060653C
:1053D00000BF002084F8340000BF032084F83500AB
:1053E000D1E72068006800F001000028E9D194F8B6
:1053F0005C103F208840A86000BF002084F8340083
:1054000000BF012084F835000020BCE7014691F878
:105410003500022803D08020486501207047052010
:1054200081F835000868006820F001000A68106003
:105430000020F3E770B504460CB9012070BD94F864
:105440003500022800D1F9E72068006820F001004B
:105450002168086000202168086021684860216890
:1054600088602168C860216808612120216848613E
:105470002046FCF77DFD054694F85C103F208840EF
:10548000A8600020606584F8350000BF84F834000F
:1054900000BF00BFD2E700002DE9F041044600251F
:1054A00000F0A8FA074614B90120BDE8F081606A4F
:1054B00000B100BF00BF002084F8340000BF02200C
:1054C00084F835002068006820F001002168086039
:1054D0000AE000F08FFAC01B052805D9202060657E
:1054E000032084F83500E0E72068006800F0010040
:1054F0000028EED12068056821480540D4E9010163
:105500000843E16808432169084361690843A169C8
:105510000843E1690843216A08430543606A042897
:1055200003D1D4E90B0108430543206805602068D6
:10553000456925F00705606A0543606A04280DD1B6
:10554000A06A0543E06A48B12046FCF72BFD28B16C
:1055500040206065012084F83500A6E72068456199
:105560002046FCF705FD064694F85C103F20884075
:10557000B06000206065012084F83500002094E7C9
:105580003F8010F031B5002400F034FA044600BF2B
:1055900000F030FA001B00998842F9D338BD0000B2
:1055A000F0B50C4600250022002300219CE00126D6
:1055B00006FA01F504EA0502AA427DD106684FEA1F
:1055C000410C032707FA0CF7BE430660CF0800F131
:1055D000200656F827604F074FEAD76C0F2707FAC7
:1055E0000CF7BE434FEAD10C00F1200747F82C60BE
:1055F00086684FEA410C032707FA0CF7BE43866022
:10560000476801268E40B7434760C6684FEA410CA1
:10561000032707FA0CF7BE43C660354E8F0856F8CD
:1056200027308E07370F0F26BE403340314EB04231
:1056300001D100262DE0304EB04201D1012628E0F4
:105640002E4EB04201D1022623E02D4EB04201D1B0
:1056500003261EE02B4EB04201D1042619E02A4E4B
:10566000B04201D1052614E0284EB04201D10626F1
:105670000FE0274EB04201D107260AE0254EB04286
:1056800001D1082605E0244EB04201D1092600E0F0
:105690000A268F073F0FBE409E4224D18E07370F48
:1056A0000F2606FA07F3124E8F0856F827609E431E
:1056B0000F4F4FEA910C00E015E047F82C60174EB1
:1056C00036689643154F3E603E1D366896433F1D33
:1056D0003E603E1D366896433F1D3E603E1D366867
:1056E00096433F1D3E60491C1029FFF460AFF0BD9A
:1056F0000838014000000240000402400008024057
:10570000000C024000100240001402400018024049
:10571000001C02400020024000240240003C0140E6
:1057200010B50446082C06D1092001F0ADF9082077
:10573000174908602AE0B4F5005F1BD1154803F053
:1057400098FB1D2001F0A0F94FF4005010490860AB
:1057500000224111104800F047F900200F4908606D
:105760000C49096848621D2001F0B0F9094803F0AE
:1057700071FB0BE0B4F5804F08D14FF48040044931
:10578000086007480068401C0549086010BD00001B
:10579000143C01409C6600200008024018010020D3
:1057A0002401002010B5044604480068204020B1C0
:1057B000024804602046FFF7B3FF10BD143C0140CF
:1057C000F8B502460B46002100250024002000BF4A
:1057D000E4E0012606FA01F51E6806EA0504AC427B
:1057E00071D15E68022E02D05E68122E13D1CF08EE
:1057F00002F1200656F827004E07F70E0F26BE408E
:10580000B0434F07FF0E1E69BE403043CF0802F180
:10581000200646F8270010684F000326BE40B0431C
:105820001E7906F003064F00BE40304310605E68EC
:10583000012E08D05E68022E05D05E68112E02D0BF
:105840005E68122E13D190684F000326BE40B0430D
:105850004F00DE68BE4030439060506801268E40A5
:10586000B0431E79C6F300168E4030435060D068B6
:105870004F000326BE40B0434F009E68BE403043F9
:10588000D0605E6806F08056B6F1805FA8D100BF98
:10589000444E366846F48046424F3E603E46366887
:1058A00006F48046009600BF00BF3F4E8F0856F8B2
:1058B00027008E07370F0F26BE40B0433B4EB24243
:1058C00002D100262EE068E0394EB24201D1012615
:1058D00028E0384EB24201D1022623E0364EB242D1
:1058E00001D103261EE0354EB24201D1042619E053
:1058F000334EB24201D1052614E0324EB24201D1FC
:1059000006260FE0304EB24201D107260AE02F4EA4
:10591000B24201D1082605E02D4EB24201D109263E
:1059200000E00A268F073F0FBE4030431E4E8F080F
:1059300046F82700274E3068A0435E6806F480369C
:10594000B6F5803F00D12043224E3060361D3068CE
:10595000A0435E6806F40036B6F5003F00D1204350
:105960001C4E361D3060361D3068A0435E6806F45C
:105970008016B6F5801F00D12043164E08363060E1
:10598000361D3068A0435E6806F40016B6F5001FA9
:1059900000D120430F4E0C363060491C1029FFF413
:1059A00018AFF8BD443802400838014000000240FA
:1059B0000004024000080240000C024000100240B7
:1059C0000014024000180240001C02400020024067
:1059D00000240240003C0140024613690B400BB119
:1059E000012000E0002070470AB1816101E00B0452
:1059F000836170470148006870470000480000203C
:105A000010B504460CB9012010BD242084F84100D3
:105A10002068006820F0010021680860204600F03E
:105A2000D9FA0020606484F84100206384F84200C1
:105A300000BF84F8400000BF00BFE5E7014691F8D1
:105A40004100704710B504460CB9012010BD94F810
:105A5000410028B9002084F84000204600F0BBFA3D
:105A6000242084F841002068006820F001002168AB
:105A70000860606820F070602168086120688068B4
:105A800020F4004021688860E068012805D1A06802
:105A900040F400402168886004E0A06840F40440BD
:105AA00021688860E068022802D18002216848608D
:105AB0002068406813490843216848602068C0682E
:105AC00020F400402168C860D4E904010843A169BA
:105AD00040EA01202168C860D4E907010843216831
