:020000040800F2
:10000000806A0220DD0100082160000823560008F4
:100010001D600008CD0E0008497A000800000000AD
:10002000000000000000000000000000EF010008D8
:100030008915000800000000F3010008616E000847
:10004000F7010008F7010008F7010008F7010008B0
:10005000F7010008F7010008F7010008F7010008A0
:10006000F7010008ED150008F7010008F701000886
:10007000F7010008F7010008F7010008F701000880
:10008000F7010008F7010008F7010008F701000870
:10009000F7010008F7010008F7010008F701000860
:1000A000F7010008F7010008F7010008F701000850
:1000B000F7010008F1710008F7010008F7010008D6
:1000C000F7010008F7010008F7010008F701000830
:1000D000F7010008F70100083D7A0008F701000861
:1000E0008D150008F7010008F7010008F701000866
:1000F000F7010008F7010008F7010008F701000800
:10010000F7010008F7010008F7010008F7010008EF
:10011000F7010008F7010008F7010008F7010008DF
:10012000F7010008F7010008F7010008F7010008CF
:10013000F7010008F7010008F7010008F7010008BF
:10014000F7010008F7010008F7010008F7010008AF
:10015000F7010008F7010008F7010008F70100089F
:10016000F7010008F7010008F7010008F70100088F
:10017000F7010008F7010008F7010008000000007F
:10018000F7010008F7010008F7010008F70100086F
:10019000F7010008F7010008F7010008F70100085F
:1001A000295E0008F70100083D150008F701000866
:1001B0006D6D0008F7010008F7010008F70100085D
:1001C000F7010008F7010008DFF80CD000F0FAFA98
:1001D000004800472D830008806A022006488047B7
:1001E00006480047FEE7FEE7FEE7FEE7FEE7FEE71C
:1001F000FEE7FEE7FEE7FEE7896E0008C90100089A
:1002000010B5441A0346944209D28318114403E0FE
:1002100011F8014D03F8014D521EF9D210BD40EA0C
:100220000104A40703D009E010C9121F10C3042A57
:10023000FAD203E011F8014B03F8014B521EF9D238
:1002400010BDD2B201E000F8012B491EFBD270476D
:100250000022F6E710B513460A4604461946FFF792
:10026000F0FF204610BD30B504460020034600E0F4
:100270005B1C934203D2E05CCD5C401BF8D030BDE8
:100280002DE9FE4F804681EA0300C00F0C46009026
:1002900021F0004123F00045B8EB0200A94105D24E
:1002A0004046214690461C460B46024623F000403D
:1002B000104347D0270DC7F30A00C3F30A51029039
:1002C000401A019040286BDAC3F3130040F4801BFE
:1002D0000098924620B10023D2EB030A63EB0B0B8C
:1002E00001985946C0F14002504600F02CF90646EC
:1002F0000D4650465946019A00F034F910EB0800BB
:100300006141002487EA115284EAE7731A4340D01E
:10031000009A62B3019A012A4FEA075215DC001BCA
:1003200061EB02014FF0004202EA0752CDE90042C0
:10033000001C41F5801132462B4600F06BF903B0EA
:10034000BDE8F08F40462146F9E7001B61EB020152
:10035000001C41F5801300185B412018A2F500171E
:1003600047EB030140EAD570B6196D4111E06D0805
:100370004FEA360645EAC0754FEA0752001B61EBAB
:100380000201001C41F5801149084FEA30000019B4
:10039000514132462B4603B0BDE8F04F00F02BB977
:1003A0000098012240000023D0EB020263EBE073CF
:1003B000009821464FEAE074B8EB000061EB0401BD
:1003C000E9E783F000435BE781F0004158E72DE95E
:1003D000F04D81EA030404F0004B21F0004514467F
:1003E0004FF0000A23F0004150EA050220D054EA01
:1003F00001021DD0C5F30A570246C5F31303C1F32A
:100400001300C1F30A5640F4801543F48013A7EBA0
:100410000608101BD64608F2FD3873EB050002D320
:1004200008F1010801E092185B41B8F1000F03DA0E
:1004300000200146BDE8F08D00204FF480110646F3
:1004400084460EE0171B73EB050705D3121B63EB05
:10045000050306434CEA010C49084FEA30009218A4
:100460005B4150EA0107EDD152EA030012D082EA63
:10047000040083EA0501084305D0101BAB4106D2F6
:100480000122002306E000224FF0004302E06FF05B
:10049000010253101AEB06004CEB085110EB0A0056
:1004A00041EB0B01BDE8F04D00F0A5B80EB5C10F52
:1004B00080EAE0700844CA07002140F233438DE827
:1004C0000E000A460B4600F0A5F803B000BD0EB5BD
:1004D00040F2334102910021CDE900110A460B465A
:1004E00000F098F803B000BD00F0004230F000408A
:1004F0000AD0C10D01F56071C0F3160042EA015146
:10050000C20840071143704700200146704701F0C0
:10051000004330B421F0004150EA010206D00A0D38
:10052000A2F56072C1F31301002A02DC30BC002086
:100530007047440F44EAC104C100E01830BC00EB2E
:10054000C25000F021B8202A04DB203A00FA02F160
:10055000002070479140C2F1200320FA03F31943B1
:1005600090407047202A06DBCB17203A41FA02F070
:1005700043EAE07306E041FA02F3D040C2F1200200
:1005800091400843194670470029A8BF7047401C96
:10059000490008BF20F00100704710B4B0FA80FC99
:1005A00000FA0CF050EA010404BF10BC704749B1D6
:1005B000CCF1200421FA04F411FA0CF118BF012146
:1005C00021430843A3EB0C01CB1D4FEA00614FEA26
:1005D000102042BF002010BC704700EBC3501044F5
:1005E0000029A4BF10BC7047401C490008BF20F080
:1005F000010010BC704710B5141E73F1000408DA36
:10060000401C41F1000192185B411A4301D120F0D6
:10061000010010BD2DE9F04D92469B4611B1B1FA93
:1006200081F202E0B0FA80F220329046FFF78BFFB1
:1006300004460F4640EA0A0041EA0B0153465A4677
:10064000084313D0114653EA010019D0C8F1400203
:10065000504600F0C9F805460E46504659464246F7
:10066000FFF771FF084305D0012004E0204639461A
:10067000BDE8F08D0020054346EAE0762C43374381
:100680000A986305E40AA0EB08000022FD0A44EA88
:1006900047540A3002D500200146E9E70105101948
:1006A0006941DDE9084500196941BDE8F04DA2E75F
:1006B0002DE9FE4F81EA030404F0004421F00041DB
:1006C00000944FF0000B23F0004350EA01045ED089
:1006D00052EA03045BD0C3F30A54C1F30A552C4415
:1006E000A4F2F3340194A0FB0254C1F3130141F4CA
:1006F0008011C3F3130343F4801301FB024400FB96
:10070000034E840A970A44EA815447EA8357A4FBBC
:10071000076802958D0A05FB07854FEA932C04FBB9
:100720000C542705029D4FEA065847EA1637B5EBE9
:1007300008056EEB070C870E920E47EA811742EA16
:100740008312A7FB0201B6EB0B0164EB00042B0D37
:1007500043EA0C335E1844EB1C50DA465146E7FB83
:100760000201C5F313044FEA0B3343EA14534FEA73
:100770000432019C43EA0603A4F10C040294009C99
:10078000CDE900B4FFF746FF03B0BDE8F08F0020CD
:100790000146F9E730B5041E71F1000404DB4FF0A7
:1007A0000044404264EB0101141E73F1000405DBB8
:1007B0001C464FF00043524263EB04038B4208BFD8
:1007C000824230BD064C074D06E0E06840F0010370
:1007D00094E8070098471034AC42F6D3FFF7F8FCD2
:1007E000C8A50408F8A50408202A04DB203A21FA49
:1007F00002F00021704721FA02F3D040C2F120023A
:10080000914008431946704770B58C1810F8015B89
:1008100015F0070301D110F8013B2A1106D110F899
:10082000012B03E010F8016B01F8016B5B1EF9D19D
:100830002B0705D40023521E0DD401F8013BFAE723
:1008400010F8013BCB1A921C03E013F8015B01F88E
:10085000015B521EF9D5A142D8D3002070BD000023
:1008600070B5044642F210706043FFF71FFE054664
:1008700020460E46FFF72BFE9FED090B02460B4666
:1008800051EC100BFFF79DFD02460B462846314602
:10089000FFF79DFDFFF73BFE00EE100A70BD00BFA5
:1008A0000000000000FEAF4080B52DED028B9FEDF3
:1008B000201A80EE010A10EE100AFFF715FE41EC37
:1008C000100B12F095F91B48B0EE408AF0EE608AEA
:1008D0000088FFF7FCFD02460B4651EC180BFFF7B2
:1008E00076FD9FED0D0B53EC102BFFF7C9FC9FED30
:1008F0000C0B02460B4651EC100BFFF768FD9FED09
:100900000A0B53EC102BFFF7BBFCFFF700FE00EEC9
:10091000100ABDEC028B80BD8B33DA3D6C7D6B3FE2
:10092000000000000000F03F00000000001071C057
:1009300000401C46E0020020BFB5334D8520002258
:100940004FF080730124294641F81C0F4FF480704A
:100950004A63C1E905202D48C1E90722C1E90934EC
:10096000C1E90B2241F2883202F0D3FC38B92748A2
:100970000DF10F0141F2883202F0ACFF10B10020FE
:1009800004B0B0BD06F0B6F90028F8D09DF80F000D
:100990000A2141F2883261F31F1029468DF80F00B9
:1009A000812041F81C0F194802F0B3FC0028E6D161
:1009B00016480DF10F0141F2883202F0EFFF0028D6
:1009C000DDD1EB2000224FF4807C4FF440634FF0E8
:1009D00040740A2145F81C0F4FF40050C5E90B2262
:1009E0006A636A60C5E903020848C5E9051CC5E9F0
:1009F0000732C5E90942029201AA294602F04EFED9
:100A00000028BCD10120BBE7F0050020B007002082
:100A10002DE9FC471F4D204E204F80464FF0010925
:100A20004FF0100A00244FF6FF7230462946C5E900
:100A3000009AC5E902940194B847012001F076FBC1
:100A4000022029464FF6FF72C5E9000A3046C5E983
:100A50000294B847032008214FF6FF72C5E9000A47
:100A6000C5E9021430462946B8474FF408710420FE
:100A70004FF6FF7201910199C5E9000A3046C5E9B8
:100A800002912946B8473046414603F0BCFEBDE816
:100A9000FC8700BF740A0020446A00202B4800082D
:100AA0002DE9F04F85B080466248634DDFF88C91A8
:100AB0004FF0020B6E4600274FF0030A0C248168AA
:100AC00041F001018160816801F00101009100990C
:100AD000016841F480010160016801F48001009126
:100AE0000099016841F001010160016801F0010114
:100AF00000910099016841F004010160016801F072
:100B0000040100910099016841F008010160016849
:100B100001F0080100910099016841F010010160A5
:100B2000016801F0100100910099016841F0200175
:100B30000160016801F0200100910099016841F015
:100B4000400101603146006800F0400000900098CC
:100B5000CDF804B04FF63F00009005F5A050029785
:100B6000CDF80CA00494C8478020CDF804B03146DD
:100B700000902846CDE9027A0494C84730203146D7
:100B8000CDE9000B05F50060CDE9027A0494C84771
:100B900048F233103146CDE9000B05F5C050CDE9E0
:100BA000027A0494C8474FF683703146CDE9000BB2
:100BB00005F58050CDE9027A0494C8474CF20370E1
:100BC000CDF804B03146009005F54060CDE9027AD9
:100BD0000494C8471A4D1B4C4FF400364FF4007074
:100BE0004FF480614FF480524FF4804305F1200CA4
:100BF0008CE8C0048026C5E90B77C5E90047C5E944
:100C0000026005F110008EC0C8F83050C5F8388079
:100C1000284601F0CEF9284601F0F2F938200F21DC
:100C2000002202F049FA382002F038FA05B0BDE897
:100C3000F08F00BF3038024000000240AD220008B3
:100C4000140A0020106402402DE9F04F8FB0824654
:100C50004448DFF8749100250495CDE902550169F7
:100C600099F80000002818BF7020884700288AF8EB
:100C7000000072D04FF0000B0DF11E040DF11408AE
:100C8000002763E0374804EB0B0108EB0B024369D4
:100C900099F80000002818BF7020984799F80100C3
:100CA00058B134F8172038F817600DF1320020F8E9
:100CB00017200AA820F8176006E00AA830F8176085
:100CC0000DF1320030F8172009EB87008368C16905
:100CD0009C1A38BFD41A8D1B38BF751AADB215FADD
:100CE00084F5062D21BF8260C6613146134699F80E
:100CF000000038B9B9F8042051430E0BB9F80210BE
:100D000059430A0B0AEB4701002803AB8E814A8046
:100D100002A904AA009118BF7020394607F0F2F921
:100D200004990AEB07000DF11E040BF1020B0137C9
:100D30008175039980F82010029903299FBFC9008B
:100D4000094A22FA01F1C1769AF80000C0B287423E
:100D500098D3504600F00AF8054628460FB0BDE883
:100D6000F08F00BFE402002001020300BCB504467E
:100D7000154800250DF107018DF80750007800286F
:100D800018BF702007F0AEF99DF80700B0B14928F0
:100D90000BD014280BD018280BD01C280BD04028BF
:100DA0000BD010280ED1012508E0062506E002250B
:100DB00004E0032502E0042500E005250020A562EB
:100DC00002B0B0BD0120FBE77006002040F6030131
:100DD00088420ED040F6020188420FD040F6010151
:100DE000884201BFB9480069C0F380007047022003
:100DF00008E0B6480069C0F3001003E0B34800699A
:100E0000C0F3C000C0B2704710B50C4640F60301F5
:100E1000884216D040F6020188421FD040F60101F8
:100E2000884218BF10BD012008F046FF012C22D0D7
:100E3000002C3FD1A548016921F004010161A048BF
:100E40001FE0012008F038FF012C1ED094BB9F4802
:100E5000016921F0100101619A481CE0012008F0AD
:100E60002BFF012C1BD02CBB9848016921F00801F5
:100E70000161954819E09548016941F0040101615B
:100E8000114840F26311052212E09048016941F0D7
:100E9000100101610A4840F263114B2208E08B48BF
:100EA000016941F008010161064840F26311912295
:100EB00008F030FA0120BDE8104008F053BF00BF31
:100EC00030A4040880A4040808A4040800F091BB1E
:100ED000DFF84CC00023ACF8023005E010F8012B1D
:100EE00001391344ACF802300A06F7D158428CF8A5
:100EF0000000C0B2704700BF80B5DFF824E04FF0BB
:100F0000000C0023AEF802C09AB28A4228BF80BD0E
:100F10000133AEF8023000F802C0BEF80230F3E749
:100F2000D00600202DE9F041684F3878012818BF1D
:100F3000BDE8F081394C3A4D01222046294603F0A4
:100F4000C2FA384E20460122314603F08BFA07F1EF
:100F5000240420214FF020082046FFF7CDFFF02089
:100F6000FA214FF4F0724FF4877308F045F82E2001
:100F7000B1783023F27887F8260043F22E20A7F8C4
:100F8000290042F22E00F885707887F8308043EA15
:100F9000111687F82460032666F31F1187F82510C1
:100FA00043EA101166F31F1087F8271087F82B30DB
:100FB00087F8280043EA121066F31F1287F82C0006
:100FC000287887F82D2043EA101166F31F1087F860
:100FD000311087F832003A2087F83300687843EA06
:100FE000101166F31F1087F8341087F835000E488B
:100FF00009F022F80D4809F011F8022009F07CF8F8
:101000000D2009F06FF84FF4EB70FF2108F09AFA09
:101010002046BDE8F04108F0F9B800BF880800207C
:10102000700800208402002074570108FFFFFF00B1
:10103000B0B508F08FFA214808F032FF01200124F2
:101040000BF004FC002001210AF00CFE012001211C
:101050000AF008FE002008F0C7FF07F0BEFFFB48BB
:10106000F84D00210022A847012008F0BDFF4FF0F5
:101070007F4008F0D1FF07F0B0FFF54840F2631160
:101080000522A847F34840F263114B22A847F248D3
:1010900040F263119122A84708F062F9E34D2C70E9
:1010A000286940F020002861FFF73CFF47F23050EC
:1010B0006861286940F080002861B0BD8969000836
:1010C000F4A304081CA404086CA40408600700200E
:1010D00070B5DFF85843A06900B170BD3225A56135
:1010E00008F03EF92069616900F40072114305D1EE
:1010F000CF4940F40070206109684D63C1075CD19D
:10110000216A002965D0810600F1A8802178022992
:1011100000F0EF800129E0D1D04DD14EA888318870
:10112000814234D0012008F0C7FDA888C8214FF4BF
:10113000F072E62330804FF4AF7007F05DFFC948CE
:1011400008F07AFFC84808F069FF022008F0D4FFD1
:101150000D2008F0C7FF4FF4D770DC2108F0F2F93A
:10116000B5F90400B0F1FF3F03DCC0A008F04EF871
:10117000A8886FF31F300A21B0FBF1F0022108F0BC
:101180002BF8BBA008F042F8012008F0EBFDE17855
:101190002079002900F0BC80002840F0B9800120AF
:1011A0002071207C400700F1C88040F60100012139
:1011B000FFF72AFE40F60300C1E020F001012161A3
:1011C00062787AB14EF660205043E06141F480705D
:1011D0000BE04EF660202062012008F06DFDFFF765
:1011E000A1FE43E040F2011188432061A07802286B
:1011F00041D0012859D000287FF46FAF002008F0BB
:10120000F3FE07F0EAFE91488E4D00210022A84728
:101210000120012608F0E8FE4FF07F4008F0FCFEB8
:1012200007F0DBFE8A4840F263110522A84789488F
:1012300040F263114B22A847874840F26311912284
:10124000A8472670206940F020002061FFF76AFE61
:101250007A48016821F00101016070BD20F0200092
:101260002061012008F028FD00F004F90120BDE80C
:10127000704008F077BD002008F0B6FE07F0ADFE24
:101280006C480021002208F045F8012008F0ACFE6F
:101290004FF07F4008F0C0FE07F09FFE664840F226
:1012A0006311D72208F036F81BE0002008F09CFEFE
:1012B00007F093FE6248634D00210022A8470120F9
:1012C00008F092FE4FF07F4008F0A6FE07F085FE82
:1012D0005D481921D722A847574840F26311D72209
:1012E000A847022020705548016841F001010160C3
:1012F00070BDC10503D5E169002900F08580617BDF
:1013000059B1002140F00100A1706173206170BDEE
:10131000C1B9B8B10020207114E0A17B00297AD0B6
:10132000E17B002977D10121E173A178012902BF76
:1013300040F04000206170BD70BD40F6010000210A
:10134000FFF762FD6179A07969B160B90120A071F0
:10135000207CC0060CD440F603000121FFF754FDA9
:1013600040F6010006E041B938B10020A07104E068
:1013700040F603000021FFF747FD217CE0790907D3
:1013800001D4217A0AE0217A40B139B90120002143
:10139000207240F60200FFF737FD03E010B909B1F3
:1013A00000202072617AA07A89B180B90120A072F0
:1013B000012008F081FCE8888109042903D80A305B
:1013C000E88000F057F8012008F0CCFC03E011B9E8
:1013D00008B10020A072E17A207B61B158B90120E8
:1013E0002073012008F068FCE8888D28FFF43EAFE8
:1013F0000A38E88038E700297FF46FAE00283FF410
:101400006CAE0020207370BD40F001002061002010
:10141000A4F8010070BDE07800287FF45EAE20796A
:1014200000283FF45AAE0020207170BD60070020F4
:1014300010090020BCA4040844A404087802002079
:10144000A8A404081593000858A4040894A4040848
:10145000F4A304081CA404086CA40408F40A0020E3
:10146000840A0020DC430108FFFFFF002D0000007C
:101470002A4300002548007801281BD110B52448D4
:101480008C21FA22DC23C488782007F0B5FD642083
:101490006FF063010A22B4FBF0F0C0B210FB01410F
:1014A000032891FBF2F406D0022806D0012809D1C6
:1014B0001A4803E07047174800E017487D21912241
:1014C00007F028FFE0B20928BDE8104088BF704748
:1014D000DFE800F00507090B0D0F1113151716486B
:1014E00010E00E480EE00C480CE00A480AE01148F3
:1014F00008E00F4806E00D4804E00B4802E0094808
:1015000000E00748A521912207F004BF60070020F2
:10151000F40A00200CA50408F8A40408E4A40408B4
:1015200084A5040870A504085CA5040848A504085F
:1015300034A5040820A50408D0A4040880B50348F5
:1015400000F03DFC02480221016080BD5C69002082
:1015500008B0024001686FF00F0240F2FF3352FA08
:1015600081F2994318235F2AB2FBF3F204A39A5C39
:1015700088BF41F004018165C2650846704700BF1D
:10158000000610160006101670470000B0B5164C85
:101590004FF40051204600F04FFFC8B120464FF4F1
:1015A00080414FF4804500F047FFB8B15F484FF4E9
:1015B000806101604FF4006101604FF4805101606F
:1015C0004FF4005101604FF4004105600160B0BD6F
:1015D0004FF40050BDE8B04000F05EBE4FF48040D4
:1015E000BDE8B04000F058BE00180240082000F0EE
:1015F00053BE70470000000070B5044640F69800E6
:101600006043FEF753FF054620460E46FEF75FFF98
:101610009FED090B02460B4651EC100BFEF7D1FE75
:1016200002460B4628463146FEF7D1FEFEF76FFF15
:1016300000EE100A70BD00BF0000000000FEAF40C9
:1016400080B52DED028B9FED201A80EE010A10EE81
:10165000100AFEF749FF41EC100B11F0C9FA1B48C4
:10166000B0EE408AF0EE608A0088FEF730FF024656
:101670000B4651EC180BFEF7AAFE9FED0D0B53EC39
:10168000102BFEF7FDFD9FED0C0B02460B4651ECB7
:10169000100BFEF79CFE9FED0A0B53EC102BFEF790
:1016A000EFFDFEF734FF00EE100ABDEC028B80BDAB
:1016B0008B33DA3D6C7D6B3F000000000000F03F93
:1016C00000000000001071C00000FA44E202002097
:1016D000B0B5154D0446284603F083FB1D2001F0EC
:1016E000CBFC282001F0C8FC10484FF40051002228
:1016F00001606FF001012868002501610C484FF47A
:10170000807100F09EFE0B484FF4FA61002CC0E996
:101710000A51C0E90C5505D084622820BDE8B040CC
:1017200001F0BCBCB0BD00BFD0080020143C01409B
:1017300000080240600200202DE9F0410B680268B9
:10174000012B1ED1D1E901E7D1E90365D1E9058C6F
:10175000D1E90734496A22F4F8421A43224311437B
:101760004268016047F6FF7122EA010141EA0E0179
:1017700039433143294341EA080141EA0C01416000
:1017800019E047F6FF7301F1140822EA030CD1E9CE
:101790000132D1E903E498E8E001496A43EA0C0325
:1017A0001A4342EA0E0222432A4332433A4342EAB0
:1017B0000802114301600020BDE8F081426942EA5D
:1017C0004101416100207047F8B5054600201446EC
:1017D0006FF01F07009091E80D00C96807EB4313F5
:1017E0001043184340EA412000900098286100F01F
:1017F0002DFE0646671CA86910F0200F09D0002FA7
:10180000F9D024B100F022FE801BA042F3D90320BE
:1018100000E00020C0B201B0F0BD0000F0B5836868
:10182000012A28D12A4A284F1A4091E82810D1E9E4
:10183000034ED1E9056107EB0434013BFF3122433C
:10184000C04C04EB06542243C46882606FF00F0260
:1018500002EB051204F0704423431A436FF0FF03B8
:1018600003EB0C231A43194B03EB0E431A4342EAD2
:101870000161C16025E0D1E900C26FF00F05D1E937
:1018800002E403F0704305EB0212ACF101052B43B7
:101890001A436FF0FF0303EB0E231A430A4B03EBCB
:1018A00004330A4C1A430B6904EB0343A54C1A4357
:1018B0004B69896904EB0353FF311A4342EA016122
:1018C00081600020F0BD00BF00F0FFFF0000FFFFBF
:1018D000FF0F0FFF02484FF4001107F0E3B900BFFC
:1018E000000040C07047704778B50022009290F821
:1018F0003C20012A01D1022157E0012280F83C203E
:101900000A681FFA82FC0A2A4FEA4C0313FA82F48F
:1019100011D3D0F800E01E3C072303FA04F5734608
:1019200053F80C6F26EA0505334E1D608D68B242F0
:101930000DD12C060DE0D0F800E0072303FA04F5E2
:10194000734653F8106F26EA05051D608D6805FA89
:1019500004F41D682C431C604B68062B05D803EB70
:1019600083030EF13401053B0CE003EB83040C2BE5
:1019700004D80EF13001A4F1230303E00EF12C0191
:10198000A4F141030D681F249C400CFA03F325EADF
:1019900004040C600E6833430B606749A1F5417382
:1019A0009E4505D0002180F83C10C8B201B070BD42
:1019B000112A1CBF104B9A4216D10B6843F4000346
:1019C0000B600D498A42EDD1B849B94A0968B1FBAB
:1019D000F2F101EB8101490001E000990139009128
:1019E00000990029F9D1DDE7122A02BF0A6842F402
:1019F00080020A60D6E700BF120000100068C06CC9
:101A00007047000010B50446002842D0206C30B961
:101A1000002084F83C006064204600F095F8206CBB
:101A200010F0100F37D1206C41F20211434B884364
:101A300040F0020020644048016821F44031016018
:101A400061680268114301602068416821F4807177
:101A500041602169426842EA01214160416821F008
:101A600040714160A168426811434160816821F47E
:101A700000618160E168826811438160A16A8268C7
:101A800022F0706299428260826806D122F0405151
:101A90000CE0012010BD01204AE011438160816803
:101AA00021F040518160E16A826811438160816860
:101AB00021F002018160A169826842EA41018160EE
:101AC000226A41686AB141F400611D4A416041687F
:101AD00021F460414160616A02EB41314268114387
:101AE00001E021F400614160164AC16A21F47001ED
:101AF000C162E16902EB0151C26A1143C1628168AE
:101B000021F400718160216B826842EA4121816089
:101B1000816821F4806181606169826842EA812183
:101B20000122816000206064216C62F30101216464
:101B3000002184F83C1010BD042301400100000F77
:101B400000E0FFFF0000F0FF7047F8B504460068B2
:101B50000D46816811F4806F1CBF806810F4807F8F
:101B60003CD100F073FC06466F1C2068016811F040
:101B7000020F10D1002FF8D025B100F067FC801BB8
:101B8000A842F2D9002084F83C00206C40F0040008
:101B9000206403202AE06FF012010160216C41F4FF
:101BA00000712164816811F0405F15D1A16999B974
:101BB000C16A11F4700F1CBF806810F4806F0BD1E4
:101BC000206C20F480702064206C10F4805F02BFD1
:101BD000206C40F001002064002007E0002084F821
:101BE0003C00206C40F0200020640120C0B201B015
:101BF000F0BD000081B00021009190F83C10012957
:101C000001D102204EE0012180F83C1001688A6871
:101C100012F0010F11D18A68254B42F001028A604F
:101C2000224A1268B2FBF3F202EB420201E0009A90
:101C3000013A0092009A002AF9D18A6812F0010F45
:101C40002FD0026C40F201739A4342F48072026416
:101C50004A6812F4806F1FBF026C012363F30D32D8
:101C60000264036C002213F4805F4FF000031CBF7A
:101C7000436C23F0060380F83C2043646FF022009D
:101C800008600C48D0F8042312F01F0F18BF8142DF
:101C900007D1886810F0405F02BF886840F080403C
:101CA00088600020C0B201B0704700BFD40200209D
:101CB00040420F000020014080B54FF01F0E4FF052
:101CC000010C04E0BEF1000F06D0AEF1010E0CFADB
:101CD0000EF30B42F6D001E04FF0FF3E0123B3EBD1
:101CE000F20F0CD04FEAF20CBCF1020F13D0BCF192
:101CF000030F07D1BEF1060F04D9012080BDBEF14C
:101D00000F0FFAD800684161816821F01801114372
:101D10008160002080BDBEF1070FEED8F2E7000021
:101D200010B5044680B1607F20B90020207720469E
:101D300000F02EF802206077207938B1D4E9021241
:101D40002046FFF7B9FF40B1012010BD20680F49C0
:101D50004161816821F0180181606079002814BF19
:101D600020694FF0FF30216808618868626920F0BF
:101D70006000104388608868A26920F080001043EA
:101D8000886001206077002010BD00BFB71DC1042E
:101D900001680948A0F50362914218BF704781B0FD
:101DA000016841F480510160006800F480500090A7
:101DB000009801B0704700BF30380240704770B5DE
:101DC000044600684668056816F0010F18BF15F450
:101DD00080717CD1B0061AD515F4005017D0206858
:101DE000016821F400510160202181606169E06B8C
:101DF00040F002000029E0634FF0000084F8380052
:101E00004FF0040084F8390001D02046884730079D
:101E10001AD515F4006017D02068016821F400611C
:101E20000160082181606169E06B40F004000029D5
:101E3000E0634FF0000084F838004FF0040084F8AD
:101E4000390001D02046884770070CD515F4806012
:101E500009D02068016821F480610160042181605B
:101E6000204600F04CF8B00717D515F4007014D0D8
:101E70002068016821F400710160022181602169FC
:101E8000E06BE0630020002984F838004FF0010087
:101E900084F8390001D020468847F00658BF70BD4D
:101EA00015F480502AD02068016821F48051016027
:101EB00010218160E06BE063002084F8380001208D
:101EC00084F839002046BDE87040FFF777BF01680D
:101ED00021F480710160E16B41F00101E1630121B6
:101EE0008160002084F83800042084F8390061699A
:101EF00000293FF46FAF204688476BE770BD7047FD
:101F000070B5866D044600F0A1FA054694F83500D8
:101F100002282BD12068016821F016010160416977
:101F200021F080014161216C09B9A16C19B10168EE
:101F300021F008010160016821F00101016005E064
:101F400000F084FA401B052817D82068006810F0BC
:101F5000010FF5D1E06D3F2101FA00F0B0600120E2
:101F600084F83500002084F834000EE0002084F866
:101F7000340080206065012007E02020606500209B
:101F800084F83400032084F83500C0B270BD90F8A6
:101F9000351002291FBF80214165012070470521AE
:101FA00080F835100068016821F00101016000200F
:101FB0007047B0B5044628B194F83500022803D123
:101FC00002251BE0012519E020680025016821F0A9
:101FD000010101602121056045608560C5600561E2
:101FE00041612046FFF7B6FAE16D3F2202FA01F1A6
:101FF0008160656584F8345084F83550E8B2B0BD2E
:102000002DE9F041044600F021FA0546002C4ED09F
:10201000022084F83500002084F83400206801682C
:1020200021F00101016005E000F010FA401B0528D5
:102030003FD82068016811F0010FF5D101683A4AD4
:10204000D4E9013504F10C0801EA020C98E8C20158
:10205000D4E9072E43EA0C032B431943636A314347
:10206000394341EA08011143042B41EA0E0224D10D
:10207000D4E90BE142EA0E02BEF1000F41EA02018F
:10208000016050F8141FA56A21F0070141EA05011B
:1020900041F0040C18D0B8F5005F26D0B8F1000F5D
:1020A00036D1022D37D0012D2CD0A5B30CE0012262
:1020B00018E003232021032220E0026050F8141FBF
:1020C00021F0070141EA030CC0F800C02046FFF7E9
:1020D00041FAE16D3F22012302FA01F10022816001
:1020E00000210BE0D0B2BDE8F081032DECD8012334
:1020F00040210122DFE805F0020F0206616584F845
:102100003530EFE7AEF1C071B1FA81F1490904E071
:10211000032D04D3D8D1CEF300610029D4D00123FC
:1021200040210122EAE700BF3F8010F01CB501907A
:1021300000F08CF9044600F089F90199001B8842EF
:10214000F9D31CBD2DE9F04FB44A4FF00A094FF006
:10215000000B4FF0010C4FF00F084FF0000E00275E
:102160009042AF4A08BF4FF0090902444FEAB22338
:10217000092B38BF4FEAB229AA4AA2F57E7A102F5E
:1021800008BFBDE8F08F0CFA07F20A423FD00323E4
:1021900006680EF00C0503FA0BF4A54BA64303EA00
:1021A000570306600EF01C06034408FA06F6D3F83F
:1021B00020C02CEA06064FF0010C1E6208FA05F654
:1021C00009FA05F58368A34383604368934343603A
:1021D000C368A343BC08C3605AF824303340AB4201
:1021E00015D15AF82430D243B3434AF824308D4BEA
:1021F0001E461B6813403360736813407360B368F6
:102200001340B360884B1E461B681A4032600BF1C6
:10221000020B0EF1040E0137B1E700BFB0B5B0F507
:10222000804F0CD0B0F5005F12D0082818BFB0BDA9
:10223000092000F021FF1C4808210160B0BD1A48A8
:102240004FF4804101601148016B01310163B0BD61
:102250000F4C204602F0C5FD1D2000F00DFF124876
:102260004FF400510022002501600A484FF48071AC
:1022700000F0E7F805484563206845621D2000F03E
:102280000DFF204602F0A2FDB0BD00BF600200209D
:10229000D00800200008024003490A6802421CBF1F
:1022A0000860FFF7BBBF7047143C01402DE9F84FB1
:1022B0005A4A4FF00A084FF0000C4FF001094FF056
:1022C000000A9042564A08BF4FF0090802444FEAFC
:1022D000B223092B38BF4FEAB2280022102A08BFC8
:1022E000BDE8F88F0C6809FA02F6344200F08F80DE
:1022F0004D6845F01004122C10D10AF01C040F2375
:1023000003FA04FB4A4B03EA520707443D6A0B6990
:1023100025EA0B05A3402B433B624D680768032465
:1023200005F00303122D04FA0CF403FA0CF327EA68
:1023300004076FEA040443EA0703036014D809FAA8
:1023400005F313F0061F1FBF83682340CF6807FA09
:102350000CF71FBF3B438360C5F3001393401FBFBF
:102360004768B7433B434360C36823408C6804FA23
:102370000CF42343C360EB0049D52C4B0AF00C0549
:102380000F27AF4008FA05F51C461B6843F480434D
:1023900023602368234C03F48043A346009322F078
:1023A00003032344009C234CA6461C59BC432C43E6
:1023B00043F80E40DBF800304D6843EA060415F49C
:1023C000803F08BF23EA060415F4003FCBF8004025
:1023D000DBF8043043EA060408BF23EA060415F4D8
:1023E000801FCBF80440DBF8083043EA060408BF3E
:1023F00023EA06040C4B15F4001FCBF808401F46D7
:102400001B6843EA060408BF23EA06043C600CF19B
:10241000020C0AF1040A013260E700BF0024024006
:102420000000FEBF003C01400C3C0140443802402B
:10243000FCFFFF7F08FCFFFF0069084018BF012078
:102440007047002A08BF090481617047014800688D
:10245000704700BF786A002090F86810012901D108
:10246000022111E0242180F8691001680A6822F035
:102470000C020A600A6842F004020A60002120226D
:1024800080F8681080F86920C8B2704710B504461B
:10249000A0B1242084F841002068016821F00101E6
:1024A0000160204600F0F0F90020606484F84100EB
:1024B000206384F8400084F8420010BD012010BD64
:1024C00090F841007047000010B5044600B394F83E
:1024D000410028B9002084F84000204600F0D5F9DA
:1024E000242084F841002068016821F00101016086
:1024F000616821F070610161816821F400418160AF
:10250000D4E90212012A05D141F40041816009E0B9
:10251000012010BD41F40441022A816004BF4FF440
:102520000061416041680F4A04F1100311434160AA
:10253000C16821F40041C1600ECB114341EA03217F
:10254000C160D4E9071211430160016841F0010143
:10255000016000202021606484F84110206384F829
:10256000420010BD008000022DE9FE4F044690F8A5
:1025700041001F4616468B4620280BD10C9D01209A
:102580004DB1DDF834A0BAF1000F04D094F840004A
:10259000012804D10220C0B203B0BDE8F08F0120B1
:1025A00084F84000FFF752FF8146009020464FF428
:1025B00000410122192303F0FFF808B10320EAE7E4
:1025C0000E9922204FF0000832463B4684F8410025
:1025D000402084F84200C4F844806562C4F8348026
:1025E000A4F82AA020460D46CDE90019594603F06B
:1025F00063F848B184F840800320616C042908BF67
:10260000012003B0BDE8F08F608DB0F5807F0AD364
:10261000FF205946FF224FF0807320854FF4105061
:102620000090204609E0608D4FF410514FF0007388
:1026300020850091C2B22046594603F0ADF800262D
:102640004FF6FF774FF0FF0A2046042100222B4669
:10265000CDF8009003F0B0F80028AFD12068406AB0
:10266000616A4A1C62620870208D013820853842F8
:10267000618DA1F10101618522D1608D00B32046F9
:10268000802100222B46CDF8009003F095F8002819
:1026900094D1608DB0F5807F08D3A4F828A000966F
:1026A00020465946FF224FF0807307E0608D59465F
:1026B0004FF000732085C2B22046009603F06CF8FC
:1026C000608D0028C0D1204629464A4603F09EF876
:1026D00028B1616C0320042908BF01205BE7206852
:1026E0002021684BC16142681A404260002084F892
:1026F000411084F8400084F842004CE72DE9FE4F79
:10270000044690F841001F4616468B4620280BD100
:102710000C9D01204DB1DDF834A0BAF1000F04D0BA
:1027200094F84000012804D10220C0B203B0BDE8F3
:10273000F08F012084F84000FFF788FE814600906A
:1027400020464FF400410122192303F035F808B167
:102750000320EAE70E9921204FF0000832463B465D
:1027600084F84100402084F84200C4F84480656247
:10277000C4F83480A4F82AA020460D46CDE90019FB
:10278000594602F0D0FF48B184F840800320616CC4
:10279000042908BF012003B0BDE8F08F608DB0F5BB
:1027A000807F09D3FF205946FF224FF08073208598
:1027B00000200090204608E0608D00214FF000735B
:1027C00020850091C2B22046594602F0E5FF4FF63F
:1027D000FF7600274FF0FF0A204629464A4603F0BD
:1027E0003DF8C8BB616A20684A1C62620978816250
:1027F000608D01386085208D01383042208522D1DE
:10280000608D00B32046802100222B46CDF8009039
:1028100002F0D2FF00289BD1608DB0F5807F08D3F5
:10282000A4F828A0009720465946FF224FF0807355
:1028300007E0608D59464FF000732085C2B22046F4
:10284000009702F0A9FF608D0028C5D120462946D7
:102850004A4602F0DBFF28B1616C0320042908BF5F
:10286000012062E720682021064BC16142681A40BE
:102870004260002084F8411084F8400084F842004F
:1028800053E700BF00E800FE704770470248016848
:1028900001310160704700BF786A002080B50748A9
:1028A000016841F400710160032000F027FC0F2053
:1028B00000F006F800F0DEFB002080BD003C024086
:1028C00010B5044607484FF47A710068B0FBF1F088
:1028D00002F032FA4FF0FF302146002200F0ECFB0C
:1028E000002010BDD4020020F0B590F8A0C0022452
:1028F000BCF1010F2ED080F8A140012480F8A04047
:10290000342403FB040404F1480C842404EBC31EA8
:102910000024002316E0DCF80050013A062D04F1F3
:10292000807508BF1C4640C903F18853F7B23C4389
:1029300006F47F4706F47F063C433443066876443A
:1029400034642C46002AE6D10024012180F8A040FE
:1029500080F8A110E0B2F0BD90F8A0C00223BCF155
:10296000010F15D080F8A130D0F800C00CEBC212D6
:10297000D2F8903003F07F43C2F89030C2F8901044
:1029800001210023CCF8241080F8A03080F8A11099
:10299000D8B27047F8B50E4690F8A0100446154618
:1029A0000220012918D084F8A100342001273146E3
:1029B000342205FB004084F8A0703830FDF720FC7D
:1029C000204631462A4603F035FA20684762002047
:1029D00084F8A00084F8A170C0B201B0F0BD10B5B9
:1029E000044600F08BF90020C4F8A40084F8A0008D
:1029F00084F8A100002010BD90F8A0300222012B25
:102A000011D080F8A120026802EBC111D1F8843006
:102A100023F00203C1F8843001215162002280F8C2
:102A2000A02080F8A110D0B2704790F8A030022208
:102A3000012B11D080F8A120026802EBC111D1F85E
:102A4000843043F01003C1F8843001215162002228
:102A500080F8A02080F8A110D0B2704790F8A03084
:102A60000222012B11D080F8A120026802EBC111D3
:102A7000D1F8843043F00203C1F88430012151625F
:102A8000002280F8A02080F8A110D0B2704700008A
:102A900090F8A0200221012A0CD080F8A11006494C
:102AA0000A6842F480320A600021012280F8A010F6
:102AB00080F8A120C8B2704718680140704710B56F
:102AC00004460068816B11F0040F1CBF816B11F08C
:102AD000040F28D1816B11F0020F1CBF816B11F024
:102AE000020F36D1816B11F0010F1CBF816B11F009
:102AF000010F45D1816B11F0080F1ABF816B11F0E6
:102B0000080F10BD416B21F0080141630821C1632A
:102B1000002084F8A000012084F8A1002046BDE830
:102B2000104000F0DBB9416B21F004014163042146
:102B3000C163D4F8A40040F00100C4F8A400002050
:102B400084F8A000204684F8A110FFF7B7FF2068A2
:102B5000C0E7416B21F0020141630221C163D4F857
:102B6000A40040F00200C4F8A400002084F8A000F3
:102B7000042084F8A1002046FFF7A0FF2068B1E7F9
:102B8000416B21F0010141630121C163002084F800
:102B9000A000204684F8A11000F074F82068A9E78E
:102BA000B0B50446002868D094F8A10028B90020E8
:102BB00084F8A000204600F0A3F80220304D84F8ED
:102BC000A1002068816921F070418161D4E901C2CE
:102BD000D4E9033142EA0C021A43114382691143DA
:102BE000816182682A408260D4E90523816843EAD2
:102BF000024211438160C1682940C160D4E90712D3
:102C0000C36842EA01411943C16001692940016179
:102C1000D4E90912036942EA01411943016141699A
:102C200029404161D4E90B12436942EA0141194349
:102C3000416194F8362094F83510C36A03F07F435D
:102C40001204C36242EA012194F834201143C26A9B
:102C50001143C162416B41F004014163416B41F09A
:102C600002014163816941F001018161002001217C
:102C7000C4F8A40084F8A110B0BD0120B0BD00BF0D
:102C800000F800F02DE9F84304461948194FDFF821
:102C9000688000254FF0FF3900F1100620E057F85A
:102CA000250000281ADB56F8102C56F8083C58F876
:102CB000251050433268584300FB021120462A4633
:102CC00000F00DF92068416A41F001014162284697
:102CD00057F8251007F030F847F8259004360135ED
:102CE000022DDCD120460021BDE8F84300F0DEB81B
:102CF000A0060020D8020020C0A5040870470000EC
:102D00002DE9F04F85B06748DFF8C48B4FF002091A
:102D10006C46002703254FF00E0A416941F080619F
:102D20004161416901F0806100910099016841F4BD
:102D300000010160016801F400010091009901683F
:102D400041F001010160016801F001010091009969
:102D5000016841F002010160016801F00201009187
:102D60000099016841F004010160016801F004016B
:102D700000910099016841F008010160016801F0CB
:102D8000080100910099016841F01001016001689B
:102D900001F0100100910099016841F020010160EB
:102DA000016801F0200100910099016841F04001A3
:102DB00001603D4900688B4600F04000009000989B
:102DC000CDF804904FF48060009001F5A0502146AA
:102DD00002970395CDF810A0C047C120CDF804900C
:102DE000214600900BF50060CDE90275CDF810A0EA
:102DF000C0477820CDF80490214600905846CDE990
:102E00000275CDF810A0C04709200BF58066CDE90A
:102E10000059CDE90275214604903046C0474FF471
:102E200070602146CDE900093046CDE90275CDF844
:102E300010A0C0474FF40C600BF5C0562146CDE9F9
:102E400000093046CDE90275CDF810A0C047082032
:102E5000CDF810A02146CDE900090BF54060CDE981
:102E60000275C0474FF4A050CDF804902146009061
:102E70000920CDE9027504903046C0470BF5805516
:102E80000421002204262846FFF7DBFA0120214610
:102E9000CDE900602846CDE90277C04705B0BDE81E
:102EA000F08F00BF303802400000024090F8A030A0
:102EB0000222012B0ED080F8A1200268536B43F050
:102EC00001035363044A11600022012180F8A0200D
:102ED00080F8A110D0B27047406801407047B0B58B
:102EE00090F8A03004460220012B14D084F8A100F1
:102EF0003420012502FB004084F8A050C16500F198
:102F00003801204602F096FF20684562002084F8D0
:102F1000A00084F8A150C0B2B0BDB0B590F8A03008
:102F200004460220012B14D084F8A100342001258E
:102F300002FB004084F8A050C16400F13801204633
:102F400002F078FF20684562002084F8A00084F831
:102F5000A150C0B2B0BDF8B590F8A040054602201F
:102F6000012C1CD085F8A1003420012703FB00545C
:102F700085F8A07044F8381FD4E90A060844B1184F
:102F8000C4E90102E160284621461A4602F052FFD8
:102F900028684762002085F8A00085F8A170C0B2BB
:102FA00001B0F0BDF8B5054690F8A0000226012852
:102FB0001AD0342085F8A1600127002603FB0054B5
:102FC00085F8A070284644F8386FC4E90116E2601D
:102FD000C4E90A1221461A4602F02CFF286847620B
:102FE00085F8A06085F8A170F0B201B0F0BD0000D6
:102FF000B0B54278114D2A600278DAB143686B604F
:10300000037BC47A817A90F808C042EA0372437A5B
:1030100042EA046242EAC141427B41EA8241827B48
:10302000C07B41EA424141EA004040EA032040EAD5
:103030004C0001E000206860A860B0BD98ED00E0A1
:103040000B48BFF35F8F016821F4803101600021DC
:1030500001677047064940F001000867086840F4BE
:1030600080300860BFF34F8FBFF36F8F704700BF92
:1030700024ED00E07047000000280CDB00F01F0189
:103080000122400902FA01F1034A42F82010BFF37D
:103090004F8FBFF36F8F704780E100E0002808DB9F
:1030A00000F01F010122400902FA01F1014A42F831
:1030B0002010704700E100E010B5164B1B68C3F309
:1030C000022E0EF1040CAEF103048EF00703BCF1E6
:1030D000070F4FF0010C38BF0024042B28BF042336
:1030E0000CFA03F3013B19400CFA04F3013BA14035
:1030F0001A401143BDE8104004F082BF05494FF665
:10310000FF030A681A4060F30A220348104308606C
:10311000704700BF0CED00E00000FA05BCB51A488E
:103120001A4D016841F080510160006800F0805044
:1031300001900198286840F480302860FFF786F9F4
:103140000446686810F4803F06D1FFF77FF9001B42
:10315000B0F57A7FF5D910E0286840F40030286097
:10316000FFF774F90446686810F4003F07D1FFF7D1
:103170006DF9001BB0F57A7FF5D9032000E000203F
:10318000C0B202B0B0BD00BF403802400070004085
:103190007CB50446FFF75AF994F841100546002023
:1031A00011F0020F30D084F840002068016811F05F
:1031B000040F0BD0016821F004010160E06BFEF701
:1031C0009FFE18B1606C40F004006064206801222A
:1031D0002B460226016841F0020101600221A06C29
:1031E0000090204603F05CFD70B920682021002289
:1031F0002B46C660A06C0090204603F051FD18B924
:10320000012084F84100002002B070BD704700002A
:1032100090F8411011F0020F25D0002180F84010E5
:10322000082180F8411001680A6822F4F8120A6047
:103230000A6812F0040F0AD10220C860086840F43E
:1032400000300860086840F0020008600BE080B5BC
:103250000A6822F004020A60DF49C06B0165FEF7CC
:1032600096FEBDE880400020704700BF2DE9FC417C
:103270001D46174688460446FFF7E8F8064694F8C8
:103280004000012801D102203FE0012084F84000E5
:1032900094F84100012834D1002020210022334637
:1032A0006064422084F841002046009503F0F8FC59
:1032B00040BB20683968816279684162B968C1623F
:1032C00001683A6921F4400111434FF0006241F472
:1032D000800101604146F868C8F82800204603F0E4
:1032E000F3FB2046082101223346009508250127DB
:1032F00003F0D6FC30B92068C560002084F8417026
:1033000000E00220002184F8401002B0BDE8F08106
:103310007047F8B515460F460446FFF797F806467E
:1033200094F84000012801D102202CE0012084F80B
:103330004000022094F84110012921D100210022EF
:103340003346616484F8410020462021009503F053
:10335000A7FCA8B920463946002203F0B5FB786ADD
:1033600020B1012084F84100002009E0204602211C
:103370000122334600950225012703F091FC20B17C
:10338000002184F8401001B0F0BD2068C56084F8C9
:103390004170E9E710B50E4C206828B194F8401050
:1033A000012903D1022010E001200EE0012184F860
:1033B0004010016821F00101016000F0B1F9002026
:1033C000606484F8410084F84000C0B210BD00BFC2
:1033D000B00700207047704710B504460068826847
:1033E000016812F0040F18BF11F4802327D193074E
:1033F0003DD511F400333AD00221C160016821F4B7
:10340000E021016094F84110122947D1016811F0C0
:10341000040F09D0016821F004010160E06B00682D
:10342000016821F0010101602046FFF7F1FE012053
:1034300084F841002046BDE8104000F00DBB94F830
:103440004110122934D101460CE0E26A002A58D01A
:10345000616A4A1C6262097880F820102168E26A79
:10346000013AE2628A6812F0040FEED14DE01307D0
:1034700035D511F4002332D00821C160016811F460
:10348000800F06D0016821F410210160012084F82A
:1034900041002046BDE8104000F07EBA94F841108B
:1034A000222937D1016811F0040F50D1014672E092
:1034B00094F84110222928D101460BE0A26B02B3F7
:1034C00090F82010226B531C236311702168A26BAB
:1034D000013AA2638A6812F0040FEFD115E0D30716
:1034E00018BF11F4803321D1D20658BF10BD11F49A
:1034F000801145D01021C1602046BDE8104000F089
:103500004CBA086820F4802008602046BDE81040CE
:10351000FFF761BF94F84100022823D1012084F80D
:1035200041002046BDE81040FFF7F2BE0121C16016
:10353000026822F470220260626C42F0020262644D
:10354000026812F0040F38D184F8411013E00168CA
:1035500021F004010160E06B0068016821F00101C5
:1035600001601FE094F84100082809D1012084F887
:103570004100606C58B32046BDE81040FFF72ABFF9
:1035800010BD90F82010226B531C2363117021682A
:10359000A26B013AA263896811F4F85F1CBFA16BAA
:1035A0000029EED12046FFF733FE012084F84100C8
:1035B0002046BDE8104000F0EEB9016821F004019A
:1035C00001600549E06B0165FEF7E1FC10BD204696
:1035D000BDE81040FFF71ABE6F6C00082DE9FC41F2
:1035E0000446FEF733FF05462CB194F8400001284D
:1035F00003D102204BE0012049E0012084F8400083
:1036000094F8410008B1A06C08E0002084F8400064
:10361000204600F0BFF841F28830A06421686FF0C6
:10362000FF064FF000080A68A36806EB032322F4A4
:10363000F8521A432B460A600090204620210022AF
:1036400003F02EFB08BBD4E90012124D0B682B408F
:10365000E568D4E907672B4343EA02620E4B324325
:103660003A430A604A681A40D4E90437A6693A43E3
:1036700042EA034232434A600A6842F001020A60A9
:103680000121C4F8448084F8411084F8408002B0DD
:10369000BDE8F0812FFFFF00FEF8E0FF7CB5164685
:1036A0000D460446FEF7D2FE034694F8400001287A
:1036B00001D1022031E0012084F8400094F841005B
:1036C000012826D10020202100226064822084F875
:1036D0004100A06C0090204603F0E2FAD0B92068C7
:1036E0000168726821F00801082A41EA02010160BC
:1036F00007D1316801631021C160016841F4801174
:103700000160204629464FF0406203F0DDF90020B9
:1037100000E00220002184F8401002B070BD0000DB
:1037200070B54620FFF7A8FC5C20FFF7A5FC154804
:1037300015490160FEF73DFC644C144E4021A4F590
:1037400080552846B04728460421B04720464FF40C
:103750008071B04720464FF40071B0472046802169
:10376000B04720464021B0470948016841F00201B6
:103770000160016821F002010160016A21F002018B
:10378000016270BD880A0020B8640240452100082B
:10379000183802402DE9F04786B04B484B4C4C4F4F
:1037A0004FF0400801AD4FF00A0A8168A4F5805639
:1037B00041F002018160816801F0020101910199EB
:1037C00050F8181C41F0020140F8181C50F8181C61
:1037D00021F0020140F8181C016841F0020101606B
:1037E000016801F0020101910199016841F00201B3
:1037F0000160016801F0020101910199016841F045
:1038000020010160016801F0200101910199016826
:1038100041F020010160016801F02001019101994E
:10382000016841F020010160016801F0200101916F
:103830000199016841F0200101602946006800F00B
:10384000200001900198022002900120CDF8048010
:103850000390032004903046CDF814A0B847002010
:103860004FF0090929460390042001903046CDF815
:103870001490B8474FF48070CDF814A029460190F9
:103880002046B8474FF40070CDF814A029460190A7
:103890002046B8478020CDF8149029460190204654
:1038A000B84720462946CDF81490CDF80480B84793
:1038B0005C200F210022FFF7FFFB5C20FFF7EEFBEF
:1038C00006B0BDE8F08700BF303802400014024067
:1038D000AD2200082DE9FC41154688460446FEF756
:1038E000B5FD27680646B86994F84010012901D152
:1038F00002204DE0012184F8401094F84110012984
:103900003CD10021B8F1000F616439D0222101229D
:1039100084F8411039690131A1633969C4F83080F4
:1039200001316163796962F39B617961B86110E08B
:103930002046062101223346009503F0B1F9C8B9AB
:1039400097F82000216B4A1C22630870A06B013895
:10395000A063A06B0028EBD1204602210122334650
:103960000095022503F09CF920B92068C560204627
:10397000FFF70EFC012184F8411006E0022004E06C
:10398000606C40F0080060640120002184F8401061
:1039900002B0BDE8F0817047704770472DE9FC41E7
:1039A000154688460446FEF751FD0646276894F8FA
:1039B0004000012801D102204BE0012084F84000A2
:1039C00094F8410001283AD10020B8F1000F60645A
:1039D00037D0122084F8410038690130E06238693C
:1039E000C4F824800130A062786920F040607861DA
:1039F00010E02046042101223346009503F050F9DF
:103A0000C8B9606A411C6162007887F82000E06AEA
:103A10000138E062E06A0028EBD120460221012251
:103A200033460095022503F03BF920B92068C560B4
:103A30002046FFF7ADFB012184F8411006E002208B
:103A400004E0606C40F0080060640120002184F80C
:103A5000401002B0BDE8F081704700002DE9F84F3A
:103A6000D0F80090C14D044619F0010F02D14FF07B
:103A7000000A0BE0286820F400002860606B2968C9
:103A80000143B0FA80F04FEA501A29605FEA09302A
:103A900002D44FF0000814E0D5F88410E06B21F454
:103AA0004011B0F5801F41EA0001C5F8841004D12F
:103AB0004FF000084FF0010A03E0B0FA80F04FEA3F
:103AC00050185FEAC92012D5D5F88410206C21F473
:103AD0004001B0F5800F41EA0001C5F8841002D121
:103AE0004FF0010A03E0002808BF4FF00108A04F83
:103AF00019F0200F4E46AB4667D0A86B9D4E40F0A4
:103B00008050A863A86B00F0805000900098B859CE
:103B100040F48070B851FEF799FC0546B85910F48E
:103B2000807F05D1FEF792FC401B6428F6D90AE29B
:103B30005846DBF8680010F440702ED0216B01F479
:103B40004071884229D0DBF86800DBF868105A46DB
:103B500041F4803120F44070CBF86810DBF8681035
:103B600021F48031CBF86810CBF86800DBF86800EE
:103B700010F0010F11D0FEF769FC054641F28836BE
:103B80005846DBF8680010F0020F06D1FEF75EFC25
:103B9000411B0320B142F3D9D8E1206B7649DBF811
:103BA00000205D4600F44073014022F4F8126FF3E8
:103BB0001F30B3F5407F08BF0A43CBF80020DBF885
:103BC00068100843CBF868002668F0060BD5D5F8D6
:103BD000840020F08070C5F88400A06BD5F88410B4
:103BE0000843C5F88400700407D5D5F88800616ED5
:103BF00020F440300843C5F88800300407D5D5F8D4
:103C00008800A16E20F440200843C5F88800F00326
:103C100007D5D5F88800E16E20F440100843C5F8B8
:103C20008800B00307D5D5F88800216F20F4400044
:103C30000843C5F88800700607D5D5F88800616C80
:103C400020F003000843C5F88800300607D5D5F8F2
:103C50008800A16C20F00C000843C5F88800F0052E
:103C600007D5D5F88800E16C20F030000843C5F88E
:103C70008800B00507D5D5F88800216D20F0C00078
:103C80000843C5F88800700507D5D5F88800616D30
:103C900020F440700843C5F88800300507D5D5F8F2
:103CA0008800A16D20F440600843C5F88800F00446
:103CB00007D5D5F88800E16D20F440500843C5F8D9
:103CC0008800B00407D5D5F88800216E20F4404064
:103CD0000843C5F88800700207D5D5F88800A16FA1
:103CE00020F080600843C5F88800B0020DD5D5F8F3
:103CF0008800E16F20F00060B1F1006F40EA010040
:103D0000C5F8880008BF4FF0010816F4802F07D0CF
:103D1000D5F88800616F20F040700843C5F888002E
:103D200009F08070310208D5D5F88810D4F88020C9
:103D300021F080511143C5F8881028B9BAF1000F5D
:103D400002D1B6F1007F7ED1386820F08060386003
:103D5000FEF77CFB0546386810F0006F0ED0FEF7CA
:103D600075FB401B6428F6D9EDE000BF083802401F
:103D7000003802400038FEFFFFFCFF0F20685D4660
:103D800010F0010F0FD0616B69B9E96FEA6F01F4B0
:103D9000403102F070621143D4E9012341EA8211FB
:103DA00041EA0371E967010303D5E16BB1F5801FB7
:103DB00005D0C1021AD5216CB1F5800F16D1E96F7B
:103DC000EA6FE36801F4403102F0E04211436268B7
:103DD00041EA821141EA0361E967D5F88410626A19
:103DE00021F01F01013A1143C5F88410C1010DD51E
:103DF000E96FEA6F236901F0706102F0E04211435C
:103E0000626841EA821141EA0341E967800109D50C
:103E1000231D0FCB1B0443EA801040EA026040EAF6
:103E20000170E867386840F080603860FEF70EFB8C
:103E30000546386810F0006F05D1FEF707FB401B00
:103E40006428F6D97FE016F0080008BFB8F1000F2B
:103E50007BD0386820F080503860FEF7F7FA0546CE
:103E6000386810F0005F05D0FEF7F0FA401B6428B8
:103E7000F6D968E0206810F4002F01D0E16B19B189
:103E8000C1021ED5216CE1B9DBF88010DBF880207F
:103E900001F4403102F0E0421143D4E9052341EA44
:103EA000821141EA03616FF0FF03CBF88010DBF869
:103EB0008410A26A03EB022221F4F8511143CBF8DB
:103EC0008410810214D5E16FB1F1006F10D1DBF8DD
:103ED0008010DBF88020236A01F0706102F0E0427C
:103EE0001143626941EA821141EA0341CBF8801033
:103EF000000718D5DBF88000DBF88010E26900F0DD
:103F0000706001F440310843616940EA811040EA81
:103F10000270CBF88000DBF88400E16A20F44030C6
:103F20000843CBF88400386840F080503860FEF7D2
:103F30008DFA0446386810F0005F06D1FEF786FA65
:103F4000001B6528F6D3032000E00020C0B201B0BA
:103F5000BDE8F08F2DE9F0410D460446002800F041
:103F60008180424BD3F8000400F00F00A8420CD22D
:103F7000D3F8000420F00F002843C3F80004D3F85E
:103F8000000400F00F00A8426CD1206810F0020F6E
:103F900005D09968A26821F0F00111439960C0072B
:103FA0002AD06068012804D1196811F4003F08D1B3
:103FB00058E01968022802D1890102D452E0890729
:103FC00050D59968984621F0030108439860FEF7A0
:103FD0003DFA064641F28837D8F808006168434642
:103FE00000F00C00B0EB810F06D0FEF72FFA801B1B
:103FF000B842F1D9032036E0D3F8000400F00F00F6
:10400000A8420CD9D3F8000420F00F002843C3F8CD
:104010000004D3F8000400F00F00A84222D1206869
:1040200010F0040F05D09968E26821F4E0511143C3
:104030009960000706D59868216920F4604040EA3D
:10404000C10098601C4600F033F8A168084AC1F32B
:104050000311515CC840134908600F20FEF730FC83
:10406000002000E00120C0B2BDE8F081003802402D
:10407000F88501080B480068704700BF09480A49E5
:104080000A4A00680968C1F38221515CC840704740
:1040900004480549054A00680968C1F34231515C8A
:1040A000C8407047D4020020083802400886010842
:1040B000E549486800F00C021148082A04D0042A97
:1040C00004BF10487047704710B50A680B680D4C64
:1040D00013F4800F08BF044602F03F000A68B4FBE7
:1040E000F0F0C2F38812096850430222C1F3014183
:1040F00002EB4101B0FBF1F0BDE81040704700BF9A
:104100000024F40000127A002DE9F8430446002848
:1041100000F043812078CB4ECB4FC007B14650D042
:10412000786800F00C00042818D0786800F00C00C3
:10413000082803D1386810F4800F0FD16068A0B14F
:10414000B0F5803F06D03168B0F5A02F25D141F4FD
:1041500080203060306840F4803024E0306810F413
:10416000003F2ED0606860BB17E1306820F48030DB
:104170003060306820F480203060FEF767F9054633
:10418000D9F800004E4610F4003F1AD0FEF75EF951
:10419000411B03206429F3D900E121F48030306011
:1041A000306820F480203060FEF750F90546306812
:1041B00010F4003F05D1FEF749F9401B6428F6D9F9
:1041C000DAE02078800730D5786810F00C0F1DD029
:1041D000786800F00C00082804BF386810F4800FDD
:1041E00014D0E1683068002900F0858040F00100BB
:1041F0003060FEF72BF90546306810F0020F0DD144
:10420000FEF724F9401B0228F6D9B5E0306810F01B
:10421000020F1CBFE068012840F0BF8030682169B0
:1042200020F0F80040EAC10030602078000722D575
:104230006169386F79B140F001003867FEF706F91F
:104240000546386F10F0020F15D1FEF7FFF8401B3E
:104250000228F6D990E020F001003867FEF7F6F862
:104260000546386F10F0020F05D0FEF7EFF8401B3F
:104270000228F6D980E02078400740F18680F86B6C
:1042800010F0805F0BD1F86B4FF0010840F08050C8
:10429000F863F86B00F080500090009801E04FF058
:1042A00000086A4E484659F8060010F4807F14D181
:1042B00059F8060040F4807049F80600FEF7C6F889
:1042C0000546484659F8060010F4807F05D1FEF7F0
:1042D000BDF8401B6428F4D94EE0A068F8B101286D
:1042E00005D0F96E052832D141F00400F866F86E69
:1042F00040F0010031E020F001003060FEF7A6F848
:1043000005464846D9F8000010F0020F3FF48DAF83
:10431000FEF79CF8411B03200229F2D93EE0F86E1B
:1043200020F00100F866F86E20F00400F866FEF751
:104330008DF8054641F28836F86E10F0020F1DD058
:10434000FEF784F8411B0320B142F5D926E021F0A5
:104350000100F866F86E20F00400F866FEF776F8C3
:10436000054641F28836F86E10F0020F06D1FEF7CE
:104370006DF8401BB042F6D903200FE0B8F1000FF2
:104380001EBFF86B20F08050F863A669002E56D04F
:10439000786800F00C00082804D10120C0B201B0F8
:1043A000BDE8F083D9F8000020F08070C9F8000063
:1043B000FEF74CF80546022E0CD1D9F800004E4607
:1043C00010F0007F13D0FEF741F8411B03200229B3
:1043D000F3D9E3E74846D9F8000010F0007F2ED06B
:1043E000FEF734F8411B03200329F3D3D6E704F189
:1043F0001C0335460FCBE66A0843D90340EA821016
:104400004FF6FF72914340EA0660A1F58031084300
:1044100040F000503860286840F080702860FEF757
:1044200015F804464846D9F8000010F0007F06D180
:10443000FEF70CF8011B03200229F3D9AEE7002098
:10444000ACE700BF00380240043802400038FEFFED
:10445000006800EB8100006D7047006800EB810090
:104460000265704710B50068002A4068C0F3042355
:104470004FEA104E00F03F0C4B7081F803E081F8DA
:1044800002C0C0F342340C701BD10024020AA4EB1A
:10449000131302F00F0203F00A031A444A70C0F328
:1044A00003530EF00F0200F00F0003EB830302EB47
:1044B0004302CA70CCF3031202EB820200EB42000B
:1044C0008870002010BD10B500684024002A836A5F
:1044D0004B6003696FF3DF338B600068C0F3062322
:1044E00000F07F0C04EA10444B70C0F3054E81F8D5
:1044F00000E081F802C00C731CD1020AC3F303135D
:10450000040C00F00F0002F00F0203EB830302EB38
:1045100043024A70CEF3031304F00F0203EB83034C
:1045200002EB43020A70CCF3031202EB820200EBAF
:1045300042008870002010BD10B50446A8B1607F0D
:1045400020B900202077204600F038F80220CA2148
:1045500060772068416253214162204602F021FCCD
:10456000216820B10120042222E0012010BD8868CA
:10457000114A104088606068D4E9042310438A68B7
:10458000184310438860E0680861A0680A6942EA3D
:1045900000400861C86820F08000C860C86C20F046
:1045A0000800C864A069CA6C10430122C8640020D6
:1045B000FF234B62627710BDBFFF8FFF80B5AEB0A7
:1045C00000200C212890229101212491279022A8DB
:1045D000FFF79AFD68B94FF480700D90202001908C
:1045E00001A8FFF73BFA20B90348016841F40041F4
:1045F00001602EB080BD00BF703802402DE9F0414F
:104600000D46017F0446022001294AD0607701202F
:10461000002A20776F7805D0E878AE78000440EA69
:10462000072713E0F806DFF8608142BF07F0EF00CC
:1046300000F10A076F70E878C0470646F8B2C04735
:10464000000240EA0647A878C047064620682D7851
:10465000CA21416253214162204602F0A2FB18B1F7
:1046600021680120042217E00F4947EA06000840AC
:10467000216840EA45304860C86820F08000C86082
:10468000886810F0200F05D1204600F081F82168DD
:104690000028E6D100200122FF234B620021217770
:1046A0006277C0B2BDE8F0813FFFFF002DE9F0471F
:1046B0000D46017F04460220012961D06077012068
:1046C000002A20772768B86800F0400004D040B185
:1046D000287B4FEA004808E070B1287B4FEA004889
:1046E0000EE04FF0000885F80C8069782878AE78E5
:1046F000090241EA004910E04FF0000885F80C80FB
:104700002878DFF884A0D04706466878D0470002B2
:1047100040EA0649A878D0470646CA207862532066
:104720007862204602F03DFB18B121680120042286
:1047300021E0164949EA060040EA080008402168DD
:104740000860886820F480208860D5E904028B68BE
:10475000104318438860C86820F08000C8608868EB
:1047600010F0200F05D1204600F012F82168002833
:10477000DCD100200122FF234B62002121776277E8
:10478000C0B2BDE8F08700BF796D00087F7F7F0071
:10479000B0B504460068C16821F0A001C160FDF712
:1047A00055FE05462068C06810F0200F07D1FDF7C0
:1047B0004DFE401BB0F57A7FF4D9032000E00020C5
:1047C000C0B2B0BDB0B50D460446C8B194F82C00D7
:1047D00028B9002084F82D00204600F013F80220AC
:1047E000211D84F82C002068FCF7A6FFD4E9000204
:1047F0002946FDF713F8012084F82C000020B0BDF5
:104800000120B0BD704710B590F82C20044602205E
:10481000022A08D084F82C002068FCF7CFFF012082
:1048200084F82C000020C0B210BDB0B50D4690F841
:104830002C100446022002290ED084F82C002946B0
:104840002068FCF7C1FF2868012102284FF0000012
:1048500008BF052184F82C10C0B2B0BD044904285B
:104860000A6822F0040308BF42F004030B6070479B
:1048700010E000E0F0B585B0DFF89868706918B115
:1048800070690138706103E0B06940F01000B061F8
:10489000B069D84C10F0010F11D1B069102100227D
:1048A00020F00100B0610020C6E907007070B06917
:1048B00020F00200B0612046FDF7C3FD70E03078C3
:1048C000032803D8DFE800F002071625B06920F0BE
:1048D0000100B06164E07178F069E1BBD8BB306A77
:1048E00000285DD1204610210122FDF7AAFD4FF4DA
:1048F000FA701BE07178F069E9B9E0B9306A002814
:104900004ED1204610210122FDF79BFD4FF47A7015
:104910000CE07178F06971BB68BB306A00283FD148
:10492000204610210122FDF78CFD6420F061707893
:104930000130707034E0012908BF002830D12046D2
:10494000102100220025FDF77CFD7570B078F8B9C4
:104950004FF47A7023E0012908BF002820D12046B7
:10496000102100220025FDF76CFD7570B07878B934
:104970004FF4FA7013E0012908BF002810D1204637
:10498000102100220025FDF75CFD7570B07828B17C
:104990004FF47A7110FB01F0306201E06420F061A5
:1049A000F0880130F08080B2B0F57A7F1FD300200C
:1049B00006F124010122F080D04800F118052846B4
:1049C000FFF750FD96F82620CD4F28460221B84724
:1049D00096F8252028460321B84796F82420284633
:1049E0000421B84796F8272028460521B847C5482E
:1049F000A4F56A410068884240F01481308910B102
:104A0000013830810EE1C04D7B20308128780228AA
:104A100041D0012800F08080002840F00381B94C8B
:104A200001200B2102900191039001A92046FCF77F
:104A30005BFF2046FDF7DEF820460A21FDF785F8EA
:104A40002046FCF7DBFFF17806EB410201311087CD
:104A5000CAB20020092AF08188BF0021F17000212C
:104A600005E006EB41020131128F1044F0810A2962
:104A7000F7D181B20A22A0F57A7049F66107B1FB3D
:104A8000F2F1A24A80B2B842F181136840F282800A
:104A900023F002007CE09B4C01200D21029001914B
:104AA000039001A92046FCF71FFF2046FDF7A2F85E
:104AB00020460A21FDF749F82046FCF79FFF71794F
:104AC00006EB41020131A2F86000CAB20020092AB7
:104AD000308288BF00217171002106E006EB41029F
:104AE0000131B2F86020104430820A29F6D181B237
:104AF0000A22A0F57A7049F66103B1FBF2F180B2A7
:104B0000318298424FF00000B16941F0080288BF3D
:104B100021F00802B26184E07A4C01200C2102905D
:104B20000191039001A92046FCF7DEFE2046FDF727
:104B300061F820460A21FDF708F82046FCF75EFFE1
:104B4000317906EB41020131A2F84C00CAB20020D3
:104B5000092AB08188BF00213171002106E006EBEF
:104B600041020131B2F84C201044B0810A29F6D13B
:104B700081B20A22A0F57A7049F66107B1FBF2F121
:104B8000624A80B2B842B18113681BD923F0040095
:104B9000106044E043F00200106088B2FBF760FE52
:104BA000FBF782FEB5EEC00AF1EE10FA24DABAEE97
:104BB000041A20EE010ABDEEC00A10EE100A40F4FD
:104BC000004021E043F00400106088B2FCF714FDBF
:104BD000FCF736FDB5EEC00AF1EE10FA16DABAEEC1
:104BE000041A20EE010ABDEEC00A10EE100A40F4CD
:104BF000004013E0000C0240B2EE041A20EE010A5D
:104C0000BDEEC00A10EE100AF08108E0B2EE041A00
:104C100020EE010ABDEEC00A10EE100AB08128781D
:104C2000013028703A480078000607D5708908B12D
:104C3000013802E002F0ACFC0F20708135480168B9
:104C400011B10168013901603348016811B101688F
:104C5000013901603148016811B101680139016011
:104C60002F48016811B10168013901602D480168C0
:104C700011B10168013901602B48016811B1016867
:104C8000013901602948016811B1016801390160E9
:104C90002748016811B1016801390160F06908B164
:104CA0000138F061306A08B1013830621748006895
:104CB000C0071CBFB06A002801D105B0F0BDF06A82
:104CC00010B10138F062F8E7B269316BB06912F0E7
:104CD000100F05D1062903D340F00400B06107E0AE
:104CE000092905D810F004001EBF12480321C17025
:104CF00000204FF4FA61C6E90B10DEE770080020CF
:104D00005B44000850090020100A0020C40600205F
:104D100070070020EC060020C0060020C806002016
:104D2000CC060020780700208007002074070020B0
:104D30007C070020F40A0020411E0020B0EB116F18
:104D40001CBF01207047044AF023516003490B70D7
:104D5000072190601160704710E000E023ED00E053
:104D6000FFF788BD7047704710B50446A0B194F8AE
:104D70003D0028B9002084F83C00204600F00EF8E1
:104D80000220211D84F83D00206802F037FA01203E
:104D900084F83D00002010BD012010BDE0B50A4898
:104DA0000022016841F0020101600021006800F06A
:104DB0000200019001981D20FEF77EF91D20BDE83C
:104DC0008C40FEF76BB900BF403802400068C168F4
:104DD00041F00101C160016841F001010160002062
:104DE0007047006841F21112C16821F00101C160F1
:104DF000016A114208D1016A40F24442114202BFE5
:104E0000016821F00101016000207047704710B572
:104E100004460068016911F0020F1CBFC16811F05F
:104E2000020F47D1016911F0040F1CBFC16811F0D6
:104E3000040F4CD1016911F0080F1CBFC16811F0BB
:104E4000080F51D1016911F0100F1CBFC16811F09A
:104E5000100F56D1016911F0010F1CBFC16811F08C
:104E6000010F5BD1016911F0800F1CBFC16811F007
:104E7000800F5BD1016911F4807F1CBFC16811F004
:104E8000800F5BD1016911F0400F1CBFC16811F0A8
:104E9000400F5BD1016911F0200F1ABFC16811F0FA
:104EA000200F10BD6FF0200101612046BDE81040C9
:104EB000FFF759BF6FF0020101610121217780697D
:104EC00010F0030F4AD02046FFF7A0FF4CE06FF030
:104ED0000401016102212177806910F4407F47D0ED
:104EE0002046FFF793FF49E06FF0080101610421BC
:104EF0002177C06910F0030F44D02046FFF786FFEA
:104F000046E06FF01001016108212177C06910F4BB
:104F1000407F41D02046FFF779FF43E06FF0010169
:104F20000161204600F0D8F820689BE76FF080010F
:104F300001612046FFF716FF20689BE76FF08001B4
:104F400001612046FFF70EFF20689BE76FF04001EC
:104F50000161204600F0E2F820689BE7204600F05F
:104F600025F8204600F09FF800202077206859E7B8
:104F7000204600F01BF8204600F095F8002020772E
:104F8000206857E7204600F011F8204600F08BF823
:104F900000202077206855E7204600F007F82046DB
:104FA00000F081F800202077206853E77047000068
:104FB00070B50D4690F83C1004460220012955D0EA
:104FC00084F83D004FEAB2000126052884F83C60D1
:104FD00047D8DFE800F0030B131B23332068294672
:104FE00002F082F9206850F8181F1EE02068294658
:104FF00002F0A8F9206850F8181F26E0206829461A
:1050000002F0D2F9206850F81C1F0EE020682946F3
:1050100002F0FEF9206850F81C1F16E020682946AF
:1050200002F01EFA206850F8541F41F00801016098
:10503000016821F00401016029690FE02068294618
:1050400002F034FA206850F8541F41F40061016006
:10505000016821F480610160296909020268114335
:105060000160002084F83C0084F83D60C0B270BD4F
:1050700010B50446A0B194F83D0028B9002084F88A
:105080003C00204600F00EF80220211D84F83D006F
:10509000206802F0B3F8012084F83D00002010BD24
:1050A000012010BD7047704710B50446006801220A
:1050B00002F00CF92068074A40F48061914202BF77
:1050C000416C41F400414164016841F0010101601B
:1050D000002010BD000401400D486FF00101006880
:1050E00001610C48426B816A0132002942630A481F
:1050F00004D08A4202D305318A4204D94FF4807128
:105100000022FDF79EB94FF480710122FDF799B995
:10511000D008002060020020000802407047B0B5AF
:105120000446B0B12420002584F869002068016895
:1051300021F001010160056045608560204600F0B6
:105140001FF9E56684F8695084F8685084F86A505D
:1051500000E001252846B0BD00681349884218BF09
:105160007047B0B5114C012502212068056201622B
:105170000421016210210162082101623220FCF742
:10518000D5FF20684022816941F008018161816971
:1051900041F010018161F149204600F069F9F148C0
:1051A0000570BDE8B040704700440040A0090020F1
:1051B000B0B505460068C1690268836811F00F0F39
:1051C00048D002F4907403F001031C434BD0CC0789
:1051D0001FBF12F4807401240462EC6E1CBF44F003
:1051E0000104EC668C0706D52BB102240462EC6E38
:1051F00044F00404EC664C0706D52BB10424046289
:10520000EC6E44F00204EC660C070AD502F02004B0
:1052100023431FBF08230362E86E40F0080018BF55
:10522000E866E86E002860D002EA0100800644BF0C
:10523000284602F0A2FAE86E10F0080F3DD1286867
:10524000806810F0400F38D12846FFF785FF002016
:10525000E8664AE0114011F0200F05D02846BDE86D
:10526000B04002F08ABA11400A060DD449063CD576
:10527000016821F040010160202085F8690028467E
:10528000BDE8B04000F0CCB995F8691021292CD1C7
:10529000B5F8521079B3A968B1F5805F04BF2969E8
:1052A000002931D0E96C4A1CEA6409788162B5F8BA
:1052B00052000138A5F85200B0BD284602F050FA5D
:1052C0002868816811F0400F10D0816821F04001FA
:1052D0008160686E50B110490165FCF758FE20B13D
:1052E000686E016DBDE8B0400847B0BD2846BDE816
:1052F000B040FFF731BF016821F080010160016813
:1053000041F040010160B0BDE96C31F8022B6FF350
:105310005F228262E964CAE75177000810B504464B
:10532000A8B194F8690028B9002084F868002046E4
:1053300000F027F8242084F869002068016821F033
:1053400001010160204602F055FA012801D1012037
:1053500010BD606A10B1204602F06CF92068416807
:1053600021F490414160816821F02A018160016847
:1053700041F0010101602046BDE8104002F0C4B9CF
:10538000704770472DE9F843044690F86A001D46BF
:1053900017460E46202806D101202EB127B194F8D9
:1053A0006800012804D10220C0B201B0BDE8F0833A
:1053B0000020E066012084F86800222084F86A005A
:1053C000FDF744F8A4F85870A4F85A708046A06815
:1053D00058B1B0F5805F0ED0B0F1805F11D1A14619
:1053E00059F8100F28B13F2712E0A14659F8100FC5
:1053F00028B17F270CE0A14659F8100F30B1FF27E4
:1054000006E0B4F85C7004F1100924E040F2FF17E4
:10541000A4F85C701FE0B4F85A0020210022434633
:105420000138A4F85A002046009502F0D1FAE8B9F4
:10543000A068B0F5805F04BFD9F80000002805D04F
:105440002068406A384006F8010B04E02068406A92
:10545000384026F8020BB4F85A000028DBD10020AF
:10546000202184F8680084F86A109DE703209BE7F8
:1054700090F86A30202B06D1012329B122B190F88F
:105480006830012B02D10223D8B270474165012157
:1054900080F86810A0F85820A0F85A20816851B10F
:1054A000B1F1805F0BD0B1F5805F0FD1016921B9F7
:1054B00040F2FF1108E0016929B9FF2104E0016908
:1054C00009B13F2100E07F21A0F85C1000232221D8
:1054D000C36680F8683080F86A100068816841F01F
:1054E00001018160016841F490710160CCE7000026
:1054F00000681949884218BF7047B0B5174C20782A
:10550000112804BF6078222816D03220FCF70EFE46
:10551000134801688A6942F008028A618A6942F088
:1055200010028A610D494022FFF7A2FF01200D49B8
:105530000870BDE8B040704794F83F5020463F21C6
:10554000FBF7C6FC8542E0D120463F21FBF7C0FCBB
:1055500084F840000220EAE70044004010080020E0
:10556000A0090020E10600202DE9F843044690F848
:105570006900994617460E46202806D101252EB10E
:1055800027B194F86800012804D10225E8B201B0DF
:10559000BDE8F0830020E066012084F86800212047
:1055A00084F86900FCF752FF8046A4F85070A4F814
:1055B00052701FE0B4F852008021002243460138A7
:1055C000A4F852002046CDF8009002F001FAF8B994
:1055D000A068B0F5805F04BF2069002804D020686F
:1055E00016F8011B816205E036F8021B20686FF394
:1055F0005F218162B4F852000028DBD120464021AF
:1056000000224346CDF80090002502F0E1F908B1F0
:105610000325BBE7202084F8685084F86900B5E7CB
:105620007047FBF7E6BF0068816911F0020F1CBFED
:1056300000218162816911F0010F02BF816941F08F
:105640000101816170470000F8B5044600680E460C
:105650001546816911F0100F01D1002026E0771C5A
:1056600007E037B1CEB1FCF7F1FE401BB04214D8D1
:105670002068816911F0200FF3D01021C161202131
:10568000C1612046FFF7CFFF20680A4A41681140F8
:10569000416004206064012000E00320202184F8A0
:1056A0004110002184F8401084F84210C0B201B0CB
:1056B000F0BD00BF00E800FE2DE9FC4104464FF4B8
:1056C000005015461E46DAB200230090204600F036
:1056D00063F8DDE90887204641463A4600F0BEF807
:1056E00028B1616C0320042908BF012018E0012EB5
:1056F00009D02068290A3A4681622046414600F0D6
:10570000ADF80028EDD12068E9B20022434681625D
:1057100020464021009700F04FF8002818BF0320D2
:1057200002B0BDE8F0812DE9FC4104464FF4005081
:1057300015461E46DAB24FF080730090204600F006
:105740002BF8DDE90887204641463A4600F086F806
:1057500028B1616C0320042908BF012018E0012E44
:1057600009D02068290A3A4681622046414600F065
:1057700075F80028EDD12068E9B200224346816225
:1057800020468021009700F017F8002818BF03205A
:1057900002B0BDE8F08100006FF39F21006819435B
:1057A000044B41EA0241009A114342681A401143F6
:1057B00041607047009800FC2DE9F843DDF8208037
:1057C0001D4691460F4604465E1C2068806938409D
:1057D000C01BB0FA80F04009484512D1002EF4D029
:1057E0002DB1FCF733FEA0EB0800A842EDD9202034
:1057F00084F84100002084F8400084F8420003202F
:1058000000E00020C0B201B0BDE8F08370B51546DD
:105810000E4604462068806910F0200F19D12046FA
:1058200031462A46FFF710FFA8B926B1FCF70EFE55
:10583000401BB042EED9606C40F020006064202034
:1058400084F84100002084F8400084F842000320DE
:1058500002E0002000E00120C0B270BDF8B515469E
:105860000E4604464F1C2068806910F0020F1BD1C1
:10587000204631462A46FFF7E7FEB8B9002FF2D09E
:1058800026B1FCF7E3FD401BB042ECD9606C40F060
:1058900020006064202084F84100002084F840004B
:1058A00084F84200032002E0002000E00120C0B2A2
:1058B00001B0F0BD10B50446FCF7E8FD2046BDE898
:1058C000104000F001B800002DE9F04F87B0044609
:1058D000FCF7F6FD002866D1354A3449354E0020E4
:1058E0004FF001084FF0120902AD4FF0030A0427F0
:1058F000C4E907002260C4E90110C4E903806061C3
:1059000029469346306940F001003061306900F06B
:10591000010002900298306940F004003061306963
:1059200000F0040002900298CDF80C904FF4007043
:10593000029002F5D630CDF81080CDF814A006976D
:10594000FCF7B4FC4FF48070CDF80C90294602901F
:105950000BF5D230CDE9048A0697FCF7A7FC306A34
:105960000F21002240F400003062306A00F4000091
:1059700001900198306840F400003060306820F4F5
:10598000000030604820FDF797FB4820FDF786FBBC
:1059900049200F210022FDF78FFB4920FDF77EFBF8
:1059A0002046FCF791FD07B0BDE8F08F322791400B
:1059B000005C004020380240BFB504464FF47A70C6
:1059C000029009980190089800902046FCF7CCFDC1
:1059D000054610B12046FFF76DFF284604B0B0BD64
:1059E000BFB504464FF47A70029009980190089868
:1059F00000902046FCF782FE054610B12046FFF7D6
:105A000059FF284604B0B0BDF8B56D4C2046FCF7F0
:105A1000E6FF6C4D0020802109222B2304F1100C9D
:105A200040F2291684F83600A1860121C4E900500D
:105A3000C4E90200ACE80F00152040F20B2140F24F
:105A4000251240F2132304F1200CACE84F0020464D
:105A5000FDF7A6F820460021FDF728FA2046FDF7BD
:105A600017F858200E210022FDF726FB5820FDF7DD
:105A700015FB5A200E210022FDF71EFB5A20FDF7D0
:105A80000DFB05F5284004210122FCF7DAFC4E4805
:105A90004E490022002303F00FFB002005F008FE12
:105AA00060B100204FF488714FF4F07206F09AF85C
:105AB00000204FF488714FF4F0720BE000204FF497
:105AC000F0714FF4887206F08DF800204FF4F071F9
:105AD0004FF4887206F0B0F83D483E490022012399
