:020000040800F2
:10000000F8690220DD0100087966000859580008E7
:1000100071660008710F0008F187000800000000F9
:10002000000000000000000000000000EF010008D8
:100030001117000800000000F30100081179000802
:10004000F7010008F7010008F7010008F7010008B0
:10005000F7010008F7010008F7010008F7010008A0
:10006000F701000821170008F7010008F701000850
:10007000F7010008F7010008F7010008F701000880
:10008000F7010008F7010008F7010008F701000870
:10009000F7010008F7010008F7010008F701000860
:1000A000F7010008F7010008F7010008F701000850
:1000B000F7010008717D0008F7010008F70100084A
:1000C000F7010008F7010008F7010008F701000830
:1000D000F7010008F7010008E1870008F7010008B0
:1000E00019170008F7010008F7010008F7010008D8
:1000F000F7010008F7010008F7010008F701000800
:10010000F7010008F7010008F7010008F7010008EF
:10011000F7010008F7010008F7010008F7010008DF
:10012000F7010008F7010008F7010008F7010008CF
:10013000F7010008F7010008F7010008F7010008BF
:10014000F7010008F7010008F7010008F7010008AF
:10015000F7010008F7010008F7010008F70100089F
:10016000F7010008F7010008F7010008F70100088F
:10017000F7010008F7010008F7010008000000007F
:10018000F7010008F7010008F7010008F70100086F
:10019000F7010008F7010008F7010008F70100085F
:1001A00021600008F701000859160008F70100084F
:1001B00021770008F7010008F7010008F70100089F
:1001C000F7010008F7010008DFF80CD000F0EEFAA4
:1001D00000480047A9950008F869022006488047B2
:1001E00006480047FEE7FEE7FEE7FEE7FEE7FEE71C
:1001F000FEE7FEE7FEE7FEE7217A0008C9010008F6
:1002000010B5441A0346944209D28318114403E0FE
:1002100011F8014D03F8014D521EF9D210BD40EA0C
:100220000104A40703D009E010C9121F10C3042A57
:10023000FAD203E011F8014B03F8014B521EF9D238
:1002400010BDD2B201E000F8012B491EFBD270476D
:100250000022F6E710B513460A4604461946FFF792
:10026000F0FF204610BD30B504460020034600E0F4
:100270005B1C934203D2E05CCD5C401BF8D030BDE8
:100280002DE9FE4F804681EA0300C00F0C46009026
:1002900021F0004123F00045B8EB0200A94105D24E
:1002A0004046214690461C460B46024623F000403D
:1002B000104347D0270DC7F30A00C3F30A51029039
:1002C000401A019040286BDAC3F3130040F4801BFE
:1002D0000098924620B10023D2EB030A63EB0B0B8C
:1002E00001985946C0F14002504600F00EF906460A
:1002F0000D4650465946019A00F016F910EB0800D9
:100300006141002487EA115284EAE7731A4340D01E
:10031000009A62B3019A012A4FEA075215DC001BCA
:1003200061EB02014FF0004202EA0752CDE90042C0
:10033000001C41F5801132462B4600F04DF903B008
:10034000BDE8F08F40462146F9E7001B61EB020152
:10035000001C41F5801300185B412018A2F500171E
:1003600047EB030140EAD570B6196D4111E06D0805
:100370004FEA360645EAC0754FEA0752001B61EBAB
:100380000201001C41F5801149084FEA30000019B4
:10039000514132462B4603B0BDE8F04F00F00DB995
:1003A0000098012240000023D0EB020263EBE073CF
:1003B000009821464FEAE074B8EB000061EB0401BD
:1003C000E9E783F000435BE781F0004158E72DE95E
:1003D000F04D81EA030404F0004B21F0004514467F
:1003E0004FF0000A23F0004150EA050220D054EA01
:1003F00001021DD0C5F30A570246C5F31303C1F32A
:100400001300C1F30A5640F4801543F48013A7EBA0
:100410000608101BD64608F2FD3873EB050002D320
:1004200008F1010801E092185B41B8F1000F03DA0E
:1004300000200146BDE8F08D00204FF480110646F3
:1004400084460EE0171B73EB050705D3121B63EB05
:10045000050306434CEA010C49084FEA30009218A4
:100460005B4150EA0107EDD152EA030012D082EA63
:10047000040083EA0501084305D0101BAB4106D2F6
:100480000122002306E000224FF0004302E06FF05B
:10049000010253101AEB06004CEB085110EB0A0056
:1004A00041EB0B01BDE8F04D00F087B800F00042D1
:1004B00030F000400AD0C10D01F56071C0F31600A4
:1004C00042EA0151C208400711437047002001462B
:1004D000704701F0004330B421F0004150EA0102BE
:1004E00006D00A0DA2F56072C1F31301002A02DCE6
:1004F00030BC00207047440F44EAC104C100E0183A
:1005000030BC00EBC25000F021B8202A04DB203AB6
:1005100000FA02F1002070479140C2F1200320FA56
:1005200003F3194390407047202A06DBCB17203A8B
:1005300041FA02F043EAE07306E041FA02F3D040E8
:10054000C2F1200291400843194670470029A8BF14
:100550007047401C490008BF20F00100704710B4EC
:10056000B0FA80FC00FA0CF050EA010404BF10BCA1
:10057000704749B1CCF1200421FA04F411FA0CF1CE
:1005800018BF012121430843A3EB0C01CB1D4FEA07
:1005900000614FEA102042BF002010BC704700EB02
:1005A000C35010440029A4BF10BC7047401C490030
:1005B00008BF20F0010010BC704710B5141E73F185
:1005C000000408DA401C41F1000192185B411A4313
:1005D00001D120F0010010BD2DE9F04D92469B465F
:1005E00011B1B1FA81F202E0B0FA80F22032904605
:1005F000FFF78BFF04460F4640EA0A0041EA0B0171
:1006000053465A46084313D0114653EA010019D005
:10061000C8F14002504600F0DBF805460E46504651
:1006200059464246FFF771FF084305D0012004E018
:1006300020463946BDE8F08D0020054346EAE076C5
:100640002C4337430A986305E40AA0EB0800002214
:10065000FD0A44EA47540A3002D500200146E9E782
:10066000010510196941DDE9084500196941BDE836
:10067000F04DA2E72DE9FE4F81EA030404F00044A7
:1006800021F0004100944FF0000B23F0004350EAAA
:1006900001045ED052EA03045BD0C3F30A54C1F3F1
:1006A0000A552C44A4F2F3340194A0FB0254C1F384
:1006B000130141F48011C3F3130343F4801301FBCE
:1006C000024400FB034E840A970A44EA815447EA35
:1006D0008357A4FB076802958D0A05FB07854FEA3F
:1006E000932C04FB0C542705029D4FEA065847EA59
:1006F0001637B5EB08056EEB070C870E920E47EA2E
:10070000811742EA8312A7FB0201B6EB0B0164EBEF
:1007100000042B0D43EA0C335E1844EB1C50DA4600
:100720005146E7FB0201C5F313044FEA0B3343EADA
:1007300014534FEA0432019C43EA0603A4F10C046B
:100740000294009CCDE900B4FFF746FF03B0BDE87A
:10075000F08F00200146F9E70EB5C10F80EAE07086
:100760000844CA07002140F233438DE80E000A46D0
:100770000B46FFF731FF03B000BD000030B5041E8B
:1007800071F1000404DB4FF00044404264EB0101CE
:10079000141E73F1000405DB1C464FF00043524267
:1007A00063EB04038B4208BF824230BD064C074D09
:1007B00006E0E06840F0010394E807009847103431
:1007C000AC42F6D3FFF704FDA0910408D0910408D1
:1007D000202A04DB203A21FA02F00021704721FA96
:1007E00002F3D040C2F120029140084319467047FD
:1007F00070B58C1810F8015B15F0070301D110F8E3
:10080000013B2A1106D110F8012B03E010F8016B0F
:1008100001F8016B5B1EF9D12B0705D40023521E92
:100820000DD401F8013BFAE710F8013BCB1A921CFA
:1008300003E013F8015B01F8015B521EF9D5A142F8
:10084000D8D3002070BD000042F20431C4F201018F
:100850000A6822F440320A6042680B681A430A6050
:1008600001684A6822F480724A6002694B6843EA70
:1008700002224A604A6822F040724A6082684B68ED
:100880001A434A608A6822F400628A60C2688B68F0
:100890001A438A60826A8B6823F070638B60D1F898
:1008A00008C00123C0F600739A4202D12CF04052D6
:1008B00009E042EA0C028A608A6822F040528A60AB
:1008C000C26A8B681A438A608A6822F002028A60D0
:1008D00082698B6843EA42028A60036A4A6883B18C
:1008E00042F400624A604A6822F460424A60426A06
:1008F0004EF20003CFF6FF7303EB42324B681A430C
:1009000001E022F400624A60CA6A22F47002CA62FC
:10091000C2690023CFF6F07303EB0252CB6A1A438D
:10092000CA628A6822F400728A60026B8B6843EAAA
:1009300042228A608A6822F480628A6040698A68FA
:1009400042EA80208860704710B582B006F0E8FD6A
:10095000012828D146F63811C2F200014FF4005E9A
:100960004FF4807C0023C1E90B334B634FF44062AA
:100970004FF04070EB24C1E900430A24C1E903E3CE
:10098000C1E9054CC1E90723C1E90903019340F21C
:100990008860C2F200006A4602F0CEFF002802BF63
:1009A000012002B010BD002002B010BD0000000008
:1009B0002DE9F04381B0804640F20465C2F20005A3
:1009C0004FF0010910240027C5E90094C5E90297FA
:1009D000009746F68816C2F20006304629464FF6C2
:1009E000FF7204F061F9012001F0BAFB022085E8F2
:1009F0001102EF60304629464FF6FF7204F054F9B9
:100A000003200821C5E90004C5E90217304629463C
:100A10004FF6FF7204F048F904204FF4087100917A
:100A2000009985E81102E960304629464FF6FF72C9
:100A300004F03AF93046414604F022F901B0BDE82D
:100A4000F0830000000000002DE9F04F85B08046E3
:100A500043F63000C4F20200816841F00101816078
:100A6000816801F0010100910099016841F4800161
:100A70000160016801F4800100910099016841F072
:100A800001010160016801F0010100910099016814
:100A900041F004010160016801F004010091009936
:100AA000016841F008010160016801F0080100914E
:100AB0000099016841F010010160016801F0100126
:100AC00000910099016841F020010160016801F086
:100AD000200100910099016841F040010160006827
:100AE00000F04000009000984FF0020BCDF804B0E9
:100AF0004FF63F000090002702974FF0030ACDF811
:100B00000CA00C2404940025C4F2020505F5A050A5
:100B10006E46314601F014FCCDF804B04FF0800968
:100B2000CDF80090CDE9027A04942846314601F0D0
:100B300007FCCDF804B030200090CDE9027A04948F
:100B400005F50060314601F0FBFBCDF804B048F23A
:100B500033100090CDE9027A049405F5C050314677
:100B600001F0EEFBCDF804B04FF683700090CDE9B4
:100B7000027A049405F58050314601F0E1FBCDF88E
:100B800004B04CF203700090CDE9027A049405F5AC
:100B90004060314601F0D4FB40F27C55C2F20005C2
:100BA0004FF400704FF480614FF480524FF4804353
:100BB0004FF4003605F1200C8CE8C004C5E90B7732
:100BC00046F21046C4F2020685E8C00205F10C0C9C
:100BD0008CE88F00C8F83050C5F83880284601F0FE
:100BE0001FFA284601F048FA38200F21002202F0AF
:100BF0008BFB382002F084FB05B0BDE8F08F0000CD
:100C00002DE9F04F8FB0044600250495CDE902553B
:100C100040F26820C2F20000016940F27C69C2F231
:100C2000000999F80000002818BF7020884720703C
:100C3000002800F094802078002800F08C800025A7
:100C40000DF1280A40F2DC5BC2F2000B40F2F058D2
:100C5000C2F20008002700BF0DF11E00411905A8CF
:100C6000421940F26820C2F20000436999F800007E
:100C7000002818BF7020984746F6EC10C2F200001A
:100C8000007801280CD10DF11E0030F817000DF18D
:100C9000320121F8170005A830F817002AF81700CC
:100CA0005BF827000DF1320131F81720831A38BFA5
:100CB000131A58F827003AF81710461A38BF0E1AB8
:100CC000B0B210FA83F0062824BF4BF8272048F86A
:100CD000271099F80000012804D104EB47035A803B
:100CE00015E000BF04EB47015BF8272046F6EE1342
:100CF000C2F200031B885A43120B4A8058F827108F
:100D000046F6F012C2F2000212885143090B04EBBE
:100D10004702918102A90091002818BF702039462E
:100D200004AA03AB08F014FBE01904998175039938
:100D300080F820100299032907D8C90040F2012247
:100D4000C0F2030222FA01F1C176023501372078A0
:100D50008742FFF481AF204600F006F8054628469A
:100D60000FB0BDE8F08F0000B0B582B0044600259A
:100D70008DF8075040F27C60C2F200000078002835
:100D800018BF70200DF1070108F0CEFA9DF807207A
:100D9000A2F110010120392920D8DFE801F01D203F
:100DA0002020222020202420202026202020202037
:100DB0002020202020202020202020202020202033
:100DC000202020202020202020202020202028201B
:100DD000202020202020202A01250BE052B102B043
:100DE000B0BD022506E0032504E0042502E0052548
:100DF00000E00625A562002002B0B0BD00000000A2
:100E000040F60301884212D040F60201884217D012
:100E100040F6010188421EBF0220C0B2704746F270
:100E20007850C2F200000068C0F38000704746F2BC
:100E30007850C2F200000068C0F30010C0B27047E2
:100E400046F27850C2F200000068C0F3C000C0B2A1
:100E5000704700000000000010B50C4640F603018A
:100E6000884221D040F60201884231D040F601018B
:100E7000884218BF10BD012009F054FD012C3BD061
:100E8000002C6ED146F27850C2F20000016821F0C9
:100E90000401016048F6F470C0F6040040F26311EA
:100EA000052209F083F85CE0012009F03BFD012CEC
:100EB00034D0002C55D146F27850C2F200000168BF
:100EC00021F01001016049F21C00C0F6040031E07D
:100ED000012009F027FD012C32D0002C41D146F22F
:100EE0007850C2F20000016821F00801016049F267
:100EF0006C00C0F604002FE046F27850C2F2000009
:100F0000016841F00401016049F20800C0F60400E4
:100F100040F26311052209F049F822E046F27850C8
:100F2000C2F20000016841F01001016049F2300096
:100F3000C0F6040040F263114B2209F037F810E0CC
:100F400046F27850C2F20000016841F008010160E9
:100F500049F28000C0F6040040F26311912209F0CA
:100F600025F80120BDE8104009F032BD0000000066
:100F700000F0DABB0000000080B506F051FCBDE8CF
:100F8000804006F019BC000046F2465CC2F2000C3C
:100F90000023ACF8003051B110F8013BBCF8002040
:100FA0001A44ACF80020013911F0FF0FF4D19CF87D
:100FB0000000404246F63411C2F200010870C0B28F
:100FC000704700000000000080B546F2465EC2F2A5
:100FD000000E4FF0000CAEF800C0002908BF80BD25
:100FE000002300BF5A1CAEF8002000F803C0BEF872
:100FF00000308B42F6D380BD40F27850C2F2000040
:101000000078012818BF7047F0B581B046F2A87487
:10101000C2F2000446F6C815C2F200052046294671
:10102000012203F095FC46F24956C2F20006204622
:101030003146012203F06CFC46F24D54C2F200042A
:10104000202720462021FFF7BFFFF020E6214FF4A4
:10105000F0724FF4877308F035FE2E20A07043F233
:101060002E20A4F805003020E07142F22E016181AB
:1010700027737178B278F37840EA12172770032744
:1010800067F31F12627040EA1112E27067F31F11DA
:10109000217140EA1311217267F31F1363722978DB
:1010A00040EA1112627367F31F11A1733A21E173D1
:1010B000697840EA1110207467F31F11617445F2DA
:1010C0002030C0F6010009F0EDFD6FF07F4009F01F
:1010D000DBFD022009F046FE0D2009F039FE4FF439
:1010E000EB70FF2109F07AF8204601B0BDE8F0402E
:1010F00008F0D8BE00000000B0B540F21464C2F29F
:1011000000040020207009F071F847F2A910C0F621
:10111000000009F0FBFC012501200CF0CDF90020B6
:1011200001210BF0D5FB012001210BF0D1FB0020A8
:1011300009F090FD08F0B7FD49F29400C0F60400F4
:101140000021002208F032FF012009F083FD4FF05A
:101150007F4009F097FD08F0A6FD48F6F470C0F650
:10116000040040F26311052208F020FF49F21C0040
:10117000C0F6040040F263114B2208F017FF49F259
:101180006C00C0F6040040F26311912208F00EFFDB
:1011900008F032FF40F27850C2F20000057046F2CB
:1011A0007850C2F20000016841F020010160FFF7B1
:1011B00023FF2570B0BD0000B0B546F27C50C2F2EE
:1011C0000000016801B1B0BD3221016008F014FFD8
:1011D00046F27854C2F20004206810F0010F31D1B9
:1011E00046F27051C2F200010A68002A79D08106E5
:1011F00000F1808040F27851C2F2000109780229A2
:1012000000F0C780012918BFB0BD46F23A51C2F2C2
:1012100000010A7846F23B53C2F200031B78002B10
:1012200000F0E280002A40F0DF8001220A704007CF
:1012300000F1E08040F601000121FFF70DFE40F6CD
:101240000300D9E020F00100206046F6B800C2F2A9
:101250000000007802285AD001286FD00028B2D1AF
:10126000002009F0F7FC08F01EFD49F29400C0F6DA
:1012700004000021002208F099FE0125012009F058
:10128000E9FC4FF07F4009F0FDFC08F00CFD48F64A
:10129000F470C0F6040040F26311052208F086FEE7
:1012A00049F21C00C0F6040040F263114B2208F022
:1012B0007DFE49F26C00C0F6040040F263119122F9
:1012C00008F074FE08F098FE40F27850C2F2000078
:1012D0000570206840F020002060BDE8B040FFF7B6
:1012E0008BBE4EF660200860012009F01BFBFFF763
:1012F00083FE07E020F020002060012009F012FBAF
:1013000000F026F90120BDE8B04009F061BB0020E3
:1013100009F0A0FC08F0C7FC49F2BC00C0F60400CC
:101320000021002208F042FE012009F093FC4FF05A
:101330007F4009F0A7FC08F0B6FC1DE0002009F092
:1013400089FC08F0B0FC49F2A800C0F604000021B6
:10135000002208F02BFE012009F07CFC4FF07F40BA
:1013600009F090FC08F09FFC49F25800C0F6040018
:101370001921D72208F01AFE49F24400C0F60400F1
:1013800040F26311D72208F011FEBDE8B04008F02A
:1013900033BE46F24051C2F200010A784AB146F625
:1013A000B802C2F20002002313700B7040F001007B
:1013B000206046F24250C2F200000078F0B346F2DC
:1013C0004150C2F200000178C1BB0121017046F614
:1013D000B800C2F200000078012801BF206840F088
:1013E00040002060B0BDB0BD4BB9002A1CBF00203A
:1013F000087004E040F601000021FFF72DFD46F2E1
:101400003E50C2F20000017846F23F52C2F20002A2
:1014100012786AB161B9012101702078C0061FD429
:1014200040F603000121FFF717FD40F6010019E027
:10143000DAB900291CBF0021017016E046F23B50CA
:10144000C2F20000007800287FF4BDAE46F23A50A8
:10145000C2F20000017800291CBF00210170B0BD5C
:1014600040F603000021FFF7F7FC46F24450C2F2B9
:1014700000000078217809070AD4C8B946F2435021
:10148000C2F20000017800291CBF002101700FE0AA
:101490000028F2D046F24351C2F200010A78002A35
:1014A000EBD10120087040F602000021FFF7D4FCC8
:1014B00046F23C50C2F20000017846F23D52C2F2C0
:1014C00000021278AAB1A1B901210170012009F02E
:1014D00029FA40F2E060C2F20000C1888A09042AB9
:1014E00003D80A31C18000F033F8012009F070FA06
:1014F00004E01AB900291CBF0021017046F23850DF
:10150000C2F20000017846F23952C2F200021278AB
:1015100092B189B901210170012009F003FA40F26A
:10152000E060C2F20000C1888D29FFF4EBAE0A39F9
:10153000C18000F00DF8E5E6002A7FF444AE0029F2
:101540001EBF00210170B0BDB0BD00000000000052
:1015500040F27850C2F20000007801282BD110B57B
:1015600040F2E060C2F20000C48878208C21FA22A8
:10157000DC2308F0A7FB48F21F50C5F2EB10A4FBD8
:101580000001C1F347106FF0630110FB014146F207
:101590006762C6F2666251FB02F18A1002EBD174F7
:1015A000032809D002280CD0012812D149F2E40006
:1015B000C0F6040009E0704749F20C10C0F60400C0
:1015C00003E049F2F800C0F604007D21912208F002
:1015D000EDFCE0B20928BDE8104088BF7047DFE8A5
:1015E00000F0050A0F14191E23282D3249F2D000ED
:1015F000C0F604002BE049F2E400C0F6040026E047
:1016000049F2F800C0F6040021E049F20C10C0F6DF
:1016100004001CE049F22010C0F6040017E049F273
:101620003410C0F6040012E049F24810C0F604007D
:101630000DE049F25C10C0F6040008E049F27010B9
:10164000C0F6040003E049F28410C0F60400A521AE
:10165000912208F0ABBC000080B546F2C060C2F237
:10166000000000F0D9FB4BF20800C4F20200022196
:10167000016080BD0000000001686FF00F0252FAA7
:1016800081F240F2FF3399435F2A88BF41F00401A1
:1016900081654AF6AB23CAF6AA23A2FB03231A09E3
:1016A00002A39A5CC2650846704700BF0006101688
:1016B00000061016000000008269816AB2F5005F22
:1016C00006D06AB9022912D0012915D0D9B90EE085
:1016D000032918D8DFE801F0020B0210012070473F
:1016E00003293CBF012070471CBF0020704790F8C1
:1016F0002F0000F001007047C06AA0F1C070B0FA7E
:1017000080F0400970470020704700000000000092
:1017100070470000000000004FF4005000F004BECD
:10172000082000F001BE000070470000000000002B
:10173000B0B5044646F2C875C2F20005284603F06B
:101740003FFC1D2001F0D8FD282001F0D5FD43F617
:101750001440C4F201004FF40051016028686FF09A
:101760000101016140F60000C4F2020000254FF4BF
:101770008071002200F0B4FE46F6E010C2F20000D4
:10178000056046F6E411C2F200010D6046F6E8116C
:10179000C2F200010D60002C08BFB0BD046028201B
:1017A000BDE8B04001F0ACBD2DE9F0410B68026826
:1017B000012B20D1D1E901E7D1E90365D1E9058CFD
:1017C000D1E90734496A22F4F8421A43224311430B
:1017D0004268016047F6FF7122EA010141EA0E0109
:1017E00039433143294341EA080141EA0C01416090
:1017F0000020BDE8F08147F6FF7322EA030CD1E92F
:101800000132D1E903E401F1140898E8E00143EA68
:101810000C031A4342EA0E0222432A4332433A435C
:1018200042EA0802496A114301600020BDE8F081E4
:10183000426942EA41014161002070470000000016
:10184000F0B581B0144605460027009791E80D00D9
:10185000C9686FF01F0606EB43131043184340EAB4
:10186000412000900098286100F042FE0646A869D9
:1018700010F0200F10D0671C2FB154B100F038FECB
:10188000801BA04207D8A86910F0200FF4D10027D0
:1018900002E0032700E00327F8B201B0F0BD00002A
:1018A000F0B58368012A33D140F6FF72CFF60F728C
:1018B0001A4091E82810D1E9034ED1E905614FF2B1
:1018C0000007CFF6FF7707EB043422430024CFF65E
:1018D000F07404EB06542243C46882606FF00F0278
:1018E00002EB051204F07044013B23431A436FF0EE
:1018F000FF0303EB0C231A430023CFF6FF7303EB24
:101900000E431A43FF3142EA0161C1600020F0BD7D
:10191000D1E900C2D1E902E46FF00F0505EB021234
:1019200003F07043ACF101052B431A436FF0FF0342
:1019300003EB0E231A434FF20003CFF6FF7303EBC2
:1019400004331A430B690025CFF6FF7505EB0343FB
:101950001A434B690025CFF6F07505EB03531A4384
:101960008969FF3142EA016181600020F0BD000019
:1019700040F20000CCF240004FF4001108F056B8DD
:1019800070470000000000007047000000000000E9
:10199000B0B581B00022009290F83C20012A01D11C
:1019A00002215EE0012280F83C20D1F800E01FFA1D
:1019B0008EFC4FEA4C0212FA8EF2BEF10A0F11D3DE
:1019C0001E3A072303FA02F4036853F80C5F25EA72
:1019D00004041C608C681225C1F20005AE450BD1D1
:1019E00022060BE0072303FA02F4036853F8105FA2
:1019F00025EA04041C608C6804FA02F21C68224385
:101A00001A604968062906D801EB81010539026888
:101A100002F134030EE001EB81020C2905D8A2F19A
:101A20002301026802F1300304E0A2F141010268DF
:101A300002F12C031F228A401C6824EA02021A6069
:101A40000CFA01F11A6811431960026842F204317C
:101A5000C4F20101A1F541739A4205D0002180F83A
:101A60003C10C8B201B0B0BDBEF1110F1EBF1222B2
:101A7000C1F20002964520D10A6842F400020A60D1
:101A80001221C1F200018E45E8D140F25C21C2F280
:101A9000000109684DF68362C4F21B32A1FB0212F9
:101AA000910C01EB8101490002E000BF009901396E
:101AB000009100990029F9D1D0E7BEF1120F02BFC1
:101AC0000A6842F480020A60C8E7000000000000D3
:101AD0000068C06C70470000B0B50446002802BF23
:101AE00001252846B0BD206C30B9002084F83C00A8
:101AF0006064204600F01CF8206C012510F0100FE7
:101B000010D1206C41F20211884340F002002064A1
:101B10002046FEF799FE00206064206C65F301000A
:101B200020640025002084F83C002846B0BD000059
:101B30007047000000000000F0B581B00D4604467B
:101B40000068816811F4806F1CBF806810F4807F8A
:101B50002FD100F0CDFC06462068016811F0020F7D
:101B60000DD1CDB16F1C00BF27B100F0C1FC801BAF
:101B7000A84211D82068016811F0020FF4D06FF06C
:101B800012010160216C41F400712164816811F03F
:101B9000405F0AD000202CE0002084F83C00206C3C
:101BA00040F004002064032023E0A16951B100202B
:101BB0001FE0002084F83C00206C40F020002064EE
:101BC000012016E0C16A11F4700F1CBF806810F488
:101BD000806F0DD1206C20F480702064206C10F494
:101BE000805F02BF206C40F001002064002000E014
:101BF0000020C0B201B0F0BD81B00021009190F88A
:101C00003C10012901D102206AE0012180F83C103A
:101C100001688A6812F0010F18D18A6842F0010247
:101C20008A6040F25C22C2F2000212684DF68363C1
:101C3000C4F21B33A2FB03239A0C02EB420201E025
:101C4000009A013A0092009A002AF9D18A6812F0AB
:101C5000010F01D1002043E0026C40F201739A436E
:101C600042F4807202644A6812F4806F1FBF026CF3
:101C7000012363F30D320264036C002213F4805FCE
:101C80004FF000031CBF436C23F0060380F83C2098
:101C900043646FF02200086042F20000C4F20100C9
:101CA000D0F8042312F01F0F03D0814207D0002088
:101CB00016E0886810F0405F07D0002010E08868C8
:101CC00010F0405F07D000200AE0886840F08040B4
:101CD0008860002004E0886840F080408860002030
:101CE000C0B201B07047000080B54FF01F0E002950
:101CF0000EDB4FF0010C00BFBEF1000F06D0AEF1BD
:101D0000010E0CFA0EF30B42F6D001E04FF0FF3E4D
:101D10000123B3EBF20F0DD04FEAF20CBCF1020F2E
:101D20000ED0BCF1030F10D1BEF1060F84BF01200D
:101D300080BD0AE0BEF10F0F84BF012080BD04E02A
:101D4000BEF1070F84BF012080BD0068416181683A
:101D500021F0180111438160002080BD00000000C7
:101D600010B50446002804BF012010BD607F20B9D3
:101D700000202077204600F033F802206077207999
:101D800048B1D4E902122046FFF7AEFF00281CBF7D
:101D9000012010BD09E0206841F6B751C0F2C141F1
:101DA0004161816821F0180181606079002814BFC9
:101DB00020694FF0FF3021680861206881686269FE
:101DC00021F06001114381608168A26921F08001E6
:101DD0001143816001206077002010BD00000000E9
:101DE000016843F63000C4F20200A0F5036291429C
:101DF00018BF704781B0016841F4805101600068EC
:101E000000F480500090009801B07047000000007E
:101E1000704700000000000070B504460068466886
:101E2000056816F0010F18BF15F4807177D1B00660
:101E300018D515F4005015D02068016821F4005120
:101E40000160202181606169E06B40F00200E06385
:101E5000002084F83800042084F8390000291CBFD1
:101E600020468847300718D515F4006015D0206843
:101E7000016821F400610160082181606169E06B03
:101E800040F00400E063002084F83800042084F867
:101E9000390000291CBF2046884770070CD515F46F
:101EA000806009D02068016821F48061016004210C
:101EB0008160204600F050F8B00716D515F4007088
:101EC00013D02068016821F4007101600221816053
:101ED0002169E06BE063002084F83800012084F879
:101EE000390000291CBF20468847F00658BF70BD46
:101EF00015F480502CD02068016821F480510160D5
:101F000010218160E06BE063002084F8380001203C
:101F100084F839002046BDE87040FFF779BF0168BA
:101F200021F480710160E16B41F00101E163012165
:101F30008160002084F83800042084F83900616949
:101F400000291CBF20468847B0063FF572AF89E7DD
:101F500070BD00000000000070470000000000009D
:101F600070B50446866D00F0C3FA054694F8350056
:101F7000022829D12068016821F016010160416919
:101F800021F080014161216C09B9A16C19B101688E
:101F900021F008010160016821F00101016000BF2A
:101FA0002068006810F0010F16D000F0A1FA401B65
:101FB0000628F5D320206065002084F83400032033
:101FC00084F83500C0B270BD002084F83400802051
:101FD00060650120C0B270BDE06D3F2101FA00F0E4
:101FE000B060012084F83500002084F83400C0B2CD
:101FF00070BD00000000000090F8351002291FBFDE
:102000008021416501207047052180F83510006866
:10201000016821F00101016000207047000000000C
:10202000B0B50446002802BF0125E8B2B0BD94F85F
:102030003500022802BF0225E8B2B0BD2068016861
:1020400021F0010101600025056045608560C560E3
:102050000561212141612046FFF70EFBE16D3F2222
:1020600002FA01F18160656584F8345084F83550D6
:10207000E8B2B0BD000000002DE9F041044600F0D8
:1020800037FA0546002C02BF0122D0B2BDE8F0812C
:10209000022084F83500002084F8340020680168AC
:1020A00021F00101016000BF2668306810F0010FC7
:1020B00008D000F01DFA401B0528F5D90320202187
:1020C000032244E0306848F23F01CFF2100100EAF9
:1020D000010C251D2ECDD4E9050ED4E9077841EA7F
:1020E0000C01114319432943084340EA0E003843C9
:1020F00040EA0801606A042816D1D4E90B23114391
:102100001943316056F8141F21F007010843D4E940
:102110000A1240EA010572B12046FFF7CDFA50B12C
:1021200001204021012212E0316056F8141F21F0F5
:10213000070141EA000535602046FFF79DFAE16D91
:102140003F2202FA01F18160002101200022616535
:1021500084F83500D0B2BDE8F08100000000000036
:1021600010B582B0019000F0C3F9044600F0C0F948
:10217000001B01998842F9D302B010BD0000000095
:102180002DE9F04F81B042F20042C4F202020A236C
:10219000904208BF0923009300F13E4202F1FF7212
:1021A0004FEAB22E002243F6004AC4F2010A4FF071
:1021B000010C0026002407E0043202360134102C02
:1021C00004BF01B0BDE8F08F0CFA04F818EA010B67
:1021D000F2D00323B34005689D43056002F01C055F
:1021E0004FF00F0C0CFA05F54FF6FC77C7F6FF77AA
:1021F00007EA54070744D7F8209029EA05053D620D
:1022000085689D438560456825EA08054560C56881
:1022100025EA0303C3604FEA9409AAF57E7353F8D5
:10222000295002F00C070CFA07F805EA0805BEF180
:10223000090FDDF800C038BFF4460CFA07F74FF07D
:10224000010CBD42B8D153F8297027EA080743F8BA
:102250002970DAF8003023EA0B03CAF80030DAF804
:10226000043023EA0B03CAF80430DAF8083023EA12
:102270000B03CAF8083043F60C43C4F201031F46AF
:102280001B6823EA0B033B6096E700000000000098
:10229000B0B5B0F5804F0FD0B0F5005F17D008286B
:1022A00018BFB0BD092001F027F843F61440C4F26E
:1022B000010008210160B0BD282001F01DF843F69F
:1022C0001440C4F201004FF480410160B0BD43F6F8
:1022D0001440C4F201004FF40051016046F6E810CA
:1022E000C2F200000025056046F6E010C2F20000D0
:1022F000006846F6E411C2F20001086040F60000F2
:10230000C4F202004FF48071002200F0E9F846F2B6
:10231000C874C2F20004206845621D2000F0F0FF7E
:10232000204602F041FEB0BD43F61441C4F2010163
:102330000A6802421CBF0860FFF7AABF704700008E
:102340002DE9F04F83B042F20042C4F202020A23A8
:10235000904208BF0923019300F13E4202F1FF724F
:102360004FEAB2220092002243F6004EC4F2010E60
:102370004FF0010C00244FF0000809E00232043451
:1023800008F10108B8F1100F04BF03B0BDE8F08FE9
:102390000CFA08FA0F6817EA0A09EFD04F6847F0FD
:1023A0001007122F11D104F01C070F2303FA07F5B1
:1023B0004FF6FC73C7F6FF7303EA58060644336A08
:1023C000AB430D69BD402B43336203239340056843
:1023D0009D43D1F804B00BF00306964035430560E9
:1023E000DF43BBF1120F15D80CFA0BF313F0061FE5
:1023F0001FBF83683B40CD6895401FBF2B43836060
:10240000CBF3001303FA08F31FBF456825EA0A055A
:102410002B434360C3683B408D6895402B43C360AA
:102420005FEACB03AAD543F64403C4F202031D4678
:102430001B6843F480432B602B6803F480430293B2
:1024400028F003037344029D4FF60845CFF6FF754D
:10245000AB465D5904F00C060F27B74025EA070A82
:10246000009D092D019F38BF2F4607FA06F646EA60
:102470000A0543F80B50DEF8003043EA09054E68C0
:1024800016F4803F08BF23EA0905CEF80050DEF8B5
:10249000043043EA090516F4003F08BF23EA0905A2
:1024A000CEF80450DEF8083043EA090516F4801F20
:1024B00008BF23EA0905CEF8085043F60C43C4F2DE
:1024C00001031F461B6843EA090516F4001F08BFF5
:1024D00023EA09053D6051E7426951404161704777
:1024E000002A08BF09048161704700000000000055
:1024F00046F6F410C2F200000068704700000000C9
:1025000090F86810012902BF0221C8B27047242147
:1025100080F8691001680A6822F00C020A600A68F3
:1025200042F004020A60002180F86810202280F83E
:102530006920C8B27047000090F86810012902BFF6
:102540000221C8B27047242180F8691001680A6826
:1025500022F00C020A600A6842F008020A600021B8
:1025600080F86810202280F86920C8B27047000007
:1025700010B50446A8B194F8690028B9002084F881
:102580006800204603F000F8242084F869002068E1
:10259000016821F001010160204605F07DFF01285E
:1025A00001D1012010BD606A00281CBF204605F043
:1025B00077FE2068416821F490414160816821F0F4
:1025C00022018160816841F008018160016841F069
:1025D000010101602046BDE8104005F0D5BE0000B5
:1025E00010B50446002804BF012010BD242084F843
:1025F00041002068016821F001010160204600F0DF
:102600000BFA0020606484F84100206384F84000E5
:1026100084F8420010BD000090F8410070470000AF
:1026200010B50446002804BF012010BD94F84100F5
:1026300028B9002084F84000204600F0F1F9242059
:1026400084F841002068016821F00101016061689F
:1026500021F070610161816821F400418160D4E959
:102660000212012A03D141F40041816007E041F4E4
:1026700004418160022A04BF4FF400614160416857
:1026800041F0007141F400414160C16821F4004112
:10269000C16004F110030ECB114341EA0321C16074
:1026A000D4E9071211430160016841F001010160A2
:1026B00000206064202184F84110206384F84200E7
:1026C00010BD0000000000002DE9F04F83B01F4650
:1026D00016468B46044690F8410020280ED10C9DEA
:1026E0000120002D1CBFDDF834A0BAF1000F06D088
:1026F00094F84000012806D1022000E00220C0B278
:1027000003B0BDE8F08F012084F84000FFF7F0FE31
:102710008146009020464FF400410122192303F026
:102720007BF908B10320EAE70E99222084F84100E2
:10273000402084F842004FF00008C4F844806562ED
:102740000D46C4F83480A4F82AA0CDE9001920462B
:10275000594632463B4603F0D3F848B184F84080EE
:10276000616C0320042908BF012003B0BDE8F08F8D
:10277000608DB0F5807F0AD3FF2020854FF4105084
:10278000009020465946FF224FF0807309E0608D8B
:1027900020854FF410510091C2B2204659464FF0A7
:1027A000007303F025F900264FF6FF774FF0FF0A7C
:1027B000CDF800902046042100222B4603F02CF98E
:1027C000F0BB2068406A616A4A1C62620870208D12
:1027D00001382085618D01396185384221D1608DB4
:1027E000F8B1CDF800902046802100222B4603F05E
:1027F00013F9C8BB608DB0F5807F08D3A4F828A07A
:10280000009620465946FF224FF0807307E0608D06
:1028100020850096C2B2204659464FF0007303F05F
:10282000E7F8608D0028C3D1204629464A4603F0C8
:102830002FF938B1616C0320042908BF01205EE73D
:1028400003205CE720682021C16142684EF6000346
:10285000CFF600631A40426084F84110002084F8EB
:10286000400084F842004AE7032048E700000000E7
:102870002DE9F04F83B01F4616468B46044690F86C
:10288000410020280ED10C9D0120002D1CBFDDF839
:1028900034A0BAF1000F06D094F84000012806D108
:1028A000022000E00220C0B203B0BDE8F08F01209A
:1028B00084F84000FFF71CFE8146009020464FF44C
:1028C00000410122192303F0A7F808B10320EAE729
:1028D0000E99212084F84100402084F842004FF0F6
:1028E0000008C4F8448065620D46C4F83480A4F83A
:1028F0002AA0CDE900192046594632463B4603F04E
:102900003BF848B184F84080616C0320042908BF7B
:10291000012003B0BDE8F08F608DB0F5807F09D352
:10292000FF2020850020009020465946FF224FF0CE
:10293000807308E0608D208500210091C2B220469E
:1029400059464FF0007303F053F84FF6FF76002717
:102950004FF0FF0A204629464A4603F0C5F8F0BB6F
:102960002068616A4A1C626209788162608D013860
:102970006085208D01382085304221D1608DF8B1ED
:10298000CDF800902046802100222B4603F044F829
:10299000E8BB608DB0F5807F08D3A4F828A000972D
:1029A00020465946FF224FF0807307E0608D208556
:1029B0000097C2B2204659464FF0007303F018F852
:1029C000608D0028C6D1204629464A4603F060F8AB
:1029D00058B1616C0320042908BF012063E7616CD2
:1029E0000320042908BF01205DE720682021C16180
:1029F00042684EF60003CFF600631A40426084F846
:102A00004110002084F8400084F842004BE7032086
:102A100049E70000000000007047000000000000CF
:102A2000704700000000000046F6F410C2F20000FB
:102A3000016801310160704780B543F60040C4F27F
:102A40000200016841F400710160032000F06CFC99
:102A50000F2000F005F800F04BFC002080BD0000C6
:102A600010B5044640F25C20C2F20000006844F653
:102A7000D351C1F26201A0FB0101880902F04CFAB6
:102A80004FF0FF302146002200F03EFC002010BD38
:102A90002DE9F04190F8A0400225012C2ED080F8BD
:102AA000A1504FF0010C80F8A0C012B3342503FBF5
:102AB000050505F1480E842404EBC3180024002505
:102AC000DEF80060062E2E4608BF264651F8047B2D
:102AD000FBB2334307F47F46334307F47F063343A7
:102AE00006684644336404F18854013A05F1807560
:102AF000E6D1002580F8A05080F8A1C0E8B2BDE87A
:102B0000F08100000000000090F8A0C00223BCF19A
:102B1000010F14D080F8A130036803EBC212D2F881
:102B2000903003F07F43C2F89030C2F890100168F3
:102B300001224A62002380F8A03080F8A120D8B298
:102B400070470000000000002DE9F041044690F8B5
:102B5000A0300220012B2DD084F8A1004FF00108F5
:102B600084F8A080342002FB0040D1E900CED1E9F6
:102B70000267D1E90435C0E91235C0E91067C0E940
:102B80000ECED1E906CED1E90865D1E90A37C0E910
:102B90001837C0E91665C0E914CE0B6B8366204672
:102BA00003F046FA2068C0F82480002084F8A000D2
:102BB00084F8A180C0B2BDE8F081000000000000F0
:102BC00010B5044600F0B0F90020C4F8A40084F861
:102BD000A00084F8A100002010BD0000000000004B
:102BE00090F8A0300222012B12D080F8A1200268B8
:102BF00002EBC111D1F8842022F00202C1F8842036
:102C0000016801234B62002280F8A02080F8A130E7
:102C1000D0B270470000000090F8A0300222012BD3
:102C200012D080F8A120026802EBC111D1F88420F3
:102C300042F01002C1F88420016801234B62002297
:102C400080F8A02080F8A130D0B2704700000000CA
:102C500090F8A0300222012B12D080F8A120026847
:102C600002EBC111D1F8842042F00202C1F88420A5
:102C7000016801234B62002280F8A02080F8A13077
:102C8000D0B270470000000090F8A0200221012A75
:102C90000FD080F8A11046F61801C4F201010A68AD
:102CA00042F480320A60002180F8A010012280F8EE
:102CB000A120C8B27047000070470000000000006B
:102CC00010B504460068816B11F0040F1CBF816BC6
:102CD00011F0040F2BD12068816B11F0020F1CBF83
:102CE000816B11F0020F37D12068816B11F0010F59
:102CF0001CBF816B11F0010F44D12068816B11F072
:102D0000080F1ABF816B11F0080F10BD416B21F045
:102D1000080141630821C163002084F8A00001205C
:102D200084F8A1002046BDE8104000F0FDB9416BD9
:102D300021F0040141630421C163D4F8A40040F0F0
:102D40000100C4F8A400002084F8A00084F8A110B9
:102D50002046FFF7B1FFBEE7416B21F0020141635E
:102D60000221C163D4F8A40040F00200C4F8A4001A
:102D7000002084F8A000042084F8A1002046FFF77A
:102D80009BFFB1E7416B21F0010141630121C16368
:102D9000002084F8A00084F8A110204600F07CF800
:102DA000ABE700000000000010B50446002804BF97
:102DB000012010BD94F8A10028B9002084F8A000DB
:102DC000204600F0B5F8022084F8A100206881694F
:102DD00021F070418161D4E901C2D4E9033142EAB2
:102DE0000C021A43114382691143816181684FF6D5
:102DF000000CCFF2000C01EA0C018160D4E905134C
:102E0000826843EA014111438160C16801EA0C0113
:102E1000C160D4E90712C36842EA01411943C160A5
:102E2000016901EA0C010161D4E90912036942EA6E
:102E3000014119430161416901EA0C014161D4E991
:102E40000B12436942EA01411943416194F835107C
:102E500094F83620C36A03F07F43C362120442EA47
:102E6000012194F834201143C26A1143C162416BBD
:102E700041F004014163416B41F00201416381690A
:102E800041F0010181610020C4F8A400012184F80F
:102E9000A11010BD000000002DE9F04F81B00446E4
:102EA000002540F26026C2F2000646F22C58C2F21B
:102EB000000846F22459C2F2000949F2981AC0F6F5
:102EC000040A46F21C5BC2F2000B4FF0FF3700BF52
:102ED00056F8250000281BDB58F8251059F8252046
:102EE000504348435AF825105BF8252000FB021197
:102EF00020462A4600F01CF92068416A41F0010191
:102F0000416256F82510284607F04CFD46F825701A
:102F10000135022DDCD12046002101B0BDE8F04F83
:102F200000F0E6B80000000070470000000000005C
:102F30002DE9F04F85B043F63000C4F2020041693C
:102F400041F080614161416901F080610091009927
:102F5000016841F400010160016801F40001009181
:102F60000099016841F001010160016801F001016F
:102F700000910099016841F002010160016801F0CF
:102F8000020100910099016841F0040101600168AB
:102F900001F0040100910099016841F0080101600D
:102FA000016801F0080100910099016841F01001E9
:102FB0000160016801F0100100910099016841F081
:102FC00020010160016801F0200100910099016871
:102FD00041F040010160006800F04000009000985E
:102FE0004FF00208CDF804804FF480600090002775
:102FF0000297032503954FF00E0ACDF810A040F27A
:103000000049C4F2020909F580506C462146FFF7D9
:1030100097F9CDF80480C1200090CDE90275CDF874
:1030200010A009F580602146FFF78AF9CDF80480E9
:1030300078200090CDE90275CDF810A0A9F5806048
:103040002146FFF77DF9CDE90058CDE902754FF033
:10305000090BCDF810B048462146FFF771F9CDF8BD
:1030600004804FF470600090CDE90275CDF810A097
:1030700048462146FFF764F9CDF804804FF40C6010
:103080000090CDE90275CDF810A009F5A0563046A4
:103090002146FFF755F90820CDE90008CDE9027572
:1030A000CDF810A009F500602146FFF749F9CDF8E9
:1030B00004804FF4A0500090CDE90275CDF810B017
:1030C00030462146FFF73CF909F5406504262846BD
:1030D00004210022FFF704FA0120CDE90060CDE9C8
:1030E000027728462146FFF72BF905B0BDE8F08F9F
:1030F00090F8A0300222012B11D080F8A1200268A4
:10310000536B43F00103536346F64002C4F20102DD
:103110001160002280F8A020012180F8A110D0B217
:103120007047000000000000704700000000000031
:10313000B0B5044690F8A0300220012B14D084F8DA
:10314000A100012584F8A050342002FB0040C16595
:1031500000F13801204602F06BFF20684562002034
:1031600084F8A00084F8A150C0B2B0BD00000000F7
:10317000B0B5044690F8A0300220012B14D084F89A
:10318000A100012584F8A050342002FB0040C16456
:1031900000F13801204602F04BFF20684562002014
:1031A00084F8A00084F8A150C0B2B0BD00000000B7
:1031B000F0B581B0054690F8A0400220012C1CD04B
:1031C00085F8A100012785F8A070342003FB005486
:1031D00044F8381FD4E90A060844B118C4E90102CA
:1031E000E160284621461A4602F022FF286847621D
:1031F000002085F8A00085F8A170C0B201B0F0BD34
:10320000F0B581B0054690F8A000022601281AD03A
:1032100085F8A160012785F8A070342003FB0054D5
:10322000002644F8386FC4E90116E260C4E90A12C6
:10323000284621461A4602F0FBFE2868476285F8B8
:10324000A06085F8A170F0B201B0F0BD00000000F0
:1032500010B542784EF69C5ECEF2000E4EF8042C6D
:103260000278F2B14368CEF80030037B42EA037281
:1032700090F808C0437A817AC47A42EA046242EA4A
:10328000C141427B41EA8241827B41EA4241C07BAB
:1032900041EA004040EA032040EA4C00CEF8040036
:1032A00010BD0020CEF80000CEF8040010BD0000D4
:1032B000BFF35F8F4EF62450CEF20000016821F478
:1032C00080310160002101677047000000000000AC
:1032D00040F001004EF62451CEF200010867086864
:1032E00040F480300860BFF34F8FBFF36F8F70479B
:1032F000704700000000000005F04ABF0000000019
:1033000005F05ABF0000000070B514460D46064691
:1033100005F062FF2946224603F02AFA01463046AC
:10332000BDE8704005F060BF05F072BF000000000E
:10333000B0B582B043F64000C4F20200016841F02B
:1033400080510160006800F080500190019847F2C0
:103350000005C4F20005286840F480302860FFF7BB
:10336000C7F80446686810F4803F07D1FFF7C0F83B
:10337000001BB0F57A7FF5D903201AE0286840F4E5
:1033800000302860FFF7B4F80446686810F4003F86
:103390000CD100BFFFF7ACF8001BB0F57A7F07D85F
:1033A000686810F4003FF5D0002002E0002000E043
:1033B0000320C0B202B0B0BD70B582B00446FFF7C2
:1033C00097F8054694F84110002011F0020F22D022
:1033D00084F840002068016811F0040F0CD00168E7
:1033E00021F004010160E06BFEF7BAFD00281EBF6A
:1033F000606C40F0040060642068016841F00201E4
:103400000160A06C009002262046022101222B467A
:1034100004F00EF908B102B070BD2068C660A06C5F
:1034200000902046202100222B4604F001F90028BC
:1034300002BF012084F84100002002B070BD0000EE
:10344000704700000000000090F8411011F0020FDA
:1034500018D0002180F84010082180F84110016840
:103460000A6822F4F8120A600A6812F0040F0BD1FD
:103470000220C860086840F400300860086840F026
:10348000020008600020704780B50A6822F004023C
:103490000A60C06B47F2E941C0F600010165FEF722
:1034A000ABFDBDE880400020704700000000000038
:1034B0002DE9F04182B01D46174688460446FFF7C5
:1034C00017F8064694F84000012802BF022002B017
:1034D000BDE8F081012084F8400094F84100012803
:1034E00034D100206064422084F8410000952046D9
:1034F00020210022334604F09BF840BB2068396845
:10350000816279684162B968C16201683A6921F4EF
:103510004001114341F480010160F868C8F82800B7
:10352000204641464FF0006203F00AFF009508254F
:103530000127204608210122334604F079F830B9EA
:103540002068C56084F84170002000E0022000215E
:1035500084F8401002B0BDE8F081000000000000D7
:103560007047000000000000F0B581B015460F461E
:103570000446FEF7BDFF064694F84000012802BF4E
:10358000022001B0F0BD012084F8400094F8411001
:103590000220012921D10021616484F841000095B5
:1035A000204620210022334604F042F8A8B92046E4
:1035B0003946002203F0C4FE786A20B1012084F865
:1035C0004100002009E00095022501272046022144
:1035D0000122334604F02CF820B1002184F8401079
:1035E00001B0F0BD2068C56084F84170E9E70000D3
:1035F00010B540F28864C2F200042068002802BFBF
:103600000120C0B210BD94F84010012902BF022071
:10361000C0B210BD012184F84010016821F0010101
:10362000016000F0CDF90020606484F8410084F866
:103630004000C0B210BD0000704700000000000054
:10364000704700000000000010B504460068826862
:10365000016812F0040F18BF11F4802327D19307DB
:1036600042D511F400333FD00221C160016821F43A
:10367000E021016094F8411012294CD1016811F049
:10368000040F09D0016821F004010160E06B0068BB
:10369000016821F0010101602046FFF7D5FE0120FD
:1036A00084F841002046BDE8104000F049BB94F882
:1036B0004110122939D121680AE000BF616A4A1C11
:1036C0006262097880F820102168E26A013AE262B9
:1036D0008A6812F0040F44D0E26A002AEED108682A
:1036E00020F4802008603CE013073FD511F400234C
:1036F0003CD00821C160016811F4800F06D0016838
:1037000021F410210160012084F841002046BDE829
:10371000104000F0A9BA94F84110222938D101686C
:1037200011F0040F51D1216873E094F8411022295F
:1037300017D121680AE000BF90F82010226B531CBB
:10374000236311702168A26B013AA2638A6812F0A8
:10375000040F06D0A26B002AEED1086820F4802066
:1037600008602046BDE81040FFF76ABFD30718BFC6
:1037700011F4803318D1D20658BF10BD11F4801156
:103780003CD01021C1602046BDE8104000F070BA66
:1037900094F84100022823D1012084F841002046FA
:1037A000BDE81040FFF7DCBE0121C160026822F4D1
:1037B00070220260626C42F002026264026812F0DF
:1037C000040F38D184F8411013E0016821F004019E
:1037D0000160E06B0068016821F0010101601FE0F9
:1037E00094F84100082809D1012084F84100606C58
:1037F00070B32046BDE81040FFF71EBF10BD90F823
:103800002010226B531C236311702168A26B013AB4
:10381000A263896811F4F85F1CBFA16B0029EED187
:103820002046FFF711FE012084F841002046BDE844
:10383000104000F011BA016821F004010160E06B52
:1038400047F2E941C0F600010165FEF7D5FB10BD66
:103850002046BDE81040FFF7F3BD00000000000067
:103860002DE9F04182B00446FEF742FE0546002CE9
:1038700002BF012002B0BDE8F08194F840000128A9
:1038800002BF022002B0BDE8F081012084F84000B0
:1038900094F8410050B9002084F84000204600F020
:1038A000D3F8204641F2883100F0DAF92068016847
:1038B000A2686FF0FF0303EB022221F4F8511143D9
:1038C0000160A06C00904FF00008204620210022EB
:1038D0002B4603F0ADFE38BBD4E900120B684FF65F
:1038E0002F75C0F2FF052B40E568D4E907672B432D
:1038F00043EA026232433A430A604A684FF6FE03E3
:10390000CFF6E0731A40D4E90437A6693A4342EA95
:10391000034232434A600A6842F001020A60C4F876
:103920004480012184F8411084F8408002B0BDE851
:10393000F08100000000000070B582B016460D4610
:103940000446FEF7D5FD034694F84000012802BF67
:10395000022002B070BD012084F8400094F84100BC
:10396000012825D100206064822084F84100A06CE9
:10397000009020462021002203F05AFEC8B920689A
:103980000168726821F0080111430160082A07D11B
:10399000316801631021C160016841F48011016048
:1039A000204629464FF0406203F0CAFC002000E0A8
:1039B0000220002184F8401002B070BD0000000019
:1039C000B0B54620FFF798FC5C20FFF795FC40F26D
:1039D0001860C2F2000046F2B841C4F20201016070
:1039E000FEF71EFB41F20044C4F20204A4F5805528
:1039F00028464021FEF7C4FB28460421FEF7C0FB01
:103A000020464FF48071FEF7BBFB20464FF4007157
:103A1000FEF7B6FB20468021FEF7B2FB2046402190
:103A2000FEF7AEFB43F61800C4F20200016841F055
:103A300002010160016821F002010160016A21F0C8
:103A400002010162B0BD00002DE9F04385B043F6EC
:103A50003000C4F20200816841F002018160816897
:103A600001F002010091009950F8181C41F0020188
:103A700040F8181C50F8181C21F0020140F8181CDE
:103A8000016841F002010160016801F0020100914A
:103A90000099016841F002010160016801F0020132
:103AA00000910099016841F020010160016801F076
:103AB000200100910099016841F020010160016836
:103AC00001F0200100910099016841F0200101609E
:103AD000016801F0200100910099016841F0200186
:103AE0000160006800F02000009000980220019022
:103AF0004FF04008CDF80080012002900320039091
:103B00000A27049741F20044C4F20204A4F5805647
:103B10006D4630462946FEF713FC00200290042033
:103B200000904FF00909CDF8109030462946FEF775
:103B300007FC04974FF48070009020462946FEF75A
:103B4000FFFB04974FF40070009020462946FEF7D3
:103B5000F7FBCDF810908020009020462946FEF714
:103B6000EFFBCDF81090CDF8008020462946FEF7F7
:103B7000E7FB5C200F210022FFF7C6FB5C20FFF76C
:103B8000BFFB05B0BDE8F0832DE9F04182B01546DA
:103B900088460446FEF7ACFC06462768B86994F8E8
:103BA0004010012902BF022002B0BDE8F0810121CE
:103BB00084F8401094F8411001292CD1002161644F
:103BC000B8F1000F3BD0222184F84110396901314E
:103BD000A1633969C4F830800131616379690122D8
:103BE00062F39B617961B86109E000BF97F820003A
:103BF000216B4A1C22630870A06B0138A063A06B84
:103C000058B10095204606210122334603F010FDED
:103C10000028EBD00FE0022016E000950225204698
:103C200002210122334603F003FD20B92068C5605C
:103C30002046FFF7C1FB012184F8411004E0606CCD
:103C400040F0080060640120002184F8401002B0B8
:103C5000BDE8F08100000000704700000000000097
:103C60008164704700000000704700000000000001
:103C700070470000000000002DE9F04182B01546B9
:103C800088460446FEF734FC0646276894F8400050
:103C9000012802BF022002B0BDE8F081012084F8B3
:103CA000400094F84100012829D100206064B8F157
:103CB000000F38D0122084F8410038690130E062EA
:103CC0003869C4F824800130A062786920F040602F
:103CD000786108E0606A411C6162007887F8200022
:103CE000E06A0138E062E06A58B10095204604219C
:103CF0000122334603F09CFC0028EBD00FE00220A9
:103D000016E000950225204602210122334603F0E9
:103D10008FFC20B92068C5602046FFF74DFB0121CC
:103D200084F8411004E0606C40F0080060640120F9
:103D3000002184F8401002B0BDE8F08100000000CE
:103D400070470000000000002DE9F04F81B00446EC
:103D5000D0F8009043F69006C4F2020619F0010F65
:103D600017D14FF0000A5FEA093025D556F8041C38
:103D7000E06B21F44011014346F8041CB0F5801FAC
:103D800020D14FF000084FF0010A5FEAC92020D48B
:103D900031E056F8880C20F4000046F8880C606B7F
:103DA00056F8881C014346F8881CB0FA80F04FEAA8
:103DB000501A5FEA0930D9D44FF000085FEAC920F1
:103DC00007D418E0B0FA80F04FEA50185FEAC92033
:103DD00011D556F8041C206C21F44001014346F82B
:103DE000041CB0F5800F02D14FF0010A03E0002857
:103DF00008BF4FF0010843F6000BC4F2020B19F0A4
:103E0000200F75D056F8500C40F0805046F8500CFA
:103E100056F8500C00F080500090009843F60007D0
:103E2000CFF6FE775BF8070040F480704BF8070090
:103E3000FEF75EFB054600BF5BF8070010F4807FCD
:103E400006D1FEF755FB401B6428F5D9032052E24A
:103E500056F8200C10F4407031D0216B01F4407101
:103E600088422CD056F8200C56F8201C41F48031A2
:103E700046F8201C56F8201C21F4803146F8201CFE
:103E800020F4407046F8200C56F8200C10F0010F7A
:103E900015D0FEF72DFB054656F8200C10F0020F4A
:103EA0000DD141F2883700BFFEF722FB401BB8421C
:103EB00000F2258256F8200C10F0020FF4D0206B8F
:103EC0004FF6FF41C0F6FF71014056F8882C22F4EE
:103ED000F81200F44073B3F5407F08BF0A4346F878
:103EE000882C56F8201C6FF31F30084346F8200C2E
:103EF000276817F0100F68D1780474D438047BD485
:103F0000F80300F18280B80300F18880780600F1A0
:103F10008E80380600F19480F80500F19A80B8058B
:103F200000F1A080780500F1A680380500F1AC8092
:103F3000F80400F1B280B80400F1B880780200F112
:103F4000BE80B80200F1C48017F4802F05D030681D
:103F5000616F20F040700843306009F080703902D2
:103F600006D53168D4F8802021F0805111433160AA
:103F7000002808BFBAF1000F00F0BA80DBF800009B
:103F800020F08060CBF80000FEF7B2FA054600BFD3
:103F9000DBF8000010F0006F06D0FEF7A9FA401B16
:103FA0006428F5D90320A6E1206810F0010F03D0A2
:103FB000616B002900F0A080010340F1B180E16B4A
:103FC000B1F5801F40F0AC80B0E056F8040C20F052
:103FD000807046F8040CA06B56F8041C084346F8A1
:103FE000040C78048AD53068616E20F440300843B0
:103FF000306038047FF584AF3068A16E20F4402033
:1040000008433060F8037FF57EAF3068E16E20F43E
:10401000401008433060B8037FF578AF3068216FF7
:1040200020F440000843306078067FF572AF3068B6
:10403000616C20F003000843306038067FF56CAFF8
:104040003068A16C20F00C0008433060F8057FF563
:1040500066AF3068E16C20F0300008433060B8058E
:104060007FF560AF3068216D20F0C00008433060FC
:1040700078057FF55AAF3068616D20F440700843D1
:10408000306038057FF554AF3068A16D20F4406092
:1040900008433060F8047FF54EAF3068E16D20F4DE
:1040A000405008433060B8047FF548AF3068216E57
:1040B00020F440400843306078027FF542AF30681A
:1040C000A16F20F0806008433060B8027FF53CAFFC
:1040D0003068E16F20F0006008433060B1F1006F9C
:1040E00008BF4FF0010817F4802F7FF430AF34E79A
:1040F000B7F1007F6AD141E756F80C1C01F440315A
:1041000056F80C2C02F070621143D4E9012341EA05
:10411000821141EA037146F80C1C01033FF54FAFD1
:10412000C1021DD5216CB1F5800F19D156F80C1CB8
:1041300001F4403156F80C2C02F0E0421143626861
:10414000E36841EA821141EA036146F80C1C56F823
:10415000041C21F01F01626A013A114346F8041C55
:10416000C10110D556F80C1C01F0706156F80C2CEA
:1041700002F0E04211436268236941EA821141EA98
:10418000034146F80C1C80010AD5231D0FCB1B04EC
:1041900043EA801040EA026040EA017046F80C0CE5
:1041A000DBF8000040F08060CBF80000FEF7A0F9DB
:1041B000054600BFDBF8000010F0006F06D1FEF7E7
:1041C00097F9401B6428F5D9032094E017F0080004
:1041D00008BFB8F1000F00F08980DBF8000020F084
:1041E0008050CBF80000FEF783F90546DBF80000AD
:1041F00010F0005F06D0FEF77BF9401B6428F5D96C
:10420000032078E0206810F4002F01D0E16B19B191
:10421000C1021ED5216CE1B956F8081C01F44031E9
:1042200056F8082C02F0E0421143D4E9052341EA94
:10423000821141EA036146F8081C56F8041CA26A80
:104240006FF0FF0303EB022221F4F851114346F80B
:10425000041C810214D5E16FB1F1006F10D156F842
:10426000081C01F0706156F8082C02F0E04211437E
:104270006269236A41EA821141EA034146F8081C57
:10428000000718D556F8080C00F0706056F8081CA6
:1042900001F4403108436169E26940EA811040EA73
:1042A000027046F8080C56F8040CE16A20F440301D
:1042B000084346F8040CDBF8000040F08050CBF8CF
:1042C0000000FEF715F90446DBF8000010F0005F6F
:1042D0000ED100BFFEF70CF9001B65280AD2DBF8EF
:1042E000000010F0005FF5D0002004E0002002E0A4
:1042F000002000E00320C0B201B0BDE8F08F032031
:10430000F9E70000000000002DE9F0410D460446E9
:10431000002867D043F60807C4F20207D7F8F8036D
:1043200000F00F00A8420CD2D7F8F80320F00F00DD
:104330002843C7F8F803D7F8F80300F00F00A842A5
:1043400050D1206810F0020F05D03968A26821F022
:10435000F00111433960C0073CD1D7F8F80300F0F1
:104360000F00A8420CD9D7F8F80320F00F0028431B
:10437000C7F8F803D7F8F80300F00F00A84231D1CE
:10438000206810F0040F05D03968E26821F4E0518C
:1043900011433960000706D53868216920F4604070
:1043A00040EAC100386000F07FF83968C1F30311BA
:1043B00047F2F812C0F60102515CC84040F25C219D
:1043C000C2F2000108600F20FEF74AFB0020C0B2D5
:1043D000BDE8F0816068012808D157F8081C11F485
:1043E000003F0CD10120C0B2BDE8F08157F8081C95
:1043F000022802D18901F5D501E08907F2D5396893
:1044000021F0030108433860FEF772F80646386869
:10441000616800F00C00B0EB810F9ED041F288384B
:10442000FEF766F8801B404507D83868616800F0E1
:104430000C00B0EB810FF3D18FE70320C0B2BDE8D1
:10444000F08100000000000040F25C20C2F2000099
:10445000006870470000000080B5FFF7F5FF43F6E5
:104460000801C4F202010968C1F3822147F208225F
:10447000C0F60102515CC84080BD00000000000091
:1044800080B5FFF7E1FF43F60801C4F202010968B5
:10449000C1F3423147F20822C0F60102515CC84024
:1044A00080BD00000000000043F60401C4F20201D8
:1044B000486800F00C0242F20040C0F2F400082A02
:1044C00007D0042A02BF41F20020C0F27A007047F0
:1044D0007047D1F800C00B6841F20022C0F27A02A6
:1044E00013F4800F08BF02460CF03F00B2FBF0F05F
:1044F0000A68C2F3881250430968C1F301410222DD
:1045000002EB4101B0FBF1F0704700000000000039
:104510002DE9F04381B00446D0B12078C00743F6BE
:104520000009C4F2020943F67007C4F2020765D01D
:1045300057F8680C00F00C0004280BD1D9F80000E3
:1045400010F4003F5AD06068002857D1012062E182
:10455000012060E157F8680C00F00C00082804D135
:1045600057F86C0C10F4800FE8D1606880B1B0F59A
:10457000803F08D0D9F80010B0F5A02F24D141F425
:104580008020C9F80000D9F8000040F4803023E012
:10459000D9F8000020F48030C9F80000D9F80000F4
:1045A00020F48020C9F80000FDF7A2FF054600BFF7
:1045B000D9F8000010F4003F20D0FDF799FF401B10
:1045C0006428F5D9032026E121F48030C9F80000E1
:1045D000D9F8000020F48020C9F80000FDF788FF1A
:1045E000054600BFD9F8000010F4003F06D1FDF7E2
:1045F0007FFF401B6428F5D903200CE12078800759
:104600003AD557F8680C10F00C0F23D057F8680C07
:1046100000F00C00082804BF57F86C0C10F4800F51
:1046200018D0E168D9F80000002900F0B28040F00D
:104630000100C9F80000FDF75BFF0546D9F800004E
:1046400010F0020F0FD1FDF753FF401B0228F5D9E0
:104650000320E0E0D9F8000010F0020F1CBFE06872
:10466000012840F03781D9F80000216920F0F800D6
:1046700040EAC100C9F800002078000725D561692B
:10468000786881B140F001007860FDF731FF0546A0
:10469000786810F0020F18D1FDF72AFF401B02289E
:1046A000F6D90320B7E020F001007860FDF720FF85
:1046B000054600BF786810F0020F06D0FDF718FF1E
:1046C000401B0228F6D90320A5E02078400740F1DE
:1046D000978057F8300C10F0805F0ED157F8300CEF
:1046E00040F0805047F8300C57F8300C00F0805004
:1046F000009000984FF0010801E04FF0000843F6E9
:104700000006CFF6FE7659F8060010F4807F15D12A
:1047100059F8060040F4807049F80600FDF7E8FEFD
:10472000054600BF59F8060010F4807F06D1FDF75A
:10473000DFFE401B6428F5D903206CE0A06858B167
:10474000012805D03968052837D141F004003860C8
:10475000386840F0010036E0386820F00100386029
:10476000386820F004003860FDF7C2FE054638685E
:1047700010F0020F3BD041F2883600BFFDF7B8FEC3
:10478000401BB04200F2AA80386810F0020FF5D149
:104790002DE020F00100C9F80000FDF7A9FE054654
:1047A000D9F8000010F0020F3FF466AFFDF7A0FE4D
:1047B000401B0228F4D903202DE021F001003860CD
:1047C000386820F004003860FDF792FE054638682E
:1047D00010F0020F0BD141F2883600BFFDF788FEC2
:1047E000401BB04274D8386810F0020FF6D0B8F110
:1047F000000F1EBF57F8300C20F0805047F8300CE7
:10480000A6693EB157F8680C00F00C00082806D1E4
:10481000012000E00020C0B201B0BDE8F083D9F86B
:10482000000020F08070C9F80000FDF761FE054629
:10483000D9F8000000F00070022E39D150B100BF4D
:10484000FDF756FE401B02284AD8D9F8000010F0A8
:10485000007FF5D104F11C064FCE084340EA8210D8
:1048600040EA0660D9034FF6FF729143A1F580310B
:10487000084340F0005047F86C0CD9F8000040F0B5
:104880008070C9F80000FDF733FE0446D9F8000037
:1048900010F0007F20D100BFFDF72AFE001B022888
:1048A00022D8D9F80010002011F0007FF4D0B2E730
:1048B00010B90020AFE700BFFDF71AFE401B032828
:1048C00010D2D9F80010002011F0007FF4D1A2E737
:1048D0000320A0E701209EE700209CE703209AE741
:1048E000032098E7032096E7032094E700000000E8
:1048F000006800EB8100006D7047000000000000C0
:10490000006800EB810002657047000000000000B5
:1049100070B50C4600684168C1F304266670080C47
:10492000E07001F03F05A570C1F3423121700AB17A
:10493000002070BDC0B202F0FBFEE070F0B202F0E9
:10494000F7FE6070E8B202F0F3FEA070002070BDC8
:1049500070B50C460068816A616001696FF3DF31F0
:10496000A1600168C1F306266670C1F3054020709E
:1049700001F07F05A570402303EA114121730AB1BC
:10498000002070BDC0B202F0D3FE2070F0B202F081
:10499000CFFE6070E8B202F0CBFEA070002070BDC8
:1049A00010B50446002804BF012010BD607F20B967
:1049B00000202077204600F037F80220607720683A
:1049C000CA21416253214162204602F0D5FE21688E
:1049D00010B10120042223E088684FF6BF72CFF6A1
:1049E0008F72104088606068D4E904231043184334
:1049F0008A6810438860E0680861A0680A6942EA32
:104A000000400861C86820F08000C860C86C20F0D1
:104A10000800C864A069CA6C1043C8640020012261
:104A2000FF234B62627710BD80B5AEB000202890A6
:104A30000C21229101212491279022A8FFF768FDE3
:104A400040B94FF480700D902020019001A8FFF72D
:104A50007BF908B12EB080BD43F67000C4F20200AD
:104A6000016841F4004101602EB080BD00000000EB
:104A700070B50D460446017F022001294BD06077B6
:104A80000120207768783AB12978AA78EB7842EA51
:104A9000002040EA034014E0C10642BF00F0EF00EE
:104AA0000A306870E87802F04FFE0646687802F037
:104AB0004BFE000240EA0646A87802F045FE30436D
:104AC000297840EA41352068CA2141625321416278
:104AD000204602F051FE10B10120042115E04FF6EE
:104AE0003F70C0F2FF00284021684860C86820F08D
:104AF0008000C860886810F0200F04D1204600F0C4
:104B00007BF80028E8D1002001212268FF235362AE
:104B1000002222776177C0B270BD00000000000063
:104B20002DE9F04381B00D460446017F02200129A2
:104B30005BD06077012020772768B86800F04000DC
:104B40005AB1002804BF002028732878697895F8A6
:104B50000290090241EA004811E0002804BF002049
:104B60002873287802F0F0FD0646687802F0ECFD24
:104B7000000240EA0648A87802F0E6FD81462E7B56
:104B8000CA20786253207862204602F0F5FD10B109
:104B90000120042123E048EA090040EA064047F6E4
:104BA0007F71C0F27F01084021680860886820F4A6
:104BB00080208860D5E904028B6810431843886020
:104BC000C86820F08000C860886810F0200F04D109
:104BD000204600F011F80028DAD1002001212268D7
:104BE000FF235362002222776177C0B201B0BDE893
:104BF000F083000000000000B0B504460068C16802
:104C000021F0A001C160FDF773FC05462068C06873
:104C100010F0200F08D1FDF76BFC401BB0F57A7F38
:104C2000F4D90320C0B2B0BD0020C0B2B0BD0000B6
:104C3000B0B50D460446002804BF0120B0BD94F86D
:104C40002C0028B9002084F82D00204600F014F82C
:104C5000022084F82C002068211DFCF7A5FDD4E972
:104C600000022946FCF71CFE012084F82C000020DD
:104C7000B0BD000000000000704700000000000010
:104C800010B5044690F82C200220022A08D084F89F
:104C90002C002068FCF7CCFD012084F82C000020BB
:104CA000C0B210BD00000000B0B50D46044690F83B
:104CB0002C10022002290DD084F82C0020682946EF
:104CC000FCF7BEFD28680121022808BF052184F8F1
:104CD0002C100020C0B2B0BD4EF21001CEF2000187
:104CE0000A6822F00403042808BF42F004030B60A2
:104CF000704700000000000070B546F63610C2F2A2
:104D0000000001880131018089B2B1F57A7F22D398
:104D10000021018046F2A874C2F2000446F249550F
:104D2000C2F20005204629460122FFF7F1FDAA78CC
:104D300020460221FFF7E4FD6A7820460321FFF7B1
:104D4000DFFD2A7820460421FFF7DAFDEA782046C5
:104D50000521FFF7D5FD46F25460C2F2000000685D
:104D600042F20025C4F20105A84268D146F234504F
:104D7000C2F2000001880131018089B27B295ED333
:104D80000026068046F25464C2F200042046FCF776
:104D900033FF20460A21FCF7CFFE2046FCF798FEA1
:104DA00046F6C002C2F20002137840F29021C2F22D
:104DB000000121F8130046F6C204C2F20004268066
:104DC000581CC3B2092B88BF00201070002000BF00
:104DD00031F81620104401360A2EF9D180B24CF673
:104DE000CD41CCF6CC41A0FB0101C808208001F0E8
:104DF00047FC46F6BC06C2F2000686ED000A01F04A
:104E000073FC86ED000AB5EEC00AF1EE10FA0EDA78
:104E1000B1EE400ABDEEC01A86ED000A11EE100A8E
:104E200000EB80004FF4004141EA400006E0BDEE97
:104E3000C00A10EE100A00EB80004000208040F213
:104E40001460C2F20000007801280BD146F6F2147B
:104E5000C2F20004208808B1013802E003F0C4F96E
:104E60000520208046F63010C2F2000001680029BB
:104E70001EBF01680139016046F6C010C2F2000091
:104E8000016800291EBF01680139016046F6BC10A7
:104E9000C2F20000016800291EBF016801390160EB
:104EA00046F6C410C2F20000016800291EBF016866
:104EB0000139016046F27C50C2F20000016800290D
:104EC0001EBF01680139016046F27050C2F2000055
:104ED000016800291EBF01680139016046F2745063
:104EE000C2F20000016800291EBF0168013901609B
:104EF00040F27860C2F2000001684A1C0260B1F51D
:104F00007A7FB8BF70BD0021016005F56A4080213D
:104F1000BDE87040FDF7E0BA02F0E2BC000000001E
:104F2000FFF7EABE0000000070470000000000002C
:104F3000704700000000000010B50446002804BFC0
:104F4000012010BD94F83D0028B9002084F83C00F1
:104F5000204600F00DF8022084F83D002068211D55
:104F600002F00EFF012084F83D00002010BD00007B
:104F700080B582B043F64000C4F20200016841F0FF
:104F800002010160006800F00200019001981D20FC
:104F900000210022FEF7B8F91D2002B0BDE88040D4
:104FA000FEF7AEB9000000000068C16841F00101E1
:104FB000C160016841F001010160002070470000FC
:104FC0000068C16821F00101C160016A41F211125B
:104FD000114201D000207047016A40F24442114260
:104FE00002BF016821F0010101600020704700004C
:104FF000704700000000000010B504460068016919
:1050000011F0020F1CBFC16811F0020F4FD12068D0
:10501000016911F0040F1CBFC16811F0040F53D1D6
:105020002068016911F0080F1CBFC16811F0080F5A
:1050300057D12068016911F0100F1CBFC16811F031
:10504000100F5BD12068016911F0010F1CBFC1680E
:1050500011F0010F5FD12068016911F0800F1CBFB2
:10506000C16811F0800F5DD12068016911F4807F63
:105070001CBFC16811F0800F5BD12068016911F07D
:10508000400F1CBFC16811F0400F59D12068016961
:1050900011F0200F1ABFC16811F0200F10BD6FF082
:1050A000200101612046BDE81040FFF741BF6FF0CD
:1050B0000201016101212177806910F0030F46D0C0
:1050C0002046FFF795FF48E06FF0040101610221DF
:1050D0002177806910F4407F42D02046FFF788FF97
:1050E00044E06FF00801016104212177C06910F0EC
:1050F000030F3ED02046FFF77BFF40E06FF010012A
:10510000016108212177C06910F4407F3AD0204620
:10511000FFF76EFF3CE06FF001010161204600F0F7
:10512000DFF898E76FF0800101612046FFF7FCFE91
:105130009AE76FF0800101612046FFF7F5FE9CE7DA
:105140006FF040010161204600F0FAF89EE720462A
:1051500000F022F8204600F0A3F80020207756E760
:10516000204600F019F8204600F09AF80020207739
:1051700056E7204600F010F8204600F091F8002095
:10518000207756E7204600F007F8204600F088F820
:105190000020207756E70000704700000000000064
:1051A00070B50D46044690F83C100220012955D0F8
:1051B00084F83D00012684F83C604FEAB2000528DF
:1051C00047D8DFE800F0030B131B23332068294680
:1051D00002F07AFE206850F8181F1EE02068294669
:1051E00002F0A6FE206850F8181F26E02068294625
:1051F00002F0D6FE206850F81C1F0EE020682946F9
:1052000002F006FF206850F81C1F16E020682946AF
:1052100002F02AFF206850F8541F41F00801016095
:10522000016821F00401016029690FE02068294626
:1052300002F046FF206850F8541F41F400610160FD
:10524000016821F480610160296909020268114343
:105250000160002084F83C0084F83D60C0B270BD5D
:1052600010B50446002804BF012010BD94F83D008D
:1052700028B9002084F83C00204600F00DF80220F8
:1052800084F83D002068211D02F07AFD012084F899
:105290003D00002010BD000070470000000000002D
:1052A000704700000000000010B5044600680122AD
:1052B00002F0FAFD206840F4806140F20042C4F23E
:1052C0000102914202BF416C41F400414164016816
:1052D00041F001010160002010BD0000000000004D
:1052E00046F2C870C2F2000000686FF0010101616F
:1052F00046F6E010C2F200000068B8B146F6E810C9
:10530000C2F2000001680131016046F6E410C2F209
:1053100000000068814238BF704740F60000C4F2C8
:1053200002004FF480710122FDF7DAB840F6000068
:10533000C4F202004FF480710022FDF7D1B80000E2
:105340007047000000000000B0B50446002802BF0E
:1053500001252846B0BD242084F869002068016832
:1053600021F001010160002505604560856020464F
:1053700000F006F9E56684F8695084F8685084F80E
:105380006A502846B0BD0000006844F20041C4F2F3
:105390000001884218BF7047B0B546F64804C2F213
:1053A00000042068012505620221016204210162D6
:1053B00010210162082101623220FCF7D1FE206831
:1053C000816941F008018161816941F010018161C9
:1053D00046F6C401C2F200012046402200F04CF91A
:1053E00040F28460C2F200000570BDE8B040704732
:1053F00010B504460268D069D2F800C0936810F076
:105400000F0F4CD00CF4907103F0010319434AD0F4
:10541000C1071FBF1CF4807101211162E16E1CBF26
:1054200041F00101E166810708D5002B1FBF022171
:105430001162E16E41F0040118BFE166410708D531
:10544000002B1FBF04211162E16E41F0020118BF61
:10545000E16601070AD50CF0200119431FBF08219E
:105460001162E16E41F0080118BFE166E16E0029AA
:105470004AD000EA0C00800644BF204602F0CCFF70
:10548000E06E10F0080F24D12068806810F0400F03
:105490001FD12046FFF778FF0020E06634E00CEAD9
:1054A0000002920610D400EA0C00010607D4400660
:1054B00058BF10BD2046BDE8104002F0A1BF2046F5
:1054C000BDE8104003F018B92046BDE8104002F0D6
:1054D000A3BF204602F084FF2068816811F0400FCE
:1054E00013D0816821F040018160606E68B148F29C
:1054F000D131C0F600010165FCF77EFD20B1606E80
:10550000016DBDE81040084710BD2046BDE81040C1
:10551000FFF73ABF0000000010B50446A8B194F8A8
:10552000690028B9002084F86800204600F02CF8B3
:10553000242084F869002068016821F001010160DD
:10554000204602F0A9FF012801D1012010BD606AA8
:1055500000281CBF204602F0A3FE2068416821F409
:1055600090414160816821F02A018160016841F029
:10557000010101602046BDE8104002F005BF0000B7
:1055800070470000000000007047000000000000AD
:105590002DE9F04182B01D4617460E46044690F8AC
:1055A0006A0020280AD10120002E18BF002F06D043
:1055B00094F86800012806D1022000E00220C0B261
:1055C00002B0BDE8F0810020E066012084F86800A8
:1055D000222084F86A00FCF78BFF8046A4F85870FC
:1055E000A4F85A70A06850B1B0F1805F0BD0B0F54C
:1055F000805F0FD1206920B940F2FF1008E02069D8
:1056000028B9FF2004E0206908B13F2000E07F2096
:10561000A4F85C00B4F85C7005E000BF2068406A44
:10562000384006F8010BB4F85A00C8B1B4F85A0073
:105630000138A4F85A000095204620210022434654
:1056400003F08AF898B9A068B0F5805F04BF2069BC
:105650000028E3D12068406A384026F8020BE2E7D0
:10566000002084F86800202184F86A10A7E703204E
:10567000A5E700000000000090F86A30202B0AD156
:105680000123002918BF002A01D1D8B2704790F831
:105690006830012B02D10223D8B270474165012145
:1056A00080F86810A0F85820A0F85A20816851B1FD
:1056B000B1F1805F0BD0B1F5805F0FD1016921B9E5
:1056C00040F2FF1108E0016929B9FF2104E00169F6
:1056D00009B13F2100E07F21A0F85C100023C366E0
:1056E00080F86830222180F86A100068816841F0F3
:1056F00001018160016841F490710160D8B2704786
:10570000006844F20041C4F20001884218BF7047AB
:10571000B0B546F6C404C2F200042078112804BFD4
:10572000607822281FD03220FCF71AFD46F6480088
:10573000C2F2000001688A6942F008028A618A693F
:1057400042F010028A6146F6C401C2F20001402212
:10575000FFF792FF012040F28461C2F2000108705D
:10576000BDE8B040704794F83F5020463F21FBF71A
:105770000BFC8542D7D120463F21FBF705FC84F87E
:1057800040000220E7E700002DE9F04381B0994690
:1057900017460E46044690F8690020280AD10125D4
:1057A000002E18BF002F06D094F86800012806D1FB
:1057B000022500E00225E8B201B0BDE8F083002038
:1057C000E066012084F86800212084F86900FCF775
:1057D0008FFE8046A4F85270A4F8507004E000BF19
:1057E000206816F8011B8162B4F85200D8B1B4F8F1
:1057F00052000138A4F85200CDF8009020468021D4
:105800000022434602F0A8FFC8B9A068B0F5805F47
:1058100004BF20690028E3D1206836F8021B6FF32B
:105820005F218162E0E7CDF800900025204640210D
:105830000022434602F090FF18B10325BBE7032581
:10584000B9E784F86850202084F86900B3E70000C5
:105850007047000000000000FBF766BF000000007A
:105860000068816911F0020F1CBF0021816281690B
:1058700011F0010F02BF816941F0010181617047A0
:10588000F0B581B015460E4604460068806910F0F8
:10589000100F01D100202EE02068816911F0200F47
:1058A0000DD1FEB1771C00BF27B1FCF721FE401BD4
:1058B000B04217D82068816911F0200FF4D0102170
:1058C000C1612021C1612046FFF7CAFF20684168FD
:1058D0004EF60002CFF60062114041600420606481
:1058E000012000E00320202184F84110002184F8E9
:1058F000401084F84210C0B201B0F0BD00000000BA
:105900002DE9F04182B01E46154604464FF4005082
:105910000090DAB22046002300F06AF8DDE908873B
:10592000204641463A4600F0DFF838B1616C03206A
:10593000042908BF012002B0BDE8F081012E09D082
:105940002068290A8162204641463A4600F0CCF898
:105950000028EBD12068E9B28162009720464021FF
:105960000022434600F058F8002818BF032002B078
:10597000BDE8F081000000002DE9F04182B01E4634
:10598000154604464FF400500090DAB220464FF01E
:10599000807300F02DF8DDE90887204641463A463D
:1059A00000F0A2F838B1616C0320042908BF01207F
:1059B00002B0BDE8F081012E09D02068290A816279
:1059C000204641463A4600F08FF80028EBD1206887
:1059D000E9B281620097204680210022434600F010
:1059E0001BF8002818BF032002B0BDE8F0810000BA
:1059F0006FF39F21194341EA0241009A1143006865
:105A0000426849F60003CFF600431A401143416053
:105A100070470000000000002DE9F04381B0994676
:105A200016460F460446006880690840401AB0FADE
:105A300080F04009904219D1B9F1000F18D0DDF87B
:105A4000208009F1010500BF2DB1FCF751FDA0EB4D
:105A5000080048450CD8206880693840C01BB0FA5F
:105A600080F04009B042EFD000200AE0002008E0BA
:105A7000202084F84100002084F8400084F842008F
:105A80000320C0B201B0BDE8F083000000000000B8
:105A900070B515460E460446006800E0206880692F
:105AA00010F0200F1AD1204631462A46FFF7E8FEB3
:105AB000B8B926B1FCF71CFD401BB042EED9606CB2
:105AC00040F020006064202084F84100002084F829
:105AD000400084F842000320C0B270BD0020C0B274
